{"contracts/Solvable.sol":{"Solvable":{"abi":[{"inputs":[{"internalType":"address","name":"_admin","type":"address"}],"stateMutability":"nonpayable","type":"constructor"},{"anonymous":false,"inputs":[{"indexed":true,"internalType":"uint256","name":"gameId","type":"uint256"},{"indexed":true,"internalType":"address","name":"donor","type":"address"},{"indexed":false,"internalType":"uint256","name":"amount","type":"uint256"}],"name":"DonationReceived","type":"event"},{"anonymous":false,"inputs":[{"indexed":true,"internalType":"uint256","name":"requestId","type":"uint256"},{"indexed":false,"internalType":"uint256","name":"gameId","type":"uint256"},{"indexed":false,"internalType":"uint256","name":"amount","type":"uint256"}],"name":"EmergencyWithdrawExecuted","type":"event"},{"anonymous":false,"inputs":[{"indexed":true,"internalType":"uint256","name":"requestId","type":"uint256"},{"indexed":false,"internalType":"uint256","name":"gameId","type":"uint256"},{"indexed":false,"internalType":"uint256","name":"amount","type":"uint256"}],"name":"EmergencyWithdrawRequested","type":"event"},{"anonymous":false,"inputs":[{"indexed":true,"internalType":"uint256","name":"gameId","type":"uint256"},{"indexed":false,"internalType":"uint256","name":"fee","type":"uint256"}],"name":"EntryFeeUpdated","type":"event"},{"anonymous":false,"inputs":[{"indexed":true,"internalType":"uint256","name":"gameId","type":"uint256"}],"name":"GameActivated","type":"event"},{"anonymous":false,"inputs":[{"indexed":true,"internalType":"uint256","name":"gameId","type":"uint256"},{"indexed":true,"internalType":"address","name":"winner","type":"address"}],"name":"GameFinalized","type":"event"},{"anonymous":false,"inputs":[{"indexed":true,"internalType":"uint256","name":"gameId","type":"uint256"}],"name":"GameInvalidated","type":"event"},{"anonymous":false,"inputs":[{"indexed":true,"internalType":"uint256","name":"gameId","type":"uint256"}],"name":"GameReset","type":"event"},{"anonymous":false,"inputs":[{"indexed":false,"internalType":"address","name":"houseAddress","type":"address"}],"name":"HouseAddressUpdated","type":"event"},{"anonymous":false,"inputs":[{"indexed":false,"internalType":"uint256","name":"percentage","type":"uint256"}],"name":"HouseCutUpdated","type":"event"},{"anonymous":false,"inputs":[{"indexed":true,"internalType":"uint256","name":"gameId","type":"uint256"},{"indexed":true,"internalType":"address","name":"solver","type":"address"},{"indexed":false,"internalType":"bool","name":"approved","type":"bool"},{"indexed":false,"internalType":"address","name":"verifier","type":"address"}],"name":"MathSolutionVerified","type":"event"},{"anonymous":false,"inputs":[{"indexed":true,"internalType":"uint256","name":"gameId","type":"uint256"},{"indexed":true,"internalType":"address","name":"submitter","type":"address"},{"indexed":false,"internalType":"uint256","name":"deadline","type":"uint256"}],"name":"OracleVerificationRequested","type":"event"},{"anonymous":false,"inputs":[{"indexed":false,"internalType":"address","name":"account","type":"address"}],"name":"Paused","type":"event"},{"anonymous":false,"inputs":[{"indexed":true,"internalType":"uint256","name":"gameId","type":"uint256"},{"indexed":true,"internalType":"address","name":"proposer","type":"address"},{"indexed":false,"internalType":"string","name":"puzzle","type":"string"},{"indexed":false,"internalType":"bytes32","name":"solutionHash","type":"bytes32"},{"indexed":false,"internalType":"uint256","name":"entryFee","type":"uint256"},{"indexed":false,"internalType":"address","name":"token","type":"address"},{"indexed":false,"internalType":"uint256","name":"voteThreshold","type":"uint256"},{"indexed":false,"internalType":"enum Solvable.PuzzleType","name":"puzzleType","type":"uint8"}],"name":"PuzzleProposed","type":"event"},{"anonymous":false,"inputs":[{"indexed":true,"internalType":"uint256","name":"gameId","type":"uint256"},{"indexed":true,"internalType":"address","name":"solver","type":"address"}],"name":"PuzzleSolved","type":"event"},{"anonymous":false,"inputs":[{"indexed":true,"internalType":"bytes32","name":"role","type":"bytes32"},{"indexed":true,"internalType":"bytes32","name":"previousAdminRole","type":"bytes32"},{"indexed":true,"internalType":"bytes32","name":"newAdminRole","type":"bytes32"}],"name":"RoleAdminChanged","type":"event"},{"anonymous":false,"inputs":[{"indexed":true,"internalType":"bytes32","name":"role","type":"bytes32"},{"indexed":true,"internalType":"address","name":"account","type":"address"},{"indexed":true,"internalType":"address","name":"sender","type":"address"}],"name":"RoleGranted","type":"event"},{"anonymous":false,"inputs":[{"indexed":true,"internalType":"bytes32","name":"role","type":"bytes32"},{"indexed":true,"internalType":"address","name":"account","type":"address"},{"indexed":true,"internalType":"address","name":"sender","type":"address"}],"name":"RoleRevoked","type":"event"},{"anonymous":false,"inputs":[{"indexed":true,"internalType":"uint256","name":"gameId","type":"uint256"},{"indexed":true,"internalType":"address","name":"challenger","type":"address"},{"indexed":false,"internalType":"string","name":"reason","type":"string"}],"name":"SolutionChallenged","type":"event"},{"anonymous":false,"inputs":[{"indexed":true,"internalType":"uint256","name":"gameId","type":"uint256"},{"indexed":true,"internalType":"address","name":"player","type":"address"},{"indexed":false,"internalType":"bool","name":"correct","type":"bool"},{"indexed":false,"internalType":"uint256","name":"potSize","type":"uint256"},{"indexed":false,"internalType":"uint256","name":"houseCut","type":"uint256"}],"name":"SolutionSubmitted","type":"event"},{"anonymous":false,"inputs":[{"indexed":true,"internalType":"uint256","name":"gameId","type":"uint256"},{"indexed":false,"internalType":"bool","name":"requireFee","type":"bool"}],"name":"SubmissionFeeToggled","type":"event"},{"anonymous":false,"inputs":[{"indexed":false,"internalType":"address","name":"account","type":"address"}],"name":"Unpaused","type":"event"},{"anonymous":false,"inputs":[{"indexed":true,"internalType":"uint256","name":"gameId","type":"uint256"}],"name":"VerificationExpired","type":"event"},{"anonymous":false,"inputs":[{"indexed":true,"internalType":"uint256","name":"gameId","type":"uint256"},{"indexed":true,"internalType":"address","name":"voter","type":"address"},{"indexed":false,"internalType":"bool","name":"approve","type":"bool"}],"name":"VoteCast","type":"event"},{"inputs":[],"name":"DEFAULT_ADMIN_ROLE","outputs":[{"internalType":"bytes32","name":"","type":"bytes32"}],"stateMutability":"view","type":"function"},{"inputs":[],"name":"EMERGENCY_ROLE","outputs":[{"internalType":"bytes32","name":"","type":"bytes32"}],"stateMutability":"view","type":"function"},{"inputs":[],"name":"GAME_VERIFIER_ROLE","outputs":[{"internalType":"bytes32","name":"","type":"bytes32"}],"stateMutability":"view","type":"function"},{"inputs":[],"name":"MAX_CHALLENGES_PER_GAME","outputs":[{"internalType":"uint256","name":"","type":"uint256"}],"stateMutability":"view","type":"function"},{"inputs":[],"name":"MAX_VOTES_PER_GAME","outputs":[{"internalType":"uint256","name":"","type":"uint256"}],"stateMutability":"view","type":"function"},{"inputs":[],"name":"ORACLE_VERIFICATION_TIMEOUT","outputs":[{"internalType":"uint256","name":"","type":"uint256"}],"stateMutability":"view","type":"function"},{"inputs":[],"name":"ORACLE_VERIFIER_ROLE","outputs":[{"internalType":"bytes32","name":"","type":"bytes32"}],"stateMutability":"view","type":"function"},{"inputs":[{"internalType":"uint256","name":"gameId","type":"uint256"},{"internalType":"address","name":"_submitter","type":"address"},{"internalType":"bool","name":"_approved","type":"bool"}],"name":"approveMathSolution","outputs":[],"stateMutability":"nonpayable","type":"function"},{"inputs":[{"internalType":"uint256[]","name":"gameIds","type":"uint256[]"},{"internalType":"address[]","name":"submitters","type":"address[]"},{"internalType":"bool[]","name":"approvals","type":"bool[]"}],"name":"batchVerifyMathSolutions","outputs":[],"stateMutability":"nonpayable","type":"function"},{"inputs":[{"internalType":"uint256","name":"gameId","type":"uint256"}],"name":"cancelProposal","outputs":[],"stateMutability":"nonpayable","type":"function"},{"inputs":[],"name":"challengeFee","outputs":[{"internalType":"uint256","name":"","type":"uint256"}],"stateMutability":"view","type":"function"},{"inputs":[{"internalType":"uint256","name":"gameId","type":"uint256"},{"internalType":"string","name":"_reason","type":"string"}],"name":"challengeSolution","outputs":[],"stateMutability":"payable","type":"function"},{"inputs":[],"name":"challengeThreshold","outputs":[{"internalType":"uint256","name":"","type":"uint256"}],"stateMutability":"view","type":"function"},{"inputs":[{"internalType":"uint256","name":"gameId","type":"uint256"},{"internalType":"uint256","name":"amount","type":"uint256"}],"name":"donateToGame","outputs":[],"stateMutability":"payable","type":"function"},{"inputs":[{"internalType":"uint256","name":"","type":"uint256"}],"name":"emergencyWithdrawTimelock","outputs":[{"internalType":"uint256","name":"","type":"uint256"}],"stateMutability":"view","type":"function"},{"inputs":[{"internalType":"uint256","name":"requestId","type":"uint256"},{"internalType":"uint256","name":"gameId","type":"uint256"},{"internalType":"uint256","name":"amount","type":"uint256"}],"name":"executeEmergencyWithdraw","outputs":[],"stateMutability":"nonpayable","type":"function"},{"inputs":[{"internalType":"uint256","name":"gameId","type":"uint256"}],"name":"finalizeGame","outputs":[],"stateMutability":"nonpayable","type":"function"},{"inputs":[{"internalType":"uint256","name":"","type":"uint256"}],"name":"games","outputs":[{"internalType":"string","name":"puzzle","type":"string"},{"internalType":"bytes32","name":"solutionHash","type":"bytes32"},{"internalType":"enum Solvable.GameStatus","name":"status","type":"uint8"},{"internalType":"uint256","name":"pot","type":"uint256"},{"internalType":"uint256","name":"entryFee","type":"uint256"},{"internalType":"address","name":"token","type":"address"},{"internalType":"address","name":"proposer","type":"address"},{"internalType":"address","name":"winner","type":"address"},{"internalType":"uint256","name":"voteThreshold","type":"uint256"},{"internalType":"uint256","name":"challengeThreshold","type":"uint256"},{"internalType":"enum Solvable.PuzzleType","name":"puzzleType","type":"uint8"},{"internalType":"bool","name":"requireSubmissionFee","type":"bool"},{"internalType":"bool","name":"exists","type":"bool"},{"internalType":"address","name":"firstSolver","type":"address"},{"internalType":"string","name":"oracleParams","type":"string"},{"internalType":"uint256","name":"verificationDeadline","type":"uint256"}],"stateMutability":"view","type":"function"},{"inputs":[{"internalType":"uint256","name":"start","type":"uint256"},{"internalType":"uint256","name":"limit","type":"uint256"}],"name":"getActiveGames","outputs":[{"internalType":"uint256[]","name":"","type":"uint256[]"}],"stateMutability":"view","type":"function"},{"inputs":[{"internalType":"uint256","name":"gameId","type":"uint256"}],"name":"getGameDetails","outputs":[{"components":[{"internalType":"string","name":"puzzle","type":"string"},{"internalType":"bytes32","name":"solutionHash","type":"bytes32"},{"internalType":"enum Solvable.GameStatus","name":"status","type":"uint8"},{"internalType":"uint256","name":"pot","type":"uint256"},{"internalType":"uint256","name":"entryFee","type":"uint256"},{"internalType":"address","name":"token","type":"address"},{"internalType":"address","name":"proposer","type":"address"},{"internalType":"address","name":"winner","type":"address"},{"internalType":"uint256","name":"voteThreshold","type":"uint256"},{"internalType":"uint256","name":"challengeThreshold","type":"uint256"},{"internalType":"enum Solvable.PuzzleType","name":"puzzleType","type":"uint8"},{"internalType":"bool","name":"requireSubmissionFee","type":"bool"},{"internalType":"bool","name":"exists","type":"bool"},{"internalType":"address","name":"firstSolver","type":"address"},{"internalType":"string","name":"oracleParams","type":"string"},{"internalType":"uint256","name":"verificationDeadline","type":"uint256"}],"internalType":"struct Solvable.Game","name":"game","type":"tuple"},{"internalType":"uint256","name":"approvals","type":"uint256"},{"internalType":"uint256","name":"disapprovals","type":"uint256"},{"internalType":"uint256","name":"challenges","type":"uint256"}],"stateMutability":"view","type":"function"},{"inputs":[{"internalType":"uint256","name":"gameId","type":"uint256"}],"name":"getPastWinner","outputs":[{"internalType":"address","name":"","type":"address"}],"stateMutability":"view","type":"function"},{"inputs":[{"internalType":"uint256","name":"gameId","type":"uint256"}],"name":"getPotBalance","outputs":[{"internalType":"uint256","name":"","type":"uint256"}],"stateMutability":"view","type":"function"},{"inputs":[{"internalType":"bytes32","name":"role","type":"bytes32"}],"name":"getRoleAdmin","outputs":[{"internalType":"bytes32","name":"","type":"bytes32"}],"stateMutability":"view","type":"function"},{"inputs":[{"internalType":"uint256","name":"gameId","type":"uint256"},{"internalType":"address","name":"submitter","type":"address"}],"name":"getSubmittedSolution","outputs":[{"internalType":"string","name":"","type":"string"}],"stateMutability":"view","type":"function"},{"inputs":[{"internalType":"address","name":"_verifier","type":"address"}],"name":"grantOracleVerifierRole","outputs":[],"stateMutability":"nonpayable","type":"function"},{"inputs":[{"internalType":"bytes32","name":"role","type":"bytes32"},{"internalType":"address","name":"account","type":"address"}],"name":"grantRole","outputs":[],"stateMutability":"nonpayable","type":"function"},{"inputs":[{"internalType":"bytes32","name":"role","type":"bytes32"},{"internalType":"address","name":"account","type":"address"}],"name":"hasRole","outputs":[{"internalType":"bool","name":"","type":"bool"}],"stateMutability":"view","type":"function"},{"inputs":[],"name":"houseAddress","outputs":[{"internalType":"address","name":"","type":"address"}],"stateMutability":"view","type":"function"},{"inputs":[],"name":"houseCutPercentage","outputs":[{"internalType":"uint256","name":"","type":"uint256"}],"stateMutability":"view","type":"function"},{"inputs":[{"internalType":"uint256","name":"gameId","type":"uint256"}],"name":"invalidateGame","outputs":[],"stateMutability":"nonpayable","type":"function"},{"inputs":[],"name":"nextGameId","outputs":[{"internalType":"uint256","name":"","type":"uint256"}],"stateMutability":"view","type":"function"},{"inputs":[{"internalType":"uint256","name":"","type":"uint256"}],"name":"pastWinners","outputs":[{"internalType":"address","name":"","type":"address"}],"stateMutability":"view","type":"function"},{"inputs":[],"name":"pause","outputs":[],"stateMutability":"nonpayable","type":"function"},{"inputs":[],"name":"paused","outputs":[{"internalType":"bool","name":"","type":"bool"}],"stateMutability":"view","type":"function"},{"inputs":[{"internalType":"uint256","name":"gameId","type":"uint256"}],"name":"processExpiredVerifications","outputs":[],"stateMutability":"nonpayable","type":"function"},{"inputs":[{"internalType":"uint256","name":"","type":"uint256"}],"name":"proposalApprovals","outputs":[{"internalType":"uint256","name":"","type":"uint256"}],"stateMutability":"view","type":"function"},{"inputs":[{"internalType":"uint256","name":"","type":"uint256"}],"name":"proposalDisapprovals","outputs":[{"internalType":"uint256","name":"","type":"uint256"}],"stateMutability":"view","type":"function"},{"inputs":[{"internalType":"uint256","name":"","type":"uint256"},{"internalType":"address","name":"","type":"address"}],"name":"proposalVotes","outputs":[{"internalType":"bool","name":"","type":"bool"}],"stateMutability":"view","type":"function"},{"inputs":[{"internalType":"string","name":"_puzzle","type":"string"},{"internalType":"bytes32","name":"_solutionHash","type":"bytes32"},{"internalType":"uint256","name":"_entryFee","type":"uint256"},{"internalType":"address","name":"_token","type":"address"},{"internalType":"uint256","name":"_voteThreshold","type":"uint256"},{"internalType":"enum Solvable.PuzzleType","name":"_puzzleType","type":"uint8"},{"internalType":"string","name":"_oracleParams","type":"string"}],"name":"proposePuzzle","outputs":[{"internalType":"uint256","name":"gameId","type":"uint256"}],"stateMutability":"nonpayable","type":"function"},{"inputs":[{"internalType":"bytes32","name":"role","type":"bytes32"},{"internalType":"address","name":"account","type":"address"}],"name":"renounceRole","outputs":[],"stateMutability":"nonpayable","type":"function"},{"inputs":[{"internalType":"uint256","name":"gameId","type":"uint256"},{"internalType":"uint256","name":"amount","type":"uint256"}],"name":"requestEmergencyWithdraw","outputs":[],"stateMutability":"nonpayable","type":"function"},{"inputs":[{"internalType":"uint256","name":"gameId","type":"uint256"}],"name":"resetGame","outputs":[],"stateMutability":"nonpayable","type":"function"},{"inputs":[{"internalType":"bytes32","name":"role","type":"bytes32"},{"internalType":"address","name":"account","type":"address"}],"name":"revokeRole","outputs":[],"stateMutability":"nonpayable","type":"function"},{"inputs":[{"internalType":"uint256","name":"_fee","type":"uint256"}],"name":"setChallengeFee","outputs":[],"stateMutability":"nonpayable","type":"function"},{"inputs":[{"internalType":"uint256","name":"_threshold","type":"uint256"}],"name":"setChallengeThreshold","outputs":[],"stateMutability":"nonpayable","type":"function"},{"inputs":[{"internalType":"uint256","name":"gameId","type":"uint256"},{"internalType":"uint256","name":"_entryFee","type":"uint256"}],"name":"setEntryFee","outputs":[],"stateMutability":"nonpayable","type":"function"},{"inputs":[{"internalType":"address","name":"_houseAddress","type":"address"}],"name":"setHouseAddress","outputs":[],"stateMutability":"nonpayable","type":"function"},{"inputs":[{"internalType":"uint256","name":"_percentage","type":"uint256"}],"name":"setHouseCutPercentage","outputs":[],"stateMutability":"nonpayable","type":"function"},{"inputs":[{"internalType":"uint256","name":"_threshold","type":"uint256"}],"name":"setVoteThresholdDefault","outputs":[],"stateMutability":"nonpayable","type":"function"},{"inputs":[{"internalType":"uint256","name":"","type":"uint256"},{"internalType":"address","name":"","type":"address"}],"name":"solutionChallenges","outputs":[{"internalType":"bool","name":"","type":"bool"}],"stateMutability":"view","type":"function"},{"inputs":[{"internalType":"uint256","name":"","type":"uint256"}],"name":"solutionChallengesCount","outputs":[{"internalType":"uint256","name":"","type":"uint256"}],"stateMutability":"view","type":"function"},{"inputs":[{"internalType":"uint256","name":"gameId","type":"uint256"},{"internalType":"string","name":"_solution","type":"string"}],"name":"submitSolution","outputs":[],"stateMutability":"payable","type":"function"},{"inputs":[{"internalType":"uint256","name":"","type":"uint256"},{"internalType":"address","name":"","type":"address"}],"name":"submittedSolutions","outputs":[{"internalType":"string","name":"","type":"string"}],"stateMutability":"view","type":"function"},{"inputs":[{"internalType":"bytes4","name":"interfaceId","type":"bytes4"}],"name":"supportsInterface","outputs":[{"internalType":"bool","name":"","type":"bool"}],"stateMutability":"view","type":"function"},{"inputs":[{"internalType":"uint256","name":"gameId","type":"uint256"},{"internalType":"bool","name":"_requireFee","type":"bool"}],"name":"toggleSubmissionFee","outputs":[],"stateMutability":"nonpayable","type":"function"},{"inputs":[],"name":"unpause","outputs":[],"stateMutability":"nonpayable","type":"function"},{"inputs":[{"internalType":"uint256","name":"gameId","type":"uint256"},{"internalType":"bool","name":"approve","type":"bool"}],"name":"voteOnProposal","outputs":[],"stateMutability":"nonpayable","type":"function"},{"inputs":[],"name":"voteThresholdDefault","outputs":[{"internalType":"uint256","name":"","type":"uint256"}],"stateMutability":"view","type":"function"},{"stateMutability":"payable","type":"receive"}],"evm":{"bytecode":{"linkReferences":{},"object":"6080346200026157601f62004e7d38819003918201601f1916830192916001600160401b038411838510176200026657808392604095865283396020928391810103126200026157516001600160a01b038116919082900362000261578160019160009280845560ff1990816002541660025580600c556101f4600e556005600f556003601055662386f26fc10000601155848052808352868520848652835260ff8786205416156200022c575b7fb2eb88090df831c336c2ac91fd704e50d1166ef93798dae04ecdb78950a49171808652818452878620858752845260ff888720541615620001f6575b507fc63907609c1c518c230a90524384edc1a25df2f21481ddb99bef5e2444c35ef0808652818452878620858752845260ff888720541615620001c0575b507fbf233dd2aafeb4d50879c4aa5c81e96d92f6e6945c906a58f9f2d1c1631b4b2692838652818152878620858752815260ff88872054161562000188575b600d80546001600160a01b031916861790558751614be090816200027d8239f35b83865281815287862090858752528685209182541617905560008051602062004e5d833981519152339380a438818180808062000167565b8086528184528786208587528452878620828482541617905584339160008051602062004e5d8339815191528880a43862000128565b8086528184528786208587528452878620828482541617905584339160008051602062004e5d8339815191528880a438620000ea565b8480528083528685208486528352868520818382541617905533848660008051602062004e5d8339815191528180a4620000ad565b600080fd5b634e487b7160e01b600052604160045260246000fdfe608080604052600436101561001d575b50361561001b57600080fd5b005b60003560e01c90816301ffc9a714613ace575080630d93d28a14613aa25780631080636914613764578063117a5b90146136385780631614665c1461345f57806319c1c731146133835780631b31abda146130945780631bd8f9ca146130765780631f2ad4d41461303b5780631fd2f25014612f5257806320df435914612f17578063248a9ca314612ee857806324b4c06314612ebc57806325bd8de814612e9e5780632b64b6bd14612e725780632f2ff15d14612e0d578063334b7f4e14612da457806335bf82f614612d4157806336568abe14612caf5780633cb5b34714612acf5780633f4ba83a14612a3b578063425ae6ec1461275d5780634cf052d51461265e5780635408eec9146125e85780635c975abb146125c557806363a1332c146124f25780636beb83a814611d48578063771197ee14611a595780637ecc811d14611a0a5780638456cb59146119b05780638972c1b4146119945780638e1f6a2c1461194757806391d14854146118fa5780639b3cb9661461186a5780639d927ecd1461182c578063a217fddf14611810578063a6656096146116ac578063b135bbb01461168e578063b2876315146115f9578063bb2239d6146115db578063c35aa54e1461159d578063c9e6fe3e1461157f578063ca1938e514611561578063ce26ad4c14611544578063cf2fdfd914611518578063d2fcf4b3146110f0578063d3b5c01614610b1e578063d547741f14610adf578063d7cee31e14610ab6578063d8201f1514610a69578063e0a8f6f51461095f578063e3c99d081461071f578063e499e79c146106eb578063ea697ac014610697578063ef3aaf54146105ea578063efc513851461058a578063f474e6b81461054a5763f5372e73146102a8573861000f565b6102b136613d5d565b906102ba6141cf565b6102c2614a46565b8060005260036020908082526102e560ff600a6040600020015460101c16613dcf565b8260005280825260ff60026040600020015416600681101561053457600214801561050f575b156104d157831561048c5760008381528183526040902060058101546001600160a01b0316806103d4575084340361039a57907f0b5b4c52969ff7329ecf7ee536409fda87812b15a8622bc6e8cdeab3aee14a26929161037b60008080808a305af1610375613fd3565b50614191565b01610387858254613f30565b90555b6040519384523393a36001600055005b60405162461bcd60e51b815260048101849052601260248201527124b731b7b93932b1ba103237b730ba34b7b760711b6044820152606490fd5b6040516323b872dd60e01b815233600482015230602482015260448101879052939291908390859060649082906000905af1938415610480577f0b5b4c52969ff7329ecf7ee536409fda87812b15a8622bc6e8cdeab3aee14a2694610440916000916104535750614191565b0161044c858254613f30565b905561038a565b6104739150853d8711610479575b61046b8183613b58565b810190613e4f565b38610375565b503d610461565b6040513d6000823e3d90fd5b60405162461bcd60e51b815260048101839052601960248201527f446f6e6174696f6e206d75737420626520706f736974697665000000000000006044820152606490fd5b60405162461bcd60e51b815260048101839052601660248201527511d85b59481b9bdd081858dd1a5d994bdcdbdb1d995960521b6044820152606490fd5b508260005280825260ff6002604060002001541660068110156105345760041461030b565b634e487b7160e01b600052602160045260246000fd5b346105855760003660031901126105855760206040517fb2eb88090df831c336c2ac91fd704e50d1166ef93798dae04ecdb78950a491718152f35b600080fd5b34610585576040366003190112610585576105a3613d73565b600435600052600a60205260406000209060018060a01b03166000526020526105e66105d26040600020613c47565b604051918291602083526020830190613d0f565b0390f35b3461058557602036600319011261058557610603613d89565b61060b614441565b6001600160a01b03168015610660576020817f2dfa8b7ee656a716a96c3dc175cfec18a9c7b22b8850785ca32c4ddfee1635a8926bffffffffffffffffffffffff60a01b600d541617600d55604051908152a1005b60405162461bcd60e51b815260206004820152600f60248201526e496e76616c6964206164647265737360881b6044820152606490fd5b34610585576020366003190112610585576004358060005260036020526106cb60ff600a6040600020015460101c16613dcf565b6000526009602052602060018060a01b0360406000205416604051908152f35b34610585576020366003190112610585576004356000526009602052602060018060a01b0360406000205416604051908152f35b346105855761072d36613d5d565b9081151580610954575b1561091f5761074860009282613f30565b600c54600019810190811161090157808211610917575b5060019260018301809311610901578383805b8481111561088e575061079d6107878461417a565b936107956040519586613b58565b80855261417a565b9360209182850195601f19013687376000905b828111156107f35750505060405192818401908285525180915260408401949160005b8281106107e05785870386f35b83518752958101959281019284016107d3565b8060009795979694965260038652604060002060ff9081600a82015460101c169182610873575b5050610835575b61082a90613e67565b9593959492946107b0565b90835181101561085d5761085581838861082a9460051b88010152613e67565b919050610821565b634e487b7160e01b600052603260045260246000fd5b9091506002809201541660068110156105345714888061081a565b806000959395949294526003602052604060002060ff9081600a82015460101c1691826108e6575b50506108d1575b6108c690613e67565b939193929092610772565b906108de6108c691613e67565b9190506108bd565b909150600280920154166006811015610534571486806108b6565b634e487b7160e01b600052601160045260246000fd5b90508361075f565b60405162461bcd60e51b815260206004820152600d60248201526c125b9d985b1a59081b1a5b5a5d609a1b6044820152606490fd5b506064821115610737565b34610585576020806003193601126105855760043590816000526003815261099460ff600a6040600020015460101c16613dcf565b816000526003815260406000209160028301805460ff8116946006861015610534576109c4600160039714613e76565b600601546001600160a01b031633148015610a4a575b6109e3906140b3565b60ff19169055600052526000600c604082206109fe8161406a565b82600182015582600282015582600382015582600482015582600582015582600682015582600782015582600882015582600982015582600a820155610a46600b820161406a565b0155005b506000808052600185526040808220338352865290205460ff166109da565b3461058557604036600319011261058557610a82613d73565b600435600052600760205260406000209060018060a01b0316600052602052602060ff604060002054166040519015158152f35b3461058557600036600319011261058557600d546040516001600160a01b039091168152602090f35b346105855760403660031901126105855761001b600435610afe613d73565b90806000526001602052610b196001604060002001546146ab565b6147b6565b610b2736613bdb565b90610b306141cf565b610b38614a46565b806000526003602052610b5860ff600a6040600020015460101c16613dcf565b80600052600360205260ff600260406000200154166006811015610534576002036110b957815180151590816110ac575b501561106757806000526003602052604060002091600483015492612710610bb3600e5486614057565b0491610bbf838661482c565b610bcc8460011c8561482c565b9560ff600a85015460081c1660001461100e5760058401546001600160a01b031680611007578134145b15610fcb5780610f25575b505060ff600a84015416600381101561053457600103610f0e575b505b60ff600a830154166003811015610534578015908115610f03575b5015610d6b5790600391604051610c6d60208281610c608183019687815193849201613cec565b8101038084520182613b58565b5190206001820154149485610cc0575b505b01546040519315158452602084015260408301527f074fbe334e9d85c8d025fc8a294588a63d6929a98d8293a5a1aee3d4be1c7eda60603393a36001600055005b600a820154610cdb9060181c6001600160a01b031615614003565b600a820180546301000000600160b81b0319163360181b6301000000600160b81b031617905560028201805460ff1916600417905533857ff7c67880b72ec988961e570ae4e849eb4fd9d5ba0ab550624ac429ef6d41880c600080a360ff600a83015460081c1680610d62575b15610c7d57610d5c908460011c9083614839565b85610c7d565b50831515610d48565b90935082600052600a6020526040600020336000526020526040600020908051906001600160401b038211610eed57610da48354613c0d565b601f8111610eb0575b50602090601f8311600114610e4857610ddf929160009183610e3d575b50508160011b916000199060031b1c19161790565b90555b60028301600360ff1982541617905562015180420192834211610901578084600c6003930155600094604051908152847f8e3359a99f392ee4257eb86a7ab8ee4c8a4c717bc32744354f4877931c28f6e060203393a3610c7f565b015190508780610dca565b90601f198316918460005260206000209260005b818110610e985750908460019594939210610e7f575b505050811b019055610de2565b015160001960f88460031b161c19169055868080610e72565b92936020600181928786015181550195019301610e5c565b610edd90846000526020600020601f850160051c81019160208610610ee3575b601f0160051c0190614040565b86610dad565b9091508190610ed0565b634e487b7160e01b600052604160045260246000fd5b600291501486610c39565b610f1d60038401918254613f30565b905585610c1c565b6040516323b872dd60e01b81523360048201523060248201526044810192909252602090829060649082906000905af190811561048057600091610fac575b5015610f71578680610c01565b60405162461bcd60e51b8152602060048201526013602482015272119959481d1c985b9cd9995c8819985a5b1959606a1b6044820152606490fd5b610fc5915060203d6020116104795761046b8183613b58565b87610f64565b60405162461bcd60e51b8152602060048201526014602482015273496e636f7272656374206e61746976652066656560601b6044820152606490fd5b6001610bf6565b505060058201546001600160a01b03166110605734155b610c1e5760405162461bcd60e51b815260206004820152600f60248201526e139bc8199959481c995c5d5a5c9959608a1b6044820152606490fd5b6001611025565b60405162461bcd60e51b815260206004820152601760248201527f496e76616c696420736f6c7574696f6e206c656e6774680000000000000000006044820152606490fd5b6101f49150111583610b89565b60405162461bcd60e51b815260206004820152600f60248201526e47616d65206e6f742061637469766560881b6044820152606490fd5b34610585576060366003190112610585576001600160401b0360043581811161058557611121903690600401613d9f565b906024358381116105855761113a903690600401613d9f565b92909360443590811161058557611155903690600401613d9f565b919092611160614565565b8482148061150f575b156114d257603282116114945760005b82811061118257005b61118d81848461416a565b359061119a81888a61416a565b356001600160a01b0381168103610585576111b682878961416a565b358015158103610585576111c8614565565b8360005260036020526111e860ff600a6040600020015460101c16613dcf565b836000526003602052604060002091600a8301549460ff861660038110156105345760010361145b5760ff600285015416600681101561053457600361122e9114613f49565b80600052600a602052604060002060018060a01b038316600052602052611259604060002054613c0d565b1561142057600c84015442116113db5760019583611300575b5080600052600a6020526040600020868060a01b03831660005260205261129c604060002061406a565b7f156934b37a6a765531ac9332a9cee7bfe0e5a00742dcd286b811de4751c9bb7c60408051938515158552336020860152888060a01b031693a3156112e3575b5001611179565b600c600091600260ff1981830154161760028201550155886112dc565b61131590878060a01b039060181c1615614003565b600a840180546301000000600160b81b031916601884901b6301000000600160b81b031617905560028401805460ff19166004179055600a84015460081c60ff1661138f575b858060a01b038216817ff7c67880b72ec988961e570ae4e849eb4fd9d5ba0ab550624ac429ef6d41880c600080a38c611272565b6113d660048501546113b16127106113a9600e5484614057565b04809261482c565b6113be828a1c809361482c565b906113ce60038901918254613f30565b905586614839565b61135b565b60405162461bcd60e51b815260206004820152601c60248201527f566572696669636174696f6e20646561646c696e6520706173736564000000006044820152606490fd5b60405162461bcd60e51b8152602060048201526013602482015272139bc81cdd589b5a5cdcda5bdb88199bdd5b99606a1b6044820152606490fd5b60405162461bcd60e51b81526020600482015260116024820152704e6f742061206d6174682070757a7a6c6560781b6044820152606490fd5b60405162461bcd60e51b8152602060048201526016602482015275546f6f206d616e7920766572696669636174696f6e7360501b6044820152606490fd5b60405162461bcd60e51b8152602060048201526015602482015274082e4e4c2f240d8cadccee8d040dad2e6dac2e8c6d605b1b6044820152606490fd5b50828514611169565b346105855760203660031901126105855760043560005260066020526020604060002054604051908152f35b346105855760003660031901126105855760206040516103e88152f35b34610585576000366003190112610585576020600e54604051908152f35b34610585576000366003190112610585576020600f54604051908152f35b34610585576020366003190112610585576004356115b9614441565b801515806115d0575b6115cb9061412a565b600f55005b5060648111156115c2565b34610585576000366003190112610585576020601054604051908152f35b34610585576040366003190112610585576004357faddb6994a0a091eb47d65b97d2111921aaabf03597c28c0400155ee949f0f8076020611638613d4e565b611640614441565b836000526003825261165f60ff600a6040600020015460101c16613dcf565b60008481526003835260409020600a01805461ff00191682151560081b61ff00161790556040519015158152a2005b34610585576000366003190112610585576020600c54604051908152f35b34610585576020806003193601126105855760043580600052600382526116e060ff600a6040600020015460101c16613dcf565b806000526003825260ff6002604060002001541660068110156105345760046117099114613e11565b80600052600382526040600020600883526040600020546009820154116117cb57600791926000805260018152604060002090336000525260ff6040600020541680156117b5575b61175a906140b3565b6002818101805460ff19169091179055600a810180546301000000600160b81b03191690550180546001600160a01b03191690557f3251f5fe5231b3681ff593b97e5a31720697f30eea923fc25da0667755895f41600080a2005b5060068101546001600160a01b03163314611751565b60405162461bcd60e51b815260048101849052601760248201527f496e73756666696369656e74206368616c6c656e6765730000000000000000006044820152606490fd5b3461058557600036600319011261058557602060405160008152f35b3461058557602036600319011261058557600435611848614441565b8015158061185f575b61185a9061412a565b601055005b506014811115611851565b3461058557602036600319011261058557600435611886614441565b61271081116118c0576020817f2a5598de173240d4ae127b442f13979038bbc34af775ad781d1d74626a301d3592600e55604051908152a1005b60405162461bcd60e51b8152602060048201526012602482015271496e76616c69642070657263656e7461676560701b6044820152606490fd5b3461058557604036600319011261058557611913613d73565b600435600052600160205260406000209060018060a01b0316600052602052602060ff604060002054166040519015158152f35b3461058557604036600319011261058557611960613d73565b600435600052600460205260406000209060018060a01b0316600052602052602060ff604060002054166040519015158152f35b3461058557600036600319011261058557602060405160328152f35b34610585576000366003190112610585576119c9614441565b6119d1614a46565b600160ff1960025416176002557f62e78cea01bee320cd4e420270b5ea74000d11b0c9f74754ebdbfc544b05a2586020604051338152a1005b3461058557602036600319011261058557600435806000526003602052611a3e60ff600a6040600020015460101c16613dcf565b60005260036020526020600360406000200154604051908152f35b346105855760208060031936011261058557600435908160005260038152611a8e60ff600a6040600020015460101c16613dcf565b816000526003815260ff600260406000200154166006811015610534576004611ab79114613e11565b81600052600381526040600020906008815260406000205460098301541115611d04577fb2eb88090df831c336c2ac91fd704e50d1166ef93798dae04ecdb78950a4917160005260018152604060002033600052815260ff604060002054168015611cee575b8015611cd2575b611b2d906140b3565b600a8201549160ff8316600381101561053457600114611c71575b60018060a01b03809360181c169160078201926bffffffffffffffffffffffff60a01b90808286541617855560028401600560ff19825416179055866000526009835260406000209182541617905583600560038401936000855495550154168015600014611bfa5750506000808080611bd094878754165af1611bca613fd3565b506140ee565b5416907f072fb76a29123692c5adaffdcb4b4b04ee08c125417b72495933d24adc48693a600080a3005b835460405163a9059cbb60e01b81529086166001600160a01b03166004820152602481019390935290919082908290816000816044810103925af190811561048057611c4f92600092611c54575b50506140ee565b611bd0565b611c6a9250803d106104795761046b8183613b58565b8580611c48565b601883901c6001600160a01b0316611b485760405162461bcd60e51b815260048101839052602160248201527f4d6174682070757a7a6c65206e6f742070726f7065726c7920766572696669656044820152601960fa1b6064820152608490fd5b50600a8201543360189190911c6001600160a01b031614611b24565b5060068201546001600160a01b03163314611b1d565b6064906040519062461bcd60e51b82526004820152601960248201527f4368616c6c656e676573206d656574207468726573686f6c64000000000000006044820152fd5b346105855760e0366003190112610585576004356001600160401b03811161058557611d78903690600401613b94565b6064356001600160a01b038116810361058557600360a43510156105855760c4356001600160401b03811161058557611db5903690600401613b94565b90825180151590816124e5575b50156124a8576044351561246357608435151580612456575b1561241857600060a435158015612409575b156123655750602435156123145781516122bd575b600c5491611e0f83613e67565b600c556084356122b557600f545b6010549160405192611e2e84613b21565b86845260243560208501526001604085015260006060850181905260443560808601526001600160a01b03861660a08601523360c086015260e08501526101008401839052610120840152611e8960a4356101408501613f3d565b6001610160840152600161018084015260006101a08401526101c083015260006101e083015283600052600360205260406000209482518051906001600160401b038211610eed57611edb8854613c0d565b601f8111612283575b50602090601f831160011461221757611f1592916000918361220c5750508160011b916000199060031b1c19161790565b86555b60208301516001870155604083015160068110156105345760028701805460ff9290921660ff1992831617905560608401516003808901919091556080850151600489015560a08501516005890180546001600160a01b03199081166001600160a01b039384161790915560c087015160068b018054831691841691909117905560e087015160078b018054909216921691909117905561010085015160088901556101208501516009890155610140850151600a89019181101561053457815461016087015161ff0019919094161660ff919091161791151560081b61ff00169190911781556120459061018085015181546101a087015162010000600160b81b031990911691151560101b62ff0000169190911760189190911b6301000000600160b81b0316179055565b6101c0830151918251966001600160401b038811610eed57602097879461206f600b840154613c0d565b601f81116121d9575b508990601f831160011461213d57966120d183600c946101e0947f1529ea8f3e7faaf5875beb35f1160f9720ff09b546572a7ff0894af4f416e8389a9b6000926121325750508160011b916000199060031b1c19161790565b600b8501555b01519101556120f16040519260c0845260c0840190613d0f565b6024358389015260443560408401526001600160a01b039095166060830152608082015261212460a0820160a435613d41565b8033940390a3604051908152f35b015190508e80610dca565b600b8498939298016000528a6000209060005b601f19841681106121bf575082600c94927f1529ea8f3e7faaf5875beb35f1160f9720ff09b546572a7ff0894af4f416e838999a6001936101e096601f198116106121a6575b505050811b01600b8501556120d7565b015160001960f88460031b161c191690558d8080612196565b818a01518355988c01988b98506001909201918c01612150565b61220690600b85016000528b600020601f850160051c8101918d8610610ee357601f0160051c0190614040565b8a612078565b015190508980610dca565b9190886000526020600020906000935b601f1984168510612268576001945083601f1981161061224f575b505050811b018655611f18565b015160001960f88460031b161c19169055888080612242565b81810151835560209485019460019093019290910190612227565b6122af90896000526020600020601f850160051c81019160208610610ee357601f0160051c0190614040565b88611ee4565b608435611e1d565b60405162461bcd60e51b815260206004820152602960248201527f526964646c652f4f746865722073686f756c646e27742068617665206f7261636044820152686c6520706172616d7360b81b6064820152608490fd5b60405162461bcd60e51b815260206004820152602360248201527f526964646c652f4f7468657220726571756972657320736f6c7574696f6e20686044820152620c2e6d60eb1b6064820152608490fd5b61053457600160a43503611e02576024356123c5578151611e025760405162461bcd60e51b815260206004820152601b60248201527f4d617468207265717569726573206f7261636c6520706172616d7300000000006044820152606490fd5b606460405162461bcd60e51b815260206004820152602060248201527f4d6174682073686f756c646e27742075736520736f6c7574696f6e20686173686044820152fd5b50506000600260a43514611ded565b60405162461bcd60e51b8152602060048201526016602482015275125b9d985b1a59081d9bdd19481d1a1c995cda1bdb1960521b6044820152606490fd5b5060646084351115611ddb565b60405162461bcd60e51b815260206004820152601a60248201527f456e74727920666565206d75737420626520706f7369746976650000000000006044820152606490fd5b60405162461bcd60e51b8152602060048201526015602482015274092dcecc2d8d2c840e0eaf4f4d8ca40d8cadccee8d605b1b6044820152606490fd5b6103e89150111584611dc2565b346105855760203660031901126105855761250b613d89565b612513614441565b6001600160a01b031660008181527fe161abe49421bdbe04b54ee9f794dbf668947c663b3c53cbadb88cdd90c5027860205260409020547fc63907609c1c518c230a90524384edc1a25df2f21481ddb99bef5e2444c35ef0919060ff161561257757005b8160005260016020526040600020816000526020526040600020600160ff1982541617905533917f2f8788117e7eff1d82e926ec794901d17c78024a50270940304540a733656f0d600080a4005b3461058557600036600319011261058557602060ff600254166040519015158152f35b346105855760207f6a75d918a59da9597a749b7c707f23cfa76552074b43c68a24a21db1c45841f161261936613d5d565b612624939193614441565b836000526003825261264360ff600a6040600020015460101c16613dcf565b836000526003825280600460406000200155604051908152a2005b346105855760203660031901126105855760043561267a614441565b80600052600360205261269a60ff600a6040600020015460101c16613dcf565b80600052600360205260ff600260406000200154166006811015610534576005036127295760008181526003602052604081206002808201805460ff19169091179055600a810180546301000000600160b81b031916905560070180546001600160a01b03191690557fde24ae18b2bda089720ca38332df93ab6195d7b5b3b0981ccae6b33e0a6c3f9b9080a2005b60405162461bcd60e51b815260206004820152600c60248201526b139bdd08185c98da1a5d995960a21b6044820152606490fd5b3461058557606036600319011261058557600435612779613d73565b6044359081159081159384840361058557612792614565565b80600052602094600386526127b460ff600a6040600020015460101c16613dcf565b8160005260038652604060002095600a870196875460ff8116600381101561053457600103612a0257600282019860ff8a541660068110156105345760036127fc9114613f49565b85600052600a845260406000209660018060a01b03908181169889600052865261282a604060002054613c0d565b156129c757600c85019a8b54421161298257917f156934b37a6a765531ac9332a9cee7bfe0e5a00742dcd286b811de4751c9bb7c9795939160409795936128b2575b505050505084600052600a81528260002086600052815261288f8360002061406a565b82519182523390820152a36128a057005b815460ff191660021790915560009055005b6128c66128ec9260ff9560181c1615614003565b82546301000000600160b81b03191660189190911b6301000000600160b81b0316178255565b600482198d5416178c555460081c16612932575b5085857ff7c67880b72ec988961e570ae4e849eb4fd9d5ba0ab550624ac429ef6d41880c600080a3898080808061286c565b80600461297c9201549061295661271061294e600e5485614057565b04809361482c565b906129658360011c809461482c565b9161297560038301918254613f30565b9055614839565b89612900565b60405162461bcd60e51b815260048101889052601c60248201527f566572696669636174696f6e20646561646c696e6520706173736564000000006044820152606490fd5b60405162461bcd60e51b8152600481018790526013602482015272139bc81cdd589b5a5cdcda5bdb88199bdd5b99606a1b6044820152606490fd5b60405162461bcd60e51b81526004810184905260116024820152704e6f742061206d6174682070757a7a6c6560781b6044820152606490fd5b3461058557600036600319011261058557612a54614441565b60025460ff811615612a935760ff19166002557f5db9ee0a495bf2e6ff9c91a7834c1ba4fdd244a5e8aa4e537bd38aeae4b073aa6020604051338152a1005b60405162461bcd60e51b815260206004820152601460248201527314185d5cd8589b194e881b9bdd081c185d5cd95960621b6044820152606490fd5b3461058557606036600319011261058557600435604435602435612af1614225565b8060005260209160038352612b1360ff600a6040600020015460101c16613dcf565b83600052600b83526040600020544210612c73578160005260038352612b43600360406000200154821115613eef565b6000828152600384526040902060058101549093906001600160a01b0390811680612bd757509060037f65c06e47d9e4fc8adbe172ef021cb72fea5990c1f513885e7131185ebbd5a83395612bb060008080808960409b9a99600d54165af1612baa613fd3565b50613f95565b01612bbc83825461482c565b905585600052600b81526000848120558351928352820152a2005b600d5460405163a9059cbb60e01b815292166001600160a01b0316600483015260248201849052909392919081908590816000816044810103925af18015610480577f65c06e47d9e4fc8adbe172ef021cb72fea5990c1f513885e7131185ebbd5a83395612c51600392604097600091612c565750613f95565b612bb0565b612c6d9150853d87116104795761046b8183613b58565b8a612baa565b60405162461bcd60e51b8152600481018490526014602482015273151a5b595b1bd8dac81b9bdd08195e1c1a5c995960621b6044820152606490fd5b3461058557604036600319011261058557612cc8613d73565b336001600160a01b03821603612ce45761001b906004356147b6565b60405162461bcd60e51b815260206004820152602f60248201527f416363657373436f6e74726f6c3a2063616e206f6e6c792072656e6f756e636560448201526e103937b632b9903337b91039b2b63360891b6064820152608490fd5b3461058557602036600319011261058557600435612d5d614441565b8015612d6857601155005b60405162461bcd60e51b8152602060048201526014602482015273466565206d75737420626520706f73697469766560601b6044820152606490fd5b3461058557604036600319011261058557600435612dc0613d73565b90806000526003602052612de160ff600a6040600020015460101c16613dcf565b600052600a60205260406000209060018060a01b03166000526020526105e66105d26040600020613c47565b3461058557604036600319011261058557600435612e29613d73565b816000526001602052612e436001604060002001546146ab565b81600052600160205260406000209060018060a01b0316908160005260205260ff604060002054161561257757005b346105855760203660031901126105855760043560005260086020526020604060002054604051908152f35b34610585576000366003190112610585576020604051620151808152f35b3461058557602036600319011261058557600435600052600b6020526020604060002054604051908152f35b346105855760203660031901126105855760043560005260016020526020600160406000200154604051908152f35b346105855760003660031901126105855760206040517fbf233dd2aafeb4d50879c4aa5c81e96d92f6e6945c906a58f9f2d1c1631b4b268152f35b3461058557602036600319011261058557600435806000526003602052612f8660ff600a6040600020015460101c16613dcf565b80600052600360205260406000206002810180549160ff831690600682101561053457612fb76003600c9314613f49565b01908154421115612ff657600260009360ff1916179055557f0b1ca659796b83b4f0a879a976bbb52e43e87049cfbf35ab5395901d2ecbab92600080a2005b60405162461bcd60e51b815260206004820152601760248201527f446561646c696e65206e6f7420796574207061737365640000000000000000006044820152606490fd5b346105855760003660031901126105855760206040517fc63907609c1c518c230a90524384edc1a25df2f21481ddb99bef5e2444c35ef08152f35b34610585576000366003190112610585576020601154604051908152f35b346105855760203660031901126105855760043560006101e06040516130b981613b21565b606081528260208201528260408201528260608201528260808201528260a08201528260c08201528260e08201528261010082015282610120820152826101408201528261016082015282610180820152826101a082015260606101c0820152015280600052600360205261313b60ff600a6040600020015460101c16613dcf565b60005260036020526040600020600560205260406000205460066020526040600020549160086020526040600020546040519161317783613b21565b61318081613c47565b83526001810154602084015260ff600282015416906006821015610534576040840191909152600381015460608401526004810154608084015260058101546001600160a01b0390811660a08501526006820154811660c085015260078201541660e084015260088101546101008401526009810154610120840152600a810154600c919061321660ff82166101408701613f3d565b600881901c60ff9081161515610160870152601082901c16151561018086015260181c6001600160a01b03166101a0850152613254600b8201613c47565b6101c085015201546101e0830152604051938493608085526101e061336761328a865161020060808a0152610280890190613d0f565b602087015160a08901526132a6604088015160c08a0190613d34565b606087015160e0890152608087015161010089015260018060a01b0360a08801511661012089015260018060a01b0360c08801511661014089015260018060a01b0360e0880151166101608901526101008701516101808901526101208701516101a08901526133206101408801516101c08a0190613d41565b61016087015115158884015261018087015115156102008901526101a08701516001600160a01b03166102208901526101c0870151888203607f19016102408a0152613d0f565b9401516102608601526020850152604084015260608301520390f35b346105855761339136613d5d565b9061339a614225565b8060005260036020526133ba60ff600a6040600020015460101c16613dcf565b8060005260036020526133d7600360406000200154831115613eef565b60405190602082018181524260408401523360601b60608401526054835260808301908382106001600160401b03831117610eed57816040528351902093620151804201804211610901577ffdba3823f568cc62faf441257975029c3242942798f02799332eaee6318adc009460409460a09288600052600b602052866000205584520152a2005b346105855760403660031901126105855760043561347b613d4e565b908060005260206003815261349d60ff600a6040600020015460101c16613dcf565b81600052600381526040600020600281019060ff82541660068110156105345760016134c99114613e76565b8360005260048352604060002033600052835260ff6040600020541661360357600084815260048452604080822033835285529020805460ff199081166001179091557fe71fcdac32df1877c1700e7bda2a03157e20993363a28fc35ac495cefc76e4d493929186156135c85785600052600584526135506103e860406000205410613eb0565b856000526005845260406000206135678154613e67565b9055856000526005845260086040600020549101541115613593575b50505b60405193151584523393a3005b8154166002179055827fb2f76656a4d5058a44d6f5fd1ebed95b7ef72920bbecf069fe3973f82c24351f600080a28480613583565b50505082600052600681526135e56103e860406000205410613eb0565b826000526006815260406000206135fc8154613e67565b9055613586565b60405162461bcd60e51b815260048101849052600d60248201526c105b1c9958591e481d9bdd1959609a1b6044820152606490fd5b34610585576020366003190112610585576004356000526003602052604060002061366281613c47565b6001820154600283015460ff16926003810154916004820154600160a01b6001900390816005850154168260068601541683600787015416600887015491600988015493600a89015495600b8a016136b990613c47565b99600c01549a6040519d8e809e61020080835282016136d791613d0f565b9b60208201526040016136e991613d34565b60608d015260808c015260a08b015260c08a015260e089015261010088015261012087015261371f610140870160ff8316613d41565b8060081c60ff1615156101608701528060101c60ff16151561018087015260181c166101a08501528381036101c085015261375991613d0f565b906101e08301520390f35b61376d36613bdb565b906137766141cf565b806000526020916003835261379860ff600a6040600020015460101c16613dcf565b816000526003835260ff6002604060002001541660068110156105345760046137c19114613e11565b80518015159081613a96575b5015613a59578160005260038352604060002060078452604060002033600052845260ff60406000205416613a1f578260005260088452603260406000205410156139e25760115460058201549091906001600160a01b03168061390957508134036138c457916138ba9161386860037f4a0952902e092af0d23149e043f8dd57e941b922b429dfe81a6b47af7253af039501918254613f30565b90555b836000526007855260406000203360005285526040600020600160ff19825416179055836000526008855260406000206138a58154613e67565b90556040519182918683523396830190613d0f565b0390a36001600055005b60405162461bcd60e51b815260048101869052601760248201527f496e636f7272656374206368616c6c656e6765206665650000000000000000006044820152606490fd5b6040516323b872dd60e01b815233600482015230602482015260448101849052908690829060649082906000905af1908115610480576000916139c5575b501561398957916138ba9161398260037f4a0952902e092af0d23149e043f8dd57e941b922b429dfe81a6b47af7253af039501918254613f30565b905561386b565b60405162461bcd60e51b815260048101869052601460248201527310da185b1b195b99d9481999594819985a5b195960621b6044820152606490fd5b6139dc9150863d88116104795761046b8183613b58565b86613947565b60405162461bcd60e51b815260048101859052601560248201527410da185b1b195b99d94818d85c081c995858da1959605a1b6044820152606490fd5b60405162461bcd60e51b8152600481018590526012602482015271105b1c9958591e4818da185b1b195b99d95960721b6044820152606490fd5b60405162461bcd60e51b8152600481018490526015602482015274092dcecc2d8d2c840e4cac2e6dedc40d8cadccee8d605b1b6044820152606490fd5b60c891501115846137cd565b346105855760203660031901126105855760043560005260056020526020604060002054604051908152f35b34610585576020366003190112610585576004359063ffffffff60e01b821680920361058557602091637965db0b60e01b8114908115613b10575b5015158152f35b6301ffc9a760e01b14905083613b09565b61020081019081106001600160401b03821117610eed57604052565b608081019081106001600160401b03821117610eed57604052565b90601f801991011681019081106001600160401b03821117610eed57604052565b6001600160401b038111610eed57601f01601f191660200190565b81601f8201121561058557803590613bab82613b79565b92613bb96040519485613b58565b8284526020838301011161058557816000926020809301838601378301015290565b9060406003198301126105855760043591602435906001600160401b03821161058557613c0a91600401613b94565b90565b90600182811c92168015613c3d575b6020831014613c2757565b634e487b7160e01b600052602260045260246000fd5b91607f1691613c1c565b90604051918260008254613c5a81613c0d565b90818452602094600191600181169081600014613cca5750600114613c8b575b505050613c8992500383613b58565b565b600090815285812095935091905b818310613cb2575050613c899350820101388080613c7a565b85548884018501529485019487945091830191613c99565b92505050613c8994925060ff191682840152151560051b820101388080613c7a565b60005b838110613cff5750506000910152565b8181015183820152602001613cef565b90602091613d2881518092818552858086019101613cec565b601f01601f1916010190565b9060068210156105345752565b9060038210156105345752565b60243590811515820361058557565b6040906003190112610585576004359060243590565b602435906001600160a01b038216820361058557565b600435906001600160a01b038216820361058557565b9181601f84011215610585578235916001600160401b038311610585576020808501948460051b01011161058557565b15613dd657565b60405162461bcd60e51b815260206004820152601360248201527211d85b5948191bd95cc81b9bdd08195e1a5cdd606a1b6044820152606490fd5b15613e1857565b60405162461bcd60e51b815260206004820152600f60248201526e11d85b59481b9bdd081cdbdb1d9959608a1b6044820152606490fd5b90816020910312610585575180151581036105855790565b60001981146109015760010190565b15613e7d57565b60405162461bcd60e51b815260206004820152600b60248201526a4e6f742070656e64696e6760a81b6044820152606490fd5b15613eb757565b60405162461bcd60e51b815260206004820152601060248201526f159bdd194818d85c081c995858da195960821b6044820152606490fd5b15613ef657565b60405162461bcd60e51b8152602060048201526012602482015271105b5bdd5b9d08195e18d959591cc81c1bdd60721b6044820152606490fd5b9190820180921161090157565b60038210156105345752565b15613f5057565b60405162461bcd60e51b815260206004820152601960248201527f4e6f74206177616974696e6720766572696669636174696f6e000000000000006044820152606490fd5b15613f9c57565b60405162461bcd60e51b815260206004820152600f60248201526e15da5d1a191c985dc819985a5b1959608a1b6044820152606490fd5b3d15613ffe573d90613fe482613b79565b91613ff26040519384613b58565b82523d6000602084013e565b606090565b1561400a57565b60405162461bcd60e51b815260206004820152600e60248201526d105b1c9958591e481cdbdb1d995960921b6044820152606490fd5b81811061404b575050565b60008155600101614040565b8181029291811591840414171561090157565b6140748154613c0d565b908161407e575050565b81601f60009311600114614090575055565b9080839182526140af601f60208420940160051c840160018501614040565b5555565b156140ba57565b60405162461bcd60e51b815260206004820152600c60248201526b155b985d5d1a1bdc9a5e995960a21b6044820152606490fd5b156140f557565b60405162461bcd60e51b815260206004820152600d60248201526c14185e5bdd5d0819985a5b1959609a1b6044820152606490fd5b1561413157565b60405162461bcd60e51b8152602060048201526011602482015270125b9d985b1a59081d1a1c995cda1bdb19607a1b6044820152606490fd5b919081101561085d5760051b0190565b6001600160401b038111610eed5760051b60200190565b1561419857565b60405162461bcd60e51b815260206004820152600f60248201526e111bdb985d1a5bdb8819985a5b1959608a1b6044820152606490fd5b6002600054146141e0576002600055565b60405162461bcd60e51b815260206004820152601f60248201527f5265656e7472616e637947756172643a207265656e7472616e742063616c6c006044820152606490fd5b3360009081527f1614b4e5e0f135c54873c4dcd295a7b40f93a8d877405affc188cfd7b4f40ed2602090815260408083205490927fbf233dd2aafeb4d50879c4aa5c81e96d92f6e6945c906a58f9f2d1c1631b4b269160019060ff161561428d575050505050565b61429633614a9b565b928551916142a383613b3d565b6042835285830193606036863783511561442d576030855383516001101561442d5790607860218501536041915b8183116143bf5750505061437d57604861437993869361435d9361434e985198899376020b1b1b2b9b9a1b7b73a3937b61d1030b1b1b7bab73a1604d1b8a860152614325815180928c603789019101613cec565b8401917001034b99036b4b9b9b4b733903937b6329607d1b603784015251809386840190613cec565b01036028810187520185613b58565b5192839262461bcd60e51b845260048401526024830190613d0f565b0390fd5b60648486519062461bcd60e51b825280600483015260248201527f537472696e67733a20686578206c656e67746820696e73756666696369656e746044820152fd5b909192600f81166010811015614419576f181899199a1a9b1b9c1cb0b131b232b360811b901a6143ef8587614a8a565b5360041c928015614405576000190191906142d1565b634e487b7160e01b82526011600452602482fd5b634e487b7160e01b83526032600452602483fd5b634e487b7160e01b81526032600452602490fd5b3360009081527fa6eef7e35abe7026729641147f7915573c7e97b47efa546f5f6e3230263bcb496020908152604080832054909260019160ff16156144865750505050565b61448f33614a9b565b918185519161449d83613b3d565b6042835285830193606036863783511561442d576030855383516001101561442d5790607860218501536041915b81831161451f5750505061437d57604861437993869361435d9361434e985198899376020b1b1b2b9b9a1b7b73a3937b61d1030b1b1b7bab73a1604d1b8a860152614325815180928c603789019101613cec565b909192600f81166010811015614419576f181899199a1a9b1b9c1cb0b131b232b360811b901a61454f8587614a8a565b5360041c928015614405576000190191906144cb565b3360009081527fe161abe49421bdbe04b54ee9f794dbf668947c663b3c53cbadb88cdd90c50278602090815260408083205490927fc63907609c1c518c230a90524384edc1a25df2f21481ddb99bef5e2444c35ef09160019060ff16156145cd575050505050565b6145d633614a9b565b928551916145e383613b3d565b6042835285830193606036863783511561442d576030855383516001101561442d5790607860218501536041915b8183116146655750505061437d57604861437993869361435d9361434e985198899376020b1b1b2b9b9a1b7b73a3937b61d1030b1b1b7bab73a1604d1b8a860152614325815180928c603789019101613cec565b909192600f81166010811015614419576f181899199a1a9b1b9c1cb0b131b232b360811b901a6146958587614a8a565b5360041c92801561440557600019019190614611565b600081815260019160209160018352604093848220338352845260ff8583205416156146d8575050505050565b6146e133614a9b565b928551916146ee83613b3d565b6042835285830193606036863783511561442d576030855383516001101561442d5790607860218501536041915b8183116147705750505061437d57604861437993869361435d9361434e985198899376020b1b1b2b9b9a1b7b73a3937b61d1030b1b1b7bab73a1604d1b8a860152614325815180928c603789019101613cec565b909192600f81166010811015614419576f181899199a1a9b1b9c1cb0b131b232b360811b901a6147a08587614a8a565b5360041c9280156144055760001901919061471c565b906000918083526001602052604083209160018060a01b03169182845260205260ff6040842054166147e757505050565b8083526001602052604083208284526020526040832060ff1981541690557ff6391f5c32d9c69d2a47ea670b442974b53935d1edc7fd64eb21e047a839171b339380a4565b9190820391821161090157565b6005810180549193926001600160a01b03929091908316806148db57505060069060009383859493858080808098978198600d54165af197614879613fd3565b500154165af1614887613fd3565b50816148d3575b501561489657565b60405162461bcd60e51b815260206004820152601560248201527414da185c99481d1c985b9cd9995c8819985a5b1959605a1b6044820152606490fd5b90503861488e565b600d546040805163a9059cbb60e01b8082529287166001600160a01b0316600482015260248101959095526020979096929592949093919291908881806044810103816000809b5af1908115614a3c578791614a1f575b50156149e6575460069390930154865192835281166001600160a01b031660048301526024820193909352918591839160449183918791165af19182156149db57916149be575b5015614983575050565b60649250519062461bcd60e51b825260048201526015602482015274141c9bdc1bdcd95c881cda185c994819985a5b1959605a1b6044820152fd5b6149d59150833d85116104795761046b8183613b58565b38614979565b8351903d90823e3d90fd5b865162461bcd60e51b8152600481018990526012602482015271121bdd5cd9481cda185c994819985a5b195960721b6044820152606490fd5b614a369150893d8b116104795761046b8183613b58565b38614932565b88513d89823e3d90fd5b60ff60025416614a5257565b60405162461bcd60e51b815260206004820152601060248201526f14185d5cd8589b194e881c185d5cd95960821b6044820152606490fd5b90815181101561085d570160200190565b60405190606082018281106001600160401b03821117610eed57604052602a825260208201604036823782511561085d576030905381516001906001101561085d57607860218401536029905b808211614b3c575050614af85790565b606460405162461bcd60e51b815260206004820152602060248201527f537472696e67733a20686578206c656e67746820696e73756666696369656e746044820152fd5b9091600f81166010811015614b95576f181899199a1a9b1b9c1cb0b131b232b360811b901a614b6b8486614a8a565b5360041c918015614b80576000190190614ae8565b60246000634e487b7160e01b81526011600452fd5b60246000634e487b7160e01b81526032600452fdfea2646970667358221220cdc966a4c5cfc79fb2d4840db6e7a8bce12ab558c0bebbfdd7aed1d1e7620c3864736f6c634300081800332f8788117e7eff1d82e926ec794901d17c78024a50270940304540a733656f0d","opcodes":"PUSH1 0x80 CALLVALUE PUSH3 0x261 JUMPI PUSH1 0x1F PUSH3 0x4E7D CODESIZE DUP2 SWAP1 SUB SWAP2 DUP3 ADD PUSH1 0x1F NOT AND DUP4 ADD SWAP3 SWAP2 PUSH1 0x1 PUSH1 0x1 PUSH1 0x40 SHL SUB DUP5 GT DUP4 DUP6 LT OR PUSH3 0x266 JUMPI DUP1 DUP4 SWAP3 PUSH1 0x40 SWAP6 DUP7 MSTORE DUP4 CODECOPY PUSH1 0x20 SWAP3 DUP4 SWAP2 DUP2 ADD SUB SLT PUSH3 0x261 JUMPI MLOAD PUSH1 0x1 PUSH1 0x1 PUSH1 0xA0 SHL SUB DUP2 AND SWAP2 SWAP1 DUP3 SWAP1 SUB PUSH3 0x261 JUMPI DUP2 PUSH1 0x1 SWAP2 PUSH1 0x0 SWAP3 DUP1 DUP5 SSTORE PUSH1 0xFF NOT SWAP1 DUP2 PUSH1 0x2 SLOAD AND PUSH1 0x2 SSTORE DUP1 PUSH1 0xC SSTORE PUSH2 0x1F4 PUSH1 0xE SSTORE PUSH1 0x5 PUSH1 0xF SSTORE PUSH1 0x3 PUSH1 0x10 SSTORE PUSH7 0x2386F26FC10000 PUSH1 0x11 SSTORE DUP5 DUP1 MSTORE DUP1 DUP4 MSTORE DUP7 DUP6 KECCAK256 DUP5 DUP7 MSTORE DUP4 MSTORE PUSH1 0xFF DUP8 DUP7 KECCAK256 SLOAD AND ISZERO PUSH3 0x22C JUMPI JUMPDEST PUSH32 0xB2EB88090DF831C336C2AC91FD704E50D1166EF93798DAE04ECDB78950A49171 DUP1 DUP7 MSTORE DUP2 DUP5 MSTORE DUP8 DUP7 KECCAK256 DUP6 DUP8 MSTORE DUP5 MSTORE PUSH1 0xFF DUP9 DUP8 KECCAK256 SLOAD AND ISZERO PUSH3 0x1F6 JUMPI JUMPDEST POP PUSH32 0xC63907609C1C518C230A90524384EDC1A25DF2F21481DDB99BEF5E2444C35EF0 DUP1 DUP7 MSTORE DUP2 DUP5 MSTORE DUP8 DUP7 KECCAK256 DUP6 DUP8 MSTORE DUP5 MSTORE PUSH1 0xFF DUP9 DUP8 KECCAK256 SLOAD AND ISZERO PUSH3 0x1C0 JUMPI JUMPDEST POP PUSH32 0xBF233DD2AAFEB4D50879C4AA5C81E96D92F6E6945C906A58F9F2D1C1631B4B26 SWAP3 DUP4 DUP7 MSTORE DUP2 DUP2 MSTORE DUP8 DUP7 KECCAK256 DUP6 DUP8 MSTORE DUP2 MSTORE PUSH1 0xFF DUP9 DUP8 KECCAK256 SLOAD AND ISZERO PUSH3 0x188 JUMPI JUMPDEST PUSH1 0xD DUP1 SLOAD PUSH1 0x1 PUSH1 0x1 PUSH1 0xA0 SHL SUB NOT AND DUP7 OR SWAP1 SSTORE DUP8 MLOAD PUSH2 0x4BE0 SWAP1 DUP2 PUSH3 0x27D DUP3 CODECOPY RETURN JUMPDEST DUP4 DUP7 MSTORE DUP2 DUP2 MSTORE DUP8 DUP7 KECCAK256 SWAP1 DUP6 DUP8 MSTORE MSTORE DUP7 DUP6 KECCAK256 SWAP2 DUP3 SLOAD AND OR SWAP1 SSTORE PUSH1 0x0 DUP1 MLOAD PUSH1 0x20 PUSH3 0x4E5D DUP4 CODECOPY DUP2 MLOAD SWAP2 MSTORE CALLER SWAP4 DUP1 LOG4 CODESIZE DUP2 DUP2 DUP1 DUP1 DUP1 PUSH3 0x167 JUMP JUMPDEST DUP1 DUP7 MSTORE DUP2 DUP5 MSTORE DUP8 DUP7 KECCAK256 DUP6 DUP8 MSTORE DUP5 MSTORE DUP8 DUP7 KECCAK256 DUP3 DUP5 DUP3 SLOAD AND OR SWAP1 SSTORE DUP5 CALLER SWAP2 PUSH1 0x0 DUP1 MLOAD PUSH1 0x20 PUSH3 0x4E5D DUP4 CODECOPY DUP2 MLOAD SWAP2 MSTORE DUP9 DUP1 LOG4 CODESIZE PUSH3 0x128 JUMP JUMPDEST DUP1 DUP7 MSTORE DUP2 DUP5 MSTORE DUP8 DUP7 KECCAK256 DUP6 DUP8 MSTORE DUP5 MSTORE DUP8 DUP7 KECCAK256 DUP3 DUP5 DUP3 SLOAD AND OR SWAP1 SSTORE DUP5 CALLER SWAP2 PUSH1 0x0 DUP1 MLOAD PUSH1 0x20 PUSH3 0x4E5D DUP4 CODECOPY DUP2 MLOAD SWAP2 MSTORE DUP9 DUP1 LOG4 CODESIZE PUSH3 0xEA JUMP JUMPDEST DUP5 DUP1 MSTORE DUP1 DUP4 MSTORE DUP7 DUP6 KECCAK256 DUP5 DUP7 MSTORE DUP4 MSTORE DUP7 DUP6 KECCAK256 DUP2 DUP4 DUP3 SLOAD AND OR SWAP1 SSTORE CALLER DUP5 DUP7 PUSH1 0x0 DUP1 MLOAD PUSH1 0x20 PUSH3 0x4E5D DUP4 CODECOPY DUP2 MLOAD SWAP2 MSTORE DUP2 DUP1 LOG4 PUSH3 0xAD JUMP JUMPDEST PUSH1 0x0 DUP1 REVERT JUMPDEST PUSH4 0x4E487B71 PUSH1 0xE0 SHL PUSH1 0x0 MSTORE PUSH1 0x41 PUSH1 0x4 MSTORE PUSH1 0x24 PUSH1 0x0 REVERT INVALID PUSH1 0x80 DUP1 PUSH1 0x40 MSTORE PUSH1 0x4 CALLDATASIZE LT ISZERO PUSH2 0x1D JUMPI JUMPDEST POP CALLDATASIZE ISZERO PUSH2 0x1B JUMPI PUSH1 0x0 DUP1 REVERT JUMPDEST STOP JUMPDEST PUSH1 0x0 CALLDATALOAD PUSH1 0xE0 SHR SWAP1 DUP2 PUSH4 0x1FFC9A7 EQ PUSH2 0x3ACE JUMPI POP DUP1 PUSH4 0xD93D28A EQ PUSH2 0x3AA2 JUMPI DUP1 PUSH4 0x10806369 EQ PUSH2 0x3764 JUMPI DUP1 PUSH4 0x117A5B90 EQ PUSH2 0x3638 JUMPI DUP1 PUSH4 0x1614665C EQ PUSH2 0x345F JUMPI DUP1 PUSH4 0x19C1C731 EQ PUSH2 0x3383 JUMPI DUP1 PUSH4 0x1B31ABDA EQ PUSH2 0x3094 JUMPI DUP1 PUSH4 0x1BD8F9CA EQ PUSH2 0x3076 JUMPI DUP1 PUSH4 0x1F2AD4D4 EQ PUSH2 0x303B JUMPI DUP1 PUSH4 0x1FD2F250 EQ PUSH2 0x2F52 JUMPI DUP1 PUSH4 0x20DF4359 EQ PUSH2 0x2F17 JUMPI DUP1 PUSH4 0x248A9CA3 EQ PUSH2 0x2EE8 JUMPI DUP1 PUSH4 0x24B4C063 EQ PUSH2 0x2EBC JUMPI DUP1 PUSH4 0x25BD8DE8 EQ PUSH2 0x2E9E JUMPI DUP1 PUSH4 0x2B64B6BD EQ PUSH2 0x2E72 JUMPI DUP1 PUSH4 0x2F2FF15D EQ PUSH2 0x2E0D JUMPI DUP1 PUSH4 0x334B7F4E EQ PUSH2 0x2DA4 JUMPI DUP1 PUSH4 0x35BF82F6 EQ PUSH2 0x2D41 JUMPI DUP1 PUSH4 0x36568ABE EQ PUSH2 0x2CAF JUMPI DUP1 PUSH4 0x3CB5B347 EQ PUSH2 0x2ACF JUMPI DUP1 PUSH4 0x3F4BA83A EQ PUSH2 0x2A3B JUMPI DUP1 PUSH4 0x425AE6EC EQ PUSH2 0x275D JUMPI DUP1 PUSH4 0x4CF052D5 EQ PUSH2 0x265E JUMPI DUP1 PUSH4 0x5408EEC9 EQ PUSH2 0x25E8 JUMPI DUP1 PUSH4 0x5C975ABB EQ PUSH2 0x25C5 JUMPI DUP1 PUSH4 0x63A1332C EQ PUSH2 0x24F2 JUMPI DUP1 PUSH4 0x6BEB83A8 EQ PUSH2 0x1D48 JUMPI DUP1 PUSH4 0x771197EE EQ PUSH2 0x1A59 JUMPI DUP1 PUSH4 0x7ECC811D EQ PUSH2 0x1A0A JUMPI DUP1 PUSH4 0x8456CB59 EQ PUSH2 0x19B0 JUMPI DUP1 PUSH4 0x8972C1B4 EQ PUSH2 0x1994 JUMPI DUP1 PUSH4 0x8E1F6A2C EQ PUSH2 0x1947 JUMPI DUP1 PUSH4 0x91D14854 EQ PUSH2 0x18FA JUMPI DUP1 PUSH4 0x9B3CB966 EQ PUSH2 0x186A JUMPI DUP1 PUSH4 0x9D927ECD EQ PUSH2 0x182C JUMPI DUP1 PUSH4 0xA217FDDF EQ PUSH2 0x1810 JUMPI DUP1 PUSH4 0xA6656096 EQ PUSH2 0x16AC JUMPI DUP1 PUSH4 0xB135BBB0 EQ PUSH2 0x168E JUMPI DUP1 PUSH4 0xB2876315 EQ PUSH2 0x15F9 JUMPI DUP1 PUSH4 0xBB2239D6 EQ PUSH2 0x15DB JUMPI DUP1 PUSH4 0xC35AA54E EQ PUSH2 0x159D JUMPI DUP1 PUSH4 0xC9E6FE3E EQ PUSH2 0x157F JUMPI DUP1 PUSH4 0xCA1938E5 EQ PUSH2 0x1561 JUMPI DUP1 PUSH4 0xCE26AD4C EQ PUSH2 0x1544 JUMPI DUP1 PUSH4 0xCF2FDFD9 EQ PUSH2 0x1518 JUMPI DUP1 PUSH4 0xD2FCF4B3 EQ PUSH2 0x10F0 JUMPI DUP1 PUSH4 0xD3B5C016 EQ PUSH2 0xB1E JUMPI DUP1 PUSH4 0xD547741F EQ PUSH2 0xADF JUMPI DUP1 PUSH4 0xD7CEE31E EQ PUSH2 0xAB6 JUMPI DUP1 PUSH4 0xD8201F15 EQ PUSH2 0xA69 JUMPI DUP1 PUSH4 0xE0A8F6F5 EQ PUSH2 0x95F JUMPI DUP1 PUSH4 0xE3C99D08 EQ PUSH2 0x71F JUMPI DUP1 PUSH4 0xE499E79C EQ PUSH2 0x6EB JUMPI DUP1 PUSH4 0xEA697AC0 EQ PUSH2 0x697 JUMPI DUP1 PUSH4 0xEF3AAF54 EQ PUSH2 0x5EA JUMPI DUP1 PUSH4 0xEFC51385 EQ PUSH2 0x58A JUMPI DUP1 PUSH4 0xF474E6B8 EQ PUSH2 0x54A JUMPI PUSH4 0xF5372E73 EQ PUSH2 0x2A8 JUMPI CODESIZE PUSH2 0xF JUMP JUMPDEST PUSH2 0x2B1 CALLDATASIZE PUSH2 0x3D5D JUMP JUMPDEST SWAP1 PUSH2 0x2BA PUSH2 0x41CF JUMP JUMPDEST PUSH2 0x2C2 PUSH2 0x4A46 JUMP JUMPDEST DUP1 PUSH1 0x0 MSTORE PUSH1 0x3 PUSH1 0x20 SWAP1 DUP1 DUP3 MSTORE PUSH2 0x2E5 PUSH1 0xFF PUSH1 0xA PUSH1 0x40 PUSH1 0x0 KECCAK256 ADD SLOAD PUSH1 0x10 SHR AND PUSH2 0x3DCF JUMP JUMPDEST DUP3 PUSH1 0x0 MSTORE DUP1 DUP3 MSTORE PUSH1 0xFF PUSH1 0x2 PUSH1 0x40 PUSH1 0x0 KECCAK256 ADD SLOAD AND PUSH1 0x6 DUP2 LT ISZERO PUSH2 0x534 JUMPI PUSH1 0x2 EQ DUP1 ISZERO PUSH2 0x50F JUMPI JUMPDEST ISZERO PUSH2 0x4D1 JUMPI DUP4 ISZERO PUSH2 0x48C JUMPI PUSH1 0x0 DUP4 DUP2 MSTORE DUP2 DUP4 MSTORE PUSH1 0x40 SWAP1 KECCAK256 PUSH1 0x5 DUP2 ADD SLOAD PUSH1 0x1 PUSH1 0x1 PUSH1 0xA0 SHL SUB AND DUP1 PUSH2 0x3D4 JUMPI POP DUP5 CALLVALUE SUB PUSH2 0x39A JUMPI SWAP1 PUSH32 0xB5B4C52969FF7329ECF7EE536409FDA87812B15A8622BC6E8CDEAB3AEE14A26 SWAP3 SWAP2 PUSH2 0x37B PUSH1 0x0 DUP1 DUP1 DUP1 DUP11 ADDRESS GAS CALL PUSH2 0x375 PUSH2 0x3FD3 JUMP JUMPDEST POP PUSH2 0x4191 JUMP JUMPDEST ADD PUSH2 0x387 DUP6 DUP3 SLOAD PUSH2 0x3F30 JUMP JUMPDEST SWAP1 SSTORE JUMPDEST PUSH1 0x40 MLOAD SWAP4 DUP5 MSTORE CALLER SWAP4 LOG3 PUSH1 0x1 PUSH1 0x0 SSTORE STOP JUMPDEST PUSH1 0x40 MLOAD PUSH3 0x461BCD PUSH1 0xE5 SHL DUP2 MSTORE PUSH1 0x4 DUP2 ADD DUP5 SWAP1 MSTORE PUSH1 0x12 PUSH1 0x24 DUP3 ADD MSTORE PUSH18 0x24B731B7B93932B1BA103237B730BA34B7B7 PUSH1 0x71 SHL PUSH1 0x44 DUP3 ADD MSTORE PUSH1 0x64 SWAP1 REVERT JUMPDEST PUSH1 0x40 MLOAD PUSH4 0x23B872DD PUSH1 0xE0 SHL DUP2 MSTORE CALLER PUSH1 0x4 DUP3 ADD MSTORE ADDRESS PUSH1 0x24 DUP3 ADD MSTORE PUSH1 0x44 DUP2 ADD DUP8 SWAP1 MSTORE SWAP4 SWAP3 SWAP2 SWAP1 DUP4 SWAP1 DUP6 SWAP1 PUSH1 0x64 SWAP1 DUP3 SWAP1 PUSH1 0x0 SWAP1 GAS CALL SWAP4 DUP5 ISZERO PUSH2 0x480 JUMPI PUSH32 0xB5B4C52969FF7329ECF7EE536409FDA87812B15A8622BC6E8CDEAB3AEE14A26 SWAP5 PUSH2 0x440 SWAP2 PUSH1 0x0 SWAP2 PUSH2 0x453 JUMPI POP PUSH2 0x4191 JUMP JUMPDEST ADD PUSH2 0x44C DUP6 DUP3 SLOAD PUSH2 0x3F30 JUMP JUMPDEST SWAP1 SSTORE PUSH2 0x38A JUMP JUMPDEST PUSH2 0x473 SWAP2 POP DUP6 RETURNDATASIZE DUP8 GT PUSH2 0x479 JUMPI JUMPDEST PUSH2 0x46B DUP2 DUP4 PUSH2 0x3B58 JUMP JUMPDEST DUP2 ADD SWAP1 PUSH2 0x3E4F JUMP JUMPDEST CODESIZE PUSH2 0x375 JUMP JUMPDEST POP RETURNDATASIZE PUSH2 0x461 JUMP JUMPDEST PUSH1 0x40 MLOAD RETURNDATASIZE PUSH1 0x0 DUP3 RETURNDATACOPY RETURNDATASIZE SWAP1 REVERT JUMPDEST PUSH1 0x40 MLOAD PUSH3 0x461BCD PUSH1 0xE5 SHL DUP2 MSTORE PUSH1 0x4 DUP2 ADD DUP4 SWAP1 MSTORE PUSH1 0x19 PUSH1 0x24 DUP3 ADD MSTORE PUSH32 0x446F6E6174696F6E206D75737420626520706F73697469766500000000000000 PUSH1 0x44 DUP3 ADD MSTORE PUSH1 0x64 SWAP1 REVERT JUMPDEST PUSH1 0x40 MLOAD PUSH3 0x461BCD PUSH1 0xE5 SHL DUP2 MSTORE PUSH1 0x4 DUP2 ADD DUP4 SWAP1 MSTORE PUSH1 0x16 PUSH1 0x24 DUP3 ADD MSTORE PUSH22 0x11D85B59481B9BDD081858DD1A5D994BDCDBDB1D9959 PUSH1 0x52 SHL PUSH1 0x44 DUP3 ADD MSTORE PUSH1 0x64 SWAP1 REVERT JUMPDEST POP DUP3 PUSH1 0x0 MSTORE DUP1 DUP3 MSTORE PUSH1 0xFF PUSH1 0x2 PUSH1 0x40 PUSH1 0x0 KECCAK256 ADD SLOAD AND PUSH1 0x6 DUP2 LT ISZERO PUSH2 0x534 JUMPI PUSH1 0x4 EQ PUSH2 0x30B JUMP JUMPDEST PUSH4 0x4E487B71 PUSH1 0xE0 SHL PUSH1 0x0 MSTORE PUSH1 0x21 PUSH1 0x4 MSTORE PUSH1 0x24 PUSH1 0x0 REVERT JUMPDEST CALLVALUE PUSH2 0x585 JUMPI PUSH1 0x0 CALLDATASIZE PUSH1 0x3 NOT ADD SLT PUSH2 0x585 JUMPI PUSH1 0x20 PUSH1 0x40 MLOAD PUSH32 0xB2EB88090DF831C336C2AC91FD704E50D1166EF93798DAE04ECDB78950A49171 DUP2 MSTORE RETURN JUMPDEST PUSH1 0x0 DUP1 REVERT JUMPDEST CALLVALUE PUSH2 0x585 JUMPI PUSH1 0x40 CALLDATASIZE PUSH1 0x3 NOT ADD SLT PUSH2 0x585 JUMPI PUSH2 0x5A3 PUSH2 0x3D73 JUMP JUMPDEST PUSH1 0x4 CALLDATALOAD PUSH1 0x0 MSTORE PUSH1 0xA PUSH1 0x20 MSTORE PUSH1 0x40 PUSH1 0x0 KECCAK256 SWAP1 PUSH1 0x1 DUP1 PUSH1 0xA0 SHL SUB AND PUSH1 0x0 MSTORE PUSH1 0x20 MSTORE PUSH2 0x5E6 PUSH2 0x5D2 PUSH1 0x40 PUSH1 0x0 KECCAK256 PUSH2 0x3C47 JUMP JUMPDEST PUSH1 0x40 MLOAD SWAP2 DUP3 SWAP2 PUSH1 0x20 DUP4 MSTORE PUSH1 0x20 DUP4 ADD SWAP1 PUSH2 0x3D0F JUMP JUMPDEST SUB SWAP1 RETURN JUMPDEST CALLVALUE PUSH2 0x585 JUMPI PUSH1 0x20 CALLDATASIZE PUSH1 0x3 NOT ADD SLT PUSH2 0x585 JUMPI PUSH2 0x603 PUSH2 0x3D89 JUMP JUMPDEST PUSH2 0x60B PUSH2 0x4441 JUMP JUMPDEST PUSH1 0x1 PUSH1 0x1 PUSH1 0xA0 SHL SUB AND DUP1 ISZERO PUSH2 0x660 JUMPI PUSH1 0x20 DUP2 PUSH32 0x2DFA8B7EE656A716A96C3DC175CFEC18A9C7B22B8850785CA32C4DDFEE1635A8 SWAP3 PUSH12 0xFFFFFFFFFFFFFFFFFFFFFFFF PUSH1 0xA0 SHL PUSH1 0xD SLOAD AND OR PUSH1 0xD SSTORE PUSH1 0x40 MLOAD SWAP1 DUP2 MSTORE LOG1 STOP JUMPDEST PUSH1 0x40 MLOAD PUSH3 0x461BCD PUSH1 0xE5 SHL DUP2 MSTORE PUSH1 0x20 PUSH1 0x4 DUP3 ADD MSTORE PUSH1 0xF PUSH1 0x24 DUP3 ADD MSTORE PUSH15 0x496E76616C69642061646472657373 PUSH1 0x88 SHL PUSH1 0x44 DUP3 ADD MSTORE PUSH1 0x64 SWAP1 REVERT JUMPDEST CALLVALUE PUSH2 0x585 JUMPI PUSH1 0x20 CALLDATASIZE PUSH1 0x3 NOT ADD SLT PUSH2 0x585 JUMPI PUSH1 0x4 CALLDATALOAD DUP1 PUSH1 0x0 MSTORE PUSH1 0x3 PUSH1 0x20 MSTORE PUSH2 0x6CB PUSH1 0xFF PUSH1 0xA PUSH1 0x40 PUSH1 0x0 KECCAK256 ADD SLOAD PUSH1 0x10 SHR AND PUSH2 0x3DCF JUMP JUMPDEST PUSH1 0x0 MSTORE PUSH1 0x9 PUSH1 0x20 MSTORE PUSH1 0x20 PUSH1 0x1 DUP1 PUSH1 0xA0 SHL SUB PUSH1 0x40 PUSH1 0x0 KECCAK256 SLOAD AND PUSH1 0x40 MLOAD SWAP1 DUP2 MSTORE RETURN JUMPDEST CALLVALUE PUSH2 0x585 JUMPI PUSH1 0x20 CALLDATASIZE PUSH1 0x3 NOT ADD SLT PUSH2 0x585 JUMPI PUSH1 0x4 CALLDATALOAD PUSH1 0x0 MSTORE PUSH1 0x9 PUSH1 0x20 MSTORE PUSH1 0x20 PUSH1 0x1 DUP1 PUSH1 0xA0 SHL SUB PUSH1 0x40 PUSH1 0x0 KECCAK256 SLOAD AND PUSH1 0x40 MLOAD SWAP1 DUP2 MSTORE RETURN JUMPDEST CALLVALUE PUSH2 0x585 JUMPI PUSH2 0x72D CALLDATASIZE PUSH2 0x3D5D JUMP JUMPDEST SWAP1 DUP2 ISZERO ISZERO DUP1 PUSH2 0x954 JUMPI JUMPDEST ISZERO PUSH2 0x91F JUMPI PUSH2 0x748 PUSH1 0x0 SWAP3 DUP3 PUSH2 0x3F30 JUMP JUMPDEST PUSH1 0xC SLOAD PUSH1 0x0 NOT DUP2 ADD SWAP1 DUP2 GT PUSH2 0x901 JUMPI DUP1 DUP3 GT PUSH2 0x917 JUMPI JUMPDEST POP PUSH1 0x1 SWAP3 PUSH1 0x1 DUP4 ADD DUP1 SWAP4 GT PUSH2 0x901 JUMPI DUP4 DUP4 DUP1 JUMPDEST DUP5 DUP2 GT ISZERO PUSH2 0x88E JUMPI POP PUSH2 0x79D PUSH2 0x787 DUP5 PUSH2 0x417A JUMP JUMPDEST SWAP4 PUSH2 0x795 PUSH1 0x40 MLOAD SWAP6 DUP7 PUSH2 0x3B58 JUMP JUMPDEST DUP1 DUP6 MSTORE PUSH2 0x417A JUMP JUMPDEST SWAP4 PUSH1 0x20 SWAP2 DUP3 DUP6 ADD SWAP6 PUSH1 0x1F NOT ADD CALLDATASIZE DUP8 CALLDATACOPY PUSH1 0x0 SWAP1 JUMPDEST DUP3 DUP2 GT ISZERO PUSH2 0x7F3 JUMPI POP POP POP PUSH1 0x40 MLOAD SWAP3 DUP2 DUP5 ADD SWAP1 DUP3 DUP6 MSTORE MLOAD DUP1 SWAP2 MSTORE PUSH1 0x40 DUP5 ADD SWAP5 SWAP2 PUSH1 0x0 JUMPDEST DUP3 DUP2 LT PUSH2 0x7E0 JUMPI DUP6 DUP8 SUB DUP7 RETURN JUMPDEST DUP4 MLOAD DUP8 MSTORE SWAP6 DUP2 ADD SWAP6 SWAP3 DUP2 ADD SWAP3 DUP5 ADD PUSH2 0x7D3 JUMP JUMPDEST DUP1 PUSH1 0x0 SWAP8 SWAP6 SWAP8 SWAP7 SWAP5 SWAP7 MSTORE PUSH1 0x3 DUP7 MSTORE PUSH1 0x40 PUSH1 0x0 KECCAK256 PUSH1 0xFF SWAP1 DUP2 PUSH1 0xA DUP3 ADD SLOAD PUSH1 0x10 SHR AND SWAP2 DUP3 PUSH2 0x873 JUMPI JUMPDEST POP POP PUSH2 0x835 JUMPI JUMPDEST PUSH2 0x82A SWAP1 PUSH2 0x3E67 JUMP JUMPDEST SWAP6 SWAP4 SWAP6 SWAP5 SWAP3 SWAP5 PUSH2 0x7B0 JUMP JUMPDEST SWAP1 DUP4 MLOAD DUP2 LT ISZERO PUSH2 0x85D JUMPI PUSH2 0x855 DUP2 DUP4 DUP9 PUSH2 0x82A SWAP5 PUSH1 0x5 SHL DUP9 ADD ADD MSTORE PUSH2 0x3E67 JUMP JUMPDEST SWAP2 SWAP1 POP PUSH2 0x821 JUMP JUMPDEST PUSH4 0x4E487B71 PUSH1 0xE0 SHL PUSH1 0x0 MSTORE PUSH1 0x32 PUSH1 0x4 MSTORE PUSH1 0x24 PUSH1 0x0 REVERT JUMPDEST SWAP1 SWAP2 POP PUSH1 0x2 DUP1 SWAP3 ADD SLOAD AND PUSH1 0x6 DUP2 LT ISZERO PUSH2 0x534 JUMPI EQ DUP9 DUP1 PUSH2 0x81A JUMP JUMPDEST DUP1 PUSH1 0x0 SWAP6 SWAP4 SWAP6 SWAP5 SWAP3 SWAP5 MSTORE PUSH1 0x3 PUSH1 0x20 MSTORE PUSH1 0x40 PUSH1 0x0 KECCAK256 PUSH1 0xFF SWAP1 DUP2 PUSH1 0xA DUP3 ADD SLOAD PUSH1 0x10 SHR AND SWAP2 DUP3 PUSH2 0x8E6 JUMPI JUMPDEST POP POP PUSH2 0x8D1 JUMPI JUMPDEST PUSH2 0x8C6 SWAP1 PUSH2 0x3E67 JUMP JUMPDEST SWAP4 SWAP2 SWAP4 SWAP3 SWAP1 SWAP3 PUSH2 0x772 JUMP JUMPDEST SWAP1 PUSH2 0x8DE PUSH2 0x8C6 SWAP2 PUSH2 0x3E67 JUMP JUMPDEST SWAP2 SWAP1 POP PUSH2 0x8BD JUMP JUMPDEST SWAP1 SWAP2 POP PUSH1 0x2 DUP1 SWAP3 ADD SLOAD AND PUSH1 0x6 DUP2 LT ISZERO PUSH2 0x534 JUMPI EQ DUP7 DUP1 PUSH2 0x8B6 JUMP JUMPDEST PUSH4 0x4E487B71 PUSH1 0xE0 SHL PUSH1 0x0 MSTORE PUSH1 0x11 PUSH1 0x4 MSTORE PUSH1 0x24 PUSH1 0x0 REVERT JUMPDEST SWAP1 POP DUP4 PUSH2 0x75F JUMP JUMPDEST PUSH1 0x40 MLOAD PUSH3 0x461BCD PUSH1 0xE5 SHL DUP2 MSTORE PUSH1 0x20 PUSH1 0x4 DUP3 ADD MSTORE PUSH1 0xD PUSH1 0x24 DUP3 ADD MSTORE PUSH13 0x125B9D985B1A59081B1A5B5A5D PUSH1 0x9A SHL PUSH1 0x44 DUP3 ADD MSTORE PUSH1 0x64 SWAP1 REVERT JUMPDEST POP PUSH1 0x64 DUP3 GT ISZERO PUSH2 0x737 JUMP JUMPDEST CALLVALUE PUSH2 0x585 JUMPI PUSH1 0x20 DUP1 PUSH1 0x3 NOT CALLDATASIZE ADD SLT PUSH2 0x585 JUMPI PUSH1 0x4 CALLDATALOAD SWAP1 DUP2 PUSH1 0x0 MSTORE PUSH1 0x3 DUP2 MSTORE PUSH2 0x994 PUSH1 0xFF PUSH1 0xA PUSH1 0x40 PUSH1 0x0 KECCAK256 ADD SLOAD PUSH1 0x10 SHR AND PUSH2 0x3DCF JUMP JUMPDEST DUP2 PUSH1 0x0 MSTORE PUSH1 0x3 DUP2 MSTORE PUSH1 0x40 PUSH1 0x0 KECCAK256 SWAP2 PUSH1 0x2 DUP4 ADD DUP1 SLOAD PUSH1 0xFF DUP2 AND SWAP5 PUSH1 0x6 DUP7 LT ISZERO PUSH2 0x534 JUMPI PUSH2 0x9C4 PUSH1 0x1 PUSH1 0x3 SWAP8 EQ PUSH2 0x3E76 JUMP JUMPDEST PUSH1 0x6 ADD SLOAD PUSH1 0x1 PUSH1 0x1 PUSH1 0xA0 SHL SUB AND CALLER EQ DUP1 ISZERO PUSH2 0xA4A JUMPI JUMPDEST PUSH2 0x9E3 SWAP1 PUSH2 0x40B3 JUMP JUMPDEST PUSH1 0xFF NOT AND SWAP1 SSTORE PUSH1 0x0 MSTORE MSTORE PUSH1 0x0 PUSH1 0xC PUSH1 0x40 DUP3 KECCAK256 PUSH2 0x9FE DUP2 PUSH2 0x406A JUMP JUMPDEST DUP3 PUSH1 0x1 DUP3 ADD SSTORE DUP3 PUSH1 0x2 DUP3 ADD SSTORE DUP3 PUSH1 0x3 DUP3 ADD SSTORE DUP3 PUSH1 0x4 DUP3 ADD SSTORE DUP3 PUSH1 0x5 DUP3 ADD SSTORE DUP3 PUSH1 0x6 DUP3 ADD SSTORE DUP3 PUSH1 0x7 DUP3 ADD SSTORE DUP3 PUSH1 0x8 DUP3 ADD SSTORE DUP3 PUSH1 0x9 DUP3 ADD SSTORE DUP3 PUSH1 0xA DUP3 ADD SSTORE PUSH2 0xA46 PUSH1 0xB DUP3 ADD PUSH2 0x406A JUMP JUMPDEST ADD SSTORE STOP JUMPDEST POP PUSH1 0x0 DUP1 DUP1 MSTORE PUSH1 0x1 DUP6 MSTORE PUSH1 0x40 DUP1 DUP3 KECCAK256 CALLER DUP4 MSTORE DUP7 MSTORE SWAP1 KECCAK256 SLOAD PUSH1 0xFF AND PUSH2 0x9DA JUMP JUMPDEST CALLVALUE PUSH2 0x585 JUMPI PUSH1 0x40 CALLDATASIZE PUSH1 0x3 NOT ADD SLT PUSH2 0x585 JUMPI PUSH2 0xA82 PUSH2 0x3D73 JUMP JUMPDEST PUSH1 0x4 CALLDATALOAD PUSH1 0x0 MSTORE PUSH1 0x7 PUSH1 0x20 MSTORE PUSH1 0x40 PUSH1 0x0 KECCAK256 SWAP1 PUSH1 0x1 DUP1 PUSH1 0xA0 SHL SUB AND PUSH1 0x0 MSTORE PUSH1 0x20 MSTORE PUSH1 0x20 PUSH1 0xFF PUSH1 0x40 PUSH1 0x0 KECCAK256 SLOAD AND PUSH1 0x40 MLOAD SWAP1 ISZERO ISZERO DUP2 MSTORE RETURN JUMPDEST CALLVALUE PUSH2 0x585 JUMPI PUSH1 0x0 CALLDATASIZE PUSH1 0x3 NOT ADD SLT PUSH2 0x585 JUMPI PUSH1 0xD SLOAD PUSH1 0x40 MLOAD PUSH1 0x1 PUSH1 0x1 PUSH1 0xA0 SHL SUB SWAP1 SWAP2 AND DUP2 MSTORE PUSH1 0x20 SWAP1 RETURN JUMPDEST CALLVALUE PUSH2 0x585 JUMPI PUSH1 0x40 CALLDATASIZE PUSH1 0x3 NOT ADD SLT PUSH2 0x585 JUMPI PUSH2 0x1B PUSH1 0x4 CALLDATALOAD PUSH2 0xAFE PUSH2 0x3D73 JUMP JUMPDEST SWAP1 DUP1 PUSH1 0x0 MSTORE PUSH1 0x1 PUSH1 0x20 MSTORE PUSH2 0xB19 PUSH1 0x1 PUSH1 0x40 PUSH1 0x0 KECCAK256 ADD SLOAD PUSH2 0x46AB JUMP JUMPDEST PUSH2 0x47B6 JUMP JUMPDEST PUSH2 0xB27 CALLDATASIZE PUSH2 0x3BDB JUMP JUMPDEST SWAP1 PUSH2 0xB30 PUSH2 0x41CF JUMP JUMPDEST PUSH2 0xB38 PUSH2 0x4A46 JUMP JUMPDEST DUP1 PUSH1 0x0 MSTORE PUSH1 0x3 PUSH1 0x20 MSTORE PUSH2 0xB58 PUSH1 0xFF PUSH1 0xA PUSH1 0x40 PUSH1 0x0 KECCAK256 ADD SLOAD PUSH1 0x10 SHR AND PUSH2 0x3DCF JUMP JUMPDEST DUP1 PUSH1 0x0 MSTORE PUSH1 0x3 PUSH1 0x20 MSTORE PUSH1 0xFF PUSH1 0x2 PUSH1 0x40 PUSH1 0x0 KECCAK256 ADD SLOAD AND PUSH1 0x6 DUP2 LT ISZERO PUSH2 0x534 JUMPI PUSH1 0x2 SUB PUSH2 0x10B9 JUMPI DUP2 MLOAD DUP1 ISZERO ISZERO SWAP1 DUP2 PUSH2 0x10AC JUMPI JUMPDEST POP ISZERO PUSH2 0x1067 JUMPI DUP1 PUSH1 0x0 MSTORE PUSH1 0x3 PUSH1 0x20 MSTORE PUSH1 0x40 PUSH1 0x0 KECCAK256 SWAP2 PUSH1 0x4 DUP4 ADD SLOAD SWAP3 PUSH2 0x2710 PUSH2 0xBB3 PUSH1 0xE SLOAD DUP7 PUSH2 0x4057 JUMP JUMPDEST DIV SWAP2 PUSH2 0xBBF DUP4 DUP7 PUSH2 0x482C JUMP JUMPDEST PUSH2 0xBCC DUP5 PUSH1 0x1 SHR DUP6 PUSH2 0x482C JUMP JUMPDEST SWAP6 PUSH1 0xFF PUSH1 0xA DUP6 ADD SLOAD PUSH1 0x8 SHR AND PUSH1 0x0 EQ PUSH2 0x100E JUMPI PUSH1 0x5 DUP5 ADD SLOAD PUSH1 0x1 PUSH1 0x1 PUSH1 0xA0 SHL SUB AND DUP1 PUSH2 0x1007 JUMPI DUP2 CALLVALUE EQ JUMPDEST ISZERO PUSH2 0xFCB JUMPI DUP1 PUSH2 0xF25 JUMPI JUMPDEST POP POP PUSH1 0xFF PUSH1 0xA DUP5 ADD SLOAD AND PUSH1 0x3 DUP2 LT ISZERO PUSH2 0x534 JUMPI PUSH1 0x1 SUB PUSH2 0xF0E JUMPI JUMPDEST POP JUMPDEST PUSH1 0xFF PUSH1 0xA DUP4 ADD SLOAD AND PUSH1 0x3 DUP2 LT ISZERO PUSH2 0x534 JUMPI DUP1 ISZERO SWAP1 DUP2 ISZERO PUSH2 0xF03 JUMPI JUMPDEST POP ISZERO PUSH2 0xD6B JUMPI SWAP1 PUSH1 0x3 SWAP2 PUSH1 0x40 MLOAD PUSH2 0xC6D PUSH1 0x20 DUP3 DUP2 PUSH2 0xC60 DUP2 DUP4 ADD SWAP7 DUP8 DUP2 MLOAD SWAP4 DUP5 SWAP3 ADD PUSH2 0x3CEC JUMP JUMPDEST DUP2 ADD SUB DUP1 DUP5 MSTORE ADD DUP3 PUSH2 0x3B58 JUMP JUMPDEST MLOAD SWAP1 KECCAK256 PUSH1 0x1 DUP3 ADD SLOAD EQ SWAP5 DUP6 PUSH2 0xCC0 JUMPI JUMPDEST POP JUMPDEST ADD SLOAD PUSH1 0x40 MLOAD SWAP4 ISZERO ISZERO DUP5 MSTORE PUSH1 0x20 DUP5 ADD MSTORE PUSH1 0x40 DUP4 ADD MSTORE PUSH32 0x74FBE334E9D85C8D025FC8A294588A63D6929A98D8293A5A1AEE3D4BE1C7EDA PUSH1 0x60 CALLER SWAP4 LOG3 PUSH1 0x1 PUSH1 0x0 SSTORE STOP JUMPDEST PUSH1 0xA DUP3 ADD SLOAD PUSH2 0xCDB SWAP1 PUSH1 0x18 SHR PUSH1 0x1 PUSH1 0x1 PUSH1 0xA0 SHL SUB AND ISZERO PUSH2 0x4003 JUMP JUMPDEST PUSH1 0xA DUP3 ADD DUP1 SLOAD PUSH4 0x1000000 PUSH1 0x1 PUSH1 0xB8 SHL SUB NOT AND CALLER PUSH1 0x18 SHL PUSH4 0x1000000 PUSH1 0x1 PUSH1 0xB8 SHL SUB AND OR SWAP1 SSTORE PUSH1 0x2 DUP3 ADD DUP1 SLOAD PUSH1 0xFF NOT AND PUSH1 0x4 OR SWAP1 SSTORE CALLER DUP6 PUSH32 0xF7C67880B72EC988961E570AE4E849EB4FD9D5BA0AB550624AC429EF6D41880C PUSH1 0x0 DUP1 LOG3 PUSH1 0xFF PUSH1 0xA DUP4 ADD SLOAD PUSH1 0x8 SHR AND DUP1 PUSH2 0xD62 JUMPI JUMPDEST ISZERO PUSH2 0xC7D JUMPI PUSH2 0xD5C SWAP1 DUP5 PUSH1 0x1 SHR SWAP1 DUP4 PUSH2 0x4839 JUMP JUMPDEST DUP6 PUSH2 0xC7D JUMP JUMPDEST POP DUP4 ISZERO ISZERO PUSH2 0xD48 JUMP JUMPDEST SWAP1 SWAP4 POP DUP3 PUSH1 0x0 MSTORE PUSH1 0xA PUSH1 0x20 MSTORE PUSH1 0x40 PUSH1 0x0 KECCAK256 CALLER PUSH1 0x0 MSTORE PUSH1 0x20 MSTORE PUSH1 0x40 PUSH1 0x0 KECCAK256 SWAP1 DUP1 MLOAD SWAP1 PUSH1 0x1 PUSH1 0x1 PUSH1 0x40 SHL SUB DUP3 GT PUSH2 0xEED JUMPI PUSH2 0xDA4 DUP4 SLOAD PUSH2 0x3C0D JUMP JUMPDEST PUSH1 0x1F DUP2 GT PUSH2 0xEB0 JUMPI JUMPDEST POP PUSH1 0x20 SWAP1 PUSH1 0x1F DUP4 GT PUSH1 0x1 EQ PUSH2 0xE48 JUMPI PUSH2 0xDDF SWAP3 SWAP2 PUSH1 0x0 SWAP2 DUP4 PUSH2 0xE3D JUMPI JUMPDEST POP POP DUP2 PUSH1 0x1 SHL SWAP2 PUSH1 0x0 NOT SWAP1 PUSH1 0x3 SHL SHR NOT AND OR SWAP1 JUMP JUMPDEST SWAP1 SSTORE JUMPDEST PUSH1 0x2 DUP4 ADD PUSH1 0x3 PUSH1 0xFF NOT DUP3 SLOAD AND OR SWAP1 SSTORE PUSH3 0x15180 TIMESTAMP ADD SWAP3 DUP4 TIMESTAMP GT PUSH2 0x901 JUMPI DUP1 DUP5 PUSH1 0xC PUSH1 0x3 SWAP4 ADD SSTORE PUSH1 0x0 SWAP5 PUSH1 0x40 MLOAD SWAP1 DUP2 MSTORE DUP5 PUSH32 0x8E3359A99F392EE4257EB86A7AB8EE4C8A4C717BC32744354F4877931C28F6E0 PUSH1 0x20 CALLER SWAP4 LOG3 PUSH2 0xC7F JUMP JUMPDEST ADD MLOAD SWAP1 POP DUP8 DUP1 PUSH2 0xDCA JUMP JUMPDEST SWAP1 PUSH1 0x1F NOT DUP4 AND SWAP2 DUP5 PUSH1 0x0 MSTORE PUSH1 0x20 PUSH1 0x0 KECCAK256 SWAP3 PUSH1 0x0 JUMPDEST DUP2 DUP2 LT PUSH2 0xE98 JUMPI POP SWAP1 DUP5 PUSH1 0x1 SWAP6 SWAP5 SWAP4 SWAP3 LT PUSH2 0xE7F JUMPI JUMPDEST POP POP POP DUP2 SHL ADD SWAP1 SSTORE PUSH2 0xDE2 JUMP JUMPDEST ADD MLOAD PUSH1 0x0 NOT PUSH1 0xF8 DUP5 PUSH1 0x3 SHL AND SHR NOT AND SWAP1 SSTORE DUP7 DUP1 DUP1 PUSH2 0xE72 JUMP JUMPDEST SWAP3 SWAP4 PUSH1 0x20 PUSH1 0x1 DUP2 SWAP3 DUP8 DUP7 ADD MLOAD DUP2 SSTORE ADD SWAP6 ADD SWAP4 ADD PUSH2 0xE5C JUMP JUMPDEST PUSH2 0xEDD SWAP1 DUP5 PUSH1 0x0 MSTORE PUSH1 0x20 PUSH1 0x0 KECCAK256 PUSH1 0x1F DUP6 ADD PUSH1 0x5 SHR DUP2 ADD SWAP2 PUSH1 0x20 DUP7 LT PUSH2 0xEE3 JUMPI JUMPDEST PUSH1 0x1F ADD PUSH1 0x5 SHR ADD SWAP1 PUSH2 0x4040 JUMP JUMPDEST DUP7 PUSH2 0xDAD JUMP JUMPDEST SWAP1 SWAP2 POP DUP2 SWAP1 PUSH2 0xED0 JUMP JUMPDEST PUSH4 0x4E487B71 PUSH1 0xE0 SHL PUSH1 0x0 MSTORE PUSH1 0x41 PUSH1 0x4 MSTORE PUSH1 0x24 PUSH1 0x0 REVERT JUMPDEST PUSH1 0x2 SWAP2 POP EQ DUP7 PUSH2 0xC39 JUMP JUMPDEST PUSH2 0xF1D PUSH1 0x3 DUP5 ADD SWAP2 DUP3 SLOAD PUSH2 0x3F30 JUMP JUMPDEST SWAP1 SSTORE DUP6 PUSH2 0xC1C JUMP JUMPDEST PUSH1 0x40 MLOAD PUSH4 0x23B872DD PUSH1 0xE0 SHL DUP2 MSTORE CALLER PUSH1 0x4 DUP3 ADD MSTORE ADDRESS PUSH1 0x24 DUP3 ADD MSTORE PUSH1 0x44 DUP2 ADD SWAP3 SWAP1 SWAP3 MSTORE PUSH1 0x20 SWAP1 DUP3 SWAP1 PUSH1 0x64 SWAP1 DUP3 SWAP1 PUSH1 0x0 SWAP1 GAS CALL SWAP1 DUP2 ISZERO PUSH2 0x480 JUMPI PUSH1 0x0 SWAP2 PUSH2 0xFAC JUMPI JUMPDEST POP ISZERO PUSH2 0xF71 JUMPI DUP7 DUP1 PUSH2 0xC01 JUMP JUMPDEST PUSH1 0x40 MLOAD PUSH3 0x461BCD PUSH1 0xE5 SHL DUP2 MSTORE PUSH1 0x20 PUSH1 0x4 DUP3 ADD MSTORE PUSH1 0x13 PUSH1 0x24 DUP3 ADD MSTORE PUSH19 0x119959481D1C985B9CD9995C8819985A5B1959 PUSH1 0x6A SHL PUSH1 0x44 DUP3 ADD MSTORE PUSH1 0x64 SWAP1 REVERT JUMPDEST PUSH2 0xFC5 SWAP2 POP PUSH1 0x20 RETURNDATASIZE PUSH1 0x20 GT PUSH2 0x479 JUMPI PUSH2 0x46B DUP2 DUP4 PUSH2 0x3B58 JUMP JUMPDEST DUP8 PUSH2 0xF64 JUMP JUMPDEST PUSH1 0x40 MLOAD PUSH3 0x461BCD PUSH1 0xE5 SHL DUP2 MSTORE PUSH1 0x20 PUSH1 0x4 DUP3 ADD MSTORE PUSH1 0x14 PUSH1 0x24 DUP3 ADD MSTORE PUSH20 0x496E636F7272656374206E617469766520666565 PUSH1 0x60 SHL PUSH1 0x44 DUP3 ADD MSTORE PUSH1 0x64 SWAP1 REVERT JUMPDEST PUSH1 0x1 PUSH2 0xBF6 JUMP JUMPDEST POP POP PUSH1 0x5 DUP3 ADD SLOAD PUSH1 0x1 PUSH1 0x1 PUSH1 0xA0 SHL SUB AND PUSH2 0x1060 JUMPI CALLVALUE ISZERO JUMPDEST PUSH2 0xC1E JUMPI PUSH1 0x40 MLOAD PUSH3 0x461BCD PUSH1 0xE5 SHL DUP2 MSTORE PUSH1 0x20 PUSH1 0x4 DUP3 ADD MSTORE PUSH1 0xF PUSH1 0x24 DUP3 ADD MSTORE PUSH15 0x139BC8199959481C995C5D5A5C9959 PUSH1 0x8A SHL PUSH1 0x44 DUP3 ADD MSTORE PUSH1 0x64 SWAP1 REVERT JUMPDEST PUSH1 0x1 PUSH2 0x1025 JUMP JUMPDEST PUSH1 0x40 MLOAD PUSH3 0x461BCD PUSH1 0xE5 SHL DUP2 MSTORE PUSH1 0x20 PUSH1 0x4 DUP3 ADD MSTORE PUSH1 0x17 PUSH1 0x24 DUP3 ADD MSTORE PUSH32 0x496E76616C696420736F6C7574696F6E206C656E677468000000000000000000 PUSH1 0x44 DUP3 ADD MSTORE PUSH1 0x64 SWAP1 REVERT JUMPDEST PUSH2 0x1F4 SWAP2 POP GT ISZERO DUP4 PUSH2 0xB89 JUMP JUMPDEST PUSH1 0x40 MLOAD PUSH3 0x461BCD PUSH1 0xE5 SHL DUP2 MSTORE PUSH1 0x20 PUSH1 0x4 DUP3 ADD MSTORE PUSH1 0xF PUSH1 0x24 DUP3 ADD MSTORE PUSH15 0x47616D65206E6F7420616374697665 PUSH1 0x88 SHL PUSH1 0x44 DUP3 ADD MSTORE PUSH1 0x64 SWAP1 REVERT JUMPDEST CALLVALUE PUSH2 0x585 JUMPI PUSH1 0x60 CALLDATASIZE PUSH1 0x3 NOT ADD SLT PUSH2 0x585 JUMPI PUSH1 0x1 PUSH1 0x1 PUSH1 0x40 SHL SUB PUSH1 0x4 CALLDATALOAD DUP2 DUP2 GT PUSH2 0x585 JUMPI PUSH2 0x1121 SWAP1 CALLDATASIZE SWAP1 PUSH1 0x4 ADD PUSH2 0x3D9F JUMP JUMPDEST SWAP1 PUSH1 0x24 CALLDATALOAD DUP4 DUP2 GT PUSH2 0x585 JUMPI PUSH2 0x113A SWAP1 CALLDATASIZE SWAP1 PUSH1 0x4 ADD PUSH2 0x3D9F JUMP JUMPDEST SWAP3 SWAP1 SWAP4 PUSH1 0x44 CALLDATALOAD SWAP1 DUP2 GT PUSH2 0x585 JUMPI PUSH2 0x1155 SWAP1 CALLDATASIZE SWAP1 PUSH1 0x4 ADD PUSH2 0x3D9F JUMP JUMPDEST SWAP2 SWAP1 SWAP3 PUSH2 0x1160 PUSH2 0x4565 JUMP JUMPDEST DUP5 DUP3 EQ DUP1 PUSH2 0x150F JUMPI JUMPDEST ISZERO PUSH2 0x14D2 JUMPI PUSH1 0x32 DUP3 GT PUSH2 0x1494 JUMPI PUSH1 0x0 JUMPDEST DUP3 DUP2 LT PUSH2 0x1182 JUMPI STOP JUMPDEST PUSH2 0x118D DUP2 DUP5 DUP5 PUSH2 0x416A JUMP JUMPDEST CALLDATALOAD SWAP1 PUSH2 0x119A DUP2 DUP9 DUP11 PUSH2 0x416A JUMP JUMPDEST CALLDATALOAD PUSH1 0x1 PUSH1 0x1 PUSH1 0xA0 SHL SUB DUP2 AND DUP2 SUB PUSH2 0x585 JUMPI PUSH2 0x11B6 DUP3 DUP8 DUP10 PUSH2 0x416A JUMP JUMPDEST CALLDATALOAD DUP1 ISZERO ISZERO DUP2 SUB PUSH2 0x585 JUMPI PUSH2 0x11C8 PUSH2 0x4565 JUMP JUMPDEST DUP4 PUSH1 0x0 MSTORE PUSH1 0x3 PUSH1 0x20 MSTORE PUSH2 0x11E8 PUSH1 0xFF PUSH1 0xA PUSH1 0x40 PUSH1 0x0 KECCAK256 ADD SLOAD PUSH1 0x10 SHR AND PUSH2 0x3DCF JUMP JUMPDEST DUP4 PUSH1 0x0 MSTORE PUSH1 0x3 PUSH1 0x20 MSTORE PUSH1 0x40 PUSH1 0x0 KECCAK256 SWAP2 PUSH1 0xA DUP4 ADD SLOAD SWAP5 PUSH1 0xFF DUP7 AND PUSH1 0x3 DUP2 LT ISZERO PUSH2 0x534 JUMPI PUSH1 0x1 SUB PUSH2 0x145B JUMPI PUSH1 0xFF PUSH1 0x2 DUP6 ADD SLOAD AND PUSH1 0x6 DUP2 LT ISZERO PUSH2 0x534 JUMPI PUSH1 0x3 PUSH2 0x122E SWAP2 EQ PUSH2 0x3F49 JUMP JUMPDEST DUP1 PUSH1 0x0 MSTORE PUSH1 0xA PUSH1 0x20 MSTORE PUSH1 0x40 PUSH1 0x0 KECCAK256 PUSH1 0x1 DUP1 PUSH1 0xA0 SHL SUB DUP4 AND PUSH1 0x0 MSTORE PUSH1 0x20 MSTORE PUSH2 0x1259 PUSH1 0x40 PUSH1 0x0 KECCAK256 SLOAD PUSH2 0x3C0D JUMP JUMPDEST ISZERO PUSH2 0x1420 JUMPI PUSH1 0xC DUP5 ADD SLOAD TIMESTAMP GT PUSH2 0x13DB JUMPI PUSH1 0x1 SWAP6 DUP4 PUSH2 0x1300 JUMPI JUMPDEST POP DUP1 PUSH1 0x0 MSTORE PUSH1 0xA PUSH1 0x20 MSTORE PUSH1 0x40 PUSH1 0x0 KECCAK256 DUP7 DUP1 PUSH1 0xA0 SHL SUB DUP4 AND PUSH1 0x0 MSTORE PUSH1 0x20 MSTORE PUSH2 0x129C PUSH1 0x40 PUSH1 0x0 KECCAK256 PUSH2 0x406A JUMP JUMPDEST PUSH32 0x156934B37A6A765531AC9332A9CEE7BFE0E5A00742DCD286B811DE4751C9BB7C PUSH1 0x40 DUP1 MLOAD SWAP4 DUP6 ISZERO ISZERO DUP6 MSTORE CALLER PUSH1 0x20 DUP7 ADD MSTORE DUP9 DUP1 PUSH1 0xA0 SHL SUB AND SWAP4 LOG3 ISZERO PUSH2 0x12E3 JUMPI JUMPDEST POP ADD PUSH2 0x1179 JUMP JUMPDEST PUSH1 0xC PUSH1 0x0 SWAP2 PUSH1 0x2 PUSH1 0xFF NOT DUP2 DUP4 ADD SLOAD AND OR PUSH1 0x2 DUP3 ADD SSTORE ADD SSTORE DUP9 PUSH2 0x12DC JUMP JUMPDEST PUSH2 0x1315 SWAP1 DUP8 DUP1 PUSH1 0xA0 SHL SUB SWAP1 PUSH1 0x18 SHR AND ISZERO PUSH2 0x4003 JUMP JUMPDEST PUSH1 0xA DUP5 ADD DUP1 SLOAD PUSH4 0x1000000 PUSH1 0x1 PUSH1 0xB8 SHL SUB NOT AND PUSH1 0x18 DUP5 SWAP1 SHL PUSH4 0x1000000 PUSH1 0x1 PUSH1 0xB8 SHL SUB AND OR SWAP1 SSTORE PUSH1 0x2 DUP5 ADD DUP1 SLOAD PUSH1 0xFF NOT AND PUSH1 0x4 OR SWAP1 SSTORE PUSH1 0xA DUP5 ADD SLOAD PUSH1 0x8 SHR PUSH1 0xFF AND PUSH2 0x138F JUMPI JUMPDEST DUP6 DUP1 PUSH1 0xA0 SHL SUB DUP3 AND DUP2 PUSH32 0xF7C67880B72EC988961E570AE4E849EB4FD9D5BA0AB550624AC429EF6D41880C PUSH1 0x0 DUP1 LOG3 DUP13 PUSH2 0x1272 JUMP JUMPDEST PUSH2 0x13D6 PUSH1 0x4 DUP6 ADD SLOAD PUSH2 0x13B1 PUSH2 0x2710 PUSH2 0x13A9 PUSH1 0xE SLOAD DUP5 PUSH2 0x4057 JUMP JUMPDEST DIV DUP1 SWAP3 PUSH2 0x482C JUMP JUMPDEST PUSH2 0x13BE DUP3 DUP11 SHR DUP1 SWAP4 PUSH2 0x482C JUMP JUMPDEST SWAP1 PUSH2 0x13CE PUSH1 0x3 DUP10 ADD SWAP2 DUP3 SLOAD PUSH2 0x3F30 JUMP JUMPDEST SWAP1 SSTORE DUP7 PUSH2 0x4839 JUMP JUMPDEST PUSH2 0x135B JUMP JUMPDEST PUSH1 0x40 MLOAD PUSH3 0x461BCD PUSH1 0xE5 SHL DUP2 MSTORE PUSH1 0x20 PUSH1 0x4 DUP3 ADD MSTORE PUSH1 0x1C PUSH1 0x24 DUP3 ADD MSTORE PUSH32 0x566572696669636174696F6E20646561646C696E652070617373656400000000 PUSH1 0x44 DUP3 ADD MSTORE PUSH1 0x64 SWAP1 REVERT JUMPDEST PUSH1 0x40 MLOAD PUSH3 0x461BCD PUSH1 0xE5 SHL DUP2 MSTORE PUSH1 0x20 PUSH1 0x4 DUP3 ADD MSTORE PUSH1 0x13 PUSH1 0x24 DUP3 ADD MSTORE PUSH19 0x139BC81CDD589B5A5CDCDA5BDB88199BDD5B99 PUSH1 0x6A SHL PUSH1 0x44 DUP3 ADD MSTORE PUSH1 0x64 SWAP1 REVERT JUMPDEST PUSH1 0x40 MLOAD PUSH3 0x461BCD PUSH1 0xE5 SHL DUP2 MSTORE PUSH1 0x20 PUSH1 0x4 DUP3 ADD MSTORE PUSH1 0x11 PUSH1 0x24 DUP3 ADD MSTORE PUSH17 0x4E6F742061206D6174682070757A7A6C65 PUSH1 0x78 SHL PUSH1 0x44 DUP3 ADD MSTORE PUSH1 0x64 SWAP1 REVERT JUMPDEST PUSH1 0x40 MLOAD PUSH3 0x461BCD PUSH1 0xE5 SHL DUP2 MSTORE PUSH1 0x20 PUSH1 0x4 DUP3 ADD MSTORE PUSH1 0x16 PUSH1 0x24 DUP3 ADD MSTORE PUSH22 0x546F6F206D616E7920766572696669636174696F6E73 PUSH1 0x50 SHL PUSH1 0x44 DUP3 ADD MSTORE PUSH1 0x64 SWAP1 REVERT JUMPDEST PUSH1 0x40 MLOAD PUSH3 0x461BCD PUSH1 0xE5 SHL DUP2 MSTORE PUSH1 0x20 PUSH1 0x4 DUP3 ADD MSTORE PUSH1 0x15 PUSH1 0x24 DUP3 ADD MSTORE PUSH21 0x82E4E4C2F240D8CADCCEE8D040DAD2E6DAC2E8C6D PUSH1 0x5B SHL PUSH1 0x44 DUP3 ADD MSTORE PUSH1 0x64 SWAP1 REVERT JUMPDEST POP DUP3 DUP6 EQ PUSH2 0x1169 JUMP JUMPDEST CALLVALUE PUSH2 0x585 JUMPI PUSH1 0x20 CALLDATASIZE PUSH1 0x3 NOT ADD SLT PUSH2 0x585 JUMPI PUSH1 0x4 CALLDATALOAD PUSH1 0x0 MSTORE PUSH1 0x6 PUSH1 0x20 MSTORE PUSH1 0x20 PUSH1 0x40 PUSH1 0x0 KECCAK256 SLOAD PUSH1 0x40 MLOAD SWAP1 DUP2 MSTORE RETURN JUMPDEST CALLVALUE PUSH2 0x585 JUMPI PUSH1 0x0 CALLDATASIZE PUSH1 0x3 NOT ADD SLT PUSH2 0x585 JUMPI PUSH1 0x20 PUSH1 0x40 MLOAD PUSH2 0x3E8 DUP2 MSTORE RETURN JUMPDEST CALLVALUE PUSH2 0x585 JUMPI PUSH1 0x0 CALLDATASIZE PUSH1 0x3 NOT ADD SLT PUSH2 0x585 JUMPI PUSH1 0x20 PUSH1 0xE SLOAD PUSH1 0x40 MLOAD SWAP1 DUP2 MSTORE RETURN JUMPDEST CALLVALUE PUSH2 0x585 JUMPI PUSH1 0x0 CALLDATASIZE PUSH1 0x3 NOT ADD SLT PUSH2 0x585 JUMPI PUSH1 0x20 PUSH1 0xF SLOAD PUSH1 0x40 MLOAD SWAP1 DUP2 MSTORE RETURN JUMPDEST CALLVALUE PUSH2 0x585 JUMPI PUSH1 0x20 CALLDATASIZE PUSH1 0x3 NOT ADD SLT PUSH2 0x585 JUMPI PUSH1 0x4 CALLDATALOAD PUSH2 0x15B9 PUSH2 0x4441 JUMP JUMPDEST DUP1 ISZERO ISZERO DUP1 PUSH2 0x15D0 JUMPI JUMPDEST PUSH2 0x15CB SWAP1 PUSH2 0x412A JUMP JUMPDEST PUSH1 0xF SSTORE STOP JUMPDEST POP PUSH1 0x64 DUP2 GT ISZERO PUSH2 0x15C2 JUMP JUMPDEST CALLVALUE PUSH2 0x585 JUMPI PUSH1 0x0 CALLDATASIZE PUSH1 0x3 NOT ADD SLT PUSH2 0x585 JUMPI PUSH1 0x20 PUSH1 0x10 SLOAD PUSH1 0x40 MLOAD SWAP1 DUP2 MSTORE RETURN JUMPDEST CALLVALUE PUSH2 0x585 JUMPI PUSH1 0x40 CALLDATASIZE PUSH1 0x3 NOT ADD SLT PUSH2 0x585 JUMPI PUSH1 0x4 CALLDATALOAD PUSH32 0xADDB6994A0A091EB47D65B97D2111921AAABF03597C28C0400155EE949F0F807 PUSH1 0x20 PUSH2 0x1638 PUSH2 0x3D4E JUMP JUMPDEST PUSH2 0x1640 PUSH2 0x4441 JUMP JUMPDEST DUP4 PUSH1 0x0 MSTORE PUSH1 0x3 DUP3 MSTORE PUSH2 0x165F PUSH1 0xFF PUSH1 0xA PUSH1 0x40 PUSH1 0x0 KECCAK256 ADD SLOAD PUSH1 0x10 SHR AND PUSH2 0x3DCF JUMP JUMPDEST PUSH1 0x0 DUP5 DUP2 MSTORE PUSH1 0x3 DUP4 MSTORE PUSH1 0x40 SWAP1 KECCAK256 PUSH1 0xA ADD DUP1 SLOAD PUSH2 0xFF00 NOT AND DUP3 ISZERO ISZERO PUSH1 0x8 SHL PUSH2 0xFF00 AND OR SWAP1 SSTORE PUSH1 0x40 MLOAD SWAP1 ISZERO ISZERO DUP2 MSTORE LOG2 STOP JUMPDEST CALLVALUE PUSH2 0x585 JUMPI PUSH1 0x0 CALLDATASIZE PUSH1 0x3 NOT ADD SLT PUSH2 0x585 JUMPI PUSH1 0x20 PUSH1 0xC SLOAD PUSH1 0x40 MLOAD SWAP1 DUP2 MSTORE RETURN JUMPDEST CALLVALUE PUSH2 0x585 JUMPI PUSH1 0x20 DUP1 PUSH1 0x3 NOT CALLDATASIZE ADD SLT PUSH2 0x585 JUMPI PUSH1 0x4 CALLDATALOAD DUP1 PUSH1 0x0 MSTORE PUSH1 0x3 DUP3 MSTORE PUSH2 0x16E0 PUSH1 0xFF PUSH1 0xA PUSH1 0x40 PUSH1 0x0 KECCAK256 ADD SLOAD PUSH1 0x10 SHR AND PUSH2 0x3DCF JUMP JUMPDEST DUP1 PUSH1 0x0 MSTORE PUSH1 0x3 DUP3 MSTORE PUSH1 0xFF PUSH1 0x2 PUSH1 0x40 PUSH1 0x0 KECCAK256 ADD SLOAD AND PUSH1 0x6 DUP2 LT ISZERO PUSH2 0x534 JUMPI PUSH1 0x4 PUSH2 0x1709 SWAP2 EQ PUSH2 0x3E11 JUMP JUMPDEST DUP1 PUSH1 0x0 MSTORE PUSH1 0x3 DUP3 MSTORE PUSH1 0x40 PUSH1 0x0 KECCAK256 PUSH1 0x8 DUP4 MSTORE PUSH1 0x40 PUSH1 0x0 KECCAK256 SLOAD PUSH1 0x9 DUP3 ADD SLOAD GT PUSH2 0x17CB JUMPI PUSH1 0x7 SWAP2 SWAP3 PUSH1 0x0 DUP1 MSTORE PUSH1 0x1 DUP2 MSTORE PUSH1 0x40 PUSH1 0x0 KECCAK256 SWAP1 CALLER PUSH1 0x0 MSTORE MSTORE PUSH1 0xFF PUSH1 0x40 PUSH1 0x0 KECCAK256 SLOAD AND DUP1 ISZERO PUSH2 0x17B5 JUMPI JUMPDEST PUSH2 0x175A SWAP1 PUSH2 0x40B3 JUMP JUMPDEST PUSH1 0x2 DUP2 DUP2 ADD DUP1 SLOAD PUSH1 0xFF NOT AND SWAP1 SWAP2 OR SWAP1 SSTORE PUSH1 0xA DUP2 ADD DUP1 SLOAD PUSH4 0x1000000 PUSH1 0x1 PUSH1 0xB8 SHL SUB NOT AND SWAP1 SSTORE ADD DUP1 SLOAD PUSH1 0x1 PUSH1 0x1 PUSH1 0xA0 SHL SUB NOT AND SWAP1 SSTORE PUSH32 0x3251F5FE5231B3681FF593B97E5A31720697F30EEA923FC25DA0667755895F41 PUSH1 0x0 DUP1 LOG2 STOP JUMPDEST POP PUSH1 0x6 DUP2 ADD SLOAD PUSH1 0x1 PUSH1 0x1 PUSH1 0xA0 SHL SUB AND CALLER EQ PUSH2 0x1751 JUMP JUMPDEST PUSH1 0x40 MLOAD PUSH3 0x461BCD PUSH1 0xE5 SHL DUP2 MSTORE PUSH1 0x4 DUP2 ADD DUP5 SWAP1 MSTORE PUSH1 0x17 PUSH1 0x24 DUP3 ADD MSTORE PUSH32 0x496E73756666696369656E74206368616C6C656E676573000000000000000000 PUSH1 0x44 DUP3 ADD MSTORE PUSH1 0x64 SWAP1 REVERT JUMPDEST CALLVALUE PUSH2 0x585 JUMPI PUSH1 0x0 CALLDATASIZE PUSH1 0x3 NOT ADD SLT PUSH2 0x585 JUMPI PUSH1 0x20 PUSH1 0x40 MLOAD PUSH1 0x0 DUP2 MSTORE RETURN JUMPDEST CALLVALUE PUSH2 0x585 JUMPI PUSH1 0x20 CALLDATASIZE PUSH1 0x3 NOT ADD SLT PUSH2 0x585 JUMPI PUSH1 0x4 CALLDATALOAD PUSH2 0x1848 PUSH2 0x4441 JUMP JUMPDEST DUP1 ISZERO ISZERO DUP1 PUSH2 0x185F JUMPI JUMPDEST PUSH2 0x185A SWAP1 PUSH2 0x412A JUMP JUMPDEST PUSH1 0x10 SSTORE STOP JUMPDEST POP PUSH1 0x14 DUP2 GT ISZERO PUSH2 0x1851 JUMP JUMPDEST CALLVALUE PUSH2 0x585 JUMPI PUSH1 0x20 CALLDATASIZE PUSH1 0x3 NOT ADD SLT PUSH2 0x585 JUMPI PUSH1 0x4 CALLDATALOAD PUSH2 0x1886 PUSH2 0x4441 JUMP JUMPDEST PUSH2 0x2710 DUP2 GT PUSH2 0x18C0 JUMPI PUSH1 0x20 DUP2 PUSH32 0x2A5598DE173240D4AE127B442F13979038BBC34AF775AD781D1D74626A301D35 SWAP3 PUSH1 0xE SSTORE PUSH1 0x40 MLOAD SWAP1 DUP2 MSTORE LOG1 STOP JUMPDEST PUSH1 0x40 MLOAD PUSH3 0x461BCD PUSH1 0xE5 SHL DUP2 MSTORE PUSH1 0x20 PUSH1 0x4 DUP3 ADD MSTORE PUSH1 0x12 PUSH1 0x24 DUP3 ADD MSTORE PUSH18 0x496E76616C69642070657263656E74616765 PUSH1 0x70 SHL PUSH1 0x44 DUP3 ADD MSTORE PUSH1 0x64 SWAP1 REVERT JUMPDEST CALLVALUE PUSH2 0x585 JUMPI PUSH1 0x40 CALLDATASIZE PUSH1 0x3 NOT ADD SLT PUSH2 0x585 JUMPI PUSH2 0x1913 PUSH2 0x3D73 JUMP JUMPDEST PUSH1 0x4 CALLDATALOAD PUSH1 0x0 MSTORE PUSH1 0x1 PUSH1 0x20 MSTORE PUSH1 0x40 PUSH1 0x0 KECCAK256 SWAP1 PUSH1 0x1 DUP1 PUSH1 0xA0 SHL SUB AND PUSH1 0x0 MSTORE PUSH1 0x20 MSTORE PUSH1 0x20 PUSH1 0xFF PUSH1 0x40 PUSH1 0x0 KECCAK256 SLOAD AND PUSH1 0x40 MLOAD SWAP1 ISZERO ISZERO DUP2 MSTORE RETURN JUMPDEST CALLVALUE PUSH2 0x585 JUMPI PUSH1 0x40 CALLDATASIZE PUSH1 0x3 NOT ADD SLT PUSH2 0x585 JUMPI PUSH2 0x1960 PUSH2 0x3D73 JUMP JUMPDEST PUSH1 0x4 CALLDATALOAD PUSH1 0x0 MSTORE PUSH1 0x4 PUSH1 0x20 MSTORE PUSH1 0x40 PUSH1 0x0 KECCAK256 SWAP1 PUSH1 0x1 DUP1 PUSH1 0xA0 SHL SUB AND PUSH1 0x0 MSTORE PUSH1 0x20 MSTORE PUSH1 0x20 PUSH1 0xFF PUSH1 0x40 PUSH1 0x0 KECCAK256 SLOAD AND PUSH1 0x40 MLOAD SWAP1 ISZERO ISZERO DUP2 MSTORE RETURN JUMPDEST CALLVALUE PUSH2 0x585 JUMPI PUSH1 0x0 CALLDATASIZE PUSH1 0x3 NOT ADD SLT PUSH2 0x585 JUMPI PUSH1 0x20 PUSH1 0x40 MLOAD PUSH1 0x32 DUP2 MSTORE RETURN JUMPDEST CALLVALUE PUSH2 0x585 JUMPI PUSH1 0x0 CALLDATASIZE PUSH1 0x3 NOT ADD SLT PUSH2 0x585 JUMPI PUSH2 0x19C9 PUSH2 0x4441 JUMP JUMPDEST PUSH2 0x19D1 PUSH2 0x4A46 JUMP JUMPDEST PUSH1 0x1 PUSH1 0xFF NOT PUSH1 0x2 SLOAD AND OR PUSH1 0x2 SSTORE PUSH32 0x62E78CEA01BEE320CD4E420270B5EA74000D11B0C9F74754EBDBFC544B05A258 PUSH1 0x20 PUSH1 0x40 MLOAD CALLER DUP2 MSTORE LOG1 STOP JUMPDEST CALLVALUE PUSH2 0x585 JUMPI PUSH1 0x20 CALLDATASIZE PUSH1 0x3 NOT ADD SLT PUSH2 0x585 JUMPI PUSH1 0x4 CALLDATALOAD DUP1 PUSH1 0x0 MSTORE PUSH1 0x3 PUSH1 0x20 MSTORE PUSH2 0x1A3E PUSH1 0xFF PUSH1 0xA PUSH1 0x40 PUSH1 0x0 KECCAK256 ADD SLOAD PUSH1 0x10 SHR AND PUSH2 0x3DCF JUMP JUMPDEST PUSH1 0x0 MSTORE PUSH1 0x3 PUSH1 0x20 MSTORE PUSH1 0x20 PUSH1 0x3 PUSH1 0x40 PUSH1 0x0 KECCAK256 ADD SLOAD PUSH1 0x40 MLOAD SWAP1 DUP2 MSTORE RETURN JUMPDEST CALLVALUE PUSH2 0x585 JUMPI PUSH1 0x20 DUP1 PUSH1 0x3 NOT CALLDATASIZE ADD SLT PUSH2 0x585 JUMPI PUSH1 0x4 CALLDATALOAD SWAP1 DUP2 PUSH1 0x0 MSTORE PUSH1 0x3 DUP2 MSTORE PUSH2 0x1A8E PUSH1 0xFF PUSH1 0xA PUSH1 0x40 PUSH1 0x0 KECCAK256 ADD SLOAD PUSH1 0x10 SHR AND PUSH2 0x3DCF JUMP JUMPDEST DUP2 PUSH1 0x0 MSTORE PUSH1 0x3 DUP2 MSTORE PUSH1 0xFF PUSH1 0x2 PUSH1 0x40 PUSH1 0x0 KECCAK256 ADD SLOAD AND PUSH1 0x6 DUP2 LT ISZERO PUSH2 0x534 JUMPI PUSH1 0x4 PUSH2 0x1AB7 SWAP2 EQ PUSH2 0x3E11 JUMP JUMPDEST DUP2 PUSH1 0x0 MSTORE PUSH1 0x3 DUP2 MSTORE PUSH1 0x40 PUSH1 0x0 KECCAK256 SWAP1 PUSH1 0x8 DUP2 MSTORE PUSH1 0x40 PUSH1 0x0 KECCAK256 SLOAD PUSH1 0x9 DUP4 ADD SLOAD GT ISZERO PUSH2 0x1D04 JUMPI PUSH32 0xB2EB88090DF831C336C2AC91FD704E50D1166EF93798DAE04ECDB78950A49171 PUSH1 0x0 MSTORE PUSH1 0x1 DUP2 MSTORE PUSH1 0x40 PUSH1 0x0 KECCAK256 CALLER PUSH1 0x0 MSTORE DUP2 MSTORE PUSH1 0xFF PUSH1 0x40 PUSH1 0x0 KECCAK256 SLOAD AND DUP1 ISZERO PUSH2 0x1CEE JUMPI JUMPDEST DUP1 ISZERO PUSH2 0x1CD2 JUMPI JUMPDEST PUSH2 0x1B2D SWAP1 PUSH2 0x40B3 JUMP JUMPDEST PUSH1 0xA DUP3 ADD SLOAD SWAP2 PUSH1 0xFF DUP4 AND PUSH1 0x3 DUP2 LT ISZERO PUSH2 0x534 JUMPI PUSH1 0x1 EQ PUSH2 0x1C71 JUMPI JUMPDEST PUSH1 0x1 DUP1 PUSH1 0xA0 SHL SUB DUP1 SWAP4 PUSH1 0x18 SHR AND SWAP2 PUSH1 0x7 DUP3 ADD SWAP3 PUSH12 0xFFFFFFFFFFFFFFFFFFFFFFFF PUSH1 0xA0 SHL SWAP1 DUP1 DUP3 DUP7 SLOAD AND OR DUP6 SSTORE PUSH1 0x2 DUP5 ADD PUSH1 0x5 PUSH1 0xFF NOT DUP3 SLOAD AND OR SWAP1 SSTORE DUP7 PUSH1 0x0 MSTORE PUSH1 0x9 DUP4 MSTORE PUSH1 0x40 PUSH1 0x0 KECCAK256 SWAP2 DUP3 SLOAD AND OR SWAP1 SSTORE DUP4 PUSH1 0x5 PUSH1 0x3 DUP5 ADD SWAP4 PUSH1 0x0 DUP6 SLOAD SWAP6 SSTORE ADD SLOAD AND DUP1 ISZERO PUSH1 0x0 EQ PUSH2 0x1BFA JUMPI POP POP PUSH1 0x0 DUP1 DUP1 DUP1 PUSH2 0x1BD0 SWAP5 DUP8 DUP8 SLOAD AND GAS CALL PUSH2 0x1BCA PUSH2 0x3FD3 JUMP JUMPDEST POP PUSH2 0x40EE JUMP JUMPDEST SLOAD AND SWAP1 PUSH32 0x72FB76A29123692C5ADAFFDCB4B4B04EE08C125417B72495933D24ADC48693A PUSH1 0x0 DUP1 LOG3 STOP JUMPDEST DUP4 SLOAD PUSH1 0x40 MLOAD PUSH4 0xA9059CBB PUSH1 0xE0 SHL DUP2 MSTORE SWAP1 DUP7 AND PUSH1 0x1 PUSH1 0x1 PUSH1 0xA0 SHL SUB AND PUSH1 0x4 DUP3 ADD MSTORE PUSH1 0x24 DUP2 ADD SWAP4 SWAP1 SWAP4 MSTORE SWAP1 SWAP2 SWAP1 DUP3 SWAP1 DUP3 SWAP1 DUP2 PUSH1 0x0 DUP2 PUSH1 0x44 DUP2 ADD SUB SWAP3 GAS CALL SWAP1 DUP2 ISZERO PUSH2 0x480 JUMPI PUSH2 0x1C4F SWAP3 PUSH1 0x0 SWAP3 PUSH2 0x1C54 JUMPI JUMPDEST POP POP PUSH2 0x40EE JUMP JUMPDEST PUSH2 0x1BD0 JUMP JUMPDEST PUSH2 0x1C6A SWAP3 POP DUP1 RETURNDATASIZE LT PUSH2 0x479 JUMPI PUSH2 0x46B DUP2 DUP4 PUSH2 0x3B58 JUMP JUMPDEST DUP6 DUP1 PUSH2 0x1C48 JUMP JUMPDEST PUSH1 0x18 DUP4 SWAP1 SHR PUSH1 0x1 PUSH1 0x1 PUSH1 0xA0 SHL SUB AND PUSH2 0x1B48 JUMPI PUSH1 0x40 MLOAD PUSH3 0x461BCD PUSH1 0xE5 SHL DUP2 MSTORE PUSH1 0x4 DUP2 ADD DUP4 SWAP1 MSTORE PUSH1 0x21 PUSH1 0x24 DUP3 ADD MSTORE PUSH32 0x4D6174682070757A7A6C65206E6F742070726F7065726C792076657269666965 PUSH1 0x44 DUP3 ADD MSTORE PUSH1 0x19 PUSH1 0xFA SHL PUSH1 0x64 DUP3 ADD MSTORE PUSH1 0x84 SWAP1 REVERT JUMPDEST POP PUSH1 0xA DUP3 ADD SLOAD CALLER PUSH1 0x18 SWAP2 SWAP1 SWAP2 SHR PUSH1 0x1 PUSH1 0x1 PUSH1 0xA0 SHL SUB AND EQ PUSH2 0x1B24 JUMP JUMPDEST POP PUSH1 0x6 DUP3 ADD SLOAD PUSH1 0x1 PUSH1 0x1 PUSH1 0xA0 SHL SUB AND CALLER EQ PUSH2 0x1B1D JUMP JUMPDEST PUSH1 0x64 SWAP1 PUSH1 0x40 MLOAD SWAP1 PUSH3 0x461BCD PUSH1 0xE5 SHL DUP3 MSTORE PUSH1 0x4 DUP3 ADD MSTORE PUSH1 0x19 PUSH1 0x24 DUP3 ADD MSTORE PUSH32 0x4368616C6C656E676573206D656574207468726573686F6C6400000000000000 PUSH1 0x44 DUP3 ADD MSTORE REVERT JUMPDEST CALLVALUE PUSH2 0x585 JUMPI PUSH1 0xE0 CALLDATASIZE PUSH1 0x3 NOT ADD SLT PUSH2 0x585 JUMPI PUSH1 0x4 CALLDATALOAD PUSH1 0x1 PUSH1 0x1 PUSH1 0x40 SHL SUB DUP2 GT PUSH2 0x585 JUMPI PUSH2 0x1D78 SWAP1 CALLDATASIZE SWAP1 PUSH1 0x4 ADD PUSH2 0x3B94 JUMP JUMPDEST PUSH1 0x64 CALLDATALOAD PUSH1 0x1 PUSH1 0x1 PUSH1 0xA0 SHL SUB DUP2 AND DUP2 SUB PUSH2 0x585 JUMPI PUSH1 0x3 PUSH1 0xA4 CALLDATALOAD LT ISZERO PUSH2 0x585 JUMPI PUSH1 0xC4 CALLDATALOAD PUSH1 0x1 PUSH1 0x1 PUSH1 0x40 SHL SUB DUP2 GT PUSH2 0x585 JUMPI PUSH2 0x1DB5 SWAP1 CALLDATASIZE SWAP1 PUSH1 0x4 ADD PUSH2 0x3B94 JUMP JUMPDEST SWAP1 DUP3 MLOAD DUP1 ISZERO ISZERO SWAP1 DUP2 PUSH2 0x24E5 JUMPI JUMPDEST POP ISZERO PUSH2 0x24A8 JUMPI PUSH1 0x44 CALLDATALOAD ISZERO PUSH2 0x2463 JUMPI PUSH1 0x84 CALLDATALOAD ISZERO ISZERO DUP1 PUSH2 0x2456 JUMPI JUMPDEST ISZERO PUSH2 0x2418 JUMPI PUSH1 0x0 PUSH1 0xA4 CALLDATALOAD ISZERO DUP1 ISZERO PUSH2 0x2409 JUMPI JUMPDEST ISZERO PUSH2 0x2365 JUMPI POP PUSH1 0x24 CALLDATALOAD ISZERO PUSH2 0x2314 JUMPI DUP2 MLOAD PUSH2 0x22BD JUMPI JUMPDEST PUSH1 0xC SLOAD SWAP2 PUSH2 0x1E0F DUP4 PUSH2 0x3E67 JUMP JUMPDEST PUSH1 0xC SSTORE PUSH1 0x84 CALLDATALOAD PUSH2 0x22B5 JUMPI PUSH1 0xF SLOAD JUMPDEST PUSH1 0x10 SLOAD SWAP2 PUSH1 0x40 MLOAD SWAP3 PUSH2 0x1E2E DUP5 PUSH2 0x3B21 JUMP JUMPDEST DUP7 DUP5 MSTORE PUSH1 0x24 CALLDATALOAD PUSH1 0x20 DUP6 ADD MSTORE PUSH1 0x1 PUSH1 0x40 DUP6 ADD MSTORE PUSH1 0x0 PUSH1 0x60 DUP6 ADD DUP2 SWAP1 MSTORE PUSH1 0x44 CALLDATALOAD PUSH1 0x80 DUP7 ADD MSTORE PUSH1 0x1 PUSH1 0x1 PUSH1 0xA0 SHL SUB DUP7 AND PUSH1 0xA0 DUP7 ADD MSTORE CALLER PUSH1 0xC0 DUP7 ADD MSTORE PUSH1 0xE0 DUP6 ADD MSTORE PUSH2 0x100 DUP5 ADD DUP4 SWAP1 MSTORE PUSH2 0x120 DUP5 ADD MSTORE PUSH2 0x1E89 PUSH1 0xA4 CALLDATALOAD PUSH2 0x140 DUP6 ADD PUSH2 0x3F3D JUMP JUMPDEST PUSH1 0x1 PUSH2 0x160 DUP5 ADD MSTORE PUSH1 0x1 PUSH2 0x180 DUP5 ADD MSTORE PUSH1 0x0 PUSH2 0x1A0 DUP5 ADD MSTORE PUSH2 0x1C0 DUP4 ADD MSTORE PUSH1 0x0 PUSH2 0x1E0 DUP4 ADD MSTORE DUP4 PUSH1 0x0 MSTORE PUSH1 0x3 PUSH1 0x20 MSTORE PUSH1 0x40 PUSH1 0x0 KECCAK256 SWAP5 DUP3 MLOAD DUP1 MLOAD SWAP1 PUSH1 0x1 PUSH1 0x1 PUSH1 0x40 SHL SUB DUP3 GT PUSH2 0xEED JUMPI PUSH2 0x1EDB DUP9 SLOAD PUSH2 0x3C0D JUMP JUMPDEST PUSH1 0x1F DUP2 GT PUSH2 0x2283 JUMPI JUMPDEST POP PUSH1 0x20 SWAP1 PUSH1 0x1F DUP4 GT PUSH1 0x1 EQ PUSH2 0x2217 JUMPI PUSH2 0x1F15 SWAP3 SWAP2 PUSH1 0x0 SWAP2 DUP4 PUSH2 0x220C JUMPI POP POP DUP2 PUSH1 0x1 SHL SWAP2 PUSH1 0x0 NOT SWAP1 PUSH1 0x3 SHL SHR NOT AND OR SWAP1 JUMP JUMPDEST DUP7 SSTORE JUMPDEST PUSH1 0x20 DUP4 ADD MLOAD PUSH1 0x1 DUP8 ADD SSTORE PUSH1 0x40 DUP4 ADD MLOAD PUSH1 0x6 DUP2 LT ISZERO PUSH2 0x534 JUMPI PUSH1 0x2 DUP8 ADD DUP1 SLOAD PUSH1 0xFF SWAP3 SWAP1 SWAP3 AND PUSH1 0xFF NOT SWAP3 DUP4 AND OR SWAP1 SSTORE PUSH1 0x60 DUP5 ADD MLOAD PUSH1 0x3 DUP1 DUP10 ADD SWAP2 SWAP1 SWAP2 SSTORE PUSH1 0x80 DUP6 ADD MLOAD PUSH1 0x4 DUP10 ADD SSTORE PUSH1 0xA0 DUP6 ADD MLOAD PUSH1 0x5 DUP10 ADD DUP1 SLOAD PUSH1 0x1 PUSH1 0x1 PUSH1 0xA0 SHL SUB NOT SWAP1 DUP2 AND PUSH1 0x1 PUSH1 0x1 PUSH1 0xA0 SHL SUB SWAP4 DUP5 AND OR SWAP1 SWAP2 SSTORE PUSH1 0xC0 DUP8 ADD MLOAD PUSH1 0x6 DUP12 ADD DUP1 SLOAD DUP4 AND SWAP2 DUP5 AND SWAP2 SWAP1 SWAP2 OR SWAP1 SSTORE PUSH1 0xE0 DUP8 ADD MLOAD PUSH1 0x7 DUP12 ADD DUP1 SLOAD SWAP1 SWAP3 AND SWAP3 AND SWAP2 SWAP1 SWAP2 OR SWAP1 SSTORE PUSH2 0x100 DUP6 ADD MLOAD PUSH1 0x8 DUP10 ADD SSTORE PUSH2 0x120 DUP6 ADD MLOAD PUSH1 0x9 DUP10 ADD SSTORE PUSH2 0x140 DUP6 ADD MLOAD PUSH1 0xA DUP10 ADD SWAP2 DUP2 LT ISZERO PUSH2 0x534 JUMPI DUP2 SLOAD PUSH2 0x160 DUP8 ADD MLOAD PUSH2 0xFF00 NOT SWAP2 SWAP1 SWAP5 AND AND PUSH1 0xFF SWAP2 SWAP1 SWAP2 AND OR SWAP2 ISZERO ISZERO PUSH1 0x8 SHL PUSH2 0xFF00 AND SWAP2 SWAP1 SWAP2 OR DUP2 SSTORE PUSH2 0x2045 SWAP1 PUSH2 0x180 DUP6 ADD MLOAD DUP2 SLOAD PUSH2 0x1A0 DUP8 ADD MLOAD PUSH3 0x10000 PUSH1 0x1 PUSH1 0xB8 SHL SUB NOT SWAP1 SWAP2 AND SWAP2 ISZERO ISZERO PUSH1 0x10 SHL PUSH3 0xFF0000 AND SWAP2 SWAP1 SWAP2 OR PUSH1 0x18 SWAP2 SWAP1 SWAP2 SHL PUSH4 0x1000000 PUSH1 0x1 PUSH1 0xB8 SHL SUB AND OR SWAP1 SSTORE JUMP JUMPDEST PUSH2 0x1C0 DUP4 ADD MLOAD SWAP2 DUP3 MLOAD SWAP7 PUSH1 0x1 PUSH1 0x1 PUSH1 0x40 SHL SUB DUP9 GT PUSH2 0xEED JUMPI PUSH1 0x20 SWAP8 DUP8 SWAP5 PUSH2 0x206F PUSH1 0xB DUP5 ADD SLOAD PUSH2 0x3C0D JUMP JUMPDEST PUSH1 0x1F DUP2 GT PUSH2 0x21D9 JUMPI JUMPDEST POP DUP10 SWAP1 PUSH1 0x1F DUP4 GT PUSH1 0x1 EQ PUSH2 0x213D JUMPI SWAP7 PUSH2 0x20D1 DUP4 PUSH1 0xC SWAP5 PUSH2 0x1E0 SWAP5 PUSH32 0x1529EA8F3E7FAAF5875BEB35F1160F9720FF09B546572A7FF0894AF4F416E838 SWAP11 SWAP12 PUSH1 0x0 SWAP3 PUSH2 0x2132 JUMPI POP POP DUP2 PUSH1 0x1 SHL SWAP2 PUSH1 0x0 NOT SWAP1 PUSH1 0x3 SHL SHR NOT AND OR SWAP1 JUMP JUMPDEST PUSH1 0xB DUP6 ADD SSTORE JUMPDEST ADD MLOAD SWAP2 ADD SSTORE PUSH2 0x20F1 PUSH1 0x40 MLOAD SWAP3 PUSH1 0xC0 DUP5 MSTORE PUSH1 0xC0 DUP5 ADD SWAP1 PUSH2 0x3D0F JUMP JUMPDEST PUSH1 0x24 CALLDATALOAD DUP4 DUP10 ADD MSTORE PUSH1 0x44 CALLDATALOAD PUSH1 0x40 DUP5 ADD MSTORE PUSH1 0x1 PUSH1 0x1 PUSH1 0xA0 SHL SUB SWAP1 SWAP6 AND PUSH1 0x60 DUP4 ADD MSTORE PUSH1 0x80 DUP3 ADD MSTORE PUSH2 0x2124 PUSH1 0xA0 DUP3 ADD PUSH1 0xA4 CALLDATALOAD PUSH2 0x3D41 JUMP JUMPDEST DUP1 CALLER SWAP5 SUB SWAP1 LOG3 PUSH1 0x40 MLOAD SWAP1 DUP2 MSTORE RETURN JUMPDEST ADD MLOAD SWAP1 POP DUP15 DUP1 PUSH2 0xDCA JUMP JUMPDEST PUSH1 0xB DUP5 SWAP9 SWAP4 SWAP3 SWAP9 ADD PUSH1 0x0 MSTORE DUP11 PUSH1 0x0 KECCAK256 SWAP1 PUSH1 0x0 JUMPDEST PUSH1 0x1F NOT DUP5 AND DUP2 LT PUSH2 0x21BF JUMPI POP DUP3 PUSH1 0xC SWAP5 SWAP3 PUSH32 0x1529EA8F3E7FAAF5875BEB35F1160F9720FF09B546572A7FF0894AF4F416E838 SWAP10 SWAP11 PUSH1 0x1 SWAP4 PUSH2 0x1E0 SWAP7 PUSH1 0x1F NOT DUP2 AND LT PUSH2 0x21A6 JUMPI JUMPDEST POP POP POP DUP2 SHL ADD PUSH1 0xB DUP6 ADD SSTORE PUSH2 0x20D7 JUMP JUMPDEST ADD MLOAD PUSH1 0x0 NOT PUSH1 0xF8 DUP5 PUSH1 0x3 SHL AND SHR NOT AND SWAP1 SSTORE DUP14 DUP1 DUP1 PUSH2 0x2196 JUMP JUMPDEST DUP2 DUP11 ADD MLOAD DUP4 SSTORE SWAP9 DUP13 ADD SWAP9 DUP12 SWAP9 POP PUSH1 0x1 SWAP1 SWAP3 ADD SWAP2 DUP13 ADD PUSH2 0x2150 JUMP JUMPDEST PUSH2 0x2206 SWAP1 PUSH1 0xB DUP6 ADD PUSH1 0x0 MSTORE DUP12 PUSH1 0x0 KECCAK256 PUSH1 0x1F DUP6 ADD PUSH1 0x5 SHR DUP2 ADD SWAP2 DUP14 DUP7 LT PUSH2 0xEE3 JUMPI PUSH1 0x1F ADD PUSH1 0x5 SHR ADD SWAP1 PUSH2 0x4040 JUMP JUMPDEST DUP11 PUSH2 0x2078 JUMP JUMPDEST ADD MLOAD SWAP1 POP DUP10 DUP1 PUSH2 0xDCA JUMP JUMPDEST SWAP2 SWAP1 DUP9 PUSH1 0x0 MSTORE PUSH1 0x20 PUSH1 0x0 KECCAK256 SWAP1 PUSH1 0x0 SWAP4 JUMPDEST PUSH1 0x1F NOT DUP5 AND DUP6 LT PUSH2 0x2268 JUMPI PUSH1 0x1 SWAP5 POP DUP4 PUSH1 0x1F NOT DUP2 AND LT PUSH2 0x224F JUMPI JUMPDEST POP POP POP DUP2 SHL ADD DUP7 SSTORE PUSH2 0x1F18 JUMP JUMPDEST ADD MLOAD PUSH1 0x0 NOT PUSH1 0xF8 DUP5 PUSH1 0x3 SHL AND SHR NOT AND SWAP1 SSTORE DUP9 DUP1 DUP1 PUSH2 0x2242 JUMP JUMPDEST DUP2 DUP2 ADD MLOAD DUP4 SSTORE PUSH1 0x20 SWAP5 DUP6 ADD SWAP5 PUSH1 0x1 SWAP1 SWAP4 ADD SWAP3 SWAP1 SWAP2 ADD SWAP1 PUSH2 0x2227 JUMP JUMPDEST PUSH2 0x22AF SWAP1 DUP10 PUSH1 0x0 MSTORE PUSH1 0x20 PUSH1 0x0 KECCAK256 PUSH1 0x1F DUP6 ADD PUSH1 0x5 SHR DUP2 ADD SWAP2 PUSH1 0x20 DUP7 LT PUSH2 0xEE3 JUMPI PUSH1 0x1F ADD PUSH1 0x5 SHR ADD SWAP1 PUSH2 0x4040 JUMP JUMPDEST DUP9 PUSH2 0x1EE4 JUMP JUMPDEST PUSH1 0x84 CALLDATALOAD PUSH2 0x1E1D JUMP JUMPDEST PUSH1 0x40 MLOAD PUSH3 0x461BCD PUSH1 0xE5 SHL DUP2 MSTORE PUSH1 0x20 PUSH1 0x4 DUP3 ADD MSTORE PUSH1 0x29 PUSH1 0x24 DUP3 ADD MSTORE PUSH32 0x526964646C652F4F746865722073686F756C646E27742068617665206F726163 PUSH1 0x44 DUP3 ADD MSTORE PUSH9 0x6C6520706172616D73 PUSH1 0xB8 SHL PUSH1 0x64 DUP3 ADD MSTORE PUSH1 0x84 SWAP1 REVERT JUMPDEST PUSH1 0x40 MLOAD PUSH3 0x461BCD PUSH1 0xE5 SHL DUP2 MSTORE PUSH1 0x20 PUSH1 0x4 DUP3 ADD MSTORE PUSH1 0x23 PUSH1 0x24 DUP3 ADD MSTORE PUSH32 0x526964646C652F4F7468657220726571756972657320736F6C7574696F6E2068 PUSH1 0x44 DUP3 ADD MSTORE PUSH3 0xC2E6D PUSH1 0xEB SHL PUSH1 0x64 DUP3 ADD MSTORE PUSH1 0x84 SWAP1 REVERT JUMPDEST PUSH2 0x534 JUMPI PUSH1 0x1 PUSH1 0xA4 CALLDATALOAD SUB PUSH2 0x1E02 JUMPI PUSH1 0x24 CALLDATALOAD PUSH2 0x23C5 JUMPI DUP2 MLOAD PUSH2 0x1E02 JUMPI PUSH1 0x40 MLOAD PUSH3 0x461BCD PUSH1 0xE5 SHL DUP2 MSTORE PUSH1 0x20 PUSH1 0x4 DUP3 ADD MSTORE PUSH1 0x1B PUSH1 0x24 DUP3 ADD MSTORE PUSH32 0x4D617468207265717569726573206F7261636C6520706172616D730000000000 PUSH1 0x44 DUP3 ADD MSTORE PUSH1 0x64 SWAP1 REVERT JUMPDEST PUSH1 0x64 PUSH1 0x40 MLOAD PUSH3 0x461BCD PUSH1 0xE5 SHL DUP2 MSTORE PUSH1 0x20 PUSH1 0x4 DUP3 ADD MSTORE PUSH1 0x20 PUSH1 0x24 DUP3 ADD MSTORE PUSH32 0x4D6174682073686F756C646E27742075736520736F6C7574696F6E2068617368 PUSH1 0x44 DUP3 ADD MSTORE REVERT JUMPDEST POP POP PUSH1 0x0 PUSH1 0x2 PUSH1 0xA4 CALLDATALOAD EQ PUSH2 0x1DED JUMP JUMPDEST PUSH1 0x40 MLOAD PUSH3 0x461BCD PUSH1 0xE5 SHL DUP2 MSTORE PUSH1 0x20 PUSH1 0x4 DUP3 ADD MSTORE PUSH1 0x16 PUSH1 0x24 DUP3 ADD MSTORE PUSH22 0x125B9D985B1A59081D9BDD19481D1A1C995CDA1BDB19 PUSH1 0x52 SHL PUSH1 0x44 DUP3 ADD MSTORE PUSH1 0x64 SWAP1 REVERT JUMPDEST POP PUSH1 0x64 PUSH1 0x84 CALLDATALOAD GT ISZERO PUSH2 0x1DDB JUMP JUMPDEST PUSH1 0x40 MLOAD PUSH3 0x461BCD PUSH1 0xE5 SHL DUP2 MSTORE PUSH1 0x20 PUSH1 0x4 DUP3 ADD MSTORE PUSH1 0x1A PUSH1 0x24 DUP3 ADD MSTORE PUSH32 0x456E74727920666565206D75737420626520706F736974697665000000000000 PUSH1 0x44 DUP3 ADD MSTORE PUSH1 0x64 SWAP1 REVERT JUMPDEST PUSH1 0x40 MLOAD PUSH3 0x461BCD PUSH1 0xE5 SHL DUP2 MSTORE PUSH1 0x20 PUSH1 0x4 DUP3 ADD MSTORE PUSH1 0x15 PUSH1 0x24 DUP3 ADD MSTORE PUSH21 0x92DCECC2D8D2C840E0EAF4F4D8CA40D8CADCCEE8D PUSH1 0x5B SHL PUSH1 0x44 DUP3 ADD MSTORE PUSH1 0x64 SWAP1 REVERT JUMPDEST PUSH2 0x3E8 SWAP2 POP GT ISZERO DUP5 PUSH2 0x1DC2 JUMP JUMPDEST CALLVALUE PUSH2 0x585 JUMPI PUSH1 0x20 CALLDATASIZE PUSH1 0x3 NOT ADD SLT PUSH2 0x585 JUMPI PUSH2 0x250B PUSH2 0x3D89 JUMP JUMPDEST PUSH2 0x2513 PUSH2 0x4441 JUMP JUMPDEST PUSH1 0x1 PUSH1 0x1 PUSH1 0xA0 SHL SUB AND PUSH1 0x0 DUP2 DUP2 MSTORE PUSH32 0xE161ABE49421BDBE04B54EE9F794DBF668947C663B3C53CBADB88CDD90C50278 PUSH1 0x20 MSTORE PUSH1 0x40 SWAP1 KECCAK256 SLOAD PUSH32 0xC63907609C1C518C230A90524384EDC1A25DF2F21481DDB99BEF5E2444C35EF0 SWAP2 SWAP1 PUSH1 0xFF AND ISZERO PUSH2 0x2577 JUMPI STOP JUMPDEST DUP2 PUSH1 0x0 MSTORE PUSH1 0x1 PUSH1 0x20 MSTORE PUSH1 0x40 PUSH1 0x0 KECCAK256 DUP2 PUSH1 0x0 MSTORE PUSH1 0x20 MSTORE PUSH1 0x40 PUSH1 0x0 KECCAK256 PUSH1 0x1 PUSH1 0xFF NOT DUP3 SLOAD AND OR SWAP1 SSTORE CALLER SWAP2 PUSH32 0x2F8788117E7EFF1D82E926EC794901D17C78024A50270940304540A733656F0D PUSH1 0x0 DUP1 LOG4 STOP JUMPDEST CALLVALUE PUSH2 0x585 JUMPI PUSH1 0x0 CALLDATASIZE PUSH1 0x3 NOT ADD SLT PUSH2 0x585 JUMPI PUSH1 0x20 PUSH1 0xFF PUSH1 0x2 SLOAD AND PUSH1 0x40 MLOAD SWAP1 ISZERO ISZERO DUP2 MSTORE RETURN JUMPDEST CALLVALUE PUSH2 0x585 JUMPI PUSH1 0x20 PUSH32 0x6A75D918A59DA9597A749B7C707F23CFA76552074B43C68A24A21DB1C45841F1 PUSH2 0x2619 CALLDATASIZE PUSH2 0x3D5D JUMP JUMPDEST PUSH2 0x2624 SWAP4 SWAP2 SWAP4 PUSH2 0x4441 JUMP JUMPDEST DUP4 PUSH1 0x0 MSTORE PUSH1 0x3 DUP3 MSTORE PUSH2 0x2643 PUSH1 0xFF PUSH1 0xA PUSH1 0x40 PUSH1 0x0 KECCAK256 ADD SLOAD PUSH1 0x10 SHR AND PUSH2 0x3DCF JUMP JUMPDEST DUP4 PUSH1 0x0 MSTORE PUSH1 0x3 DUP3 MSTORE DUP1 PUSH1 0x4 PUSH1 0x40 PUSH1 0x0 KECCAK256 ADD SSTORE PUSH1 0x40 MLOAD SWAP1 DUP2 MSTORE LOG2 STOP JUMPDEST CALLVALUE PUSH2 0x585 JUMPI PUSH1 0x20 CALLDATASIZE PUSH1 0x3 NOT ADD SLT PUSH2 0x585 JUMPI PUSH1 0x4 CALLDATALOAD PUSH2 0x267A PUSH2 0x4441 JUMP JUMPDEST DUP1 PUSH1 0x0 MSTORE PUSH1 0x3 PUSH1 0x20 MSTORE PUSH2 0x269A PUSH1 0xFF PUSH1 0xA PUSH1 0x40 PUSH1 0x0 KECCAK256 ADD SLOAD PUSH1 0x10 SHR AND PUSH2 0x3DCF JUMP JUMPDEST DUP1 PUSH1 0x0 MSTORE PUSH1 0x3 PUSH1 0x20 MSTORE PUSH1 0xFF PUSH1 0x2 PUSH1 0x40 PUSH1 0x0 KECCAK256 ADD SLOAD AND PUSH1 0x6 DUP2 LT ISZERO PUSH2 0x534 JUMPI PUSH1 0x5 SUB PUSH2 0x2729 JUMPI PUSH1 0x0 DUP2 DUP2 MSTORE PUSH1 0x3 PUSH1 0x20 MSTORE PUSH1 0x40 DUP2 KECCAK256 PUSH1 0x2 DUP1 DUP3 ADD DUP1 SLOAD PUSH1 0xFF NOT AND SWAP1 SWAP2 OR SWAP1 SSTORE PUSH1 0xA DUP2 ADD DUP1 SLOAD PUSH4 0x1000000 PUSH1 0x1 PUSH1 0xB8 SHL SUB NOT AND SWAP1 SSTORE PUSH1 0x7 ADD DUP1 SLOAD PUSH1 0x1 PUSH1 0x1 PUSH1 0xA0 SHL SUB NOT AND SWAP1 SSTORE PUSH32 0xDE24AE18B2BDA089720CA38332DF93AB6195D7B5B3B0981CCAE6B33E0A6C3F9B SWAP1 DUP1 LOG2 STOP JUMPDEST PUSH1 0x40 MLOAD PUSH3 0x461BCD PUSH1 0xE5 SHL DUP2 MSTORE PUSH1 0x20 PUSH1 0x4 DUP3 ADD MSTORE PUSH1 0xC PUSH1 0x24 DUP3 ADD MSTORE PUSH12 0x139BDD08185C98DA1A5D9959 PUSH1 0xA2 SHL PUSH1 0x44 DUP3 ADD MSTORE PUSH1 0x64 SWAP1 REVERT JUMPDEST CALLVALUE PUSH2 0x585 JUMPI PUSH1 0x60 CALLDATASIZE PUSH1 0x3 NOT ADD SLT PUSH2 0x585 JUMPI PUSH1 0x4 CALLDATALOAD PUSH2 0x2779 PUSH2 0x3D73 JUMP JUMPDEST PUSH1 0x44 CALLDATALOAD SWAP1 DUP2 ISZERO SWAP1 DUP2 ISZERO SWAP4 DUP5 DUP5 SUB PUSH2 0x585 JUMPI PUSH2 0x2792 PUSH2 0x4565 JUMP JUMPDEST DUP1 PUSH1 0x0 MSTORE PUSH1 0x20 SWAP5 PUSH1 0x3 DUP7 MSTORE PUSH2 0x27B4 PUSH1 0xFF PUSH1 0xA PUSH1 0x40 PUSH1 0x0 KECCAK256 ADD SLOAD PUSH1 0x10 SHR AND PUSH2 0x3DCF JUMP JUMPDEST DUP2 PUSH1 0x0 MSTORE PUSH1 0x3 DUP7 MSTORE PUSH1 0x40 PUSH1 0x0 KECCAK256 SWAP6 PUSH1 0xA DUP8 ADD SWAP7 DUP8 SLOAD PUSH1 0xFF DUP2 AND PUSH1 0x3 DUP2 LT ISZERO PUSH2 0x534 JUMPI PUSH1 0x1 SUB PUSH2 0x2A02 JUMPI PUSH1 0x2 DUP3 ADD SWAP9 PUSH1 0xFF DUP11 SLOAD AND PUSH1 0x6 DUP2 LT ISZERO PUSH2 0x534 JUMPI PUSH1 0x3 PUSH2 0x27FC SWAP2 EQ PUSH2 0x3F49 JUMP JUMPDEST DUP6 PUSH1 0x0 MSTORE PUSH1 0xA DUP5 MSTORE PUSH1 0x40 PUSH1 0x0 KECCAK256 SWAP7 PUSH1 0x1 DUP1 PUSH1 0xA0 SHL SUB SWAP1 DUP2 DUP2 AND SWAP9 DUP10 PUSH1 0x0 MSTORE DUP7 MSTORE PUSH2 0x282A PUSH1 0x40 PUSH1 0x0 KECCAK256 SLOAD PUSH2 0x3C0D JUMP JUMPDEST ISZERO PUSH2 0x29C7 JUMPI PUSH1 0xC DUP6 ADD SWAP11 DUP12 SLOAD TIMESTAMP GT PUSH2 0x2982 JUMPI SWAP2 PUSH32 0x156934B37A6A765531AC9332A9CEE7BFE0E5A00742DCD286B811DE4751C9BB7C SWAP8 SWAP6 SWAP4 SWAP2 PUSH1 0x40 SWAP8 SWAP6 SWAP4 PUSH2 0x28B2 JUMPI JUMPDEST POP POP POP POP POP DUP5 PUSH1 0x0 MSTORE PUSH1 0xA DUP2 MSTORE DUP3 PUSH1 0x0 KECCAK256 DUP7 PUSH1 0x0 MSTORE DUP2 MSTORE PUSH2 0x288F DUP4 PUSH1 0x0 KECCAK256 PUSH2 0x406A JUMP JUMPDEST DUP3 MLOAD SWAP2 DUP3 MSTORE CALLER SWAP1 DUP3 ADD MSTORE LOG3 PUSH2 0x28A0 JUMPI STOP JUMPDEST DUP2 SLOAD PUSH1 0xFF NOT AND PUSH1 0x2 OR SWAP1 SWAP2 SSTORE PUSH1 0x0 SWAP1 SSTORE STOP JUMPDEST PUSH2 0x28C6 PUSH2 0x28EC SWAP3 PUSH1 0xFF SWAP6 PUSH1 0x18 SHR AND ISZERO PUSH2 0x4003 JUMP JUMPDEST DUP3 SLOAD PUSH4 0x1000000 PUSH1 0x1 PUSH1 0xB8 SHL SUB NOT AND PUSH1 0x18 SWAP2 SWAP1 SWAP2 SHL PUSH4 0x1000000 PUSH1 0x1 PUSH1 0xB8 SHL SUB AND OR DUP3 SSTORE JUMP JUMPDEST PUSH1 0x4 DUP3 NOT DUP14 SLOAD AND OR DUP13 SSTORE SLOAD PUSH1 0x8 SHR AND PUSH2 0x2932 JUMPI JUMPDEST POP DUP6 DUP6 PUSH32 0xF7C67880B72EC988961E570AE4E849EB4FD9D5BA0AB550624AC429EF6D41880C PUSH1 0x0 DUP1 LOG3 DUP10 DUP1 DUP1 DUP1 DUP1 PUSH2 0x286C JUMP JUMPDEST DUP1 PUSH1 0x4 PUSH2 0x297C SWAP3 ADD SLOAD SWAP1 PUSH2 0x2956 PUSH2 0x2710 PUSH2 0x294E PUSH1 0xE SLOAD DUP6 PUSH2 0x4057 JUMP JUMPDEST DIV DUP1 SWAP4 PUSH2 0x482C JUMP JUMPDEST SWAP1 PUSH2 0x2965 DUP4 PUSH1 0x1 SHR DUP1 SWAP5 PUSH2 0x482C JUMP JUMPDEST SWAP2 PUSH2 0x2975 PUSH1 0x3 DUP4 ADD SWAP2 DUP3 SLOAD PUSH2 0x3F30 JUMP JUMPDEST SWAP1 SSTORE PUSH2 0x4839 JUMP JUMPDEST DUP10 PUSH2 0x2900 JUMP JUMPDEST PUSH1 0x40 MLOAD PUSH3 0x461BCD PUSH1 0xE5 SHL DUP2 MSTORE PUSH1 0x4 DUP2 ADD DUP9 SWAP1 MSTORE PUSH1 0x1C PUSH1 0x24 DUP3 ADD MSTORE PUSH32 0x566572696669636174696F6E20646561646C696E652070617373656400000000 PUSH1 0x44 DUP3 ADD MSTORE PUSH1 0x64 SWAP1 REVERT JUMPDEST PUSH1 0x40 MLOAD PUSH3 0x461BCD PUSH1 0xE5 SHL DUP2 MSTORE PUSH1 0x4 DUP2 ADD DUP8 SWAP1 MSTORE PUSH1 0x13 PUSH1 0x24 DUP3 ADD MSTORE PUSH19 0x139BC81CDD589B5A5CDCDA5BDB88199BDD5B99 PUSH1 0x6A SHL PUSH1 0x44 DUP3 ADD MSTORE PUSH1 0x64 SWAP1 REVERT JUMPDEST PUSH1 0x40 MLOAD PUSH3 0x461BCD PUSH1 0xE5 SHL DUP2 MSTORE PUSH1 0x4 DUP2 ADD DUP5 SWAP1 MSTORE PUSH1 0x11 PUSH1 0x24 DUP3 ADD MSTORE PUSH17 0x4E6F742061206D6174682070757A7A6C65 PUSH1 0x78 SHL PUSH1 0x44 DUP3 ADD MSTORE PUSH1 0x64 SWAP1 REVERT JUMPDEST CALLVALUE PUSH2 0x585 JUMPI PUSH1 0x0 CALLDATASIZE PUSH1 0x3 NOT ADD SLT PUSH2 0x585 JUMPI PUSH2 0x2A54 PUSH2 0x4441 JUMP JUMPDEST PUSH1 0x2 SLOAD PUSH1 0xFF DUP2 AND ISZERO PUSH2 0x2A93 JUMPI PUSH1 0xFF NOT AND PUSH1 0x2 SSTORE PUSH32 0x5DB9EE0A495BF2E6FF9C91A7834C1BA4FDD244A5E8AA4E537BD38AEAE4B073AA PUSH1 0x20 PUSH1 0x40 MLOAD CALLER DUP2 MSTORE LOG1 STOP JUMPDEST PUSH1 0x40 MLOAD PUSH3 0x461BCD PUSH1 0xE5 SHL DUP2 MSTORE PUSH1 0x20 PUSH1 0x4 DUP3 ADD MSTORE PUSH1 0x14 PUSH1 0x24 DUP3 ADD MSTORE PUSH20 0x14185D5CD8589B194E881B9BDD081C185D5CD959 PUSH1 0x62 SHL PUSH1 0x44 DUP3 ADD MSTORE PUSH1 0x64 SWAP1 REVERT JUMPDEST CALLVALUE PUSH2 0x585 JUMPI PUSH1 0x60 CALLDATASIZE PUSH1 0x3 NOT ADD SLT PUSH2 0x585 JUMPI PUSH1 0x4 CALLDATALOAD PUSH1 0x44 CALLDATALOAD PUSH1 0x24 CALLDATALOAD PUSH2 0x2AF1 PUSH2 0x4225 JUMP JUMPDEST DUP1 PUSH1 0x0 MSTORE PUSH1 0x20 SWAP2 PUSH1 0x3 DUP4 MSTORE PUSH2 0x2B13 PUSH1 0xFF PUSH1 0xA PUSH1 0x40 PUSH1 0x0 KECCAK256 ADD SLOAD PUSH1 0x10 SHR AND PUSH2 0x3DCF JUMP JUMPDEST DUP4 PUSH1 0x0 MSTORE PUSH1 0xB DUP4 MSTORE PUSH1 0x40 PUSH1 0x0 KECCAK256 SLOAD TIMESTAMP LT PUSH2 0x2C73 JUMPI DUP2 PUSH1 0x0 MSTORE PUSH1 0x3 DUP4 MSTORE PUSH2 0x2B43 PUSH1 0x3 PUSH1 0x40 PUSH1 0x0 KECCAK256 ADD SLOAD DUP3 GT ISZERO PUSH2 0x3EEF JUMP JUMPDEST PUSH1 0x0 DUP3 DUP2 MSTORE PUSH1 0x3 DUP5 MSTORE PUSH1 0x40 SWAP1 KECCAK256 PUSH1 0x5 DUP2 ADD SLOAD SWAP1 SWAP4 SWAP1 PUSH1 0x1 PUSH1 0x1 PUSH1 0xA0 SHL SUB SWAP1 DUP2 AND DUP1 PUSH2 0x2BD7 JUMPI POP SWAP1 PUSH1 0x3 PUSH32 0x65C06E47D9E4FC8ADBE172EF021CB72FEA5990C1F513885E7131185EBBD5A833 SWAP6 PUSH2 0x2BB0 PUSH1 0x0 DUP1 DUP1 DUP1 DUP10 PUSH1 0x40 SWAP12 SWAP11 SWAP10 PUSH1 0xD SLOAD AND GAS CALL PUSH2 0x2BAA PUSH2 0x3FD3 JUMP JUMPDEST POP PUSH2 0x3F95 JUMP JUMPDEST ADD PUSH2 0x2BBC DUP4 DUP3 SLOAD PUSH2 0x482C JUMP JUMPDEST SWAP1 SSTORE DUP6 PUSH1 0x0 MSTORE PUSH1 0xB DUP2 MSTORE PUSH1 0x0 DUP5 DUP2 KECCAK256 SSTORE DUP4 MLOAD SWAP3 DUP4 MSTORE DUP3 ADD MSTORE LOG2 STOP JUMPDEST PUSH1 0xD SLOAD PUSH1 0x40 MLOAD PUSH4 0xA9059CBB PUSH1 0xE0 SHL DUP2 MSTORE SWAP3 AND PUSH1 0x1 PUSH1 0x1 PUSH1 0xA0 SHL SUB AND PUSH1 0x4 DUP4 ADD MSTORE PUSH1 0x24 DUP3 ADD DUP5 SWAP1 MSTORE SWAP1 SWAP4 SWAP3 SWAP2 SWAP1 DUP2 SWAP1 DUP6 SWAP1 DUP2 PUSH1 0x0 DUP2 PUSH1 0x44 DUP2 ADD SUB SWAP3 GAS CALL DUP1 ISZERO PUSH2 0x480 JUMPI PUSH32 0x65C06E47D9E4FC8ADBE172EF021CB72FEA5990C1F513885E7131185EBBD5A833 SWAP6 PUSH2 0x2C51 PUSH1 0x3 SWAP3 PUSH1 0x40 SWAP8 PUSH1 0x0 SWAP2 PUSH2 0x2C56 JUMPI POP PUSH2 0x3F95 JUMP JUMPDEST PUSH2 0x2BB0 JUMP JUMPDEST PUSH2 0x2C6D SWAP2 POP DUP6 RETURNDATASIZE DUP8 GT PUSH2 0x479 JUMPI PUSH2 0x46B DUP2 DUP4 PUSH2 0x3B58 JUMP JUMPDEST DUP11 PUSH2 0x2BAA JUMP JUMPDEST PUSH1 0x40 MLOAD PUSH3 0x461BCD PUSH1 0xE5 SHL DUP2 MSTORE PUSH1 0x4 DUP2 ADD DUP5 SWAP1 MSTORE PUSH1 0x14 PUSH1 0x24 DUP3 ADD MSTORE PUSH20 0x151A5B595B1BD8DAC81B9BDD08195E1C1A5C9959 PUSH1 0x62 SHL PUSH1 0x44 DUP3 ADD MSTORE PUSH1 0x64 SWAP1 REVERT JUMPDEST CALLVALUE PUSH2 0x585 JUMPI PUSH1 0x40 CALLDATASIZE PUSH1 0x3 NOT ADD SLT PUSH2 0x585 JUMPI PUSH2 0x2CC8 PUSH2 0x3D73 JUMP JUMPDEST CALLER PUSH1 0x1 PUSH1 0x1 PUSH1 0xA0 SHL SUB DUP3 AND SUB PUSH2 0x2CE4 JUMPI PUSH2 0x1B SWAP1 PUSH1 0x4 CALLDATALOAD PUSH2 0x47B6 JUMP JUMPDEST PUSH1 0x40 MLOAD PUSH3 0x461BCD PUSH1 0xE5 SHL DUP2 MSTORE PUSH1 0x20 PUSH1 0x4 DUP3 ADD MSTORE PUSH1 0x2F PUSH1 0x24 DUP3 ADD MSTORE PUSH32 0x416363657373436F6E74726F6C3A2063616E206F6E6C792072656E6F756E6365 PUSH1 0x44 DUP3 ADD MSTORE PUSH15 0x103937B632B9903337B91039B2B633 PUSH1 0x89 SHL PUSH1 0x64 DUP3 ADD MSTORE PUSH1 0x84 SWAP1 REVERT JUMPDEST CALLVALUE PUSH2 0x585 JUMPI PUSH1 0x20 CALLDATASIZE PUSH1 0x3 NOT ADD SLT PUSH2 0x585 JUMPI PUSH1 0x4 CALLDATALOAD PUSH2 0x2D5D PUSH2 0x4441 JUMP JUMPDEST DUP1 ISZERO PUSH2 0x2D68 JUMPI PUSH1 0x11 SSTORE STOP JUMPDEST PUSH1 0x40 MLOAD PUSH3 0x461BCD PUSH1 0xE5 SHL DUP2 MSTORE PUSH1 0x20 PUSH1 0x4 DUP3 ADD MSTORE PUSH1 0x14 PUSH1 0x24 DUP3 ADD MSTORE PUSH20 0x466565206D75737420626520706F736974697665 PUSH1 0x60 SHL PUSH1 0x44 DUP3 ADD MSTORE PUSH1 0x64 SWAP1 REVERT JUMPDEST CALLVALUE PUSH2 0x585 JUMPI PUSH1 0x40 CALLDATASIZE PUSH1 0x3 NOT ADD SLT PUSH2 0x585 JUMPI PUSH1 0x4 CALLDATALOAD PUSH2 0x2DC0 PUSH2 0x3D73 JUMP JUMPDEST SWAP1 DUP1 PUSH1 0x0 MSTORE PUSH1 0x3 PUSH1 0x20 MSTORE PUSH2 0x2DE1 PUSH1 0xFF PUSH1 0xA PUSH1 0x40 PUSH1 0x0 KECCAK256 ADD SLOAD PUSH1 0x10 SHR AND PUSH2 0x3DCF JUMP JUMPDEST PUSH1 0x0 MSTORE PUSH1 0xA PUSH1 0x20 MSTORE PUSH1 0x40 PUSH1 0x0 KECCAK256 SWAP1 PUSH1 0x1 DUP1 PUSH1 0xA0 SHL SUB AND PUSH1 0x0 MSTORE PUSH1 0x20 MSTORE PUSH2 0x5E6 PUSH2 0x5D2 PUSH1 0x40 PUSH1 0x0 KECCAK256 PUSH2 0x3C47 JUMP JUMPDEST CALLVALUE PUSH2 0x585 JUMPI PUSH1 0x40 CALLDATASIZE PUSH1 0x3 NOT ADD SLT PUSH2 0x585 JUMPI PUSH1 0x4 CALLDATALOAD PUSH2 0x2E29 PUSH2 0x3D73 JUMP JUMPDEST DUP2 PUSH1 0x0 MSTORE PUSH1 0x1 PUSH1 0x20 MSTORE PUSH2 0x2E43 PUSH1 0x1 PUSH1 0x40 PUSH1 0x0 KECCAK256 ADD SLOAD PUSH2 0x46AB JUMP JUMPDEST DUP2 PUSH1 0x0 MSTORE PUSH1 0x1 PUSH1 0x20 MSTORE PUSH1 0x40 PUSH1 0x0 KECCAK256 SWAP1 PUSH1 0x1 DUP1 PUSH1 0xA0 SHL SUB AND SWAP1 DUP2 PUSH1 0x0 MSTORE PUSH1 0x20 MSTORE PUSH1 0xFF PUSH1 0x40 PUSH1 0x0 KECCAK256 SLOAD AND ISZERO PUSH2 0x2577 JUMPI STOP JUMPDEST CALLVALUE PUSH2 0x585 JUMPI PUSH1 0x20 CALLDATASIZE PUSH1 0x3 NOT ADD SLT PUSH2 0x585 JUMPI PUSH1 0x4 CALLDATALOAD PUSH1 0x0 MSTORE PUSH1 0x8 PUSH1 0x20 MSTORE PUSH1 0x20 PUSH1 0x40 PUSH1 0x0 KECCAK256 SLOAD PUSH1 0x40 MLOAD SWAP1 DUP2 MSTORE RETURN JUMPDEST CALLVALUE PUSH2 0x585 JUMPI PUSH1 0x0 CALLDATASIZE PUSH1 0x3 NOT ADD SLT PUSH2 0x585 JUMPI PUSH1 0x20 PUSH1 0x40 MLOAD PUSH3 0x15180 DUP2 MSTORE RETURN JUMPDEST CALLVALUE PUSH2 0x585 JUMPI PUSH1 0x20 CALLDATASIZE PUSH1 0x3 NOT ADD SLT PUSH2 0x585 JUMPI PUSH1 0x4 CALLDATALOAD PUSH1 0x0 MSTORE PUSH1 0xB PUSH1 0x20 MSTORE PUSH1 0x20 PUSH1 0x40 PUSH1 0x0 KECCAK256 SLOAD PUSH1 0x40 MLOAD SWAP1 DUP2 MSTORE RETURN JUMPDEST CALLVALUE PUSH2 0x585 JUMPI PUSH1 0x20 CALLDATASIZE PUSH1 0x3 NOT ADD SLT PUSH2 0x585 JUMPI PUSH1 0x4 CALLDATALOAD PUSH1 0x0 MSTORE PUSH1 0x1 PUSH1 0x20 MSTORE PUSH1 0x20 PUSH1 0x1 PUSH1 0x40 PUSH1 0x0 KECCAK256 ADD SLOAD PUSH1 0x40 MLOAD SWAP1 DUP2 MSTORE RETURN JUMPDEST CALLVALUE PUSH2 0x585 JUMPI PUSH1 0x0 CALLDATASIZE PUSH1 0x3 NOT ADD SLT PUSH2 0x585 JUMPI PUSH1 0x20 PUSH1 0x40 MLOAD PUSH32 0xBF233DD2AAFEB4D50879C4AA5C81E96D92F6E6945C906A58F9F2D1C1631B4B26 DUP2 MSTORE RETURN JUMPDEST CALLVALUE PUSH2 0x585 JUMPI PUSH1 0x20 CALLDATASIZE PUSH1 0x3 NOT ADD SLT PUSH2 0x585 JUMPI PUSH1 0x4 CALLDATALOAD DUP1 PUSH1 0x0 MSTORE PUSH1 0x3 PUSH1 0x20 MSTORE PUSH2 0x2F86 PUSH1 0xFF PUSH1 0xA PUSH1 0x40 PUSH1 0x0 KECCAK256 ADD SLOAD PUSH1 0x10 SHR AND PUSH2 0x3DCF JUMP JUMPDEST DUP1 PUSH1 0x0 MSTORE PUSH1 0x3 PUSH1 0x20 MSTORE PUSH1 0x40 PUSH1 0x0 KECCAK256 PUSH1 0x2 DUP2 ADD DUP1 SLOAD SWAP2 PUSH1 0xFF DUP4 AND SWAP1 PUSH1 0x6 DUP3 LT ISZERO PUSH2 0x534 JUMPI PUSH2 0x2FB7 PUSH1 0x3 PUSH1 0xC SWAP4 EQ PUSH2 0x3F49 JUMP JUMPDEST ADD SWAP1 DUP2 SLOAD TIMESTAMP GT ISZERO PUSH2 0x2FF6 JUMPI PUSH1 0x2 PUSH1 0x0 SWAP4 PUSH1 0xFF NOT AND OR SWAP1 SSTORE SSTORE PUSH32 0xB1CA659796B83B4F0A879A976BBB52E43E87049CFBF35AB5395901D2ECBAB92 PUSH1 0x0 DUP1 LOG2 STOP JUMPDEST PUSH1 0x40 MLOAD PUSH3 0x461BCD PUSH1 0xE5 SHL DUP2 MSTORE PUSH1 0x20 PUSH1 0x4 DUP3 ADD MSTORE PUSH1 0x17 PUSH1 0x24 DUP3 ADD MSTORE PUSH32 0x446561646C696E65206E6F742079657420706173736564000000000000000000 PUSH1 0x44 DUP3 ADD MSTORE PUSH1 0x64 SWAP1 REVERT JUMPDEST CALLVALUE PUSH2 0x585 JUMPI PUSH1 0x0 CALLDATASIZE PUSH1 0x3 NOT ADD SLT PUSH2 0x585 JUMPI PUSH1 0x20 PUSH1 0x40 MLOAD PUSH32 0xC63907609C1C518C230A90524384EDC1A25DF2F21481DDB99BEF5E2444C35EF0 DUP2 MSTORE RETURN JUMPDEST CALLVALUE PUSH2 0x585 JUMPI PUSH1 0x0 CALLDATASIZE PUSH1 0x3 NOT ADD SLT PUSH2 0x585 JUMPI PUSH1 0x20 PUSH1 0x11 SLOAD PUSH1 0x40 MLOAD SWAP1 DUP2 MSTORE RETURN JUMPDEST CALLVALUE PUSH2 0x585 JUMPI PUSH1 0x20 CALLDATASIZE PUSH1 0x3 NOT ADD SLT PUSH2 0x585 JUMPI PUSH1 0x4 CALLDATALOAD PUSH1 0x0 PUSH2 0x1E0 PUSH1 0x40 MLOAD PUSH2 0x30B9 DUP2 PUSH2 0x3B21 JUMP JUMPDEST PUSH1 0x60 DUP2 MSTORE DUP3 PUSH1 0x20 DUP3 ADD MSTORE DUP3 PUSH1 0x40 DUP3 ADD MSTORE DUP3 PUSH1 0x60 DUP3 ADD MSTORE DUP3 PUSH1 0x80 DUP3 ADD MSTORE DUP3 PUSH1 0xA0 DUP3 ADD MSTORE DUP3 PUSH1 0xC0 DUP3 ADD MSTORE DUP3 PUSH1 0xE0 DUP3 ADD MSTORE DUP3 PUSH2 0x100 DUP3 ADD MSTORE DUP3 PUSH2 0x120 DUP3 ADD MSTORE DUP3 PUSH2 0x140 DUP3 ADD MSTORE DUP3 PUSH2 0x160 DUP3 ADD MSTORE DUP3 PUSH2 0x180 DUP3 ADD MSTORE DUP3 PUSH2 0x1A0 DUP3 ADD MSTORE PUSH1 0x60 PUSH2 0x1C0 DUP3 ADD MSTORE ADD MSTORE DUP1 PUSH1 0x0 MSTORE PUSH1 0x3 PUSH1 0x20 MSTORE PUSH2 0x313B PUSH1 0xFF PUSH1 0xA PUSH1 0x40 PUSH1 0x0 KECCAK256 ADD SLOAD PUSH1 0x10 SHR AND PUSH2 0x3DCF JUMP JUMPDEST PUSH1 0x0 MSTORE PUSH1 0x3 PUSH1 0x20 MSTORE PUSH1 0x40 PUSH1 0x0 KECCAK256 PUSH1 0x5 PUSH1 0x20 MSTORE PUSH1 0x40 PUSH1 0x0 KECCAK256 SLOAD PUSH1 0x6 PUSH1 0x20 MSTORE PUSH1 0x40 PUSH1 0x0 KECCAK256 SLOAD SWAP2 PUSH1 0x8 PUSH1 0x20 MSTORE PUSH1 0x40 PUSH1 0x0 KECCAK256 SLOAD PUSH1 0x40 MLOAD SWAP2 PUSH2 0x3177 DUP4 PUSH2 0x3B21 JUMP JUMPDEST PUSH2 0x3180 DUP2 PUSH2 0x3C47 JUMP JUMPDEST DUP4 MSTORE PUSH1 0x1 DUP2 ADD SLOAD PUSH1 0x20 DUP5 ADD MSTORE PUSH1 0xFF PUSH1 0x2 DUP3 ADD SLOAD AND SWAP1 PUSH1 0x6 DUP3 LT ISZERO PUSH2 0x534 JUMPI PUSH1 0x40 DUP5 ADD SWAP2 SWAP1 SWAP2 MSTORE PUSH1 0x3 DUP2 ADD SLOAD PUSH1 0x60 DUP5 ADD MSTORE PUSH1 0x4 DUP2 ADD SLOAD PUSH1 0x80 DUP5 ADD MSTORE PUSH1 0x5 DUP2 ADD SLOAD PUSH1 0x1 PUSH1 0x1 PUSH1 0xA0 SHL SUB SWAP1 DUP2 AND PUSH1 0xA0 DUP6 ADD MSTORE PUSH1 0x6 DUP3 ADD SLOAD DUP2 AND PUSH1 0xC0 DUP6 ADD MSTORE PUSH1 0x7 DUP3 ADD SLOAD AND PUSH1 0xE0 DUP5 ADD MSTORE PUSH1 0x8 DUP2 ADD SLOAD PUSH2 0x100 DUP5 ADD MSTORE PUSH1 0x9 DUP2 ADD SLOAD PUSH2 0x120 DUP5 ADD MSTORE PUSH1 0xA DUP2 ADD SLOAD PUSH1 0xC SWAP2 SWAP1 PUSH2 0x3216 PUSH1 0xFF DUP3 AND PUSH2 0x140 DUP8 ADD PUSH2 0x3F3D JUMP JUMPDEST PUSH1 0x8 DUP2 SWAP1 SHR PUSH1 0xFF SWAP1 DUP2 AND ISZERO ISZERO PUSH2 0x160 DUP8 ADD MSTORE PUSH1 0x10 DUP3 SWAP1 SHR AND ISZERO ISZERO PUSH2 0x180 DUP7 ADD MSTORE PUSH1 0x18 SHR PUSH1 0x1 PUSH1 0x1 PUSH1 0xA0 SHL SUB AND PUSH2 0x1A0 DUP6 ADD MSTORE PUSH2 0x3254 PUSH1 0xB DUP3 ADD PUSH2 0x3C47 JUMP JUMPDEST PUSH2 0x1C0 DUP6 ADD MSTORE ADD SLOAD PUSH2 0x1E0 DUP4 ADD MSTORE PUSH1 0x40 MLOAD SWAP4 DUP5 SWAP4 PUSH1 0x80 DUP6 MSTORE PUSH2 0x1E0 PUSH2 0x3367 PUSH2 0x328A DUP7 MLOAD PUSH2 0x200 PUSH1 0x80 DUP11 ADD MSTORE PUSH2 0x280 DUP10 ADD SWAP1 PUSH2 0x3D0F JUMP JUMPDEST PUSH1 0x20 DUP8 ADD MLOAD PUSH1 0xA0 DUP10 ADD MSTORE PUSH2 0x32A6 PUSH1 0x40 DUP9 ADD MLOAD PUSH1 0xC0 DUP11 ADD SWAP1 PUSH2 0x3D34 JUMP JUMPDEST PUSH1 0x60 DUP8 ADD MLOAD PUSH1 0xE0 DUP10 ADD MSTORE PUSH1 0x80 DUP8 ADD MLOAD PUSH2 0x100 DUP10 ADD MSTORE PUSH1 0x1 DUP1 PUSH1 0xA0 SHL SUB PUSH1 0xA0 DUP9 ADD MLOAD AND PUSH2 0x120 DUP10 ADD MSTORE PUSH1 0x1 DUP1 PUSH1 0xA0 SHL SUB PUSH1 0xC0 DUP9 ADD MLOAD AND PUSH2 0x140 DUP10 ADD MSTORE PUSH1 0x1 DUP1 PUSH1 0xA0 SHL SUB PUSH1 0xE0 DUP9 ADD MLOAD AND PUSH2 0x160 DUP10 ADD MSTORE PUSH2 0x100 DUP8 ADD MLOAD PUSH2 0x180 DUP10 ADD MSTORE PUSH2 0x120 DUP8 ADD MLOAD PUSH2 0x1A0 DUP10 ADD MSTORE PUSH2 0x3320 PUSH2 0x140 DUP9 ADD MLOAD PUSH2 0x1C0 DUP11 ADD SWAP1 PUSH2 0x3D41 JUMP JUMPDEST PUSH2 0x160 DUP8 ADD MLOAD ISZERO ISZERO DUP9 DUP5 ADD MSTORE PUSH2 0x180 DUP8 ADD MLOAD ISZERO ISZERO PUSH2 0x200 DUP10 ADD MSTORE PUSH2 0x1A0 DUP8 ADD MLOAD PUSH1 0x1 PUSH1 0x1 PUSH1 0xA0 SHL SUB AND PUSH2 0x220 DUP10 ADD MSTORE PUSH2 0x1C0 DUP8 ADD MLOAD DUP9 DUP3 SUB PUSH1 0x7F NOT ADD PUSH2 0x240 DUP11 ADD MSTORE PUSH2 0x3D0F JUMP JUMPDEST SWAP5 ADD MLOAD PUSH2 0x260 DUP7 ADD MSTORE PUSH1 0x20 DUP6 ADD MSTORE PUSH1 0x40 DUP5 ADD MSTORE PUSH1 0x60 DUP4 ADD MSTORE SUB SWAP1 RETURN JUMPDEST CALLVALUE PUSH2 0x585 JUMPI PUSH2 0x3391 CALLDATASIZE PUSH2 0x3D5D JUMP JUMPDEST SWAP1 PUSH2 0x339A PUSH2 0x4225 JUMP JUMPDEST DUP1 PUSH1 0x0 MSTORE PUSH1 0x3 PUSH1 0x20 MSTORE PUSH2 0x33BA PUSH1 0xFF PUSH1 0xA PUSH1 0x40 PUSH1 0x0 KECCAK256 ADD SLOAD PUSH1 0x10 SHR AND PUSH2 0x3DCF JUMP JUMPDEST DUP1 PUSH1 0x0 MSTORE PUSH1 0x3 PUSH1 0x20 MSTORE PUSH2 0x33D7 PUSH1 0x3 PUSH1 0x40 PUSH1 0x0 KECCAK256 ADD SLOAD DUP4 GT ISZERO PUSH2 0x3EEF JUMP JUMPDEST PUSH1 0x40 MLOAD SWAP1 PUSH1 0x20 DUP3 ADD DUP2 DUP2 MSTORE TIMESTAMP PUSH1 0x40 DUP5 ADD MSTORE CALLER PUSH1 0x60 SHL PUSH1 0x60 DUP5 ADD MSTORE PUSH1 0x54 DUP4 MSTORE PUSH1 0x80 DUP4 ADD SWAP1 DUP4 DUP3 LT PUSH1 0x1 PUSH1 0x1 PUSH1 0x40 SHL SUB DUP4 GT OR PUSH2 0xEED JUMPI DUP2 PUSH1 0x40 MSTORE DUP4 MLOAD SWAP1 KECCAK256 SWAP4 PUSH3 0x15180 TIMESTAMP ADD DUP1 TIMESTAMP GT PUSH2 0x901 JUMPI PUSH32 0xFDBA3823F568CC62FAF441257975029C3242942798F02799332EAEE6318ADC00 SWAP5 PUSH1 0x40 SWAP5 PUSH1 0xA0 SWAP3 DUP9 PUSH1 0x0 MSTORE PUSH1 0xB PUSH1 0x20 MSTORE DUP7 PUSH1 0x0 KECCAK256 SSTORE DUP5 MSTORE ADD MSTORE LOG2 STOP JUMPDEST CALLVALUE PUSH2 0x585 JUMPI PUSH1 0x40 CALLDATASIZE PUSH1 0x3 NOT ADD SLT PUSH2 0x585 JUMPI PUSH1 0x4 CALLDATALOAD PUSH2 0x347B PUSH2 0x3D4E JUMP JUMPDEST SWAP1 DUP1 PUSH1 0x0 MSTORE PUSH1 0x20 PUSH1 0x3 DUP2 MSTORE PUSH2 0x349D PUSH1 0xFF PUSH1 0xA PUSH1 0x40 PUSH1 0x0 KECCAK256 ADD SLOAD PUSH1 0x10 SHR AND PUSH2 0x3DCF JUMP JUMPDEST DUP2 PUSH1 0x0 MSTORE PUSH1 0x3 DUP2 MSTORE PUSH1 0x40 PUSH1 0x0 KECCAK256 PUSH1 0x2 DUP2 ADD SWAP1 PUSH1 0xFF DUP3 SLOAD AND PUSH1 0x6 DUP2 LT ISZERO PUSH2 0x534 JUMPI PUSH1 0x1 PUSH2 0x34C9 SWAP2 EQ PUSH2 0x3E76 JUMP JUMPDEST DUP4 PUSH1 0x0 MSTORE PUSH1 0x4 DUP4 MSTORE PUSH1 0x40 PUSH1 0x0 KECCAK256 CALLER PUSH1 0x0 MSTORE DUP4 MSTORE PUSH1 0xFF PUSH1 0x40 PUSH1 0x0 KECCAK256 SLOAD AND PUSH2 0x3603 JUMPI PUSH1 0x0 DUP5 DUP2 MSTORE PUSH1 0x4 DUP5 MSTORE PUSH1 0x40 DUP1 DUP3 KECCAK256 CALLER DUP4 MSTORE DUP6 MSTORE SWAP1 KECCAK256 DUP1 SLOAD PUSH1 0xFF NOT SWAP1 DUP2 AND PUSH1 0x1 OR SWAP1 SWAP2 SSTORE PUSH32 0xE71FCDAC32DF1877C1700E7BDA2A03157E20993363A28FC35AC495CEFC76E4D4 SWAP4 SWAP3 SWAP2 DUP7 ISZERO PUSH2 0x35C8 JUMPI DUP6 PUSH1 0x0 MSTORE PUSH1 0x5 DUP5 MSTORE PUSH2 0x3550 PUSH2 0x3E8 PUSH1 0x40 PUSH1 0x0 KECCAK256 SLOAD LT PUSH2 0x3EB0 JUMP JUMPDEST DUP6 PUSH1 0x0 MSTORE PUSH1 0x5 DUP5 MSTORE PUSH1 0x40 PUSH1 0x0 KECCAK256 PUSH2 0x3567 DUP2 SLOAD PUSH2 0x3E67 JUMP JUMPDEST SWAP1 SSTORE DUP6 PUSH1 0x0 MSTORE PUSH1 0x5 DUP5 MSTORE PUSH1 0x8 PUSH1 0x40 PUSH1 0x0 KECCAK256 SLOAD SWAP2 ADD SLOAD GT ISZERO PUSH2 0x3593 JUMPI JUMPDEST POP POP JUMPDEST PUSH1 0x40 MLOAD SWAP4 ISZERO ISZERO DUP5 MSTORE CALLER SWAP4 LOG3 STOP JUMPDEST DUP2 SLOAD AND PUSH1 0x2 OR SWAP1 SSTORE DUP3 PUSH32 0xB2F76656A4D5058A44D6F5FD1EBED95B7EF72920BBECF069FE3973F82C24351F PUSH1 0x0 DUP1 LOG2 DUP5 DUP1 PUSH2 0x3583 JUMP JUMPDEST POP POP POP DUP3 PUSH1 0x0 MSTORE PUSH1 0x6 DUP2 MSTORE PUSH2 0x35E5 PUSH2 0x3E8 PUSH1 0x40 PUSH1 0x0 KECCAK256 SLOAD LT PUSH2 0x3EB0 JUMP JUMPDEST DUP3 PUSH1 0x0 MSTORE PUSH1 0x6 DUP2 MSTORE PUSH1 0x40 PUSH1 0x0 KECCAK256 PUSH2 0x35FC DUP2 SLOAD PUSH2 0x3E67 JUMP JUMPDEST SWAP1 SSTORE PUSH2 0x3586 JUMP JUMPDEST PUSH1 0x40 MLOAD PUSH3 0x461BCD PUSH1 0xE5 SHL DUP2 MSTORE PUSH1 0x4 DUP2 ADD DUP5 SWAP1 MSTORE PUSH1 0xD PUSH1 0x24 DUP3 ADD MSTORE PUSH13 0x105B1C9958591E481D9BDD1959 PUSH1 0x9A SHL PUSH1 0x44 DUP3 ADD MSTORE PUSH1 0x64 SWAP1 REVERT JUMPDEST CALLVALUE PUSH2 0x585 JUMPI PUSH1 0x20 CALLDATASIZE PUSH1 0x3 NOT ADD SLT PUSH2 0x585 JUMPI PUSH1 0x4 CALLDATALOAD PUSH1 0x0 MSTORE PUSH1 0x3 PUSH1 0x20 MSTORE PUSH1 0x40 PUSH1 0x0 KECCAK256 PUSH2 0x3662 DUP2 PUSH2 0x3C47 JUMP JUMPDEST PUSH1 0x1 DUP3 ADD SLOAD PUSH1 0x2 DUP4 ADD SLOAD PUSH1 0xFF AND SWAP3 PUSH1 0x3 DUP2 ADD SLOAD SWAP2 PUSH1 0x4 DUP3 ADD SLOAD PUSH1 0x1 PUSH1 0xA0 SHL PUSH1 0x1 SWAP1 SUB SWAP1 DUP2 PUSH1 0x5 DUP6 ADD SLOAD AND DUP3 PUSH1 0x6 DUP7 ADD SLOAD AND DUP4 PUSH1 0x7 DUP8 ADD SLOAD AND PUSH1 0x8 DUP8 ADD SLOAD SWAP2 PUSH1 0x9 DUP9 ADD SLOAD SWAP4 PUSH1 0xA DUP10 ADD SLOAD SWAP6 PUSH1 0xB DUP11 ADD PUSH2 0x36B9 SWAP1 PUSH2 0x3C47 JUMP JUMPDEST SWAP10 PUSH1 0xC ADD SLOAD SWAP11 PUSH1 0x40 MLOAD SWAP14 DUP15 DUP1 SWAP15 PUSH2 0x200 DUP1 DUP4 MSTORE DUP3 ADD PUSH2 0x36D7 SWAP2 PUSH2 0x3D0F JUMP JUMPDEST SWAP12 PUSH1 0x20 DUP3 ADD MSTORE PUSH1 0x40 ADD PUSH2 0x36E9 SWAP2 PUSH2 0x3D34 JUMP JUMPDEST PUSH1 0x60 DUP14 ADD MSTORE PUSH1 0x80 DUP13 ADD MSTORE PUSH1 0xA0 DUP12 ADD MSTORE PUSH1 0xC0 DUP11 ADD MSTORE PUSH1 0xE0 DUP10 ADD MSTORE PUSH2 0x100 DUP9 ADD MSTORE PUSH2 0x120 DUP8 ADD MSTORE PUSH2 0x371F PUSH2 0x140 DUP8 ADD PUSH1 0xFF DUP4 AND PUSH2 0x3D41 JUMP JUMPDEST DUP1 PUSH1 0x8 SHR PUSH1 0xFF AND ISZERO ISZERO PUSH2 0x160 DUP8 ADD MSTORE DUP1 PUSH1 0x10 SHR PUSH1 0xFF AND ISZERO ISZERO PUSH2 0x180 DUP8 ADD MSTORE PUSH1 0x18 SHR AND PUSH2 0x1A0 DUP6 ADD MSTORE DUP4 DUP2 SUB PUSH2 0x1C0 DUP6 ADD MSTORE PUSH2 0x3759 SWAP2 PUSH2 0x3D0F JUMP JUMPDEST SWAP1 PUSH2 0x1E0 DUP4 ADD MSTORE SUB SWAP1 RETURN JUMPDEST PUSH2 0x376D CALLDATASIZE PUSH2 0x3BDB JUMP JUMPDEST SWAP1 PUSH2 0x3776 PUSH2 0x41CF JUMP JUMPDEST DUP1 PUSH1 0x0 MSTORE PUSH1 0x20 SWAP2 PUSH1 0x3 DUP4 MSTORE PUSH2 0x3798 PUSH1 0xFF PUSH1 0xA PUSH1 0x40 PUSH1 0x0 KECCAK256 ADD SLOAD PUSH1 0x10 SHR AND PUSH2 0x3DCF JUMP JUMPDEST DUP2 PUSH1 0x0 MSTORE PUSH1 0x3 DUP4 MSTORE PUSH1 0xFF PUSH1 0x2 PUSH1 0x40 PUSH1 0x0 KECCAK256 ADD SLOAD AND PUSH1 0x6 DUP2 LT ISZERO PUSH2 0x534 JUMPI PUSH1 0x4 PUSH2 0x37C1 SWAP2 EQ PUSH2 0x3E11 JUMP JUMPDEST DUP1 MLOAD DUP1 ISZERO ISZERO SWAP1 DUP2 PUSH2 0x3A96 JUMPI JUMPDEST POP ISZERO PUSH2 0x3A59 JUMPI DUP2 PUSH1 0x0 MSTORE PUSH1 0x3 DUP4 MSTORE PUSH1 0x40 PUSH1 0x0 KECCAK256 PUSH1 0x7 DUP5 MSTORE PUSH1 0x40 PUSH1 0x0 KECCAK256 CALLER PUSH1 0x0 MSTORE DUP5 MSTORE PUSH1 0xFF PUSH1 0x40 PUSH1 0x0 KECCAK256 SLOAD AND PUSH2 0x3A1F JUMPI DUP3 PUSH1 0x0 MSTORE PUSH1 0x8 DUP5 MSTORE PUSH1 0x32 PUSH1 0x40 PUSH1 0x0 KECCAK256 SLOAD LT ISZERO PUSH2 0x39E2 JUMPI PUSH1 0x11 SLOAD PUSH1 0x5 DUP3 ADD SLOAD SWAP1 SWAP2 SWAP1 PUSH1 0x1 PUSH1 0x1 PUSH1 0xA0 SHL SUB AND DUP1 PUSH2 0x3909 JUMPI POP DUP2 CALLVALUE SUB PUSH2 0x38C4 JUMPI SWAP2 PUSH2 0x38BA SWAP2 PUSH2 0x3868 PUSH1 0x3 PUSH32 0x4A0952902E092AF0D23149E043F8DD57E941B922B429DFE81A6B47AF7253AF03 SWAP6 ADD SWAP2 DUP3 SLOAD PUSH2 0x3F30 JUMP JUMPDEST SWAP1 SSTORE JUMPDEST DUP4 PUSH1 0x0 MSTORE PUSH1 0x7 DUP6 MSTORE PUSH1 0x40 PUSH1 0x0 KECCAK256 CALLER PUSH1 0x0 MSTORE DUP6 MSTORE PUSH1 0x40 PUSH1 0x0 KECCAK256 PUSH1 0x1 PUSH1 0xFF NOT DUP3 SLOAD AND OR SWAP1 SSTORE DUP4 PUSH1 0x0 MSTORE PUSH1 0x8 DUP6 MSTORE PUSH1 0x40 PUSH1 0x0 KECCAK256 PUSH2 0x38A5 DUP2 SLOAD PUSH2 0x3E67 JUMP JUMPDEST SWAP1 SSTORE PUSH1 0x40 MLOAD SWAP2 DUP3 SWAP2 DUP7 DUP4 MSTORE CALLER SWAP7 DUP4 ADD SWAP1 PUSH2 0x3D0F JUMP JUMPDEST SUB SWAP1 LOG3 PUSH1 0x1 PUSH1 0x0 SSTORE STOP JUMPDEST PUSH1 0x40 MLOAD PUSH3 0x461BCD PUSH1 0xE5 SHL DUP2 MSTORE PUSH1 0x4 DUP2 ADD DUP7 SWAP1 MSTORE PUSH1 0x17 PUSH1 0x24 DUP3 ADD MSTORE PUSH32 0x496E636F7272656374206368616C6C656E676520666565000000000000000000 PUSH1 0x44 DUP3 ADD MSTORE PUSH1 0x64 SWAP1 REVERT JUMPDEST PUSH1 0x40 MLOAD PUSH4 0x23B872DD PUSH1 0xE0 SHL DUP2 MSTORE CALLER PUSH1 0x4 DUP3 ADD MSTORE ADDRESS PUSH1 0x24 DUP3 ADD MSTORE PUSH1 0x44 DUP2 ADD DUP5 SWAP1 MSTORE SWAP1 DUP7 SWAP1 DUP3 SWAP1 PUSH1 0x64 SWAP1 DUP3 SWAP1 PUSH1 0x0 SWAP1 GAS CALL SWAP1 DUP2 ISZERO PUSH2 0x480 JUMPI PUSH1 0x0 SWAP2 PUSH2 0x39C5 JUMPI JUMPDEST POP ISZERO PUSH2 0x3989 JUMPI SWAP2 PUSH2 0x38BA SWAP2 PUSH2 0x3982 PUSH1 0x3 PUSH32 0x4A0952902E092AF0D23149E043F8DD57E941B922B429DFE81A6B47AF7253AF03 SWAP6 ADD SWAP2 DUP3 SLOAD PUSH2 0x3F30 JUMP JUMPDEST SWAP1 SSTORE PUSH2 0x386B JUMP JUMPDEST PUSH1 0x40 MLOAD PUSH3 0x461BCD PUSH1 0xE5 SHL DUP2 MSTORE PUSH1 0x4 DUP2 ADD DUP7 SWAP1 MSTORE PUSH1 0x14 PUSH1 0x24 DUP3 ADD MSTORE PUSH20 0x10DA185B1B195B99D9481999594819985A5B1959 PUSH1 0x62 SHL PUSH1 0x44 DUP3 ADD MSTORE PUSH1 0x64 SWAP1 REVERT JUMPDEST PUSH2 0x39DC SWAP2 POP DUP7 RETURNDATASIZE DUP9 GT PUSH2 0x479 JUMPI PUSH2 0x46B DUP2 DUP4 PUSH2 0x3B58 JUMP JUMPDEST DUP7 PUSH2 0x3947 JUMP JUMPDEST PUSH1 0x40 MLOAD PUSH3 0x461BCD PUSH1 0xE5 SHL DUP2 MSTORE PUSH1 0x4 DUP2 ADD DUP6 SWAP1 MSTORE PUSH1 0x15 PUSH1 0x24 DUP3 ADD MSTORE PUSH21 0x10DA185B1B195B99D94818D85C081C995858DA1959 PUSH1 0x5A SHL PUSH1 0x44 DUP3 ADD MSTORE PUSH1 0x64 SWAP1 REVERT JUMPDEST PUSH1 0x40 MLOAD PUSH3 0x461BCD PUSH1 0xE5 SHL DUP2 MSTORE PUSH1 0x4 DUP2 ADD DUP6 SWAP1 MSTORE PUSH1 0x12 PUSH1 0x24 DUP3 ADD MSTORE PUSH18 0x105B1C9958591E4818DA185B1B195B99D959 PUSH1 0x72 SHL PUSH1 0x44 DUP3 ADD MSTORE PUSH1 0x64 SWAP1 REVERT JUMPDEST PUSH1 0x40 MLOAD PUSH3 0x461BCD PUSH1 0xE5 SHL DUP2 MSTORE PUSH1 0x4 DUP2 ADD DUP5 SWAP1 MSTORE PUSH1 0x15 PUSH1 0x24 DUP3 ADD MSTORE PUSH21 0x92DCECC2D8D2C840E4CAC2E6DEDC40D8CADCCEE8D PUSH1 0x5B SHL PUSH1 0x44 DUP3 ADD MSTORE PUSH1 0x64 SWAP1 REVERT JUMPDEST PUSH1 0xC8 SWAP2 POP GT ISZERO DUP5 PUSH2 0x37CD JUMP JUMPDEST CALLVALUE PUSH2 0x585 JUMPI PUSH1 0x20 CALLDATASIZE PUSH1 0x3 NOT ADD SLT PUSH2 0x585 JUMPI PUSH1 0x4 CALLDATALOAD PUSH1 0x0 MSTORE PUSH1 0x5 PUSH1 0x20 MSTORE PUSH1 0x20 PUSH1 0x40 PUSH1 0x0 KECCAK256 SLOAD PUSH1 0x40 MLOAD SWAP1 DUP2 MSTORE RETURN JUMPDEST CALLVALUE PUSH2 0x585 JUMPI PUSH1 0x20 CALLDATASIZE PUSH1 0x3 NOT ADD SLT PUSH2 0x585 JUMPI PUSH1 0x4 CALLDATALOAD SWAP1 PUSH4 0xFFFFFFFF PUSH1 0xE0 SHL DUP3 AND DUP1 SWAP3 SUB PUSH2 0x585 JUMPI PUSH1 0x20 SWAP2 PUSH4 0x7965DB0B PUSH1 0xE0 SHL DUP2 EQ SWAP1 DUP2 ISZERO PUSH2 0x3B10 JUMPI JUMPDEST POP ISZERO ISZERO DUP2 MSTORE RETURN JUMPDEST PUSH4 0x1FFC9A7 PUSH1 0xE0 SHL EQ SWAP1 POP DUP4 PUSH2 0x3B09 JUMP JUMPDEST PUSH2 0x200 DUP2 ADD SWAP1 DUP2 LT PUSH1 0x1 PUSH1 0x1 PUSH1 0x40 SHL SUB DUP3 GT OR PUSH2 0xEED JUMPI PUSH1 0x40 MSTORE JUMP JUMPDEST PUSH1 0x80 DUP2 ADD SWAP1 DUP2 LT PUSH1 0x1 PUSH1 0x1 PUSH1 0x40 SHL SUB DUP3 GT OR PUSH2 0xEED JUMPI PUSH1 0x40 MSTORE JUMP JUMPDEST SWAP1 PUSH1 0x1F DUP1 NOT SWAP2 ADD AND DUP2 ADD SWAP1 DUP2 LT PUSH1 0x1 PUSH1 0x1 PUSH1 0x40 SHL SUB DUP3 GT OR PUSH2 0xEED JUMPI PUSH1 0x40 MSTORE JUMP JUMPDEST PUSH1 0x1 PUSH1 0x1 PUSH1 0x40 SHL SUB DUP2 GT PUSH2 0xEED JUMPI PUSH1 0x1F ADD PUSH1 0x1F NOT AND PUSH1 0x20 ADD SWAP1 JUMP JUMPDEST DUP2 PUSH1 0x1F DUP3 ADD SLT ISZERO PUSH2 0x585 JUMPI DUP1 CALLDATALOAD SWAP1 PUSH2 0x3BAB DUP3 PUSH2 0x3B79 JUMP JUMPDEST SWAP3 PUSH2 0x3BB9 PUSH1 0x40 MLOAD SWAP5 DUP6 PUSH2 0x3B58 JUMP JUMPDEST DUP3 DUP5 MSTORE PUSH1 0x20 DUP4 DUP4 ADD ADD GT PUSH2 0x585 JUMPI DUP2 PUSH1 0x0 SWAP3 PUSH1 0x20 DUP1 SWAP4 ADD DUP4 DUP7 ADD CALLDATACOPY DUP4 ADD ADD MSTORE SWAP1 JUMP JUMPDEST SWAP1 PUSH1 0x40 PUSH1 0x3 NOT DUP4 ADD SLT PUSH2 0x585 JUMPI PUSH1 0x4 CALLDATALOAD SWAP2 PUSH1 0x24 CALLDATALOAD SWAP1 PUSH1 0x1 PUSH1 0x1 PUSH1 0x40 SHL SUB DUP3 GT PUSH2 0x585 JUMPI PUSH2 0x3C0A SWAP2 PUSH1 0x4 ADD PUSH2 0x3B94 JUMP JUMPDEST SWAP1 JUMP JUMPDEST SWAP1 PUSH1 0x1 DUP3 DUP2 SHR SWAP3 AND DUP1 ISZERO PUSH2 0x3C3D JUMPI JUMPDEST PUSH1 0x20 DUP4 LT EQ PUSH2 0x3C27 JUMPI JUMP JUMPDEST PUSH4 0x4E487B71 PUSH1 0xE0 SHL PUSH1 0x0 MSTORE PUSH1 0x22 PUSH1 0x4 MSTORE PUSH1 0x24 PUSH1 0x0 REVERT JUMPDEST SWAP2 PUSH1 0x7F AND SWAP2 PUSH2 0x3C1C JUMP JUMPDEST SWAP1 PUSH1 0x40 MLOAD SWAP2 DUP3 PUSH1 0x0 DUP3 SLOAD PUSH2 0x3C5A DUP2 PUSH2 0x3C0D JUMP JUMPDEST SWAP1 DUP2 DUP5 MSTORE PUSH1 0x20 SWAP5 PUSH1 0x1 SWAP2 PUSH1 0x1 DUP2 AND SWAP1 DUP2 PUSH1 0x0 EQ PUSH2 0x3CCA JUMPI POP PUSH1 0x1 EQ PUSH2 0x3C8B JUMPI JUMPDEST POP POP POP PUSH2 0x3C89 SWAP3 POP SUB DUP4 PUSH2 0x3B58 JUMP JUMPDEST JUMP JUMPDEST PUSH1 0x0 SWAP1 DUP2 MSTORE DUP6 DUP2 KECCAK256 SWAP6 SWAP4 POP SWAP2 SWAP1 JUMPDEST DUP2 DUP4 LT PUSH2 0x3CB2 JUMPI POP POP PUSH2 0x3C89 SWAP4 POP DUP3 ADD ADD CODESIZE DUP1 DUP1 PUSH2 0x3C7A JUMP JUMPDEST DUP6 SLOAD DUP9 DUP5 ADD DUP6 ADD MSTORE SWAP5 DUP6 ADD SWAP5 DUP8 SWAP5 POP SWAP2 DUP4 ADD SWAP2 PUSH2 0x3C99 JUMP JUMPDEST SWAP3 POP POP POP PUSH2 0x3C89 SWAP5 SWAP3 POP PUSH1 0xFF NOT AND DUP3 DUP5 ADD MSTORE ISZERO ISZERO PUSH1 0x5 SHL DUP3 ADD ADD CODESIZE DUP1 DUP1 PUSH2 0x3C7A JUMP JUMPDEST PUSH1 0x0 JUMPDEST DUP4 DUP2 LT PUSH2 0x3CFF JUMPI POP POP PUSH1 0x0 SWAP2 ADD MSTORE JUMP JUMPDEST DUP2 DUP2 ADD MLOAD DUP4 DUP3 ADD MSTORE PUSH1 0x20 ADD PUSH2 0x3CEF JUMP JUMPDEST SWAP1 PUSH1 0x20 SWAP2 PUSH2 0x3D28 DUP2 MLOAD DUP1 SWAP3 DUP2 DUP6 MSTORE DUP6 DUP1 DUP7 ADD SWAP2 ADD PUSH2 0x3CEC JUMP JUMPDEST PUSH1 0x1F ADD PUSH1 0x1F NOT AND ADD ADD SWAP1 JUMP JUMPDEST SWAP1 PUSH1 0x6 DUP3 LT ISZERO PUSH2 0x534 JUMPI MSTORE JUMP JUMPDEST SWAP1 PUSH1 0x3 DUP3 LT ISZERO PUSH2 0x534 JUMPI MSTORE JUMP JUMPDEST PUSH1 0x24 CALLDATALOAD SWAP1 DUP2 ISZERO ISZERO DUP3 SUB PUSH2 0x585 JUMPI JUMP JUMPDEST PUSH1 0x40 SWAP1 PUSH1 0x3 NOT ADD SLT PUSH2 0x585 JUMPI PUSH1 0x4 CALLDATALOAD SWAP1 PUSH1 0x24 CALLDATALOAD SWAP1 JUMP JUMPDEST PUSH1 0x24 CALLDATALOAD SWAP1 PUSH1 0x1 PUSH1 0x1 PUSH1 0xA0 SHL SUB DUP3 AND DUP3 SUB PUSH2 0x585 JUMPI JUMP JUMPDEST PUSH1 0x4 CALLDATALOAD SWAP1 PUSH1 0x1 PUSH1 0x1 PUSH1 0xA0 SHL SUB DUP3 AND DUP3 SUB PUSH2 0x585 JUMPI JUMP JUMPDEST SWAP2 DUP2 PUSH1 0x1F DUP5 ADD SLT ISZERO PUSH2 0x585 JUMPI DUP3 CALLDATALOAD SWAP2 PUSH1 0x1 PUSH1 0x1 PUSH1 0x40 SHL SUB DUP4 GT PUSH2 0x585 JUMPI PUSH1 0x20 DUP1 DUP6 ADD SWAP5 DUP5 PUSH1 0x5 SHL ADD ADD GT PUSH2 0x585 JUMPI JUMP JUMPDEST ISZERO PUSH2 0x3DD6 JUMPI JUMP JUMPDEST PUSH1 0x40 MLOAD PUSH3 0x461BCD PUSH1 0xE5 SHL DUP2 MSTORE PUSH1 0x20 PUSH1 0x4 DUP3 ADD MSTORE PUSH1 0x13 PUSH1 0x24 DUP3 ADD MSTORE PUSH19 0x11D85B5948191BD95CC81B9BDD08195E1A5CDD PUSH1 0x6A SHL PUSH1 0x44 DUP3 ADD MSTORE PUSH1 0x64 SWAP1 REVERT JUMPDEST ISZERO PUSH2 0x3E18 JUMPI JUMP JUMPDEST PUSH1 0x40 MLOAD PUSH3 0x461BCD PUSH1 0xE5 SHL DUP2 MSTORE PUSH1 0x20 PUSH1 0x4 DUP3 ADD MSTORE PUSH1 0xF PUSH1 0x24 DUP3 ADD MSTORE PUSH15 0x11D85B59481B9BDD081CDBDB1D9959 PUSH1 0x8A SHL PUSH1 0x44 DUP3 ADD MSTORE PUSH1 0x64 SWAP1 REVERT JUMPDEST SWAP1 DUP2 PUSH1 0x20 SWAP2 SUB SLT PUSH2 0x585 JUMPI MLOAD DUP1 ISZERO ISZERO DUP2 SUB PUSH2 0x585 JUMPI SWAP1 JUMP JUMPDEST PUSH1 0x0 NOT DUP2 EQ PUSH2 0x901 JUMPI PUSH1 0x1 ADD SWAP1 JUMP JUMPDEST ISZERO PUSH2 0x3E7D JUMPI JUMP JUMPDEST PUSH1 0x40 MLOAD PUSH3 0x461BCD PUSH1 0xE5 SHL DUP2 MSTORE PUSH1 0x20 PUSH1 0x4 DUP3 ADD MSTORE PUSH1 0xB PUSH1 0x24 DUP3 ADD MSTORE PUSH11 0x4E6F742070656E64696E67 PUSH1 0xA8 SHL PUSH1 0x44 DUP3 ADD MSTORE PUSH1 0x64 SWAP1 REVERT JUMPDEST ISZERO PUSH2 0x3EB7 JUMPI JUMP JUMPDEST PUSH1 0x40 MLOAD PUSH3 0x461BCD PUSH1 0xE5 SHL DUP2 MSTORE PUSH1 0x20 PUSH1 0x4 DUP3 ADD MSTORE PUSH1 0x10 PUSH1 0x24 DUP3 ADD MSTORE PUSH16 0x159BDD194818D85C081C995858DA1959 PUSH1 0x82 SHL PUSH1 0x44 DUP3 ADD MSTORE PUSH1 0x64 SWAP1 REVERT JUMPDEST ISZERO PUSH2 0x3EF6 JUMPI JUMP JUMPDEST PUSH1 0x40 MLOAD PUSH3 0x461BCD PUSH1 0xE5 SHL DUP2 MSTORE PUSH1 0x20 PUSH1 0x4 DUP3 ADD MSTORE PUSH1 0x12 PUSH1 0x24 DUP3 ADD MSTORE PUSH18 0x105B5BDD5B9D08195E18D959591CC81C1BDD PUSH1 0x72 SHL PUSH1 0x44 DUP3 ADD MSTORE PUSH1 0x64 SWAP1 REVERT JUMPDEST SWAP2 SWAP1 DUP3 ADD DUP1 SWAP3 GT PUSH2 0x901 JUMPI JUMP JUMPDEST PUSH1 0x3 DUP3 LT ISZERO PUSH2 0x534 JUMPI MSTORE JUMP JUMPDEST ISZERO PUSH2 0x3F50 JUMPI JUMP JUMPDEST PUSH1 0x40 MLOAD PUSH3 0x461BCD PUSH1 0xE5 SHL DUP2 MSTORE PUSH1 0x20 PUSH1 0x4 DUP3 ADD MSTORE PUSH1 0x19 PUSH1 0x24 DUP3 ADD MSTORE PUSH32 0x4E6F74206177616974696E6720766572696669636174696F6E00000000000000 PUSH1 0x44 DUP3 ADD MSTORE PUSH1 0x64 SWAP1 REVERT JUMPDEST ISZERO PUSH2 0x3F9C JUMPI JUMP JUMPDEST PUSH1 0x40 MLOAD PUSH3 0x461BCD PUSH1 0xE5 SHL DUP2 MSTORE PUSH1 0x20 PUSH1 0x4 DUP3 ADD MSTORE PUSH1 0xF PUSH1 0x24 DUP3 ADD MSTORE PUSH15 0x15DA5D1A191C985DC819985A5B1959 PUSH1 0x8A SHL PUSH1 0x44 DUP3 ADD MSTORE PUSH1 0x64 SWAP1 REVERT JUMPDEST RETURNDATASIZE ISZERO PUSH2 0x3FFE JUMPI RETURNDATASIZE SWAP1 PUSH2 0x3FE4 DUP3 PUSH2 0x3B79 JUMP JUMPDEST SWAP2 PUSH2 0x3FF2 PUSH1 0x40 MLOAD SWAP4 DUP5 PUSH2 0x3B58 JUMP JUMPDEST DUP3 MSTORE RETURNDATASIZE PUSH1 0x0 PUSH1 0x20 DUP5 ADD RETURNDATACOPY JUMP JUMPDEST PUSH1 0x60 SWAP1 JUMP JUMPDEST ISZERO PUSH2 0x400A JUMPI JUMP JUMPDEST PUSH1 0x40 MLOAD PUSH3 0x461BCD PUSH1 0xE5 SHL DUP2 MSTORE PUSH1 0x20 PUSH1 0x4 DUP3 ADD MSTORE PUSH1 0xE PUSH1 0x24 DUP3 ADD MSTORE PUSH14 0x105B1C9958591E481CDBDB1D9959 PUSH1 0x92 SHL PUSH1 0x44 DUP3 ADD MSTORE PUSH1 0x64 SWAP1 REVERT JUMPDEST DUP2 DUP2 LT PUSH2 0x404B JUMPI POP POP JUMP JUMPDEST PUSH1 0x0 DUP2 SSTORE PUSH1 0x1 ADD PUSH2 0x4040 JUMP JUMPDEST DUP2 DUP2 MUL SWAP3 SWAP2 DUP2 ISZERO SWAP2 DUP5 DIV EQ OR ISZERO PUSH2 0x901 JUMPI JUMP JUMPDEST PUSH2 0x4074 DUP2 SLOAD PUSH2 0x3C0D JUMP JUMPDEST SWAP1 DUP2 PUSH2 0x407E JUMPI POP POP JUMP JUMPDEST DUP2 PUSH1 0x1F PUSH1 0x0 SWAP4 GT PUSH1 0x1 EQ PUSH2 0x4090 JUMPI POP SSTORE JUMP JUMPDEST SWAP1 DUP1 DUP4 SWAP2 DUP3 MSTORE PUSH2 0x40AF PUSH1 0x1F PUSH1 0x20 DUP5 KECCAK256 SWAP5 ADD PUSH1 0x5 SHR DUP5 ADD PUSH1 0x1 DUP6 ADD PUSH2 0x4040 JUMP JUMPDEST SSTORE SSTORE JUMP JUMPDEST ISZERO PUSH2 0x40BA JUMPI JUMP JUMPDEST PUSH1 0x40 MLOAD PUSH3 0x461BCD PUSH1 0xE5 SHL DUP2 MSTORE PUSH1 0x20 PUSH1 0x4 DUP3 ADD MSTORE PUSH1 0xC PUSH1 0x24 DUP3 ADD MSTORE PUSH12 0x155B985D5D1A1BDC9A5E9959 PUSH1 0xA2 SHL PUSH1 0x44 DUP3 ADD MSTORE PUSH1 0x64 SWAP1 REVERT JUMPDEST ISZERO PUSH2 0x40F5 JUMPI JUMP JUMPDEST PUSH1 0x40 MLOAD PUSH3 0x461BCD PUSH1 0xE5 SHL DUP2 MSTORE PUSH1 0x20 PUSH1 0x4 DUP3 ADD MSTORE PUSH1 0xD PUSH1 0x24 DUP3 ADD MSTORE PUSH13 0x14185E5BDD5D0819985A5B1959 PUSH1 0x9A SHL PUSH1 0x44 DUP3 ADD MSTORE PUSH1 0x64 SWAP1 REVERT JUMPDEST ISZERO PUSH2 0x4131 JUMPI JUMP JUMPDEST PUSH1 0x40 MLOAD PUSH3 0x461BCD PUSH1 0xE5 SHL DUP2 MSTORE PUSH1 0x20 PUSH1 0x4 DUP3 ADD MSTORE PUSH1 0x11 PUSH1 0x24 DUP3 ADD MSTORE PUSH17 0x125B9D985B1A59081D1A1C995CDA1BDB19 PUSH1 0x7A SHL PUSH1 0x44 DUP3 ADD MSTORE PUSH1 0x64 SWAP1 REVERT JUMPDEST SWAP2 SWAP1 DUP2 LT ISZERO PUSH2 0x85D JUMPI PUSH1 0x5 SHL ADD SWAP1 JUMP JUMPDEST PUSH1 0x1 PUSH1 0x1 PUSH1 0x40 SHL SUB DUP2 GT PUSH2 0xEED JUMPI PUSH1 0x5 SHL PUSH1 0x20 ADD SWAP1 JUMP JUMPDEST ISZERO PUSH2 0x4198 JUMPI JUMP JUMPDEST PUSH1 0x40 MLOAD PUSH3 0x461BCD PUSH1 0xE5 SHL DUP2 MSTORE PUSH1 0x20 PUSH1 0x4 DUP3 ADD MSTORE PUSH1 0xF PUSH1 0x24 DUP3 ADD MSTORE PUSH15 0x111BDB985D1A5BDB8819985A5B1959 PUSH1 0x8A SHL PUSH1 0x44 DUP3 ADD MSTORE PUSH1 0x64 SWAP1 REVERT JUMPDEST PUSH1 0x2 PUSH1 0x0 SLOAD EQ PUSH2 0x41E0 JUMPI PUSH1 0x2 PUSH1 0x0 SSTORE JUMP JUMPDEST PUSH1 0x40 MLOAD PUSH3 0x461BCD PUSH1 0xE5 SHL DUP2 MSTORE PUSH1 0x20 PUSH1 0x4 DUP3 ADD MSTORE PUSH1 0x1F PUSH1 0x24 DUP3 ADD MSTORE PUSH32 0x5265656E7472616E637947756172643A207265656E7472616E742063616C6C00 PUSH1 0x44 DUP3 ADD MSTORE PUSH1 0x64 SWAP1 REVERT JUMPDEST CALLER PUSH1 0x0 SWAP1 DUP2 MSTORE PUSH32 0x1614B4E5E0F135C54873C4DCD295A7B40F93A8D877405AFFC188CFD7B4F40ED2 PUSH1 0x20 SWAP1 DUP2 MSTORE PUSH1 0x40 DUP1 DUP4 KECCAK256 SLOAD SWAP1 SWAP3 PUSH32 0xBF233DD2AAFEB4D50879C4AA5C81E96D92F6E6945C906A58F9F2D1C1631B4B26 SWAP2 PUSH1 0x1 SWAP1 PUSH1 0xFF AND ISZERO PUSH2 0x428D JUMPI POP POP POP POP POP JUMP JUMPDEST PUSH2 0x4296 CALLER PUSH2 0x4A9B JUMP JUMPDEST SWAP3 DUP6 MLOAD SWAP2 PUSH2 0x42A3 DUP4 PUSH2 0x3B3D JUMP JUMPDEST PUSH1 0x42 DUP4 MSTORE DUP6 DUP4 ADD SWAP4 PUSH1 0x60 CALLDATASIZE DUP7 CALLDATACOPY DUP4 MLOAD ISZERO PUSH2 0x442D JUMPI PUSH1 0x30 DUP6 MSTORE8 DUP4 MLOAD PUSH1 0x1 LT ISZERO PUSH2 0x442D JUMPI SWAP1 PUSH1 0x78 PUSH1 0x21 DUP6 ADD MSTORE8 PUSH1 0x41 SWAP2 JUMPDEST DUP2 DUP4 GT PUSH2 0x43BF JUMPI POP POP POP PUSH2 0x437D JUMPI PUSH1 0x48 PUSH2 0x4379 SWAP4 DUP7 SWAP4 PUSH2 0x435D SWAP4 PUSH2 0x434E SWAP9 MLOAD SWAP9 DUP10 SWAP4 PUSH23 0x20B1B1B2B9B9A1B7B73A3937B61D1030B1B1B7BAB73A1 PUSH1 0x4D SHL DUP11 DUP7 ADD MSTORE PUSH2 0x4325 DUP2 MLOAD DUP1 SWAP3 DUP13 PUSH1 0x37 DUP10 ADD SWAP2 ADD PUSH2 0x3CEC JUMP JUMPDEST DUP5 ADD SWAP2 PUSH17 0x1034B99036B4B9B9B4B733903937B6329 PUSH1 0x7D SHL PUSH1 0x37 DUP5 ADD MSTORE MLOAD DUP1 SWAP4 DUP7 DUP5 ADD SWAP1 PUSH2 0x3CEC JUMP JUMPDEST ADD SUB PUSH1 0x28 DUP2 ADD DUP8 MSTORE ADD DUP6 PUSH2 0x3B58 JUMP JUMPDEST MLOAD SWAP3 DUP4 SWAP3 PUSH3 0x461BCD PUSH1 0xE5 SHL DUP5 MSTORE PUSH1 0x4 DUP5 ADD MSTORE PUSH1 0x24 DUP4 ADD SWAP1 PUSH2 0x3D0F JUMP JUMPDEST SUB SWAP1 REVERT JUMPDEST PUSH1 0x64 DUP5 DUP7 MLOAD SWAP1 PUSH3 0x461BCD PUSH1 0xE5 SHL DUP3 MSTORE DUP1 PUSH1 0x4 DUP4 ADD MSTORE PUSH1 0x24 DUP3 ADD MSTORE PUSH32 0x537472696E67733A20686578206C656E67746820696E73756666696369656E74 PUSH1 0x44 DUP3 ADD MSTORE REVERT JUMPDEST SWAP1 SWAP2 SWAP3 PUSH1 0xF DUP2 AND PUSH1 0x10 DUP2 LT ISZERO PUSH2 0x4419 JUMPI PUSH16 0x181899199A1A9B1B9C1CB0B131B232B3 PUSH1 0x81 SHL SWAP1 BYTE PUSH2 0x43EF DUP6 DUP8 PUSH2 0x4A8A JUMP JUMPDEST MSTORE8 PUSH1 0x4 SHR SWAP3 DUP1 ISZERO PUSH2 0x4405 JUMPI PUSH1 0x0 NOT ADD SWAP2 SWAP1 PUSH2 0x42D1 JUMP JUMPDEST PUSH4 0x4E487B71 PUSH1 0xE0 SHL DUP3 MSTORE PUSH1 0x11 PUSH1 0x4 MSTORE PUSH1 0x24 DUP3 REVERT JUMPDEST PUSH4 0x4E487B71 PUSH1 0xE0 SHL DUP4 MSTORE PUSH1 0x32 PUSH1 0x4 MSTORE PUSH1 0x24 DUP4 REVERT JUMPDEST PUSH4 0x4E487B71 PUSH1 0xE0 SHL DUP2 MSTORE PUSH1 0x32 PUSH1 0x4 MSTORE PUSH1 0x24 SWAP1 REVERT JUMPDEST CALLER PUSH1 0x0 SWAP1 DUP2 MSTORE PUSH32 0xA6EEF7E35ABE7026729641147F7915573C7E97B47EFA546F5F6E3230263BCB49 PUSH1 0x20 SWAP1 DUP2 MSTORE PUSH1 0x40 DUP1 DUP4 KECCAK256 SLOAD SWAP1 SWAP3 PUSH1 0x1 SWAP2 PUSH1 0xFF AND ISZERO PUSH2 0x4486 JUMPI POP POP POP POP JUMP JUMPDEST PUSH2 0x448F CALLER PUSH2 0x4A9B JUMP JUMPDEST SWAP2 DUP2 DUP6 MLOAD SWAP2 PUSH2 0x449D DUP4 PUSH2 0x3B3D JUMP JUMPDEST PUSH1 0x42 DUP4 MSTORE DUP6 DUP4 ADD SWAP4 PUSH1 0x60 CALLDATASIZE DUP7 CALLDATACOPY DUP4 MLOAD ISZERO PUSH2 0x442D JUMPI PUSH1 0x30 DUP6 MSTORE8 DUP4 MLOAD PUSH1 0x1 LT ISZERO PUSH2 0x442D JUMPI SWAP1 PUSH1 0x78 PUSH1 0x21 DUP6 ADD MSTORE8 PUSH1 0x41 SWAP2 JUMPDEST DUP2 DUP4 GT PUSH2 0x451F JUMPI POP POP POP PUSH2 0x437D JUMPI PUSH1 0x48 PUSH2 0x4379 SWAP4 DUP7 SWAP4 PUSH2 0x435D SWAP4 PUSH2 0x434E SWAP9 MLOAD SWAP9 DUP10 SWAP4 PUSH23 0x20B1B1B2B9B9A1B7B73A3937B61D1030B1B1B7BAB73A1 PUSH1 0x4D SHL DUP11 DUP7 ADD MSTORE PUSH2 0x4325 DUP2 MLOAD DUP1 SWAP3 DUP13 PUSH1 0x37 DUP10 ADD SWAP2 ADD PUSH2 0x3CEC JUMP JUMPDEST SWAP1 SWAP2 SWAP3 PUSH1 0xF DUP2 AND PUSH1 0x10 DUP2 LT ISZERO PUSH2 0x4419 JUMPI PUSH16 0x181899199A1A9B1B9C1CB0B131B232B3 PUSH1 0x81 SHL SWAP1 BYTE PUSH2 0x454F DUP6 DUP8 PUSH2 0x4A8A JUMP JUMPDEST MSTORE8 PUSH1 0x4 SHR SWAP3 DUP1 ISZERO PUSH2 0x4405 JUMPI PUSH1 0x0 NOT ADD SWAP2 SWAP1 PUSH2 0x44CB JUMP JUMPDEST CALLER PUSH1 0x0 SWAP1 DUP2 MSTORE PUSH32 0xE161ABE49421BDBE04B54EE9F794DBF668947C663B3C53CBADB88CDD90C50278 PUSH1 0x20 SWAP1 DUP2 MSTORE PUSH1 0x40 DUP1 DUP4 KECCAK256 SLOAD SWAP1 SWAP3 PUSH32 0xC63907609C1C518C230A90524384EDC1A25DF2F21481DDB99BEF5E2444C35EF0 SWAP2 PUSH1 0x1 SWAP1 PUSH1 0xFF AND ISZERO PUSH2 0x45CD JUMPI POP POP POP POP POP JUMP JUMPDEST PUSH2 0x45D6 CALLER PUSH2 0x4A9B JUMP JUMPDEST SWAP3 DUP6 MLOAD SWAP2 PUSH2 0x45E3 DUP4 PUSH2 0x3B3D JUMP JUMPDEST PUSH1 0x42 DUP4 MSTORE DUP6 DUP4 ADD SWAP4 PUSH1 0x60 CALLDATASIZE DUP7 CALLDATACOPY DUP4 MLOAD ISZERO PUSH2 0x442D JUMPI PUSH1 0x30 DUP6 MSTORE8 DUP4 MLOAD PUSH1 0x1 LT ISZERO PUSH2 0x442D JUMPI SWAP1 PUSH1 0x78 PUSH1 0x21 DUP6 ADD MSTORE8 PUSH1 0x41 SWAP2 JUMPDEST DUP2 DUP4 GT PUSH2 0x4665 JUMPI POP POP POP PUSH2 0x437D JUMPI PUSH1 0x48 PUSH2 0x4379 SWAP4 DUP7 SWAP4 PUSH2 0x435D SWAP4 PUSH2 0x434E SWAP9 MLOAD SWAP9 DUP10 SWAP4 PUSH23 0x20B1B1B2B9B9A1B7B73A3937B61D1030B1B1B7BAB73A1 PUSH1 0x4D SHL DUP11 DUP7 ADD MSTORE PUSH2 0x4325 DUP2 MLOAD DUP1 SWAP3 DUP13 PUSH1 0x37 DUP10 ADD SWAP2 ADD PUSH2 0x3CEC JUMP JUMPDEST SWAP1 SWAP2 SWAP3 PUSH1 0xF DUP2 AND PUSH1 0x10 DUP2 LT ISZERO PUSH2 0x4419 JUMPI PUSH16 0x181899199A1A9B1B9C1CB0B131B232B3 PUSH1 0x81 SHL SWAP1 BYTE PUSH2 0x4695 DUP6 DUP8 PUSH2 0x4A8A JUMP JUMPDEST MSTORE8 PUSH1 0x4 SHR SWAP3 DUP1 ISZERO PUSH2 0x4405 JUMPI PUSH1 0x0 NOT ADD SWAP2 SWAP1 PUSH2 0x4611 JUMP JUMPDEST PUSH1 0x0 DUP2 DUP2 MSTORE PUSH1 0x1 SWAP2 PUSH1 0x20 SWAP2 PUSH1 0x1 DUP4 MSTORE PUSH1 0x40 SWAP4 DUP5 DUP3 KECCAK256 CALLER DUP4 MSTORE DUP5 MSTORE PUSH1 0xFF DUP6 DUP4 KECCAK256 SLOAD AND ISZERO PUSH2 0x46D8 JUMPI POP POP POP POP POP JUMP JUMPDEST PUSH2 0x46E1 CALLER PUSH2 0x4A9B JUMP JUMPDEST SWAP3 DUP6 MLOAD SWAP2 PUSH2 0x46EE DUP4 PUSH2 0x3B3D JUMP JUMPDEST PUSH1 0x42 DUP4 MSTORE DUP6 DUP4 ADD SWAP4 PUSH1 0x60 CALLDATASIZE DUP7 CALLDATACOPY DUP4 MLOAD ISZERO PUSH2 0x442D JUMPI PUSH1 0x30 DUP6 MSTORE8 DUP4 MLOAD PUSH1 0x1 LT ISZERO PUSH2 0x442D JUMPI SWAP1 PUSH1 0x78 PUSH1 0x21 DUP6 ADD MSTORE8 PUSH1 0x41 SWAP2 JUMPDEST DUP2 DUP4 GT PUSH2 0x4770 JUMPI POP POP POP PUSH2 0x437D JUMPI PUSH1 0x48 PUSH2 0x4379 SWAP4 DUP7 SWAP4 PUSH2 0x435D SWAP4 PUSH2 0x434E SWAP9 MLOAD SWAP9 DUP10 SWAP4 PUSH23 0x20B1B1B2B9B9A1B7B73A3937B61D1030B1B1B7BAB73A1 PUSH1 0x4D SHL DUP11 DUP7 ADD MSTORE PUSH2 0x4325 DUP2 MLOAD DUP1 SWAP3 DUP13 PUSH1 0x37 DUP10 ADD SWAP2 ADD PUSH2 0x3CEC JUMP JUMPDEST SWAP1 SWAP2 SWAP3 PUSH1 0xF DUP2 AND PUSH1 0x10 DUP2 LT ISZERO PUSH2 0x4419 JUMPI PUSH16 0x181899199A1A9B1B9C1CB0B131B232B3 PUSH1 0x81 SHL SWAP1 BYTE PUSH2 0x47A0 DUP6 DUP8 PUSH2 0x4A8A JUMP JUMPDEST MSTORE8 PUSH1 0x4 SHR SWAP3 DUP1 ISZERO PUSH2 0x4405 JUMPI PUSH1 0x0 NOT ADD SWAP2 SWAP1 PUSH2 0x471C JUMP JUMPDEST SWAP1 PUSH1 0x0 SWAP2 DUP1 DUP4 MSTORE PUSH1 0x1 PUSH1 0x20 MSTORE PUSH1 0x40 DUP4 KECCAK256 SWAP2 PUSH1 0x1 DUP1 PUSH1 0xA0 SHL SUB AND SWAP2 DUP3 DUP5 MSTORE PUSH1 0x20 MSTORE PUSH1 0xFF PUSH1 0x40 DUP5 KECCAK256 SLOAD AND PUSH2 0x47E7 JUMPI POP POP POP JUMP JUMPDEST DUP1 DUP4 MSTORE PUSH1 0x1 PUSH1 0x20 MSTORE PUSH1 0x40 DUP4 KECCAK256 DUP3 DUP5 MSTORE PUSH1 0x20 MSTORE PUSH1 0x40 DUP4 KECCAK256 PUSH1 0xFF NOT DUP2 SLOAD AND SWAP1 SSTORE PUSH32 0xF6391F5C32D9C69D2A47EA670B442974B53935D1EDC7FD64EB21E047A839171B CALLER SWAP4 DUP1 LOG4 JUMP JUMPDEST SWAP2 SWAP1 DUP3 SUB SWAP2 DUP3 GT PUSH2 0x901 JUMPI JUMP JUMPDEST PUSH1 0x5 DUP2 ADD DUP1 SLOAD SWAP2 SWAP4 SWAP3 PUSH1 0x1 PUSH1 0x1 PUSH1 0xA0 SHL SUB SWAP3 SWAP1 SWAP2 SWAP1 DUP4 AND DUP1 PUSH2 0x48DB JUMPI POP POP PUSH1 0x6 SWAP1 PUSH1 0x0 SWAP4 DUP4 DUP6 SWAP5 SWAP4 DUP6 DUP1 DUP1 DUP1 DUP1 SWAP9 SWAP8 DUP2 SWAP9 PUSH1 0xD SLOAD AND GAS CALL SWAP8 PUSH2 0x4879 PUSH2 0x3FD3 JUMP JUMPDEST POP ADD SLOAD AND GAS CALL PUSH2 0x4887 PUSH2 0x3FD3 JUMP JUMPDEST POP DUP2 PUSH2 0x48D3 JUMPI JUMPDEST POP ISZERO PUSH2 0x4896 JUMPI JUMP JUMPDEST PUSH1 0x40 MLOAD PUSH3 0x461BCD PUSH1 0xE5 SHL DUP2 MSTORE PUSH1 0x20 PUSH1 0x4 DUP3 ADD MSTORE PUSH1 0x15 PUSH1 0x24 DUP3 ADD MSTORE PUSH21 0x14DA185C99481D1C985B9CD9995C8819985A5B1959 PUSH1 0x5A SHL PUSH1 0x44 DUP3 ADD MSTORE PUSH1 0x64 SWAP1 REVERT JUMPDEST SWAP1 POP CODESIZE PUSH2 0x488E JUMP JUMPDEST PUSH1 0xD SLOAD PUSH1 0x40 DUP1 MLOAD PUSH4 0xA9059CBB PUSH1 0xE0 SHL DUP1 DUP3 MSTORE SWAP3 DUP8 AND PUSH1 0x1 PUSH1 0x1 PUSH1 0xA0 SHL SUB AND PUSH1 0x4 DUP3 ADD MSTORE PUSH1 0x24 DUP2 ADD SWAP6 SWAP1 SWAP6 MSTORE PUSH1 0x20 SWAP8 SWAP1 SWAP7 SWAP3 SWAP6 SWAP3 SWAP5 SWAP1 SWAP4 SWAP2 SWAP3 SWAP2 SWAP1 DUP9 DUP2 DUP1 PUSH1 0x44 DUP2 ADD SUB DUP2 PUSH1 0x0 DUP1 SWAP12 GAS CALL SWAP1 DUP2 ISZERO PUSH2 0x4A3C JUMPI DUP8 SWAP2 PUSH2 0x4A1F JUMPI JUMPDEST POP ISZERO PUSH2 0x49E6 JUMPI SLOAD PUSH1 0x6 SWAP4 SWAP1 SWAP4 ADD SLOAD DUP7 MLOAD SWAP3 DUP4 MSTORE DUP2 AND PUSH1 0x1 PUSH1 0x1 PUSH1 0xA0 SHL SUB AND PUSH1 0x4 DUP4 ADD MSTORE PUSH1 0x24 DUP3 ADD SWAP4 SWAP1 SWAP4 MSTORE SWAP2 DUP6 SWAP2 DUP4 SWAP2 PUSH1 0x44 SWAP2 DUP4 SWAP2 DUP8 SWAP2 AND GAS CALL SWAP2 DUP3 ISZERO PUSH2 0x49DB JUMPI SWAP2 PUSH2 0x49BE JUMPI JUMPDEST POP ISZERO PUSH2 0x4983 JUMPI POP POP JUMP JUMPDEST PUSH1 0x64 SWAP3 POP MLOAD SWAP1 PUSH3 0x461BCD PUSH1 0xE5 SHL DUP3 MSTORE PUSH1 0x4 DUP3 ADD MSTORE PUSH1 0x15 PUSH1 0x24 DUP3 ADD MSTORE PUSH21 0x141C9BDC1BDCD95C881CDA185C994819985A5B1959 PUSH1 0x5A SHL PUSH1 0x44 DUP3 ADD MSTORE REVERT JUMPDEST PUSH2 0x49D5 SWAP2 POP DUP4 RETURNDATASIZE DUP6 GT PUSH2 0x479 JUMPI PUSH2 0x46B DUP2 DUP4 PUSH2 0x3B58 JUMP JUMPDEST CODESIZE PUSH2 0x4979 JUMP JUMPDEST DUP4 MLOAD SWAP1 RETURNDATASIZE SWAP1 DUP3 RETURNDATACOPY RETURNDATASIZE SWAP1 REVERT JUMPDEST DUP7 MLOAD PUSH3 0x461BCD PUSH1 0xE5 SHL DUP2 MSTORE PUSH1 0x4 DUP2 ADD DUP10 SWAP1 MSTORE PUSH1 0x12 PUSH1 0x24 DUP3 ADD MSTORE PUSH18 0x121BDD5CD9481CDA185C994819985A5B1959 PUSH1 0x72 SHL PUSH1 0x44 DUP3 ADD MSTORE PUSH1 0x64 SWAP1 REVERT JUMPDEST PUSH2 0x4A36 SWAP2 POP DUP10 RETURNDATASIZE DUP12 GT PUSH2 0x479 JUMPI PUSH2 0x46B DUP2 DUP4 PUSH2 0x3B58 JUMP JUMPDEST CODESIZE PUSH2 0x4932 JUMP JUMPDEST DUP9 MLOAD RETURNDATASIZE DUP10 DUP3 RETURNDATACOPY RETURNDATASIZE SWAP1 REVERT JUMPDEST PUSH1 0xFF PUSH1 0x2 SLOAD AND PUSH2 0x4A52 JUMPI JUMP JUMPDEST PUSH1 0x40 MLOAD PUSH3 0x461BCD PUSH1 0xE5 SHL DUP2 MSTORE PUSH1 0x20 PUSH1 0x4 DUP3 ADD MSTORE PUSH1 0x10 PUSH1 0x24 DUP3 ADD MSTORE PUSH16 0x14185D5CD8589B194E881C185D5CD959 PUSH1 0x82 SHL PUSH1 0x44 DUP3 ADD MSTORE PUSH1 0x64 SWAP1 REVERT JUMPDEST SWAP1 DUP2 MLOAD DUP2 LT ISZERO PUSH2 0x85D JUMPI ADD PUSH1 0x20 ADD SWAP1 JUMP JUMPDEST PUSH1 0x40 MLOAD SWAP1 PUSH1 0x60 DUP3 ADD DUP3 DUP2 LT PUSH1 0x1 PUSH1 0x1 PUSH1 0x40 SHL SUB DUP3 GT OR PUSH2 0xEED JUMPI PUSH1 0x40 MSTORE PUSH1 0x2A DUP3 MSTORE PUSH1 0x20 DUP3 ADD PUSH1 0x40 CALLDATASIZE DUP3 CALLDATACOPY DUP3 MLOAD ISZERO PUSH2 0x85D JUMPI PUSH1 0x30 SWAP1 MSTORE8 DUP2 MLOAD PUSH1 0x1 SWAP1 PUSH1 0x1 LT ISZERO PUSH2 0x85D JUMPI PUSH1 0x78 PUSH1 0x21 DUP5 ADD MSTORE8 PUSH1 0x29 SWAP1 JUMPDEST DUP1 DUP3 GT PUSH2 0x4B3C JUMPI POP POP PUSH2 0x4AF8 JUMPI SWAP1 JUMP JUMPDEST PUSH1 0x64 PUSH1 0x40 MLOAD PUSH3 0x461BCD PUSH1 0xE5 SHL DUP2 MSTORE PUSH1 0x20 PUSH1 0x4 DUP3 ADD MSTORE PUSH1 0x20 PUSH1 0x24 DUP3 ADD MSTORE PUSH32 0x537472696E67733A20686578206C656E67746820696E73756666696369656E74 PUSH1 0x44 DUP3 ADD MSTORE REVERT JUMPDEST SWAP1 SWAP2 PUSH1 0xF DUP2 AND PUSH1 0x10 DUP2 LT ISZERO PUSH2 0x4B95 JUMPI PUSH16 0x181899199A1A9B1B9C1CB0B131B232B3 PUSH1 0x81 SHL SWAP1 BYTE PUSH2 0x4B6B DUP5 DUP7 PUSH2 0x4A8A JUMP JUMPDEST MSTORE8 PUSH1 0x4 SHR SWAP2 DUP1 ISZERO PUSH2 0x4B80 JUMPI PUSH1 0x0 NOT ADD SWAP1 PUSH2 0x4AE8 JUMP JUMPDEST PUSH1 0x24 PUSH1 0x0 PUSH4 0x4E487B71 PUSH1 0xE0 SHL DUP2 MSTORE PUSH1 0x11 PUSH1 0x4 MSTORE REVERT JUMPDEST PUSH1 0x24 PUSH1 0x0 PUSH4 0x4E487B71 PUSH1 0xE0 SHL DUP2 MSTORE PUSH1 0x32 PUSH1 0x4 MSTORE REVERT INVALID LOG2 PUSH5 0x6970667358 0x22 SLT KECCAK256 0xCD 0xC9 PUSH7 0xA4C5CFC79FB2D4 DUP5 0xD 0xB6 0xE7 0xA8 0xBC 0xE1 0x2A 0xB5 PC 0xC0 0xBE 0xBB REVERT 0xD7 0xAE 0xD1 0xD1 0xE7 PUSH3 0xC3864 PUSH20 0x6F6C634300081800332F8788117E7EFF1D82E926 0xEC PUSH26 0x4901D17C78024A50270940304540A733656F0D00000000000000 "},"methodIdentifiers":{"DEFAULT_ADMIN_ROLE()":"a217fddf","EMERGENCY_ROLE()":"20df4359","GAME_VERIFIER_ROLE()":"f474e6b8","MAX_CHALLENGES_PER_GAME()":"8972c1b4","MAX_VOTES_PER_GAME()":"ce26ad4c","ORACLE_VERIFICATION_TIMEOUT()":"25bd8de8","ORACLE_VERIFIER_ROLE()":"1f2ad4d4","approveMathSolution(uint256,address,bool)":"425ae6ec","batchVerifyMathSolutions(uint256[],address[],bool[])":"d2fcf4b3","cancelProposal(uint256)":"e0a8f6f5","challengeFee()":"1bd8f9ca","challengeSolution(uint256,string)":"10806369","challengeThreshold()":"bb2239d6","donateToGame(uint256,uint256)":"f5372e73","emergencyWithdrawTimelock(uint256)":"24b4c063","executeEmergencyWithdraw(uint256,uint256,uint256)":"3cb5b347","finalizeGame(uint256)":"771197ee","games(uint256)":"117a5b90","getActiveGames(uint256,uint256)":"e3c99d08","getGameDetails(uint256)":"1b31abda","getPastWinner(uint256)":"ea697ac0","getPotBalance(uint256)":"7ecc811d","getRoleAdmin(bytes32)":"248a9ca3","getSubmittedSolution(uint256,address)":"334b7f4e","grantOracleVerifierRole(address)":"63a1332c","grantRole(bytes32,address)":"2f2ff15d","hasRole(bytes32,address)":"91d14854","houseAddress()":"d7cee31e","houseCutPercentage()":"ca1938e5","invalidateGame(uint256)":"a6656096","nextGameId()":"b135bbb0","pastWinners(uint256)":"e499e79c","pause()":"8456cb59","paused()":"5c975abb","processExpiredVerifications(uint256)":"1fd2f250","proposalApprovals(uint256)":"0d93d28a","proposalDisapprovals(uint256)":"cf2fdfd9","proposalVotes(uint256,address)":"8e1f6a2c","proposePuzzle(string,bytes32,uint256,address,uint256,uint8,string)":"6beb83a8","renounceRole(bytes32,address)":"36568abe","requestEmergencyWithdraw(uint256,uint256)":"19c1c731","resetGame(uint256)":"4cf052d5","revokeRole(bytes32,address)":"d547741f","setChallengeFee(uint256)":"35bf82f6","setChallengeThreshold(uint256)":"9d927ecd","setEntryFee(uint256,uint256)":"5408eec9","setHouseAddress(address)":"ef3aaf54","setHouseCutPercentage(uint256)":"9b3cb966","setVoteThresholdDefault(uint256)":"c35aa54e","solutionChallenges(uint256,address)":"d8201f15","solutionChallengesCount(uint256)":"2b64b6bd","submitSolution(uint256,string)":"d3b5c016","submittedSolutions(uint256,address)":"efc51385","supportsInterface(bytes4)":"01ffc9a7","toggleSubmissionFee(uint256,bool)":"b2876315","unpause()":"3f4ba83a","voteOnProposal(uint256,bool)":"1614665c","voteThresholdDefault()":"c9e6fe3e"}}}}}