{"contracts/Solvable.sol":{"Solvable":{"abi":[{"inputs":[{"internalType":"address","name":"_admin","type":"address"}],"stateMutability":"nonpayable","type":"constructor"},{"anonymous":false,"inputs":[{"indexed":true,"internalType":"uint256","name":"gameId","type":"uint256"},{"indexed":true,"internalType":"address","name":"donor","type":"address"},{"indexed":false,"internalType":"uint256","name":"amount","type":"uint256"}],"name":"DonationReceived","type":"event"},{"anonymous":false,"inputs":[{"indexed":true,"internalType":"uint256","name":"requestId","type":"uint256"},{"indexed":false,"internalType":"uint256","name":"gameId","type":"uint256"},{"indexed":false,"internalType":"uint256","name":"amount","type":"uint256"}],"name":"EmergencyWithdrawExecuted","type":"event"},{"anonymous":false,"inputs":[{"indexed":true,"internalType":"uint256","name":"requestId","type":"uint256"},{"indexed":false,"internalType":"uint256","name":"gameId","type":"uint256"},{"indexed":false,"internalType":"uint256","name":"amount","type":"uint256"}],"name":"EmergencyWithdrawRequested","type":"event"},{"anonymous":false,"inputs":[{"indexed":true,"internalType":"uint256","name":"gameId","type":"uint256"},{"indexed":false,"internalType":"uint256","name":"fee","type":"uint256"}],"name":"EntryFeeUpdated","type":"event"},{"anonymous":false,"inputs":[{"indexed":true,"internalType":"uint256","name":"gameId","type":"uint256"}],"name":"GameActivated","type":"event"},{"anonymous":false,"inputs":[{"indexed":true,"internalType":"uint256","name":"gameId","type":"uint256"},{"indexed":true,"internalType":"address","name":"winner","type":"address"}],"name":"GameFinalized","type":"event"},{"anonymous":false,"inputs":[{"indexed":true,"internalType":"uint256","name":"gameId","type":"uint256"}],"name":"GameInvalidated","type":"event"},{"anonymous":false,"inputs":[{"indexed":true,"internalType":"uint256","name":"gameId","type":"uint256"}],"name":"GameReset","type":"event"},{"anonymous":false,"inputs":[{"indexed":false,"internalType":"address","name":"houseAddress","type":"address"}],"name":"HouseAddressUpdated","type":"event"},{"anonymous":false,"inputs":[{"indexed":false,"internalType":"uint256","name":"percentage","type":"uint256"}],"name":"HouseCutUpdated","type":"event"},{"anonymous":false,"inputs":[{"indexed":true,"internalType":"uint256","name":"gameId","type":"uint256"},{"indexed":true,"internalType":"address","name":"solver","type":"address"},{"indexed":false,"internalType":"bool","name":"approved","type":"bool"},{"indexed":false,"internalType":"address","name":"verifier","type":"address"}],"name":"MathSolutionVerified","type":"event"},{"anonymous":false,"inputs":[{"indexed":true,"internalType":"uint256","name":"gameId","type":"uint256"},{"indexed":true,"internalType":"address","name":"submitter","type":"address"},{"indexed":false,"internalType":"uint256","name":"deadline","type":"uint256"}],"name":"OracleVerificationRequested","type":"event"},{"anonymous":false,"inputs":[{"indexed":false,"internalType":"address","name":"account","type":"address"}],"name":"Paused","type":"event"},{"anonymous":false,"inputs":[{"indexed":true,"internalType":"uint256","name":"gameId","type":"uint256"},{"indexed":true,"internalType":"address","name":"proposer","type":"address"},{"indexed":false,"internalType":"string","name":"puzzle","type":"string"},{"indexed":false,"internalType":"bytes32","name":"solutionHash","type":"bytes32"},{"indexed":false,"internalType":"uint256","name":"entryFee","type":"uint256"},{"indexed":false,"internalType":"address","name":"token","type":"address"},{"indexed":false,"internalType":"uint256","name":"voteThreshold","type":"uint256"},{"indexed":false,"internalType":"enum Solvable.PuzzleType","name":"puzzleType","type":"uint8"}],"name":"PuzzleProposed","type":"event"},{"anonymous":false,"inputs":[{"indexed":true,"internalType":"uint256","name":"gameId","type":"uint256"},{"indexed":true,"internalType":"address","name":"solver","type":"address"}],"name":"PuzzleSolved","type":"event"},{"anonymous":false,"inputs":[{"indexed":true,"internalType":"bytes32","name":"role","type":"bytes32"},{"indexed":true,"internalType":"bytes32","name":"previousAdminRole","type":"bytes32"},{"indexed":true,"internalType":"bytes32","name":"newAdminRole","type":"bytes32"}],"name":"RoleAdminChanged","type":"event"},{"anonymous":false,"inputs":[{"indexed":true,"internalType":"bytes32","name":"role","type":"bytes32"},{"indexed":true,"internalType":"address","name":"account","type":"address"},{"indexed":true,"internalType":"address","name":"sender","type":"address"}],"name":"RoleGranted","type":"event"},{"anonymous":false,"inputs":[{"indexed":true,"internalType":"bytes32","name":"role","type":"bytes32"},{"indexed":true,"internalType":"address","name":"account","type":"address"},{"indexed":true,"internalType":"address","name":"sender","type":"address"}],"name":"RoleRevoked","type":"event"},{"anonymous":false,"inputs":[{"indexed":true,"internalType":"uint256","name":"gameId","type":"uint256"},{"indexed":true,"internalType":"address","name":"challenger","type":"address"},{"indexed":false,"internalType":"string","name":"reason","type":"string"}],"name":"SolutionChallenged","type":"event"},{"anonymous":false,"inputs":[{"indexed":true,"internalType":"uint256","name":"gameId","type":"uint256"},{"indexed":true,"internalType":"address","name":"player","type":"address"},{"indexed":false,"internalType":"bool","name":"correct","type":"bool"},{"indexed":false,"internalType":"uint256","name":"potSize","type":"uint256"},{"indexed":false,"internalType":"uint256","name":"houseCut","type":"uint256"}],"name":"SolutionSubmitted","type":"event"},{"anonymous":false,"inputs":[{"indexed":true,"internalType":"uint256","name":"gameId","type":"uint256"},{"indexed":false,"internalType":"bool","name":"requireFee","type":"bool"}],"name":"SubmissionFeeToggled","type":"event"},{"anonymous":false,"inputs":[{"indexed":false,"internalType":"address","name":"account","type":"address"}],"name":"Unpaused","type":"event"},{"anonymous":false,"inputs":[{"indexed":true,"internalType":"uint256","name":"gameId","type":"uint256"}],"name":"VerificationExpired","type":"event"},{"anonymous":false,"inputs":[{"indexed":true,"internalType":"uint256","name":"gameId","type":"uint256"},{"indexed":true,"internalType":"address","name":"voter","type":"address"},{"indexed":false,"internalType":"bool","name":"approve","type":"bool"}],"name":"VoteCast","type":"event"},{"inputs":[],"name":"DEFAULT_ADMIN_ROLE","outputs":[{"internalType":"bytes32","name":"","type":"bytes32"}],"stateMutability":"view","type":"function"},{"inputs":[],"name":"EMERGENCY_ROLE","outputs":[{"internalType":"bytes32","name":"","type":"bytes32"}],"stateMutability":"view","type":"function"},{"inputs":[],"name":"GAME_VERIFIER_ROLE","outputs":[{"internalType":"bytes32","name":"","type":"bytes32"}],"stateMutability":"view","type":"function"},{"inputs":[],"name":"MAX_CHALLENGES_PER_GAME","outputs":[{"internalType":"uint256","name":"","type":"uint256"}],"stateMutability":"view","type":"function"},{"inputs":[],"name":"MAX_VOTES_PER_GAME","outputs":[{"internalType":"uint256","name":"","type":"uint256"}],"stateMutability":"view","type":"function"},{"inputs":[],"name":"ORACLE_VERIFICATION_TIMEOUT","outputs":[{"internalType":"uint256","name":"","type":"uint256"}],"stateMutability":"view","type":"function"},{"inputs":[],"name":"ORACLE_VERIFIER_ROLE","outputs":[{"internalType":"bytes32","name":"","type":"bytes32"}],"stateMutability":"view","type":"function"},{"inputs":[{"internalType":"uint256","name":"gameId","type":"uint256"},{"internalType":"address","name":"_submitter","type":"address"},{"internalType":"bool","name":"_approved","type":"bool"}],"name":"approveMathSolution","outputs":[],"stateMutability":"nonpayable","type":"function"},{"inputs":[{"internalType":"uint256[]","name":"gameIds","type":"uint256[]"},{"internalType":"address[]","name":"submitters","type":"address[]"},{"internalType":"bool[]","name":"approvals","type":"bool[]"}],"name":"batchVerifyMathSolutions","outputs":[],"stateMutability":"nonpayable","type":"function"},{"inputs":[{"internalType":"uint256","name":"gameId","type":"uint256"}],"name":"cancelProposal","outputs":[],"stateMutability":"nonpayable","type":"function"},{"inputs":[],"name":"challengeFee","outputs":[{"internalType":"uint256","name":"","type":"uint256"}],"stateMutability":"view","type":"function"},{"inputs":[{"internalType":"uint256","name":"gameId","type":"uint256"},{"internalType":"string","name":"_reason","type":"string"}],"name":"challengeSolution","outputs":[],"stateMutability":"payable","type":"function"},{"inputs":[],"name":"challengeThreshold","outputs":[{"internalType":"uint256","name":"","type":"uint256"}],"stateMutability":"view","type":"function"},{"inputs":[{"internalType":"uint256","name":"gameId","type":"uint256"},{"internalType":"uint256","name":"amount","type":"uint256"}],"name":"donateToGame","outputs":[],"stateMutability":"payable","type":"function"},{"inputs":[{"internalType":"uint256","name":"","type":"uint256"}],"name":"emergencyWithdrawTimelock","outputs":[{"internalType":"uint256","name":"","type":"uint256"}],"stateMutability":"view","type":"function"},{"inputs":[{"internalType":"uint256","name":"requestId","type":"uint256"},{"internalType":"uint256","name":"gameId","type":"uint256"},{"internalType":"uint256","name":"amount","type":"uint256"}],"name":"executeEmergencyWithdraw","outputs":[],"stateMutability":"nonpayable","type":"function"},{"inputs":[{"internalType":"uint256","name":"gameId","type":"uint256"}],"name":"finalizeGame","outputs":[],"stateMutability":"nonpayable","type":"function"},{"inputs":[{"internalType":"uint256","name":"","type":"uint256"}],"name":"games","outputs":[{"internalType":"string","name":"puzzle","type":"string"},{"internalType":"bytes32","name":"solutionHash","type":"bytes32"},{"internalType":"enum Solvable.GameStatus","name":"status","type":"uint8"},{"internalType":"uint256","name":"pot","type":"uint256"},{"internalType":"uint256","name":"entryFee","type":"uint256"},{"internalType":"address","name":"token","type":"address"},{"internalType":"address","name":"proposer","type":"address"},{"internalType":"address","name":"winner","type":"address"},{"internalType":"uint256","name":"voteThreshold","type":"uint256"},{"internalType":"uint256","name":"challengeThreshold","type":"uint256"},{"internalType":"enum Solvable.PuzzleType","name":"puzzleType","type":"uint8"},{"internalType":"bool","name":"requireSubmissionFee","type":"bool"},{"internalType":"bool","name":"exists","type":"bool"},{"internalType":"address","name":"firstSolver","type":"address"},{"internalType":"string","name":"oracleParams","type":"string"},{"internalType":"uint256","name":"verificationDeadline","type":"uint256"}],"stateMutability":"view","type":"function"},{"inputs":[{"internalType":"uint256","name":"start","type":"uint256"},{"internalType":"uint256","name":"limit","type":"uint256"}],"name":"getActiveGames","outputs":[{"internalType":"uint256[]","name":"","type":"uint256[]"}],"stateMutability":"view","type":"function"},{"inputs":[{"internalType":"uint256","name":"gameId","type":"uint256"}],"name":"getGameDetails","outputs":[{"components":[{"internalType":"string","name":"puzzle","type":"string"},{"internalType":"bytes32","name":"solutionHash","type":"bytes32"},{"internalType":"enum Solvable.GameStatus","name":"status","type":"uint8"},{"internalType":"uint256","name":"pot","type":"uint256"},{"internalType":"uint256","name":"entryFee","type":"uint256"},{"internalType":"address","name":"token","type":"address"},{"internalType":"address","name":"proposer","type":"address"},{"internalType":"address","name":"winner","type":"address"},{"internalType":"uint256","name":"voteThreshold","type":"uint256"},{"internalType":"uint256","name":"challengeThreshold","type":"uint256"},{"internalType":"enum Solvable.PuzzleType","name":"puzzleType","type":"uint8"},{"internalType":"bool","name":"requireSubmissionFee","type":"bool"},{"internalType":"bool","name":"exists","type":"bool"},{"internalType":"address","name":"firstSolver","type":"address"},{"internalType":"string","name":"oracleParams","type":"string"},{"internalType":"uint256","name":"verificationDeadline","type":"uint256"}],"internalType":"struct Solvable.Game","name":"game","type":"tuple"},{"internalType":"uint256","name":"approvals","type":"uint256"},{"internalType":"uint256","name":"disapprovals","type":"uint256"},{"internalType":"uint256","name":"challenges","type":"uint256"}],"stateMutability":"view","type":"function"},{"inputs":[{"internalType":"uint256","name":"gameId","type":"uint256"}],"name":"getPastWinner","outputs":[{"internalType":"address","name":"","type":"address"}],"stateMutability":"view","type":"function"},{"inputs":[{"internalType":"uint256","name":"gameId","type":"uint256"}],"name":"getPotBalance","outputs":[{"internalType":"uint256","name":"","type":"uint256"}],"stateMutability":"view","type":"function"},{"inputs":[{"internalType":"bytes32","name":"role","type":"bytes32"}],"name":"getRoleAdmin","outputs":[{"internalType":"bytes32","name":"","type":"bytes32"}],"stateMutability":"view","type":"function"},{"inputs":[{"internalType":"uint256","name":"gameId","type":"uint256"},{"internalType":"address","name":"submitter","type":"address"}],"name":"getSubmittedSolution","outputs":[{"internalType":"string","name":"","type":"string"}],"stateMutability":"view","type":"function"},{"inputs":[{"internalType":"address","name":"_verifier","type":"address"}],"name":"grantOracleVerifierRole","outputs":[],"stateMutability":"nonpayable","type":"function"},{"inputs":[{"internalType":"bytes32","name":"role","type":"bytes32"},{"internalType":"address","name":"account","type":"address"}],"name":"grantRole","outputs":[],"stateMutability":"nonpayable","type":"function"},{"inputs":[{"internalType":"bytes32","name":"role","type":"bytes32"},{"internalType":"address","name":"account","type":"address"}],"name":"hasRole","outputs":[{"internalType":"bool","name":"","type":"bool"}],"stateMutability":"view","type":"function"},{"inputs":[],"name":"houseAddress","outputs":[{"internalType":"address","name":"","type":"address"}],"stateMutability":"view","type":"function"},{"inputs":[],"name":"houseCutPercentage","outputs":[{"internalType":"uint256","name":"","type":"uint256"}],"stateMutability":"view","type":"function"},{"inputs":[{"internalType":"uint256","name":"gameId","type":"uint256"}],"name":"invalidateGame","outputs":[],"stateMutability":"nonpayable","type":"function"},{"inputs":[{"internalType":"address","name":"","type":"address"}],"name":"nextIdByProposer","outputs":[{"internalType":"uint64","name":"","type":"uint64"}],"stateMutability":"view","type":"function"},{"inputs":[{"internalType":"uint256","name":"","type":"uint256"}],"name":"pastWinners","outputs":[{"internalType":"address","name":"","type":"address"}],"stateMutability":"view","type":"function"},{"inputs":[],"name":"pause","outputs":[],"stateMutability":"nonpayable","type":"function"},{"inputs":[],"name":"paused","outputs":[{"internalType":"bool","name":"","type":"bool"}],"stateMutability":"view","type":"function"},{"inputs":[{"internalType":"uint256","name":"gameId","type":"uint256"}],"name":"processExpiredVerifications","outputs":[],"stateMutability":"nonpayable","type":"function"},{"inputs":[{"internalType":"uint256","name":"","type":"uint256"}],"name":"proposalApprovals","outputs":[{"internalType":"uint256","name":"","type":"uint256"}],"stateMutability":"view","type":"function"},{"inputs":[{"internalType":"uint256","name":"","type":"uint256"}],"name":"proposalDisapprovals","outputs":[{"internalType":"uint256","name":"","type":"uint256"}],"stateMutability":"view","type":"function"},{"inputs":[{"internalType":"uint256","name":"","type":"uint256"},{"internalType":"address","name":"","type":"address"}],"name":"proposalVotes","outputs":[{"internalType":"bool","name":"","type":"bool"}],"stateMutability":"view","type":"function"},{"inputs":[{"internalType":"string","name":"_puzzle","type":"string"},{"internalType":"bytes32","name":"_solutionHash","type":"bytes32"},{"internalType":"uint256","name":"_entryFee","type":"uint256"},{"internalType":"address","name":"_token","type":"address"},{"internalType":"uint256","name":"_voteThreshold","type":"uint256"},{"internalType":"enum Solvable.PuzzleType","name":"_puzzleType","type":"uint8"},{"internalType":"string","name":"_oracleParams","type":"string"}],"name":"proposePuzzle","outputs":[{"internalType":"uint256","name":"gameId","type":"uint256"}],"stateMutability":"nonpayable","type":"function"},{"inputs":[{"internalType":"bytes32","name":"role","type":"bytes32"},{"internalType":"address","name":"account","type":"address"}],"name":"renounceRole","outputs":[],"stateMutability":"nonpayable","type":"function"},{"inputs":[{"internalType":"uint256","name":"gameId","type":"uint256"},{"internalType":"uint256","name":"amount","type":"uint256"}],"name":"requestEmergencyWithdraw","outputs":[],"stateMutability":"nonpayable","type":"function"},{"inputs":[{"internalType":"uint256","name":"gameId","type":"uint256"}],"name":"resetGame","outputs":[],"stateMutability":"nonpayable","type":"function"},{"inputs":[{"internalType":"bytes32","name":"role","type":"bytes32"},{"internalType":"address","name":"account","type":"address"}],"name":"revokeRole","outputs":[],"stateMutability":"nonpayable","type":"function"},{"inputs":[{"internalType":"uint256","name":"_fee","type":"uint256"}],"name":"setChallengeFee","outputs":[],"stateMutability":"nonpayable","type":"function"},{"inputs":[{"internalType":"uint256","name":"_threshold","type":"uint256"}],"name":"setChallengeThreshold","outputs":[],"stateMutability":"nonpayable","type":"function"},{"inputs":[{"internalType":"uint256","name":"gameId","type":"uint256"},{"internalType":"uint256","name":"_entryFee","type":"uint256"}],"name":"setEntryFee","outputs":[],"stateMutability":"nonpayable","type":"function"},{"inputs":[{"internalType":"address","name":"_houseAddress","type":"address"}],"name":"setHouseAddress","outputs":[],"stateMutability":"nonpayable","type":"function"},{"inputs":[{"internalType":"uint256","name":"_percentage","type":"uint256"}],"name":"setHouseCutPercentage","outputs":[],"stateMutability":"nonpayable","type":"function"},{"inputs":[{"internalType":"uint256","name":"_threshold","type":"uint256"}],"name":"setVoteThresholdDefault","outputs":[],"stateMutability":"nonpayable","type":"function"},{"inputs":[{"internalType":"uint256","name":"","type":"uint256"},{"internalType":"address","name":"","type":"address"}],"name":"solutionChallenges","outputs":[{"internalType":"bool","name":"","type":"bool"}],"stateMutability":"view","type":"function"},{"inputs":[{"internalType":"uint256","name":"","type":"uint256"}],"name":"solutionChallengesCount","outputs":[{"internalType":"uint256","name":"","type":"uint256"}],"stateMutability":"view","type":"function"},{"inputs":[{"internalType":"uint256","name":"gameId","type":"uint256"},{"internalType":"string","name":"_solution","type":"string"}],"name":"submitSolution","outputs":[],"stateMutability":"payable","type":"function"},{"inputs":[{"internalType":"uint256","name":"","type":"uint256"},{"internalType":"address","name":"","type":"address"}],"name":"submittedSolutions","outputs":[{"internalType":"string","name":"","type":"string"}],"stateMutability":"view","type":"function"},{"inputs":[{"internalType":"bytes4","name":"interfaceId","type":"bytes4"}],"name":"supportsInterface","outputs":[{"internalType":"bool","name":"","type":"bool"}],"stateMutability":"view","type":"function"},{"inputs":[{"internalType":"uint256","name":"gameId","type":"uint256"},{"internalType":"bool","name":"_requireFee","type":"bool"}],"name":"toggleSubmissionFee","outputs":[],"stateMutability":"nonpayable","type":"function"},{"inputs":[],"name":"unpause","outputs":[],"stateMutability":"nonpayable","type":"function"},{"inputs":[{"internalType":"uint256","name":"gameId","type":"uint256"},{"internalType":"bool","name":"approve","type":"bool"}],"name":"voteOnProposal","outputs":[],"stateMutability":"nonpayable","type":"function"},{"inputs":[],"name":"voteThresholdDefault","outputs":[{"internalType":"uint256","name":"","type":"uint256"}],"stateMutability":"view","type":"function"},{"stateMutability":"payable","type":"receive"}],"evm":{"bytecode":{"linkReferences":{},"object":"6080346200025d57601f62004d6638819003918201601f1916830192916001600160401b038411838510176200026257808392604095865283396020928391810103126200025d57516001600160a01b03811691908290036200025d578160019160009280845560ff199081600254166002556101f4600e556005600f556003601055662386f26fc10000601155848052808352868520848652835260ff87862054161562000228575b7fb2eb88090df831c336c2ac91fd704e50d1166ef93798dae04ecdb78950a49171808652818452878620858752845260ff888720541615620001f2575b507fc63907609c1c518c230a90524384edc1a25df2f21481ddb99bef5e2444c35ef0808652818452878620858752845260ff888720541615620001bc575b507fbf233dd2aafeb4d50879c4aa5c81e96d92f6e6945c906a58f9f2d1c1631b4b2692838652818152878620858752815260ff88872054161562000184575b600d80546001600160a01b031916861790558751614acd9081620002798239f35b83865281815287862090858752528685209182541617905560008051602062004d46833981519152339380a438818180808062000163565b8086528184528786208587528452878620828482541617905584339160008051602062004d468339815191528880a43862000124565b8086528184528786208587528452878620828482541617905584339160008051602062004d468339815191528880a438620000e6565b8480528083528685208486528352868520818382541617905533848660008051602062004d468339815191528180a4620000a9565b600080fd5b634e487b7160e01b600052604160045260246000fdfe608080604052600436101561001d575b50361561001b57600080fd5b005b60003560e01c90816301ffc9a7146139bc575080630d93d28a146139905780631080636914613652578063117a5b90146135265780631614665c1461334d57806319c1c731146132715780631b31abda14612f825780631bd8f9ca14612f645780631f2ad4d414612f295780631fd2f25014612e4057806320df435914612e05578063248a9ca314612dd657806324b4c06314612daa57806325bd8de814612d8c5780632b64b6bd14612d605780632f2ff15d14612cfb578063334b7f4e14612c9257806335bf82f614612c2f57806336568abe14612b9d5780633cb5b347146129bd5780633f4ba83a14612929578063425ae6ec1461264b5780634cf052d51461254c5780635408eec9146124d65780635c975abb146124b357806363a1332c146123e05780636beb83a814611c0b578063771197ee1461191c5780637ecc811d146118cd5780638456cb59146118735780638972c1b4146118575780638e1f6a2c1461180a57806391d14854146117bd5780639b3cb9661461172d5780639d927ecd146116ef578063a217fddf146116d3578063a66560961461156f578063b2876315146114da578063bb2239d6146114bc578063c35aa54e1461147e578063c9e6fe3e14611460578063ca1938e514611442578063ce26ad4c14611425578063cf2fdfd9146113f9578063d2fcf4b314610fd1578063d3b5c016146109ff578063d547741f146109c0578063d7cee31e14610997578063d8201f151461094a578063e0a8f6f514610840578063e3c99d0814610762578063e499e79c1461072e578063ea697ac0146106da578063ef3aaf541461062d578063efc51385146105cd578063f474e6b814610592578063f5372e73146102f05763f9174c27146102a8573861000f565b346102eb5760203660031901126102eb576001600160a01b036102c9613c77565b16600052600c60205260206001600160401b0360406000205416604051908152f35b600080fd5b6102f936613c4b565b906103026140bc565b61030a614933565b80600052600360209080825261032d60ff600a6040600020015460101c16613cbd565b8260005280825260ff60026040600020015416600681101561057c576002148015610557575b156105195783156104d45760008381528183526040902060058101546001600160a01b03168061041c57508434036103e257907f0b5b4c52969ff7329ecf7ee536409fda87812b15a8622bc6e8cdeab3aee14a2692916103c360008080808a305af16103bd613ec1565b5061407e565b016103cf858254613e1e565b90555b6040519384523393a36001600055005b60405162461bcd60e51b815260048101849052601260248201527124b731b7b93932b1ba103237b730ba34b7b760711b6044820152606490fd5b6040516323b872dd60e01b815233600482015230602482015260448101879052939291908390859060649082906000905af19384156104c8577f0b5b4c52969ff7329ecf7ee536409fda87812b15a8622bc6e8cdeab3aee14a26946104889160009161049b575061407e565b01610494858254613e1e565b90556103d2565b6104bb9150853d87116104c1575b6104b38183613a46565b810190613d3d565b886103bd565b503d6104a9565b6040513d6000823e3d90fd5b60405162461bcd60e51b815260048101839052601960248201527f446f6e6174696f6e206d75737420626520706f736974697665000000000000006044820152606490fd5b60405162461bcd60e51b815260048101839052601660248201527511d85b59481b9bdd081858dd1a5d994bdcdbdb1d995960521b6044820152606490fd5b508260005280825260ff60026040600020015416600681101561057c57600414610353565b634e487b7160e01b600052602160045260246000fd5b346102eb5760003660031901126102eb5760206040517fb2eb88090df831c336c2ac91fd704e50d1166ef93798dae04ecdb78950a491718152f35b346102eb5760403660031901126102eb576105e6613c61565b600435600052600a60205260406000209060018060a01b03166000526020526106296106156040600020613b35565b604051918291602083526020830190613bfd565b0390f35b346102eb5760203660031901126102eb57610646613c77565b61064e61432e565b6001600160a01b031680156106a3576020817f2dfa8b7ee656a716a96c3dc175cfec18a9c7b22b8850785ca32c4ddfee1635a8926bffffffffffffffffffffffff60a01b600d541617600d55604051908152a1005b60405162461bcd60e51b815260206004820152600f60248201526e496e76616c6964206164647265737360881b6044820152606490fd5b346102eb5760203660031901126102eb5760043580600052600360205261070e60ff600a6040600020015460101c16613cbd565b6000526009602052602060018060a01b0360406000205416604051908152f35b346102eb5760203660031901126102eb576004356000526009602052602060018060a01b0360406000205416604051908152f35b346102eb5761077036613c4b565b801515915081610834575b50156107ff5760405160209060208101908082106001600160401b038311176107e9579080604052600082526040519283926020840190602085525180915260408401929160005b8281106107d257505050500390f35b8351855286955093810193928101926001016107c3565b634e487b7160e01b600052604160045260246000fd5b60405162461bcd60e51b815260206004820152600d60248201526c125b9d985b1a59081b1a5b5a5d609a1b6044820152606490fd5b6064915011158161077b565b346102eb576020806003193601126102eb5760043590816000526003815261087560ff600a6040600020015460101c16613cbd565b816000526003815260406000209160028301805460ff811694600686101561057c576108a5600160039714613d64565b600601546001600160a01b03163314801561092b575b6108c490613fa1565b60ff19169055600052526000600c604082206108df81613f58565b82600182015582600282015582600382015582600482015582600582015582600682015582600782015582600882015582600982015582600a820155610927600b8201613f58565b0155005b506000808052600185526040808220338352865290205460ff166108bb565b346102eb5760403660031901126102eb57610963613c61565b600435600052600760205260406000209060018060a01b0316600052602052602060ff604060002054166040519015158152f35b346102eb5760003660031901126102eb57600d546040516001600160a01b039091168152602090f35b346102eb5760403660031901126102eb5761001b6004356109df613c61565b908060005260016020526109fa600160406000200154614598565b6146a3565b610a0836613ac9565b90610a116140bc565b610a19614933565b806000526003602052610a3960ff600a6040600020015460101c16613cbd565b80600052600360205260ff60026040600020015416600681101561057c57600203610f9a5781518015159081610f8d575b5015610f4857806000526003602052604060002091600483015492612710610a94600e5486613f45565b0491610aa08386614719565b610aad8460011c85614719565b9560ff600a85015460081c16600014610eef5760058401546001600160a01b031680610ee8578134145b15610eac5780610e06575b505060ff600a84015416600381101561057c57600103610def575b505b60ff600a83015416600381101561057c578015908115610de4575b5015610c4c5790600391604051610b4e60208281610b418183019687815193849201613bda565b8101038084520182613a46565b5190206001820154149485610ba1575b505b01546040519315158452602084015260408301527f074fbe334e9d85c8d025fc8a294588a63d6929a98d8293a5a1aee3d4be1c7eda60603393a36001600055005b600a820154610bbc9060181c6001600160a01b031615613ef1565b600a820180546301000000600160b81b0319163360181b6301000000600160b81b031617905560028201805460ff1916600417905533857ff7c67880b72ec988961e570ae4e849eb4fd9d5ba0ab550624ac429ef6d41880c600080a360ff600a83015460081c1680610c43575b15610b5e57610c3d908460011c9083614726565b85610b5e565b50831515610c29565b90935082600052600a6020526040600020336000526020526040600020908051906001600160401b0382116107e957610c858354613afb565b601f8111610da7575b50602090601f8311600114610d3f57610cc0929160009183610d34575b50508160011b916000199060031b1c19161790565b90555b60028301600360ff1982541617905562015180420192834211610d1e578084600c6003930155600094604051908152847f8e3359a99f392ee4257eb86a7ab8ee4c8a4c717bc32744354f4877931c28f6e060203393a3610b60565b634e487b7160e01b600052601160045260246000fd5b015190508780610cab565b90601f198316918460005260206000209260005b818110610d8f5750908460019594939210610d76575b505050811b019055610cc3565b015160001960f88460031b161c19169055868080610d69565b92936020600181928786015181550195019301610d53565b610dd490846000526020600020601f850160051c81019160208610610dda575b601f0160051c0190613f2e565b86610c8e565b9091508190610dc7565b600291501486610b1a565b610dfe60038401918254613e1e565b905585610afd565b6040516323b872dd60e01b81523360048201523060248201526044810192909252602090829060649082906000905af19081156104c857600091610e8d575b5015610e52578680610ae2565b60405162461bcd60e51b8152602060048201526013602482015272119959481d1c985b9cd9995c8819985a5b1959606a1b6044820152606490fd5b610ea6915060203d6020116104c1576104b38183613a46565b87610e45565b60405162461bcd60e51b8152602060048201526014602482015273496e636f7272656374206e61746976652066656560601b6044820152606490fd5b6001610ad7565b505060058201546001600160a01b0316610f415734155b610aff5760405162461bcd60e51b815260206004820152600f60248201526e139bc8199959481c995c5d5a5c9959608a1b6044820152606490fd5b6001610f06565b60405162461bcd60e51b815260206004820152601760248201527f496e76616c696420736f6c7574696f6e206c656e6774680000000000000000006044820152606490fd5b6101f49150111583610a6a565b60405162461bcd60e51b815260206004820152600f60248201526e47616d65206e6f742061637469766560881b6044820152606490fd5b346102eb5760603660031901126102eb576001600160401b036004358181116102eb57611002903690600401613c8d565b906024358381116102eb5761101b903690600401613c8d565b9290936044359081116102eb57611036903690600401613c8d565b919092611041614452565b848214806113f0575b156113b357603282116113755760005b82811061106357005b61106e818484614058565b359061107b81888a614058565b356001600160a01b03811681036102eb57611097828789614058565b3580151581036102eb576110a9614452565b8360005260036020526110c960ff600a6040600020015460101c16613cbd565b836000526003602052604060002091600a8301549460ff8616600381101561057c5760010361133c5760ff600285015416600681101561057c57600361110f9114613e37565b80600052600a602052604060002060018060a01b03831660005260205261113a604060002054613afb565b1561130157600c84015442116112bc57600195836111e1575b5080600052600a6020526040600020868060a01b03831660005260205261117d6040600020613f58565b7f156934b37a6a765531ac9332a9cee7bfe0e5a00742dcd286b811de4751c9bb7c60408051938515158552336020860152888060a01b031693a3156111c4575b500161105a565b600c600091600260ff1981830154161760028201550155886111bd565b6111f690878060a01b039060181c1615613ef1565b600a840180546301000000600160b81b031916601884901b6301000000600160b81b031617905560028401805460ff19166004179055600a84015460081c60ff16611270575b858060a01b038216817ff7c67880b72ec988961e570ae4e849eb4fd9d5ba0ab550624ac429ef6d41880c600080a38c611153565b6112b7600485015461129261271061128a600e5484613f45565b048092614719565b61129f828a1c8093614719565b906112af60038901918254613e1e565b905586614726565b61123c565b60405162461bcd60e51b815260206004820152601c60248201527f566572696669636174696f6e20646561646c696e6520706173736564000000006044820152606490fd5b60405162461bcd60e51b8152602060048201526013602482015272139bc81cdd589b5a5cdcda5bdb88199bdd5b99606a1b6044820152606490fd5b60405162461bcd60e51b81526020600482015260116024820152704e6f742061206d6174682070757a7a6c6560781b6044820152606490fd5b60405162461bcd60e51b8152602060048201526016602482015275546f6f206d616e7920766572696669636174696f6e7360501b6044820152606490fd5b60405162461bcd60e51b8152602060048201526015602482015274082e4e4c2f240d8cadccee8d040dad2e6dac2e8c6d605b1b6044820152606490fd5b5082851461104a565b346102eb5760203660031901126102eb5760043560005260066020526020604060002054604051908152f35b346102eb5760003660031901126102eb5760206040516103e88152f35b346102eb5760003660031901126102eb576020600e54604051908152f35b346102eb5760003660031901126102eb576020600f54604051908152f35b346102eb5760203660031901126102eb5760043561149a61432e565b801515806114b1575b6114ac90614018565b600f55005b5060648111156114a3565b346102eb5760003660031901126102eb576020601054604051908152f35b346102eb5760403660031901126102eb576004357faddb6994a0a091eb47d65b97d2111921aaabf03597c28c0400155ee949f0f8076020611519613c3c565b61152161432e565b836000526003825261154060ff600a6040600020015460101c16613cbd565b60008481526003835260409020600a01805461ff00191682151560081b61ff00161790556040519015158152a2005b346102eb576020806003193601126102eb5760043580600052600382526115a360ff600a6040600020015460101c16613cbd565b806000526003825260ff60026040600020015416600681101561057c5760046115cc9114613cff565b806000526003825260406000206008835260406000205460098201541161168e57600791926000805260018152604060002090336000525260ff604060002054168015611678575b61161d90613fa1565b6002818101805460ff19169091179055600a810180546301000000600160b81b03191690550180546001600160a01b03191690557f3251f5fe5231b3681ff593b97e5a31720697f30eea923fc25da0667755895f41600080a2005b5060068101546001600160a01b03163314611614565b60405162461bcd60e51b815260048101849052601760248201527f496e73756666696369656e74206368616c6c656e6765730000000000000000006044820152606490fd5b346102eb5760003660031901126102eb57602060405160008152f35b346102eb5760203660031901126102eb5760043561170b61432e565b80151580611722575b61171d90614018565b601055005b506014811115611714565b346102eb5760203660031901126102eb5760043561174961432e565b6127108111611783576020817f2a5598de173240d4ae127b442f13979038bbc34af775ad781d1d74626a301d3592600e55604051908152a1005b60405162461bcd60e51b8152602060048201526012602482015271496e76616c69642070657263656e7461676560701b6044820152606490fd5b346102eb5760403660031901126102eb576117d6613c61565b600435600052600160205260406000209060018060a01b0316600052602052602060ff604060002054166040519015158152f35b346102eb5760403660031901126102eb57611823613c61565b600435600052600460205260406000209060018060a01b0316600052602052602060ff604060002054166040519015158152f35b346102eb5760003660031901126102eb57602060405160328152f35b346102eb5760003660031901126102eb5761188c61432e565b611894614933565b600160ff1960025416176002557f62e78cea01bee320cd4e420270b5ea74000d11b0c9f74754ebdbfc544b05a2586020604051338152a1005b346102eb5760203660031901126102eb5760043580600052600360205261190160ff600a6040600020015460101c16613cbd565b60005260036020526020600360406000200154604051908152f35b346102eb576020806003193601126102eb5760043590816000526003815261195160ff600a6040600020015460101c16613cbd565b816000526003815260ff60026040600020015416600681101561057c57600461197a9114613cff565b81600052600381526040600020906008815260406000205460098301541115611bc7577fb2eb88090df831c336c2ac91fd704e50d1166ef93798dae04ecdb78950a4917160005260018152604060002033600052815260ff604060002054168015611bb1575b8015611b95575b6119f090613fa1565b600a8201549160ff8316600381101561057c57600114611b34575b60018060a01b03809360181c169160078201926bffffffffffffffffffffffff60a01b90808286541617855560028401600560ff19825416179055866000526009835260406000209182541617905583600560038401936000855495550154168015600014611abd5750506000808080611a9394878754165af1611a8d613ec1565b50613fdc565b5416907f072fb76a29123692c5adaffdcb4b4b04ee08c125417b72495933d24adc48693a600080a3005b835460405163a9059cbb60e01b81529086166001600160a01b03166004820152602481019390935290919082908290816000816044810103925af19081156104c857611b1292600092611b17575b5050613fdc565b611a93565b611b2d9250803d106104c1576104b38183613a46565b8580611b0b565b601883901c6001600160a01b0316611a0b5760405162461bcd60e51b815260048101839052602160248201527f4d6174682070757a7a6c65206e6f742070726f7065726c7920766572696669656044820152601960fa1b6064820152608490fd5b50600a8201543360189190911c6001600160a01b0316146119e7565b5060068201546001600160a01b031633146119e0565b6064906040519062461bcd60e51b82526004820152601960248201527f4368616c6c656e676573206d656574207468726573686f6c64000000000000006044820152fd5b346102eb5760e03660031901126102eb576004356001600160401b0381116102eb57611c3b903690600401613a82565b6064356001600160a01b03811681036102eb57600360a43510156102eb5760c4356001600160401b0381116102eb57611c78903690600401613a82565b91805180151590816123d3575b5015612396576044351561235157608435151580612344575b1561230657600060a4351580156122f7575b156122535750602435156122025782516121ab575b33600052600c60205260016001600160401b036040600020541601916001600160401b038311610d1e5733600052600c6020526001600160401b036040600020931692836001600160401b0319825416179055608435156000146121a357600f545b6010549460405195611d3887613a0f565b84875260243560208801526001604088015260006060880181905260443560808901526001600160a01b03851660a08901523360c089015260e08801526101008701839052610120870152611d9360a4356101408801613e2b565b6001610160870152600161018087015260006101a08701526101c086015260006101e0860152833360401b176000526003602052604060002085518051906001600160401b0382116107e957611de98354613afb565b601f8111612171575b50602090601f831160011461210557611e239291600091836120fa5750508160011b916000199060031b1c19161790565b81555b602086015160018201556040860151600681101561057c5760028201805460ff9290921660ff1992831617905560608701516003808401919091556080880151600484015560a08801516005840180546001600160a01b03199081166001600160a01b039384161790915560c08a0151600686018054831691841691909117905560e08a0151600786018054909216921691909117905561010088015160088401556101208801516009840155610140880151600a84019181101561057c5781546101608a015161ff0019919094161660ff919091161791151560081b61ff0016919091178155611f539061018088015181546101a08a015162010000600160b81b031990911691151560101b62ff0000169190911760189190911b6301000000600160b81b0316179055565b6101c08601519586516001600160401b0381116107e957602097611f7a600b850154613afb565b601f81116120c7575b508890601f831160011461205357826101e093600c9593611fba936000926120485750508160011b916000199060031b1c19161790565b600b8501555b0151910155611fda6040519360c0855260c0850190613bfd565b6024358487015260443560408501526001600160a01b039092166060840152608083015261200d60a0830160a435613c2f565b7f1529ea8f3e7faaf5875beb35f1160f9720ff09b546572a7ff0894af4f416e838339280853360401b17930390a3604051903360401b178152f35b015190508c80610cab565b90600b8501600052896000209160005b601f19851681106120b0575092600c94926001926101e09583601f19811610612097575b505050811b01600b850155611fc0565b015160001960f88460031b161c191690558b8080612087565b91928b600181928685015181550194019201612063565b6120f490600b86016000528a600020601f850160051c8101918c8610610dda57601f0160051c0190613f2e565b89611f83565b015190508980610cab565b9190836000526020600020906000935b601f1984168510612156576001945083601f1981161061213d575b505050811b018155611e26565b015160001960f88460031b161c19169055888080612130565b81810151835560209485019460019093019290910190612115565b61219d90846000526020600020601f850160051c81019160208610610dda57601f0160051c0190613f2e565b88611df2565b608435611d27565b60405162461bcd60e51b815260206004820152602960248201527f526964646c652f4f746865722073686f756c646e27742068617665206f7261636044820152686c6520706172616d7360b81b6064820152608490fd5b60405162461bcd60e51b815260206004820152602360248201527f526964646c652f4f7468657220726571756972657320736f6c7574696f6e20686044820152620c2e6d60eb1b6064820152608490fd5b61057c57600160a43503611cc5576024356122b3578251611cc55760405162461bcd60e51b815260206004820152601b60248201527f4d617468207265717569726573206f7261636c6520706172616d7300000000006044820152606490fd5b606460405162461bcd60e51b815260206004820152602060248201527f4d6174682073686f756c646e27742075736520736f6c7574696f6e20686173686044820152fd5b50506000600260a43514611cb0565b60405162461bcd60e51b8152602060048201526016602482015275125b9d985b1a59081d9bdd19481d1a1c995cda1bdb1960521b6044820152606490fd5b5060646084351115611c9e565b60405162461bcd60e51b815260206004820152601a60248201527f456e74727920666565206d75737420626520706f7369746976650000000000006044820152606490fd5b60405162461bcd60e51b8152602060048201526015602482015274092dcecc2d8d2c840e0eaf4f4d8ca40d8cadccee8d605b1b6044820152606490fd5b6103e89150111584611c85565b346102eb5760203660031901126102eb576123f9613c77565b61240161432e565b6001600160a01b031660008181527fe161abe49421bdbe04b54ee9f794dbf668947c663b3c53cbadb88cdd90c5027860205260409020547fc63907609c1c518c230a90524384edc1a25df2f21481ddb99bef5e2444c35ef0919060ff161561246557005b8160005260016020526040600020816000526020526040600020600160ff1982541617905533917f2f8788117e7eff1d82e926ec794901d17c78024a50270940304540a733656f0d600080a4005b346102eb5760003660031901126102eb57602060ff600254166040519015158152f35b346102eb5760207f6a75d918a59da9597a749b7c707f23cfa76552074b43c68a24a21db1c45841f161250736613c4b565b61251293919361432e565b836000526003825261253160ff600a6040600020015460101c16613cbd565b836000526003825280600460406000200155604051908152a2005b346102eb5760203660031901126102eb5760043561256861432e565b80600052600360205261258860ff600a6040600020015460101c16613cbd565b80600052600360205260ff60026040600020015416600681101561057c576005036126175760008181526003602052604081206002808201805460ff19169091179055600a810180546301000000600160b81b031916905560070180546001600160a01b03191690557fde24ae18b2bda089720ca38332df93ab6195d7b5b3b0981ccae6b33e0a6c3f9b9080a2005b60405162461bcd60e51b815260206004820152600c60248201526b139bdd08185c98da1a5d995960a21b6044820152606490fd5b346102eb5760603660031901126102eb57600435612667613c61565b604435908115908115938484036102eb57612680614452565b80600052602094600386526126a260ff600a6040600020015460101c16613cbd565b8160005260038652604060002095600a870196875460ff8116600381101561057c576001036128f057600282019860ff8a5416600681101561057c5760036126ea9114613e37565b85600052600a845260406000209660018060a01b039081811698896000528652612718604060002054613afb565b156128b557600c85019a8b54421161287057917f156934b37a6a765531ac9332a9cee7bfe0e5a00742dcd286b811de4751c9bb7c9795939160409795936127a0575b505050505084600052600a81528260002086600052815261277d83600020613f58565b82519182523390820152a361278e57005b815460ff191660021790915560009055005b6127b46127da9260ff9560181c1615613ef1565b82546301000000600160b81b03191660189190911b6301000000600160b81b0316178255565b600482198d5416178c555460081c16612820575b5085857ff7c67880b72ec988961e570ae4e849eb4fd9d5ba0ab550624ac429ef6d41880c600080a3898080808061275a565b80600461286a9201549061284461271061283c600e5485613f45565b048093614719565b906128538360011c8094614719565b9161286360038301918254613e1e565b9055614726565b896127ee565b60405162461bcd60e51b815260048101889052601c60248201527f566572696669636174696f6e20646561646c696e6520706173736564000000006044820152606490fd5b60405162461bcd60e51b8152600481018790526013602482015272139bc81cdd589b5a5cdcda5bdb88199bdd5b99606a1b6044820152606490fd5b60405162461bcd60e51b81526004810184905260116024820152704e6f742061206d6174682070757a7a6c6560781b6044820152606490fd5b346102eb5760003660031901126102eb5761294261432e565b60025460ff8116156129815760ff19166002557f5db9ee0a495bf2e6ff9c91a7834c1ba4fdd244a5e8aa4e537bd38aeae4b073aa6020604051338152a1005b60405162461bcd60e51b815260206004820152601460248201527314185d5cd8589b194e881b9bdd081c185d5cd95960621b6044820152606490fd5b346102eb5760603660031901126102eb576004356044356024356129df614112565b8060005260209160038352612a0160ff600a6040600020015460101c16613cbd565b83600052600b83526040600020544210612b61578160005260038352612a31600360406000200154821115613ddd565b6000828152600384526040902060058101549093906001600160a01b0390811680612ac557509060037f65c06e47d9e4fc8adbe172ef021cb72fea5990c1f513885e7131185ebbd5a83395612a9e60008080808960409b9a99600d54165af1612a98613ec1565b50613e83565b01612aaa838254614719565b905585600052600b81526000848120558351928352820152a2005b600d5460405163a9059cbb60e01b815292166001600160a01b0316600483015260248201849052909392919081908590816000816044810103925af180156104c8577f65c06e47d9e4fc8adbe172ef021cb72fea5990c1f513885e7131185ebbd5a83395612b3f600392604097600091612b445750613e83565b612a9e565b612b5b9150853d87116104c1576104b38183613a46565b8a612a98565b60405162461bcd60e51b8152600481018490526014602482015273151a5b595b1bd8dac81b9bdd08195e1c1a5c995960621b6044820152606490fd5b346102eb5760403660031901126102eb57612bb6613c61565b336001600160a01b03821603612bd25761001b906004356146a3565b60405162461bcd60e51b815260206004820152602f60248201527f416363657373436f6e74726f6c3a2063616e206f6e6c792072656e6f756e636560448201526e103937b632b9903337b91039b2b63360891b6064820152608490fd5b346102eb5760203660031901126102eb57600435612c4b61432e565b8015612c5657601155005b60405162461bcd60e51b8152602060048201526014602482015273466565206d75737420626520706f73697469766560601b6044820152606490fd5b346102eb5760403660031901126102eb57600435612cae613c61565b90806000526003602052612ccf60ff600a6040600020015460101c16613cbd565b600052600a60205260406000209060018060a01b03166000526020526106296106156040600020613b35565b346102eb5760403660031901126102eb57600435612d17613c61565b816000526001602052612d31600160406000200154614598565b81600052600160205260406000209060018060a01b0316908160005260205260ff604060002054161561246557005b346102eb5760203660031901126102eb5760043560005260086020526020604060002054604051908152f35b346102eb5760003660031901126102eb576020604051620151808152f35b346102eb5760203660031901126102eb57600435600052600b6020526020604060002054604051908152f35b346102eb5760203660031901126102eb5760043560005260016020526020600160406000200154604051908152f35b346102eb5760003660031901126102eb5760206040517fbf233dd2aafeb4d50879c4aa5c81e96d92f6e6945c906a58f9f2d1c1631b4b268152f35b346102eb5760203660031901126102eb57600435806000526003602052612e7460ff600a6040600020015460101c16613cbd565b80600052600360205260406000206002810180549160ff831690600682101561057c57612ea56003600c9314613e37565b01908154421115612ee457600260009360ff1916179055557f0b1ca659796b83b4f0a879a976bbb52e43e87049cfbf35ab5395901d2ecbab92600080a2005b60405162461bcd60e51b815260206004820152601760248201527f446561646c696e65206e6f7420796574207061737365640000000000000000006044820152606490fd5b346102eb5760003660031901126102eb5760206040517fc63907609c1c518c230a90524384edc1a25df2f21481ddb99bef5e2444c35ef08152f35b346102eb5760003660031901126102eb576020601154604051908152f35b346102eb5760203660031901126102eb5760043560006101e0604051612fa781613a0f565b606081528260208201528260408201528260608201528260808201528260a08201528260c08201528260e08201528261010082015282610120820152826101408201528261016082015282610180820152826101a082015260606101c0820152015280600052600360205261302960ff600a6040600020015460101c16613cbd565b60005260036020526040600020600560205260406000205460066020526040600020549160086020526040600020546040519161306583613a0f565b61306e81613b35565b83526001810154602084015260ff60028201541690600682101561057c576040840191909152600381015460608401526004810154608084015260058101546001600160a01b0390811660a08501526006820154811660c085015260078201541660e084015260088101546101008401526009810154610120840152600a810154600c919061310460ff82166101408701613e2b565b600881901c60ff9081161515610160870152601082901c16151561018086015260181c6001600160a01b03166101a0850152613142600b8201613b35565b6101c085015201546101e0830152604051938493608085526101e0613255613178865161020060808a0152610280890190613bfd565b602087015160a0890152613194604088015160c08a0190613c22565b606087015160e0890152608087015161010089015260018060a01b0360a08801511661012089015260018060a01b0360c08801511661014089015260018060a01b0360e0880151166101608901526101008701516101808901526101208701516101a089015261320e6101408801516101c08a0190613c2f565b61016087015115158884015261018087015115156102008901526101a08701516001600160a01b03166102208901526101c0870151888203607f19016102408a0152613bfd565b9401516102608601526020850152604084015260608301520390f35b346102eb5761327f36613c4b565b90613288614112565b8060005260036020526132a860ff600a6040600020015460101c16613cbd565b8060005260036020526132c5600360406000200154831115613ddd565b60405190602082018181524260408401523360601b60608401526054835260808301908382106001600160401b038311176107e957816040528351902093620151804201804211610d1e577ffdba3823f568cc62faf441257975029c3242942798f02799332eaee6318adc009460409460a09288600052600b602052866000205584520152a2005b346102eb5760403660031901126102eb57600435613369613c3c565b908060005260206003815261338b60ff600a6040600020015460101c16613cbd565b81600052600381526040600020600281019060ff825416600681101561057c5760016133b79114613d64565b8360005260048352604060002033600052835260ff604060002054166134f157600084815260048452604080822033835285529020805460ff199081166001179091557fe71fcdac32df1877c1700e7bda2a03157e20993363a28fc35ac495cefc76e4d493929186156134b657856000526005845261343e6103e860406000205410613d9e565b856000526005845260406000206134558154613d55565b9055856000526005845260086040600020549101541115613481575b50505b60405193151584523393a3005b8154166002179055827fb2f76656a4d5058a44d6f5fd1ebed95b7ef72920bbecf069fe3973f82c24351f600080a28480613471565b50505082600052600681526134d36103e860406000205410613d9e565b826000526006815260406000206134ea8154613d55565b9055613474565b60405162461bcd60e51b815260048101849052600d60248201526c105b1c9958591e481d9bdd1959609a1b6044820152606490fd5b346102eb5760203660031901126102eb576004356000526003602052604060002061355081613b35565b6001820154600283015460ff16926003810154916004820154600160a01b6001900390816005850154168260068601541683600787015416600887015491600988015493600a89015495600b8a016135a790613b35565b99600c01549a6040519d8e809e61020080835282016135c591613bfd565b9b60208201526040016135d791613c22565b60608d015260808c015260a08b015260c08a015260e089015261010088015261012087015261360d610140870160ff8316613c2f565b8060081c60ff1615156101608701528060101c60ff16151561018087015260181c166101a08501528381036101c085015261364791613bfd565b906101e08301520390f35b61365b36613ac9565b906136646140bc565b806000526020916003835261368660ff600a6040600020015460101c16613cbd565b816000526003835260ff60026040600020015416600681101561057c5760046136af9114613cff565b80518015159081613984575b5015613947578160005260038352604060002060078452604060002033600052845260ff6040600020541661390d578260005260088452603260406000205410156138d05760115460058201549091906001600160a01b0316806137f757508134036137b257916137a89161375660037f4a0952902e092af0d23149e043f8dd57e941b922b429dfe81a6b47af7253af039501918254613e1e565b90555b836000526007855260406000203360005285526040600020600160ff19825416179055836000526008855260406000206137938154613d55565b90556040519182918683523396830190613bfd565b0390a36001600055005b60405162461bcd60e51b815260048101869052601760248201527f496e636f7272656374206368616c6c656e6765206665650000000000000000006044820152606490fd5b6040516323b872dd60e01b815233600482015230602482015260448101849052908690829060649082906000905af19081156104c8576000916138b3575b501561387757916137a89161387060037f4a0952902e092af0d23149e043f8dd57e941b922b429dfe81a6b47af7253af039501918254613e1e565b9055613759565b60405162461bcd60e51b815260048101869052601460248201527310da185b1b195b99d9481999594819985a5b195960621b6044820152606490fd5b6138ca9150863d88116104c1576104b38183613a46565b86613835565b60405162461bcd60e51b815260048101859052601560248201527410da185b1b195b99d94818d85c081c995858da1959605a1b6044820152606490fd5b60405162461bcd60e51b8152600481018590526012602482015271105b1c9958591e4818da185b1b195b99d95960721b6044820152606490fd5b60405162461bcd60e51b8152600481018490526015602482015274092dcecc2d8d2c840e4cac2e6dedc40d8cadccee8d605b1b6044820152606490fd5b60c891501115846136bb565b346102eb5760203660031901126102eb5760043560005260056020526020604060002054604051908152f35b346102eb5760203660031901126102eb576004359063ffffffff60e01b82168092036102eb57602091637965db0b60e01b81149081156139fe575b5015158152f35b6301ffc9a760e01b149050836139f7565b61020081019081106001600160401b038211176107e957604052565b608081019081106001600160401b038211176107e957604052565b90601f801991011681019081106001600160401b038211176107e957604052565b6001600160401b0381116107e957601f01601f191660200190565b81601f820112156102eb57803590613a9982613a67565b92613aa76040519485613a46565b828452602083830101116102eb57816000926020809301838601378301015290565b9060406003198301126102eb5760043591602435906001600160401b0382116102eb57613af891600401613a82565b90565b90600182811c92168015613b2b575b6020831014613b1557565b634e487b7160e01b600052602260045260246000fd5b91607f1691613b0a565b90604051918260008254613b4881613afb565b90818452602094600191600181169081600014613bb85750600114613b79575b505050613b7792500383613a46565b565b600090815285812095935091905b818310613ba0575050613b779350820101388080613b68565b85548884018501529485019487945091830191613b87565b92505050613b7794925060ff191682840152151560051b820101388080613b68565b60005b838110613bed5750506000910152565b8181015183820152602001613bdd565b90602091613c1681518092818552858086019101613bda565b601f01601f1916010190565b90600682101561057c5752565b90600382101561057c5752565b6024359081151582036102eb57565b60409060031901126102eb576004359060243590565b602435906001600160a01b03821682036102eb57565b600435906001600160a01b03821682036102eb57565b9181601f840112156102eb578235916001600160401b0383116102eb576020808501948460051b0101116102eb57565b15613cc457565b60405162461bcd60e51b815260206004820152601360248201527211d85b5948191bd95cc81b9bdd08195e1a5cdd606a1b6044820152606490fd5b15613d0657565b60405162461bcd60e51b815260206004820152600f60248201526e11d85b59481b9bdd081cdbdb1d9959608a1b6044820152606490fd5b908160209103126102eb575180151581036102eb5790565b6000198114610d1e5760010190565b15613d6b57565b60405162461bcd60e51b815260206004820152600b60248201526a4e6f742070656e64696e6760a81b6044820152606490fd5b15613da557565b60405162461bcd60e51b815260206004820152601060248201526f159bdd194818d85c081c995858da195960821b6044820152606490fd5b15613de457565b60405162461bcd60e51b8152602060048201526012602482015271105b5bdd5b9d08195e18d959591cc81c1bdd60721b6044820152606490fd5b91908201809211610d1e57565b600382101561057c5752565b15613e3e57565b60405162461bcd60e51b815260206004820152601960248201527f4e6f74206177616974696e6720766572696669636174696f6e000000000000006044820152606490fd5b15613e8a57565b60405162461bcd60e51b815260206004820152600f60248201526e15da5d1a191c985dc819985a5b1959608a1b6044820152606490fd5b3d15613eec573d90613ed282613a67565b91613ee06040519384613a46565b82523d6000602084013e565b606090565b15613ef857565b60405162461bcd60e51b815260206004820152600e60248201526d105b1c9958591e481cdbdb1d995960921b6044820152606490fd5b818110613f39575050565b60008155600101613f2e565b81810292918115918404141715610d1e57565b613f628154613afb565b9081613f6c575050565b81601f60009311600114613f7e575055565b908083918252613f9d601f60208420940160051c840160018501613f2e565b5555565b15613fa857565b60405162461bcd60e51b815260206004820152600c60248201526b155b985d5d1a1bdc9a5e995960a21b6044820152606490fd5b15613fe357565b60405162461bcd60e51b815260206004820152600d60248201526c14185e5bdd5d0819985a5b1959609a1b6044820152606490fd5b1561401f57565b60405162461bcd60e51b8152602060048201526011602482015270125b9d985b1a59081d1a1c995cda1bdb19607a1b6044820152606490fd5b91908110156140685760051b0190565b634e487b7160e01b600052603260045260246000fd5b1561408557565b60405162461bcd60e51b815260206004820152600f60248201526e111bdb985d1a5bdb8819985a5b1959608a1b6044820152606490fd5b6002600054146140cd576002600055565b60405162461bcd60e51b815260206004820152601f60248201527f5265656e7472616e637947756172643a207265656e7472616e742063616c6c006044820152606490fd5b3360009081527f1614b4e5e0f135c54873c4dcd295a7b40f93a8d877405affc188cfd7b4f40ed2602090815260408083205490927fbf233dd2aafeb4d50879c4aa5c81e96d92f6e6945c906a58f9f2d1c1631b4b269160019060ff161561417a575050505050565b61418333614988565b9285519161419083613a2b565b6042835285830193606036863783511561431a576030855383516001101561431a5790607860218501536041915b8183116142ac5750505061426a57604861426693869361424a9361423b985198899376020b1b1b2b9b9a1b7b73a3937b61d1030b1b1b7bab73a1604d1b8a860152614212815180928c603789019101613bda565b8401917001034b99036b4b9b9b4b733903937b6329607d1b603784015251809386840190613bda565b01036028810187520185613a46565b5192839262461bcd60e51b845260048401526024830190613bfd565b0390fd5b60648486519062461bcd60e51b825280600483015260248201527f537472696e67733a20686578206c656e67746820696e73756666696369656e746044820152fd5b909192600f81166010811015614306576f181899199a1a9b1b9c1cb0b131b232b360811b901a6142dc8587614977565b5360041c9280156142f2576000190191906141be565b634e487b7160e01b82526011600452602482fd5b634e487b7160e01b83526032600452602483fd5b634e487b7160e01b81526032600452602490fd5b3360009081527fa6eef7e35abe7026729641147f7915573c7e97b47efa546f5f6e3230263bcb496020908152604080832054909260019160ff16156143735750505050565b61437c33614988565b918185519161438a83613a2b565b6042835285830193606036863783511561431a576030855383516001101561431a5790607860218501536041915b81831161440c5750505061426a57604861426693869361424a9361423b985198899376020b1b1b2b9b9a1b7b73a3937b61d1030b1b1b7bab73a1604d1b8a860152614212815180928c603789019101613bda565b909192600f81166010811015614306576f181899199a1a9b1b9c1cb0b131b232b360811b901a61443c8587614977565b5360041c9280156142f2576000190191906143b8565b3360009081527fe161abe49421bdbe04b54ee9f794dbf668947c663b3c53cbadb88cdd90c50278602090815260408083205490927fc63907609c1c518c230a90524384edc1a25df2f21481ddb99bef5e2444c35ef09160019060ff16156144ba575050505050565b6144c333614988565b928551916144d083613a2b565b6042835285830193606036863783511561431a576030855383516001101561431a5790607860218501536041915b8183116145525750505061426a57604861426693869361424a9361423b985198899376020b1b1b2b9b9a1b7b73a3937b61d1030b1b1b7bab73a1604d1b8a860152614212815180928c603789019101613bda565b909192600f81166010811015614306576f181899199a1a9b1b9c1cb0b131b232b360811b901a6145828587614977565b5360041c9280156142f2576000190191906144fe565b600081815260019160209160018352604093848220338352845260ff8583205416156145c5575050505050565b6145ce33614988565b928551916145db83613a2b565b6042835285830193606036863783511561431a576030855383516001101561431a5790607860218501536041915b81831161465d5750505061426a57604861426693869361424a9361423b985198899376020b1b1b2b9b9a1b7b73a3937b61d1030b1b1b7bab73a1604d1b8a860152614212815180928c603789019101613bda565b909192600f81166010811015614306576f181899199a1a9b1b9c1cb0b131b232b360811b901a61468d8587614977565b5360041c9280156142f257600019019190614609565b906000918083526001602052604083209160018060a01b03169182845260205260ff6040842054166146d457505050565b8083526001602052604083208284526020526040832060ff1981541690557ff6391f5c32d9c69d2a47ea670b442974b53935d1edc7fd64eb21e047a839171b339380a4565b91908203918211610d1e57565b6005810180549193926001600160a01b03929091908316806147c857505060069060009383859493858080808098978198600d54165af197614766613ec1565b500154165af1614774613ec1565b50816147c0575b501561478357565b60405162461bcd60e51b815260206004820152601560248201527414da185c99481d1c985b9cd9995c8819985a5b1959605a1b6044820152606490fd5b90503861477b565b600d546040805163a9059cbb60e01b8082529287166001600160a01b0316600482015260248101959095526020979096929592949093919291908881806044810103816000809b5af190811561492957879161490c575b50156148d3575460069390930154865192835281166001600160a01b031660048301526024820193909352918591839160449183918791165af19182156148c857916148ab575b5015614870575050565b60649250519062461bcd60e51b825260048201526015602482015274141c9bdc1bdcd95c881cda185c994819985a5b1959605a1b6044820152fd5b6148c29150833d85116104c1576104b38183613a46565b38614866565b8351903d90823e3d90fd5b865162461bcd60e51b8152600481018990526012602482015271121bdd5cd9481cda185c994819985a5b195960721b6044820152606490fd5b6149239150893d8b116104c1576104b38183613a46565b3861481f565b88513d89823e3d90fd5b60ff6002541661493f57565b60405162461bcd60e51b815260206004820152601060248201526f14185d5cd8589b194e881c185d5cd95960821b6044820152606490fd5b908151811015614068570160200190565b60405190606082018281106001600160401b038211176107e957604052602a8252602082016040368237825115614068576030905381516001906001101561406857607860218401536029905b808211614a295750506149e55790565b606460405162461bcd60e51b815260206004820152602060248201527f537472696e67733a20686578206c656e67746820696e73756666696369656e746044820152fd5b9091600f81166010811015614a82576f181899199a1a9b1b9c1cb0b131b232b360811b901a614a588486614977565b5360041c918015614a6d5760001901906149d5565b60246000634e487b7160e01b81526011600452fd5b60246000634e487b7160e01b81526032600452fdfea264697066735822122088d06523a196953d23ca527c604c56611f5e8e7f6907e50ea32d1c8426b8cb3664736f6c634300081800332f8788117e7eff1d82e926ec794901d17c78024a50270940304540a733656f0d","opcodes":"PUSH1 0x80 CALLVALUE PUSH3 0x25D JUMPI PUSH1 0x1F PUSH3 0x4D66 CODESIZE DUP2 SWAP1 SUB SWAP2 DUP3 ADD PUSH1 0x1F NOT AND DUP4 ADD SWAP3 SWAP2 PUSH1 0x1 PUSH1 0x1 PUSH1 0x40 SHL SUB DUP5 GT DUP4 DUP6 LT OR PUSH3 0x262 JUMPI DUP1 DUP4 SWAP3 PUSH1 0x40 SWAP6 DUP7 MSTORE DUP4 CODECOPY PUSH1 0x20 SWAP3 DUP4 SWAP2 DUP2 ADD SUB SLT PUSH3 0x25D JUMPI MLOAD PUSH1 0x1 PUSH1 0x1 PUSH1 0xA0 SHL SUB DUP2 AND SWAP2 SWAP1 DUP3 SWAP1 SUB PUSH3 0x25D JUMPI DUP2 PUSH1 0x1 SWAP2 PUSH1 0x0 SWAP3 DUP1 DUP5 SSTORE PUSH1 0xFF NOT SWAP1 DUP2 PUSH1 0x2 SLOAD AND PUSH1 0x2 SSTORE PUSH2 0x1F4 PUSH1 0xE SSTORE PUSH1 0x5 PUSH1 0xF SSTORE PUSH1 0x3 PUSH1 0x10 SSTORE PUSH7 0x2386F26FC10000 PUSH1 0x11 SSTORE DUP5 DUP1 MSTORE DUP1 DUP4 MSTORE DUP7 DUP6 KECCAK256 DUP5 DUP7 MSTORE DUP4 MSTORE PUSH1 0xFF DUP8 DUP7 KECCAK256 SLOAD AND ISZERO PUSH3 0x228 JUMPI JUMPDEST PUSH32 0xB2EB88090DF831C336C2AC91FD704E50D1166EF93798DAE04ECDB78950A49171 DUP1 DUP7 MSTORE DUP2 DUP5 MSTORE DUP8 DUP7 KECCAK256 DUP6 DUP8 MSTORE DUP5 MSTORE PUSH1 0xFF DUP9 DUP8 KECCAK256 SLOAD AND ISZERO PUSH3 0x1F2 JUMPI JUMPDEST POP PUSH32 0xC63907609C1C518C230A90524384EDC1A25DF2F21481DDB99BEF5E2444C35EF0 DUP1 DUP7 MSTORE DUP2 DUP5 MSTORE DUP8 DUP7 KECCAK256 DUP6 DUP8 MSTORE DUP5 MSTORE PUSH1 0xFF DUP9 DUP8 KECCAK256 SLOAD AND ISZERO PUSH3 0x1BC JUMPI JUMPDEST POP PUSH32 0xBF233DD2AAFEB4D50879C4AA5C81E96D92F6E6945C906A58F9F2D1C1631B4B26 SWAP3 DUP4 DUP7 MSTORE DUP2 DUP2 MSTORE DUP8 DUP7 KECCAK256 DUP6 DUP8 MSTORE DUP2 MSTORE PUSH1 0xFF DUP9 DUP8 KECCAK256 SLOAD AND ISZERO PUSH3 0x184 JUMPI JUMPDEST PUSH1 0xD DUP1 SLOAD PUSH1 0x1 PUSH1 0x1 PUSH1 0xA0 SHL SUB NOT AND DUP7 OR SWAP1 SSTORE DUP8 MLOAD PUSH2 0x4ACD SWAP1 DUP2 PUSH3 0x279 DUP3 CODECOPY RETURN JUMPDEST DUP4 DUP7 MSTORE DUP2 DUP2 MSTORE DUP8 DUP7 KECCAK256 SWAP1 DUP6 DUP8 MSTORE MSTORE DUP7 DUP6 KECCAK256 SWAP2 DUP3 SLOAD AND OR SWAP1 SSTORE PUSH1 0x0 DUP1 MLOAD PUSH1 0x20 PUSH3 0x4D46 DUP4 CODECOPY DUP2 MLOAD SWAP2 MSTORE CALLER SWAP4 DUP1 LOG4 CODESIZE DUP2 DUP2 DUP1 DUP1 DUP1 PUSH3 0x163 JUMP JUMPDEST DUP1 DUP7 MSTORE DUP2 DUP5 MSTORE DUP8 DUP7 KECCAK256 DUP6 DUP8 MSTORE DUP5 MSTORE DUP8 DUP7 KECCAK256 DUP3 DUP5 DUP3 SLOAD AND OR SWAP1 SSTORE DUP5 CALLER SWAP2 PUSH1 0x0 DUP1 MLOAD PUSH1 0x20 PUSH3 0x4D46 DUP4 CODECOPY DUP2 MLOAD SWAP2 MSTORE DUP9 DUP1 LOG4 CODESIZE PUSH3 0x124 JUMP JUMPDEST DUP1 DUP7 MSTORE DUP2 DUP5 MSTORE DUP8 DUP7 KECCAK256 DUP6 DUP8 MSTORE DUP5 MSTORE DUP8 DUP7 KECCAK256 DUP3 DUP5 DUP3 SLOAD AND OR SWAP1 SSTORE DUP5 CALLER SWAP2 PUSH1 0x0 DUP1 MLOAD PUSH1 0x20 PUSH3 0x4D46 DUP4 CODECOPY DUP2 MLOAD SWAP2 MSTORE DUP9 DUP1 LOG4 CODESIZE PUSH3 0xE6 JUMP JUMPDEST DUP5 DUP1 MSTORE DUP1 DUP4 MSTORE DUP7 DUP6 KECCAK256 DUP5 DUP7 MSTORE DUP4 MSTORE DUP7 DUP6 KECCAK256 DUP2 DUP4 DUP3 SLOAD AND OR SWAP1 SSTORE CALLER DUP5 DUP7 PUSH1 0x0 DUP1 MLOAD PUSH1 0x20 PUSH3 0x4D46 DUP4 CODECOPY DUP2 MLOAD SWAP2 MSTORE DUP2 DUP1 LOG4 PUSH3 0xA9 JUMP JUMPDEST PUSH1 0x0 DUP1 REVERT JUMPDEST PUSH4 0x4E487B71 PUSH1 0xE0 SHL PUSH1 0x0 MSTORE PUSH1 0x41 PUSH1 0x4 MSTORE PUSH1 0x24 PUSH1 0x0 REVERT INVALID PUSH1 0x80 DUP1 PUSH1 0x40 MSTORE PUSH1 0x4 CALLDATASIZE LT ISZERO PUSH2 0x1D JUMPI JUMPDEST POP CALLDATASIZE ISZERO PUSH2 0x1B JUMPI PUSH1 0x0 DUP1 REVERT JUMPDEST STOP JUMPDEST PUSH1 0x0 CALLDATALOAD PUSH1 0xE0 SHR SWAP1 DUP2 PUSH4 0x1FFC9A7 EQ PUSH2 0x39BC JUMPI POP DUP1 PUSH4 0xD93D28A EQ PUSH2 0x3990 JUMPI DUP1 PUSH4 0x10806369 EQ PUSH2 0x3652 JUMPI DUP1 PUSH4 0x117A5B90 EQ PUSH2 0x3526 JUMPI DUP1 PUSH4 0x1614665C EQ PUSH2 0x334D JUMPI DUP1 PUSH4 0x19C1C731 EQ PUSH2 0x3271 JUMPI DUP1 PUSH4 0x1B31ABDA EQ PUSH2 0x2F82 JUMPI DUP1 PUSH4 0x1BD8F9CA EQ PUSH2 0x2F64 JUMPI DUP1 PUSH4 0x1F2AD4D4 EQ PUSH2 0x2F29 JUMPI DUP1 PUSH4 0x1FD2F250 EQ PUSH2 0x2E40 JUMPI DUP1 PUSH4 0x20DF4359 EQ PUSH2 0x2E05 JUMPI DUP1 PUSH4 0x248A9CA3 EQ PUSH2 0x2DD6 JUMPI DUP1 PUSH4 0x24B4C063 EQ PUSH2 0x2DAA JUMPI DUP1 PUSH4 0x25BD8DE8 EQ PUSH2 0x2D8C JUMPI DUP1 PUSH4 0x2B64B6BD EQ PUSH2 0x2D60 JUMPI DUP1 PUSH4 0x2F2FF15D EQ PUSH2 0x2CFB JUMPI DUP1 PUSH4 0x334B7F4E EQ PUSH2 0x2C92 JUMPI DUP1 PUSH4 0x35BF82F6 EQ PUSH2 0x2C2F JUMPI DUP1 PUSH4 0x36568ABE EQ PUSH2 0x2B9D JUMPI DUP1 PUSH4 0x3CB5B347 EQ PUSH2 0x29BD JUMPI DUP1 PUSH4 0x3F4BA83A EQ PUSH2 0x2929 JUMPI DUP1 PUSH4 0x425AE6EC EQ PUSH2 0x264B JUMPI DUP1 PUSH4 0x4CF052D5 EQ PUSH2 0x254C JUMPI DUP1 PUSH4 0x5408EEC9 EQ PUSH2 0x24D6 JUMPI DUP1 PUSH4 0x5C975ABB EQ PUSH2 0x24B3 JUMPI DUP1 PUSH4 0x63A1332C EQ PUSH2 0x23E0 JUMPI DUP1 PUSH4 0x6BEB83A8 EQ PUSH2 0x1C0B JUMPI DUP1 PUSH4 0x771197EE EQ PUSH2 0x191C JUMPI DUP1 PUSH4 0x7ECC811D EQ PUSH2 0x18CD JUMPI DUP1 PUSH4 0x8456CB59 EQ PUSH2 0x1873 JUMPI DUP1 PUSH4 0x8972C1B4 EQ PUSH2 0x1857 JUMPI DUP1 PUSH4 0x8E1F6A2C EQ PUSH2 0x180A JUMPI DUP1 PUSH4 0x91D14854 EQ PUSH2 0x17BD JUMPI DUP1 PUSH4 0x9B3CB966 EQ PUSH2 0x172D JUMPI DUP1 PUSH4 0x9D927ECD EQ PUSH2 0x16EF JUMPI DUP1 PUSH4 0xA217FDDF EQ PUSH2 0x16D3 JUMPI DUP1 PUSH4 0xA6656096 EQ PUSH2 0x156F JUMPI DUP1 PUSH4 0xB2876315 EQ PUSH2 0x14DA JUMPI DUP1 PUSH4 0xBB2239D6 EQ PUSH2 0x14BC JUMPI DUP1 PUSH4 0xC35AA54E EQ PUSH2 0x147E JUMPI DUP1 PUSH4 0xC9E6FE3E EQ PUSH2 0x1460 JUMPI DUP1 PUSH4 0xCA1938E5 EQ PUSH2 0x1442 JUMPI DUP1 PUSH4 0xCE26AD4C EQ PUSH2 0x1425 JUMPI DUP1 PUSH4 0xCF2FDFD9 EQ PUSH2 0x13F9 JUMPI DUP1 PUSH4 0xD2FCF4B3 EQ PUSH2 0xFD1 JUMPI DUP1 PUSH4 0xD3B5C016 EQ PUSH2 0x9FF JUMPI DUP1 PUSH4 0xD547741F EQ PUSH2 0x9C0 JUMPI DUP1 PUSH4 0xD7CEE31E EQ PUSH2 0x997 JUMPI DUP1 PUSH4 0xD8201F15 EQ PUSH2 0x94A JUMPI DUP1 PUSH4 0xE0A8F6F5 EQ PUSH2 0x840 JUMPI DUP1 PUSH4 0xE3C99D08 EQ PUSH2 0x762 JUMPI DUP1 PUSH4 0xE499E79C EQ PUSH2 0x72E JUMPI DUP1 PUSH4 0xEA697AC0 EQ PUSH2 0x6DA JUMPI DUP1 PUSH4 0xEF3AAF54 EQ PUSH2 0x62D JUMPI DUP1 PUSH4 0xEFC51385 EQ PUSH2 0x5CD JUMPI DUP1 PUSH4 0xF474E6B8 EQ PUSH2 0x592 JUMPI DUP1 PUSH4 0xF5372E73 EQ PUSH2 0x2F0 JUMPI PUSH4 0xF9174C27 EQ PUSH2 0x2A8 JUMPI CODESIZE PUSH2 0xF JUMP JUMPDEST CALLVALUE PUSH2 0x2EB JUMPI PUSH1 0x20 CALLDATASIZE PUSH1 0x3 NOT ADD SLT PUSH2 0x2EB JUMPI PUSH1 0x1 PUSH1 0x1 PUSH1 0xA0 SHL SUB PUSH2 0x2C9 PUSH2 0x3C77 JUMP JUMPDEST AND PUSH1 0x0 MSTORE PUSH1 0xC PUSH1 0x20 MSTORE PUSH1 0x20 PUSH1 0x1 PUSH1 0x1 PUSH1 0x40 SHL SUB PUSH1 0x40 PUSH1 0x0 KECCAK256 SLOAD AND PUSH1 0x40 MLOAD SWAP1 DUP2 MSTORE RETURN JUMPDEST PUSH1 0x0 DUP1 REVERT JUMPDEST PUSH2 0x2F9 CALLDATASIZE PUSH2 0x3C4B JUMP JUMPDEST SWAP1 PUSH2 0x302 PUSH2 0x40BC JUMP JUMPDEST PUSH2 0x30A PUSH2 0x4933 JUMP JUMPDEST DUP1 PUSH1 0x0 MSTORE PUSH1 0x3 PUSH1 0x20 SWAP1 DUP1 DUP3 MSTORE PUSH2 0x32D PUSH1 0xFF PUSH1 0xA PUSH1 0x40 PUSH1 0x0 KECCAK256 ADD SLOAD PUSH1 0x10 SHR AND PUSH2 0x3CBD JUMP JUMPDEST DUP3 PUSH1 0x0 MSTORE DUP1 DUP3 MSTORE PUSH1 0xFF PUSH1 0x2 PUSH1 0x40 PUSH1 0x0 KECCAK256 ADD SLOAD AND PUSH1 0x6 DUP2 LT ISZERO PUSH2 0x57C JUMPI PUSH1 0x2 EQ DUP1 ISZERO PUSH2 0x557 JUMPI JUMPDEST ISZERO PUSH2 0x519 JUMPI DUP4 ISZERO PUSH2 0x4D4 JUMPI PUSH1 0x0 DUP4 DUP2 MSTORE DUP2 DUP4 MSTORE PUSH1 0x40 SWAP1 KECCAK256 PUSH1 0x5 DUP2 ADD SLOAD PUSH1 0x1 PUSH1 0x1 PUSH1 0xA0 SHL SUB AND DUP1 PUSH2 0x41C JUMPI POP DUP5 CALLVALUE SUB PUSH2 0x3E2 JUMPI SWAP1 PUSH32 0xB5B4C52969FF7329ECF7EE536409FDA87812B15A8622BC6E8CDEAB3AEE14A26 SWAP3 SWAP2 PUSH2 0x3C3 PUSH1 0x0 DUP1 DUP1 DUP1 DUP11 ADDRESS GAS CALL PUSH2 0x3BD PUSH2 0x3EC1 JUMP JUMPDEST POP PUSH2 0x407E JUMP JUMPDEST ADD PUSH2 0x3CF DUP6 DUP3 SLOAD PUSH2 0x3E1E JUMP JUMPDEST SWAP1 SSTORE JUMPDEST PUSH1 0x40 MLOAD SWAP4 DUP5 MSTORE CALLER SWAP4 LOG3 PUSH1 0x1 PUSH1 0x0 SSTORE STOP JUMPDEST PUSH1 0x40 MLOAD PUSH3 0x461BCD PUSH1 0xE5 SHL DUP2 MSTORE PUSH1 0x4 DUP2 ADD DUP5 SWAP1 MSTORE PUSH1 0x12 PUSH1 0x24 DUP3 ADD MSTORE PUSH18 0x24B731B7B93932B1BA103237B730BA34B7B7 PUSH1 0x71 SHL PUSH1 0x44 DUP3 ADD MSTORE PUSH1 0x64 SWAP1 REVERT JUMPDEST PUSH1 0x40 MLOAD PUSH4 0x23B872DD PUSH1 0xE0 SHL DUP2 MSTORE CALLER PUSH1 0x4 DUP3 ADD MSTORE ADDRESS PUSH1 0x24 DUP3 ADD MSTORE PUSH1 0x44 DUP2 ADD DUP8 SWAP1 MSTORE SWAP4 SWAP3 SWAP2 SWAP1 DUP4 SWAP1 DUP6 SWAP1 PUSH1 0x64 SWAP1 DUP3 SWAP1 PUSH1 0x0 SWAP1 GAS CALL SWAP4 DUP5 ISZERO PUSH2 0x4C8 JUMPI PUSH32 0xB5B4C52969FF7329ECF7EE536409FDA87812B15A8622BC6E8CDEAB3AEE14A26 SWAP5 PUSH2 0x488 SWAP2 PUSH1 0x0 SWAP2 PUSH2 0x49B JUMPI POP PUSH2 0x407E JUMP JUMPDEST ADD PUSH2 0x494 DUP6 DUP3 SLOAD PUSH2 0x3E1E JUMP JUMPDEST SWAP1 SSTORE PUSH2 0x3D2 JUMP JUMPDEST PUSH2 0x4BB SWAP2 POP DUP6 RETURNDATASIZE DUP8 GT PUSH2 0x4C1 JUMPI JUMPDEST PUSH2 0x4B3 DUP2 DUP4 PUSH2 0x3A46 JUMP JUMPDEST DUP2 ADD SWAP1 PUSH2 0x3D3D JUMP JUMPDEST DUP9 PUSH2 0x3BD JUMP JUMPDEST POP RETURNDATASIZE PUSH2 0x4A9 JUMP JUMPDEST PUSH1 0x40 MLOAD RETURNDATASIZE PUSH1 0x0 DUP3 RETURNDATACOPY RETURNDATASIZE SWAP1 REVERT JUMPDEST PUSH1 0x40 MLOAD PUSH3 0x461BCD PUSH1 0xE5 SHL DUP2 MSTORE PUSH1 0x4 DUP2 ADD DUP4 SWAP1 MSTORE PUSH1 0x19 PUSH1 0x24 DUP3 ADD MSTORE PUSH32 0x446F6E6174696F6E206D75737420626520706F73697469766500000000000000 PUSH1 0x44 DUP3 ADD MSTORE PUSH1 0x64 SWAP1 REVERT JUMPDEST PUSH1 0x40 MLOAD PUSH3 0x461BCD PUSH1 0xE5 SHL DUP2 MSTORE PUSH1 0x4 DUP2 ADD DUP4 SWAP1 MSTORE PUSH1 0x16 PUSH1 0x24 DUP3 ADD MSTORE PUSH22 0x11D85B59481B9BDD081858DD1A5D994BDCDBDB1D9959 PUSH1 0x52 SHL PUSH1 0x44 DUP3 ADD MSTORE PUSH1 0x64 SWAP1 REVERT JUMPDEST POP DUP3 PUSH1 0x0 MSTORE DUP1 DUP3 MSTORE PUSH1 0xFF PUSH1 0x2 PUSH1 0x40 PUSH1 0x0 KECCAK256 ADD SLOAD AND PUSH1 0x6 DUP2 LT ISZERO PUSH2 0x57C JUMPI PUSH1 0x4 EQ PUSH2 0x353 JUMP JUMPDEST PUSH4 0x4E487B71 PUSH1 0xE0 SHL PUSH1 0x0 MSTORE PUSH1 0x21 PUSH1 0x4 MSTORE PUSH1 0x24 PUSH1 0x0 REVERT JUMPDEST CALLVALUE PUSH2 0x2EB JUMPI PUSH1 0x0 CALLDATASIZE PUSH1 0x3 NOT ADD SLT PUSH2 0x2EB JUMPI PUSH1 0x20 PUSH1 0x40 MLOAD PUSH32 0xB2EB88090DF831C336C2AC91FD704E50D1166EF93798DAE04ECDB78950A49171 DUP2 MSTORE RETURN JUMPDEST CALLVALUE PUSH2 0x2EB JUMPI PUSH1 0x40 CALLDATASIZE PUSH1 0x3 NOT ADD SLT PUSH2 0x2EB JUMPI PUSH2 0x5E6 PUSH2 0x3C61 JUMP JUMPDEST PUSH1 0x4 CALLDATALOAD PUSH1 0x0 MSTORE PUSH1 0xA PUSH1 0x20 MSTORE PUSH1 0x40 PUSH1 0x0 KECCAK256 SWAP1 PUSH1 0x1 DUP1 PUSH1 0xA0 SHL SUB AND PUSH1 0x0 MSTORE PUSH1 0x20 MSTORE PUSH2 0x629 PUSH2 0x615 PUSH1 0x40 PUSH1 0x0 KECCAK256 PUSH2 0x3B35 JUMP JUMPDEST PUSH1 0x40 MLOAD SWAP2 DUP3 SWAP2 PUSH1 0x20 DUP4 MSTORE PUSH1 0x20 DUP4 ADD SWAP1 PUSH2 0x3BFD JUMP JUMPDEST SUB SWAP1 RETURN JUMPDEST CALLVALUE PUSH2 0x2EB JUMPI PUSH1 0x20 CALLDATASIZE PUSH1 0x3 NOT ADD SLT PUSH2 0x2EB JUMPI PUSH2 0x646 PUSH2 0x3C77 JUMP JUMPDEST PUSH2 0x64E PUSH2 0x432E JUMP JUMPDEST PUSH1 0x1 PUSH1 0x1 PUSH1 0xA0 SHL SUB AND DUP1 ISZERO PUSH2 0x6A3 JUMPI PUSH1 0x20 DUP2 PUSH32 0x2DFA8B7EE656A716A96C3DC175CFEC18A9C7B22B8850785CA32C4DDFEE1635A8 SWAP3 PUSH12 0xFFFFFFFFFFFFFFFFFFFFFFFF PUSH1 0xA0 SHL PUSH1 0xD SLOAD AND OR PUSH1 0xD SSTORE PUSH1 0x40 MLOAD SWAP1 DUP2 MSTORE LOG1 STOP JUMPDEST PUSH1 0x40 MLOAD PUSH3 0x461BCD PUSH1 0xE5 SHL DUP2 MSTORE PUSH1 0x20 PUSH1 0x4 DUP3 ADD MSTORE PUSH1 0xF PUSH1 0x24 DUP3 ADD MSTORE PUSH15 0x496E76616C69642061646472657373 PUSH1 0x88 SHL PUSH1 0x44 DUP3 ADD MSTORE PUSH1 0x64 SWAP1 REVERT JUMPDEST CALLVALUE PUSH2 0x2EB JUMPI PUSH1 0x20 CALLDATASIZE PUSH1 0x3 NOT ADD SLT PUSH2 0x2EB JUMPI PUSH1 0x4 CALLDATALOAD DUP1 PUSH1 0x0 MSTORE PUSH1 0x3 PUSH1 0x20 MSTORE PUSH2 0x70E PUSH1 0xFF PUSH1 0xA PUSH1 0x40 PUSH1 0x0 KECCAK256 ADD SLOAD PUSH1 0x10 SHR AND PUSH2 0x3CBD JUMP JUMPDEST PUSH1 0x0 MSTORE PUSH1 0x9 PUSH1 0x20 MSTORE PUSH1 0x20 PUSH1 0x1 DUP1 PUSH1 0xA0 SHL SUB PUSH1 0x40 PUSH1 0x0 KECCAK256 SLOAD AND PUSH1 0x40 MLOAD SWAP1 DUP2 MSTORE RETURN JUMPDEST CALLVALUE PUSH2 0x2EB JUMPI PUSH1 0x20 CALLDATASIZE PUSH1 0x3 NOT ADD SLT PUSH2 0x2EB JUMPI PUSH1 0x4 CALLDATALOAD PUSH1 0x0 MSTORE PUSH1 0x9 PUSH1 0x20 MSTORE PUSH1 0x20 PUSH1 0x1 DUP1 PUSH1 0xA0 SHL SUB PUSH1 0x40 PUSH1 0x0 KECCAK256 SLOAD AND PUSH1 0x40 MLOAD SWAP1 DUP2 MSTORE RETURN JUMPDEST CALLVALUE PUSH2 0x2EB JUMPI PUSH2 0x770 CALLDATASIZE PUSH2 0x3C4B JUMP JUMPDEST DUP1 ISZERO ISZERO SWAP2 POP DUP2 PUSH2 0x834 JUMPI JUMPDEST POP ISZERO PUSH2 0x7FF JUMPI PUSH1 0x40 MLOAD PUSH1 0x20 SWAP1 PUSH1 0x20 DUP2 ADD SWAP1 DUP1 DUP3 LT PUSH1 0x1 PUSH1 0x1 PUSH1 0x40 SHL SUB DUP4 GT OR PUSH2 0x7E9 JUMPI SWAP1 DUP1 PUSH1 0x40 MSTORE PUSH1 0x0 DUP3 MSTORE PUSH1 0x40 MLOAD SWAP3 DUP4 SWAP3 PUSH1 0x20 DUP5 ADD SWAP1 PUSH1 0x20 DUP6 MSTORE MLOAD DUP1 SWAP2 MSTORE PUSH1 0x40 DUP5 ADD SWAP3 SWAP2 PUSH1 0x0 JUMPDEST DUP3 DUP2 LT PUSH2 0x7D2 JUMPI POP POP POP POP SUB SWAP1 RETURN JUMPDEST DUP4 MLOAD DUP6 MSTORE DUP7 SWAP6 POP SWAP4 DUP2 ADD SWAP4 SWAP3 DUP2 ADD SWAP3 PUSH1 0x1 ADD PUSH2 0x7C3 JUMP JUMPDEST PUSH4 0x4E487B71 PUSH1 0xE0 SHL PUSH1 0x0 MSTORE PUSH1 0x41 PUSH1 0x4 MSTORE PUSH1 0x24 PUSH1 0x0 REVERT JUMPDEST PUSH1 0x40 MLOAD PUSH3 0x461BCD PUSH1 0xE5 SHL DUP2 MSTORE PUSH1 0x20 PUSH1 0x4 DUP3 ADD MSTORE PUSH1 0xD PUSH1 0x24 DUP3 ADD MSTORE PUSH13 0x125B9D985B1A59081B1A5B5A5D PUSH1 0x9A SHL PUSH1 0x44 DUP3 ADD MSTORE PUSH1 0x64 SWAP1 REVERT JUMPDEST PUSH1 0x64 SWAP2 POP GT ISZERO DUP2 PUSH2 0x77B JUMP JUMPDEST CALLVALUE PUSH2 0x2EB JUMPI PUSH1 0x20 DUP1 PUSH1 0x3 NOT CALLDATASIZE ADD SLT PUSH2 0x2EB JUMPI PUSH1 0x4 CALLDATALOAD SWAP1 DUP2 PUSH1 0x0 MSTORE PUSH1 0x3 DUP2 MSTORE PUSH2 0x875 PUSH1 0xFF PUSH1 0xA PUSH1 0x40 PUSH1 0x0 KECCAK256 ADD SLOAD PUSH1 0x10 SHR AND PUSH2 0x3CBD JUMP JUMPDEST DUP2 PUSH1 0x0 MSTORE PUSH1 0x3 DUP2 MSTORE PUSH1 0x40 PUSH1 0x0 KECCAK256 SWAP2 PUSH1 0x2 DUP4 ADD DUP1 SLOAD PUSH1 0xFF DUP2 AND SWAP5 PUSH1 0x6 DUP7 LT ISZERO PUSH2 0x57C JUMPI PUSH2 0x8A5 PUSH1 0x1 PUSH1 0x3 SWAP8 EQ PUSH2 0x3D64 JUMP JUMPDEST PUSH1 0x6 ADD SLOAD PUSH1 0x1 PUSH1 0x1 PUSH1 0xA0 SHL SUB AND CALLER EQ DUP1 ISZERO PUSH2 0x92B JUMPI JUMPDEST PUSH2 0x8C4 SWAP1 PUSH2 0x3FA1 JUMP JUMPDEST PUSH1 0xFF NOT AND SWAP1 SSTORE PUSH1 0x0 MSTORE MSTORE PUSH1 0x0 PUSH1 0xC PUSH1 0x40 DUP3 KECCAK256 PUSH2 0x8DF DUP2 PUSH2 0x3F58 JUMP JUMPDEST DUP3 PUSH1 0x1 DUP3 ADD SSTORE DUP3 PUSH1 0x2 DUP3 ADD SSTORE DUP3 PUSH1 0x3 DUP3 ADD SSTORE DUP3 PUSH1 0x4 DUP3 ADD SSTORE DUP3 PUSH1 0x5 DUP3 ADD SSTORE DUP3 PUSH1 0x6 DUP3 ADD SSTORE DUP3 PUSH1 0x7 DUP3 ADD SSTORE DUP3 PUSH1 0x8 DUP3 ADD SSTORE DUP3 PUSH1 0x9 DUP3 ADD SSTORE DUP3 PUSH1 0xA DUP3 ADD SSTORE PUSH2 0x927 PUSH1 0xB DUP3 ADD PUSH2 0x3F58 JUMP JUMPDEST ADD SSTORE STOP JUMPDEST POP PUSH1 0x0 DUP1 DUP1 MSTORE PUSH1 0x1 DUP6 MSTORE PUSH1 0x40 DUP1 DUP3 KECCAK256 CALLER DUP4 MSTORE DUP7 MSTORE SWAP1 KECCAK256 SLOAD PUSH1 0xFF AND PUSH2 0x8BB JUMP JUMPDEST CALLVALUE PUSH2 0x2EB JUMPI PUSH1 0x40 CALLDATASIZE PUSH1 0x3 NOT ADD SLT PUSH2 0x2EB JUMPI PUSH2 0x963 PUSH2 0x3C61 JUMP JUMPDEST PUSH1 0x4 CALLDATALOAD PUSH1 0x0 MSTORE PUSH1 0x7 PUSH1 0x20 MSTORE PUSH1 0x40 PUSH1 0x0 KECCAK256 SWAP1 PUSH1 0x1 DUP1 PUSH1 0xA0 SHL SUB AND PUSH1 0x0 MSTORE PUSH1 0x20 MSTORE PUSH1 0x20 PUSH1 0xFF PUSH1 0x40 PUSH1 0x0 KECCAK256 SLOAD AND PUSH1 0x40 MLOAD SWAP1 ISZERO ISZERO DUP2 MSTORE RETURN JUMPDEST CALLVALUE PUSH2 0x2EB JUMPI PUSH1 0x0 CALLDATASIZE PUSH1 0x3 NOT ADD SLT PUSH2 0x2EB JUMPI PUSH1 0xD SLOAD PUSH1 0x40 MLOAD PUSH1 0x1 PUSH1 0x1 PUSH1 0xA0 SHL SUB SWAP1 SWAP2 AND DUP2 MSTORE PUSH1 0x20 SWAP1 RETURN JUMPDEST CALLVALUE PUSH2 0x2EB JUMPI PUSH1 0x40 CALLDATASIZE PUSH1 0x3 NOT ADD SLT PUSH2 0x2EB JUMPI PUSH2 0x1B PUSH1 0x4 CALLDATALOAD PUSH2 0x9DF PUSH2 0x3C61 JUMP JUMPDEST SWAP1 DUP1 PUSH1 0x0 MSTORE PUSH1 0x1 PUSH1 0x20 MSTORE PUSH2 0x9FA PUSH1 0x1 PUSH1 0x40 PUSH1 0x0 KECCAK256 ADD SLOAD PUSH2 0x4598 JUMP JUMPDEST PUSH2 0x46A3 JUMP JUMPDEST PUSH2 0xA08 CALLDATASIZE PUSH2 0x3AC9 JUMP JUMPDEST SWAP1 PUSH2 0xA11 PUSH2 0x40BC JUMP JUMPDEST PUSH2 0xA19 PUSH2 0x4933 JUMP JUMPDEST DUP1 PUSH1 0x0 MSTORE PUSH1 0x3 PUSH1 0x20 MSTORE PUSH2 0xA39 PUSH1 0xFF PUSH1 0xA PUSH1 0x40 PUSH1 0x0 KECCAK256 ADD SLOAD PUSH1 0x10 SHR AND PUSH2 0x3CBD JUMP JUMPDEST DUP1 PUSH1 0x0 MSTORE PUSH1 0x3 PUSH1 0x20 MSTORE PUSH1 0xFF PUSH1 0x2 PUSH1 0x40 PUSH1 0x0 KECCAK256 ADD SLOAD AND PUSH1 0x6 DUP2 LT ISZERO PUSH2 0x57C JUMPI PUSH1 0x2 SUB PUSH2 0xF9A JUMPI DUP2 MLOAD DUP1 ISZERO ISZERO SWAP1 DUP2 PUSH2 0xF8D JUMPI JUMPDEST POP ISZERO PUSH2 0xF48 JUMPI DUP1 PUSH1 0x0 MSTORE PUSH1 0x3 PUSH1 0x20 MSTORE PUSH1 0x40 PUSH1 0x0 KECCAK256 SWAP2 PUSH1 0x4 DUP4 ADD SLOAD SWAP3 PUSH2 0x2710 PUSH2 0xA94 PUSH1 0xE SLOAD DUP7 PUSH2 0x3F45 JUMP JUMPDEST DIV SWAP2 PUSH2 0xAA0 DUP4 DUP7 PUSH2 0x4719 JUMP JUMPDEST PUSH2 0xAAD DUP5 PUSH1 0x1 SHR DUP6 PUSH2 0x4719 JUMP JUMPDEST SWAP6 PUSH1 0xFF PUSH1 0xA DUP6 ADD SLOAD PUSH1 0x8 SHR AND PUSH1 0x0 EQ PUSH2 0xEEF JUMPI PUSH1 0x5 DUP5 ADD SLOAD PUSH1 0x1 PUSH1 0x1 PUSH1 0xA0 SHL SUB AND DUP1 PUSH2 0xEE8 JUMPI DUP2 CALLVALUE EQ JUMPDEST ISZERO PUSH2 0xEAC JUMPI DUP1 PUSH2 0xE06 JUMPI JUMPDEST POP POP PUSH1 0xFF PUSH1 0xA DUP5 ADD SLOAD AND PUSH1 0x3 DUP2 LT ISZERO PUSH2 0x57C JUMPI PUSH1 0x1 SUB PUSH2 0xDEF JUMPI JUMPDEST POP JUMPDEST PUSH1 0xFF PUSH1 0xA DUP4 ADD SLOAD AND PUSH1 0x3 DUP2 LT ISZERO PUSH2 0x57C JUMPI DUP1 ISZERO SWAP1 DUP2 ISZERO PUSH2 0xDE4 JUMPI JUMPDEST POP ISZERO PUSH2 0xC4C JUMPI SWAP1 PUSH1 0x3 SWAP2 PUSH1 0x40 MLOAD PUSH2 0xB4E PUSH1 0x20 DUP3 DUP2 PUSH2 0xB41 DUP2 DUP4 ADD SWAP7 DUP8 DUP2 MLOAD SWAP4 DUP5 SWAP3 ADD PUSH2 0x3BDA JUMP JUMPDEST DUP2 ADD SUB DUP1 DUP5 MSTORE ADD DUP3 PUSH2 0x3A46 JUMP JUMPDEST MLOAD SWAP1 KECCAK256 PUSH1 0x1 DUP3 ADD SLOAD EQ SWAP5 DUP6 PUSH2 0xBA1 JUMPI JUMPDEST POP JUMPDEST ADD SLOAD PUSH1 0x40 MLOAD SWAP4 ISZERO ISZERO DUP5 MSTORE PUSH1 0x20 DUP5 ADD MSTORE PUSH1 0x40 DUP4 ADD MSTORE PUSH32 0x74FBE334E9D85C8D025FC8A294588A63D6929A98D8293A5A1AEE3D4BE1C7EDA PUSH1 0x60 CALLER SWAP4 LOG3 PUSH1 0x1 PUSH1 0x0 SSTORE STOP JUMPDEST PUSH1 0xA DUP3 ADD SLOAD PUSH2 0xBBC SWAP1 PUSH1 0x18 SHR PUSH1 0x1 PUSH1 0x1 PUSH1 0xA0 SHL SUB AND ISZERO PUSH2 0x3EF1 JUMP JUMPDEST PUSH1 0xA DUP3 ADD DUP1 SLOAD PUSH4 0x1000000 PUSH1 0x1 PUSH1 0xB8 SHL SUB NOT AND CALLER PUSH1 0x18 SHL PUSH4 0x1000000 PUSH1 0x1 PUSH1 0xB8 SHL SUB AND OR SWAP1 SSTORE PUSH1 0x2 DUP3 ADD DUP1 SLOAD PUSH1 0xFF NOT AND PUSH1 0x4 OR SWAP1 SSTORE CALLER DUP6 PUSH32 0xF7C67880B72EC988961E570AE4E849EB4FD9D5BA0AB550624AC429EF6D41880C PUSH1 0x0 DUP1 LOG3 PUSH1 0xFF PUSH1 0xA DUP4 ADD SLOAD PUSH1 0x8 SHR AND DUP1 PUSH2 0xC43 JUMPI JUMPDEST ISZERO PUSH2 0xB5E JUMPI PUSH2 0xC3D SWAP1 DUP5 PUSH1 0x1 SHR SWAP1 DUP4 PUSH2 0x4726 JUMP JUMPDEST DUP6 PUSH2 0xB5E JUMP JUMPDEST POP DUP4 ISZERO ISZERO PUSH2 0xC29 JUMP JUMPDEST SWAP1 SWAP4 POP DUP3 PUSH1 0x0 MSTORE PUSH1 0xA PUSH1 0x20 MSTORE PUSH1 0x40 PUSH1 0x0 KECCAK256 CALLER PUSH1 0x0 MSTORE PUSH1 0x20 MSTORE PUSH1 0x40 PUSH1 0x0 KECCAK256 SWAP1 DUP1 MLOAD SWAP1 PUSH1 0x1 PUSH1 0x1 PUSH1 0x40 SHL SUB DUP3 GT PUSH2 0x7E9 JUMPI PUSH2 0xC85 DUP4 SLOAD PUSH2 0x3AFB JUMP JUMPDEST PUSH1 0x1F DUP2 GT PUSH2 0xDA7 JUMPI JUMPDEST POP PUSH1 0x20 SWAP1 PUSH1 0x1F DUP4 GT PUSH1 0x1 EQ PUSH2 0xD3F JUMPI PUSH2 0xCC0 SWAP3 SWAP2 PUSH1 0x0 SWAP2 DUP4 PUSH2 0xD34 JUMPI JUMPDEST POP POP DUP2 PUSH1 0x1 SHL SWAP2 PUSH1 0x0 NOT SWAP1 PUSH1 0x3 SHL SHR NOT AND OR SWAP1 JUMP JUMPDEST SWAP1 SSTORE JUMPDEST PUSH1 0x2 DUP4 ADD PUSH1 0x3 PUSH1 0xFF NOT DUP3 SLOAD AND OR SWAP1 SSTORE PUSH3 0x15180 TIMESTAMP ADD SWAP3 DUP4 TIMESTAMP GT PUSH2 0xD1E JUMPI DUP1 DUP5 PUSH1 0xC PUSH1 0x3 SWAP4 ADD SSTORE PUSH1 0x0 SWAP5 PUSH1 0x40 MLOAD SWAP1 DUP2 MSTORE DUP5 PUSH32 0x8E3359A99F392EE4257EB86A7AB8EE4C8A4C717BC32744354F4877931C28F6E0 PUSH1 0x20 CALLER SWAP4 LOG3 PUSH2 0xB60 JUMP JUMPDEST PUSH4 0x4E487B71 PUSH1 0xE0 SHL PUSH1 0x0 MSTORE PUSH1 0x11 PUSH1 0x4 MSTORE PUSH1 0x24 PUSH1 0x0 REVERT JUMPDEST ADD MLOAD SWAP1 POP DUP8 DUP1 PUSH2 0xCAB JUMP JUMPDEST SWAP1 PUSH1 0x1F NOT DUP4 AND SWAP2 DUP5 PUSH1 0x0 MSTORE PUSH1 0x20 PUSH1 0x0 KECCAK256 SWAP3 PUSH1 0x0 JUMPDEST DUP2 DUP2 LT PUSH2 0xD8F JUMPI POP SWAP1 DUP5 PUSH1 0x1 SWAP6 SWAP5 SWAP4 SWAP3 LT PUSH2 0xD76 JUMPI JUMPDEST POP POP POP DUP2 SHL ADD SWAP1 SSTORE PUSH2 0xCC3 JUMP JUMPDEST ADD MLOAD PUSH1 0x0 NOT PUSH1 0xF8 DUP5 PUSH1 0x3 SHL AND SHR NOT AND SWAP1 SSTORE DUP7 DUP1 DUP1 PUSH2 0xD69 JUMP JUMPDEST SWAP3 SWAP4 PUSH1 0x20 PUSH1 0x1 DUP2 SWAP3 DUP8 DUP7 ADD MLOAD DUP2 SSTORE ADD SWAP6 ADD SWAP4 ADD PUSH2 0xD53 JUMP JUMPDEST PUSH2 0xDD4 SWAP1 DUP5 PUSH1 0x0 MSTORE PUSH1 0x20 PUSH1 0x0 KECCAK256 PUSH1 0x1F DUP6 ADD PUSH1 0x5 SHR DUP2 ADD SWAP2 PUSH1 0x20 DUP7 LT PUSH2 0xDDA JUMPI JUMPDEST PUSH1 0x1F ADD PUSH1 0x5 SHR ADD SWAP1 PUSH2 0x3F2E JUMP JUMPDEST DUP7 PUSH2 0xC8E JUMP JUMPDEST SWAP1 SWAP2 POP DUP2 SWAP1 PUSH2 0xDC7 JUMP JUMPDEST PUSH1 0x2 SWAP2 POP EQ DUP7 PUSH2 0xB1A JUMP JUMPDEST PUSH2 0xDFE PUSH1 0x3 DUP5 ADD SWAP2 DUP3 SLOAD PUSH2 0x3E1E JUMP JUMPDEST SWAP1 SSTORE DUP6 PUSH2 0xAFD JUMP JUMPDEST PUSH1 0x40 MLOAD PUSH4 0x23B872DD PUSH1 0xE0 SHL DUP2 MSTORE CALLER PUSH1 0x4 DUP3 ADD MSTORE ADDRESS PUSH1 0x24 DUP3 ADD MSTORE PUSH1 0x44 DUP2 ADD SWAP3 SWAP1 SWAP3 MSTORE PUSH1 0x20 SWAP1 DUP3 SWAP1 PUSH1 0x64 SWAP1 DUP3 SWAP1 PUSH1 0x0 SWAP1 GAS CALL SWAP1 DUP2 ISZERO PUSH2 0x4C8 JUMPI PUSH1 0x0 SWAP2 PUSH2 0xE8D JUMPI JUMPDEST POP ISZERO PUSH2 0xE52 JUMPI DUP7 DUP1 PUSH2 0xAE2 JUMP JUMPDEST PUSH1 0x40 MLOAD PUSH3 0x461BCD PUSH1 0xE5 SHL DUP2 MSTORE PUSH1 0x20 PUSH1 0x4 DUP3 ADD MSTORE PUSH1 0x13 PUSH1 0x24 DUP3 ADD MSTORE PUSH19 0x119959481D1C985B9CD9995C8819985A5B1959 PUSH1 0x6A SHL PUSH1 0x44 DUP3 ADD MSTORE PUSH1 0x64 SWAP1 REVERT JUMPDEST PUSH2 0xEA6 SWAP2 POP PUSH1 0x20 RETURNDATASIZE PUSH1 0x20 GT PUSH2 0x4C1 JUMPI PUSH2 0x4B3 DUP2 DUP4 PUSH2 0x3A46 JUMP JUMPDEST DUP8 PUSH2 0xE45 JUMP JUMPDEST PUSH1 0x40 MLOAD PUSH3 0x461BCD PUSH1 0xE5 SHL DUP2 MSTORE PUSH1 0x20 PUSH1 0x4 DUP3 ADD MSTORE PUSH1 0x14 PUSH1 0x24 DUP3 ADD MSTORE PUSH20 0x496E636F7272656374206E617469766520666565 PUSH1 0x60 SHL PUSH1 0x44 DUP3 ADD MSTORE PUSH1 0x64 SWAP1 REVERT JUMPDEST PUSH1 0x1 PUSH2 0xAD7 JUMP JUMPDEST POP POP PUSH1 0x5 DUP3 ADD SLOAD PUSH1 0x1 PUSH1 0x1 PUSH1 0xA0 SHL SUB AND PUSH2 0xF41 JUMPI CALLVALUE ISZERO JUMPDEST PUSH2 0xAFF JUMPI PUSH1 0x40 MLOAD PUSH3 0x461BCD PUSH1 0xE5 SHL DUP2 MSTORE PUSH1 0x20 PUSH1 0x4 DUP3 ADD MSTORE PUSH1 0xF PUSH1 0x24 DUP3 ADD MSTORE PUSH15 0x139BC8199959481C995C5D5A5C9959 PUSH1 0x8A SHL PUSH1 0x44 DUP3 ADD MSTORE PUSH1 0x64 SWAP1 REVERT JUMPDEST PUSH1 0x1 PUSH2 0xF06 JUMP JUMPDEST PUSH1 0x40 MLOAD PUSH3 0x461BCD PUSH1 0xE5 SHL DUP2 MSTORE PUSH1 0x20 PUSH1 0x4 DUP3 ADD MSTORE PUSH1 0x17 PUSH1 0x24 DUP3 ADD MSTORE PUSH32 0x496E76616C696420736F6C7574696F6E206C656E677468000000000000000000 PUSH1 0x44 DUP3 ADD MSTORE PUSH1 0x64 SWAP1 REVERT JUMPDEST PUSH2 0x1F4 SWAP2 POP GT ISZERO DUP4 PUSH2 0xA6A JUMP JUMPDEST PUSH1 0x40 MLOAD PUSH3 0x461BCD PUSH1 0xE5 SHL DUP2 MSTORE PUSH1 0x20 PUSH1 0x4 DUP3 ADD MSTORE PUSH1 0xF PUSH1 0x24 DUP3 ADD MSTORE PUSH15 0x47616D65206E6F7420616374697665 PUSH1 0x88 SHL PUSH1 0x44 DUP3 ADD MSTORE PUSH1 0x64 SWAP1 REVERT JUMPDEST CALLVALUE PUSH2 0x2EB JUMPI PUSH1 0x60 CALLDATASIZE PUSH1 0x3 NOT ADD SLT PUSH2 0x2EB JUMPI PUSH1 0x1 PUSH1 0x1 PUSH1 0x40 SHL SUB PUSH1 0x4 CALLDATALOAD DUP2 DUP2 GT PUSH2 0x2EB JUMPI PUSH2 0x1002 SWAP1 CALLDATASIZE SWAP1 PUSH1 0x4 ADD PUSH2 0x3C8D JUMP JUMPDEST SWAP1 PUSH1 0x24 CALLDATALOAD DUP4 DUP2 GT PUSH2 0x2EB JUMPI PUSH2 0x101B SWAP1 CALLDATASIZE SWAP1 PUSH1 0x4 ADD PUSH2 0x3C8D JUMP JUMPDEST SWAP3 SWAP1 SWAP4 PUSH1 0x44 CALLDATALOAD SWAP1 DUP2 GT PUSH2 0x2EB JUMPI PUSH2 0x1036 SWAP1 CALLDATASIZE SWAP1 PUSH1 0x4 ADD PUSH2 0x3C8D JUMP JUMPDEST SWAP2 SWAP1 SWAP3 PUSH2 0x1041 PUSH2 0x4452 JUMP JUMPDEST DUP5 DUP3 EQ DUP1 PUSH2 0x13F0 JUMPI JUMPDEST ISZERO PUSH2 0x13B3 JUMPI PUSH1 0x32 DUP3 GT PUSH2 0x1375 JUMPI PUSH1 0x0 JUMPDEST DUP3 DUP2 LT PUSH2 0x1063 JUMPI STOP JUMPDEST PUSH2 0x106E DUP2 DUP5 DUP5 PUSH2 0x4058 JUMP JUMPDEST CALLDATALOAD SWAP1 PUSH2 0x107B DUP2 DUP9 DUP11 PUSH2 0x4058 JUMP JUMPDEST CALLDATALOAD PUSH1 0x1 PUSH1 0x1 PUSH1 0xA0 SHL SUB DUP2 AND DUP2 SUB PUSH2 0x2EB JUMPI PUSH2 0x1097 DUP3 DUP8 DUP10 PUSH2 0x4058 JUMP JUMPDEST CALLDATALOAD DUP1 ISZERO ISZERO DUP2 SUB PUSH2 0x2EB JUMPI PUSH2 0x10A9 PUSH2 0x4452 JUMP JUMPDEST DUP4 PUSH1 0x0 MSTORE PUSH1 0x3 PUSH1 0x20 MSTORE PUSH2 0x10C9 PUSH1 0xFF PUSH1 0xA PUSH1 0x40 PUSH1 0x0 KECCAK256 ADD SLOAD PUSH1 0x10 SHR AND PUSH2 0x3CBD JUMP JUMPDEST DUP4 PUSH1 0x0 MSTORE PUSH1 0x3 PUSH1 0x20 MSTORE PUSH1 0x40 PUSH1 0x0 KECCAK256 SWAP2 PUSH1 0xA DUP4 ADD SLOAD SWAP5 PUSH1 0xFF DUP7 AND PUSH1 0x3 DUP2 LT ISZERO PUSH2 0x57C JUMPI PUSH1 0x1 SUB PUSH2 0x133C JUMPI PUSH1 0xFF PUSH1 0x2 DUP6 ADD SLOAD AND PUSH1 0x6 DUP2 LT ISZERO PUSH2 0x57C JUMPI PUSH1 0x3 PUSH2 0x110F SWAP2 EQ PUSH2 0x3E37 JUMP JUMPDEST DUP1 PUSH1 0x0 MSTORE PUSH1 0xA PUSH1 0x20 MSTORE PUSH1 0x40 PUSH1 0x0 KECCAK256 PUSH1 0x1 DUP1 PUSH1 0xA0 SHL SUB DUP4 AND PUSH1 0x0 MSTORE PUSH1 0x20 MSTORE PUSH2 0x113A PUSH1 0x40 PUSH1 0x0 KECCAK256 SLOAD PUSH2 0x3AFB JUMP JUMPDEST ISZERO PUSH2 0x1301 JUMPI PUSH1 0xC DUP5 ADD SLOAD TIMESTAMP GT PUSH2 0x12BC JUMPI PUSH1 0x1 SWAP6 DUP4 PUSH2 0x11E1 JUMPI JUMPDEST POP DUP1 PUSH1 0x0 MSTORE PUSH1 0xA PUSH1 0x20 MSTORE PUSH1 0x40 PUSH1 0x0 KECCAK256 DUP7 DUP1 PUSH1 0xA0 SHL SUB DUP4 AND PUSH1 0x0 MSTORE PUSH1 0x20 MSTORE PUSH2 0x117D PUSH1 0x40 PUSH1 0x0 KECCAK256 PUSH2 0x3F58 JUMP JUMPDEST PUSH32 0x156934B37A6A765531AC9332A9CEE7BFE0E5A00742DCD286B811DE4751C9BB7C PUSH1 0x40 DUP1 MLOAD SWAP4 DUP6 ISZERO ISZERO DUP6 MSTORE CALLER PUSH1 0x20 DUP7 ADD MSTORE DUP9 DUP1 PUSH1 0xA0 SHL SUB AND SWAP4 LOG3 ISZERO PUSH2 0x11C4 JUMPI JUMPDEST POP ADD PUSH2 0x105A JUMP JUMPDEST PUSH1 0xC PUSH1 0x0 SWAP2 PUSH1 0x2 PUSH1 0xFF NOT DUP2 DUP4 ADD SLOAD AND OR PUSH1 0x2 DUP3 ADD SSTORE ADD SSTORE DUP9 PUSH2 0x11BD JUMP JUMPDEST PUSH2 0x11F6 SWAP1 DUP8 DUP1 PUSH1 0xA0 SHL SUB SWAP1 PUSH1 0x18 SHR AND ISZERO PUSH2 0x3EF1 JUMP JUMPDEST PUSH1 0xA DUP5 ADD DUP1 SLOAD PUSH4 0x1000000 PUSH1 0x1 PUSH1 0xB8 SHL SUB NOT AND PUSH1 0x18 DUP5 SWAP1 SHL PUSH4 0x1000000 PUSH1 0x1 PUSH1 0xB8 SHL SUB AND OR SWAP1 SSTORE PUSH1 0x2 DUP5 ADD DUP1 SLOAD PUSH1 0xFF NOT AND PUSH1 0x4 OR SWAP1 SSTORE PUSH1 0xA DUP5 ADD SLOAD PUSH1 0x8 SHR PUSH1 0xFF AND PUSH2 0x1270 JUMPI JUMPDEST DUP6 DUP1 PUSH1 0xA0 SHL SUB DUP3 AND DUP2 PUSH32 0xF7C67880B72EC988961E570AE4E849EB4FD9D5BA0AB550624AC429EF6D41880C PUSH1 0x0 DUP1 LOG3 DUP13 PUSH2 0x1153 JUMP JUMPDEST PUSH2 0x12B7 PUSH1 0x4 DUP6 ADD SLOAD PUSH2 0x1292 PUSH2 0x2710 PUSH2 0x128A PUSH1 0xE SLOAD DUP5 PUSH2 0x3F45 JUMP JUMPDEST DIV DUP1 SWAP3 PUSH2 0x4719 JUMP JUMPDEST PUSH2 0x129F DUP3 DUP11 SHR DUP1 SWAP4 PUSH2 0x4719 JUMP JUMPDEST SWAP1 PUSH2 0x12AF PUSH1 0x3 DUP10 ADD SWAP2 DUP3 SLOAD PUSH2 0x3E1E JUMP JUMPDEST SWAP1 SSTORE DUP7 PUSH2 0x4726 JUMP JUMPDEST PUSH2 0x123C JUMP JUMPDEST PUSH1 0x40 MLOAD PUSH3 0x461BCD PUSH1 0xE5 SHL DUP2 MSTORE PUSH1 0x20 PUSH1 0x4 DUP3 ADD MSTORE PUSH1 0x1C PUSH1 0x24 DUP3 ADD MSTORE PUSH32 0x566572696669636174696F6E20646561646C696E652070617373656400000000 PUSH1 0x44 DUP3 ADD MSTORE PUSH1 0x64 SWAP1 REVERT JUMPDEST PUSH1 0x40 MLOAD PUSH3 0x461BCD PUSH1 0xE5 SHL DUP2 MSTORE PUSH1 0x20 PUSH1 0x4 DUP3 ADD MSTORE PUSH1 0x13 PUSH1 0x24 DUP3 ADD MSTORE PUSH19 0x139BC81CDD589B5A5CDCDA5BDB88199BDD5B99 PUSH1 0x6A SHL PUSH1 0x44 DUP3 ADD MSTORE PUSH1 0x64 SWAP1 REVERT JUMPDEST PUSH1 0x40 MLOAD PUSH3 0x461BCD PUSH1 0xE5 SHL DUP2 MSTORE PUSH1 0x20 PUSH1 0x4 DUP3 ADD MSTORE PUSH1 0x11 PUSH1 0x24 DUP3 ADD MSTORE PUSH17 0x4E6F742061206D6174682070757A7A6C65 PUSH1 0x78 SHL PUSH1 0x44 DUP3 ADD MSTORE PUSH1 0x64 SWAP1 REVERT JUMPDEST PUSH1 0x40 MLOAD PUSH3 0x461BCD PUSH1 0xE5 SHL DUP2 MSTORE PUSH1 0x20 PUSH1 0x4 DUP3 ADD MSTORE PUSH1 0x16 PUSH1 0x24 DUP3 ADD MSTORE PUSH22 0x546F6F206D616E7920766572696669636174696F6E73 PUSH1 0x50 SHL PUSH1 0x44 DUP3 ADD MSTORE PUSH1 0x64 SWAP1 REVERT JUMPDEST PUSH1 0x40 MLOAD PUSH3 0x461BCD PUSH1 0xE5 SHL DUP2 MSTORE PUSH1 0x20 PUSH1 0x4 DUP3 ADD MSTORE PUSH1 0x15 PUSH1 0x24 DUP3 ADD MSTORE PUSH21 0x82E4E4C2F240D8CADCCEE8D040DAD2E6DAC2E8C6D PUSH1 0x5B SHL PUSH1 0x44 DUP3 ADD MSTORE PUSH1 0x64 SWAP1 REVERT JUMPDEST POP DUP3 DUP6 EQ PUSH2 0x104A JUMP JUMPDEST CALLVALUE PUSH2 0x2EB JUMPI PUSH1 0x20 CALLDATASIZE PUSH1 0x3 NOT ADD SLT PUSH2 0x2EB JUMPI PUSH1 0x4 CALLDATALOAD PUSH1 0x0 MSTORE PUSH1 0x6 PUSH1 0x20 MSTORE PUSH1 0x20 PUSH1 0x40 PUSH1 0x0 KECCAK256 SLOAD PUSH1 0x40 MLOAD SWAP1 DUP2 MSTORE RETURN JUMPDEST CALLVALUE PUSH2 0x2EB JUMPI PUSH1 0x0 CALLDATASIZE PUSH1 0x3 NOT ADD SLT PUSH2 0x2EB JUMPI PUSH1 0x20 PUSH1 0x40 MLOAD PUSH2 0x3E8 DUP2 MSTORE RETURN JUMPDEST CALLVALUE PUSH2 0x2EB JUMPI PUSH1 0x0 CALLDATASIZE PUSH1 0x3 NOT ADD SLT PUSH2 0x2EB JUMPI PUSH1 0x20 PUSH1 0xE SLOAD PUSH1 0x40 MLOAD SWAP1 DUP2 MSTORE RETURN JUMPDEST CALLVALUE PUSH2 0x2EB JUMPI PUSH1 0x0 CALLDATASIZE PUSH1 0x3 NOT ADD SLT PUSH2 0x2EB JUMPI PUSH1 0x20 PUSH1 0xF SLOAD PUSH1 0x40 MLOAD SWAP1 DUP2 MSTORE RETURN JUMPDEST CALLVALUE PUSH2 0x2EB JUMPI PUSH1 0x20 CALLDATASIZE PUSH1 0x3 NOT ADD SLT PUSH2 0x2EB JUMPI PUSH1 0x4 CALLDATALOAD PUSH2 0x149A PUSH2 0x432E JUMP JUMPDEST DUP1 ISZERO ISZERO DUP1 PUSH2 0x14B1 JUMPI JUMPDEST PUSH2 0x14AC SWAP1 PUSH2 0x4018 JUMP JUMPDEST PUSH1 0xF SSTORE STOP JUMPDEST POP PUSH1 0x64 DUP2 GT ISZERO PUSH2 0x14A3 JUMP JUMPDEST CALLVALUE PUSH2 0x2EB JUMPI PUSH1 0x0 CALLDATASIZE PUSH1 0x3 NOT ADD SLT PUSH2 0x2EB JUMPI PUSH1 0x20 PUSH1 0x10 SLOAD PUSH1 0x40 MLOAD SWAP1 DUP2 MSTORE RETURN JUMPDEST CALLVALUE PUSH2 0x2EB JUMPI PUSH1 0x40 CALLDATASIZE PUSH1 0x3 NOT ADD SLT PUSH2 0x2EB JUMPI PUSH1 0x4 CALLDATALOAD PUSH32 0xADDB6994A0A091EB47D65B97D2111921AAABF03597C28C0400155EE949F0F807 PUSH1 0x20 PUSH2 0x1519 PUSH2 0x3C3C JUMP JUMPDEST PUSH2 0x1521 PUSH2 0x432E JUMP JUMPDEST DUP4 PUSH1 0x0 MSTORE PUSH1 0x3 DUP3 MSTORE PUSH2 0x1540 PUSH1 0xFF PUSH1 0xA PUSH1 0x40 PUSH1 0x0 KECCAK256 ADD SLOAD PUSH1 0x10 SHR AND PUSH2 0x3CBD JUMP JUMPDEST PUSH1 0x0 DUP5 DUP2 MSTORE PUSH1 0x3 DUP4 MSTORE PUSH1 0x40 SWAP1 KECCAK256 PUSH1 0xA ADD DUP1 SLOAD PUSH2 0xFF00 NOT AND DUP3 ISZERO ISZERO PUSH1 0x8 SHL PUSH2 0xFF00 AND OR SWAP1 SSTORE PUSH1 0x40 MLOAD SWAP1 ISZERO ISZERO DUP2 MSTORE LOG2 STOP JUMPDEST CALLVALUE PUSH2 0x2EB JUMPI PUSH1 0x20 DUP1 PUSH1 0x3 NOT CALLDATASIZE ADD SLT PUSH2 0x2EB JUMPI PUSH1 0x4 CALLDATALOAD DUP1 PUSH1 0x0 MSTORE PUSH1 0x3 DUP3 MSTORE PUSH2 0x15A3 PUSH1 0xFF PUSH1 0xA PUSH1 0x40 PUSH1 0x0 KECCAK256 ADD SLOAD PUSH1 0x10 SHR AND PUSH2 0x3CBD JUMP JUMPDEST DUP1 PUSH1 0x0 MSTORE PUSH1 0x3 DUP3 MSTORE PUSH1 0xFF PUSH1 0x2 PUSH1 0x40 PUSH1 0x0 KECCAK256 ADD SLOAD AND PUSH1 0x6 DUP2 LT ISZERO PUSH2 0x57C JUMPI PUSH1 0x4 PUSH2 0x15CC SWAP2 EQ PUSH2 0x3CFF JUMP JUMPDEST DUP1 PUSH1 0x0 MSTORE PUSH1 0x3 DUP3 MSTORE PUSH1 0x40 PUSH1 0x0 KECCAK256 PUSH1 0x8 DUP4 MSTORE PUSH1 0x40 PUSH1 0x0 KECCAK256 SLOAD PUSH1 0x9 DUP3 ADD SLOAD GT PUSH2 0x168E JUMPI PUSH1 0x7 SWAP2 SWAP3 PUSH1 0x0 DUP1 MSTORE PUSH1 0x1 DUP2 MSTORE PUSH1 0x40 PUSH1 0x0 KECCAK256 SWAP1 CALLER PUSH1 0x0 MSTORE MSTORE PUSH1 0xFF PUSH1 0x40 PUSH1 0x0 KECCAK256 SLOAD AND DUP1 ISZERO PUSH2 0x1678 JUMPI JUMPDEST PUSH2 0x161D SWAP1 PUSH2 0x3FA1 JUMP JUMPDEST PUSH1 0x2 DUP2 DUP2 ADD DUP1 SLOAD PUSH1 0xFF NOT AND SWAP1 SWAP2 OR SWAP1 SSTORE PUSH1 0xA DUP2 ADD DUP1 SLOAD PUSH4 0x1000000 PUSH1 0x1 PUSH1 0xB8 SHL SUB NOT AND SWAP1 SSTORE ADD DUP1 SLOAD PUSH1 0x1 PUSH1 0x1 PUSH1 0xA0 SHL SUB NOT AND SWAP1 SSTORE PUSH32 0x3251F5FE5231B3681FF593B97E5A31720697F30EEA923FC25DA0667755895F41 PUSH1 0x0 DUP1 LOG2 STOP JUMPDEST POP PUSH1 0x6 DUP2 ADD SLOAD PUSH1 0x1 PUSH1 0x1 PUSH1 0xA0 SHL SUB AND CALLER EQ PUSH2 0x1614 JUMP JUMPDEST PUSH1 0x40 MLOAD PUSH3 0x461BCD PUSH1 0xE5 SHL DUP2 MSTORE PUSH1 0x4 DUP2 ADD DUP5 SWAP1 MSTORE PUSH1 0x17 PUSH1 0x24 DUP3 ADD MSTORE PUSH32 0x496E73756666696369656E74206368616C6C656E676573000000000000000000 PUSH1 0x44 DUP3 ADD MSTORE PUSH1 0x64 SWAP1 REVERT JUMPDEST CALLVALUE PUSH2 0x2EB JUMPI PUSH1 0x0 CALLDATASIZE PUSH1 0x3 NOT ADD SLT PUSH2 0x2EB JUMPI PUSH1 0x20 PUSH1 0x40 MLOAD PUSH1 0x0 DUP2 MSTORE RETURN JUMPDEST CALLVALUE PUSH2 0x2EB JUMPI PUSH1 0x20 CALLDATASIZE PUSH1 0x3 NOT ADD SLT PUSH2 0x2EB JUMPI PUSH1 0x4 CALLDATALOAD PUSH2 0x170B PUSH2 0x432E JUMP JUMPDEST DUP1 ISZERO ISZERO DUP1 PUSH2 0x1722 JUMPI JUMPDEST PUSH2 0x171D SWAP1 PUSH2 0x4018 JUMP JUMPDEST PUSH1 0x10 SSTORE STOP JUMPDEST POP PUSH1 0x14 DUP2 GT ISZERO PUSH2 0x1714 JUMP JUMPDEST CALLVALUE PUSH2 0x2EB JUMPI PUSH1 0x20 CALLDATASIZE PUSH1 0x3 NOT ADD SLT PUSH2 0x2EB JUMPI PUSH1 0x4 CALLDATALOAD PUSH2 0x1749 PUSH2 0x432E JUMP JUMPDEST PUSH2 0x2710 DUP2 GT PUSH2 0x1783 JUMPI PUSH1 0x20 DUP2 PUSH32 0x2A5598DE173240D4AE127B442F13979038BBC34AF775AD781D1D74626A301D35 SWAP3 PUSH1 0xE SSTORE PUSH1 0x40 MLOAD SWAP1 DUP2 MSTORE LOG1 STOP JUMPDEST PUSH1 0x40 MLOAD PUSH3 0x461BCD PUSH1 0xE5 SHL DUP2 MSTORE PUSH1 0x20 PUSH1 0x4 DUP3 ADD MSTORE PUSH1 0x12 PUSH1 0x24 DUP3 ADD MSTORE PUSH18 0x496E76616C69642070657263656E74616765 PUSH1 0x70 SHL PUSH1 0x44 DUP3 ADD MSTORE PUSH1 0x64 SWAP1 REVERT JUMPDEST CALLVALUE PUSH2 0x2EB JUMPI PUSH1 0x40 CALLDATASIZE PUSH1 0x3 NOT ADD SLT PUSH2 0x2EB JUMPI PUSH2 0x17D6 PUSH2 0x3C61 JUMP JUMPDEST PUSH1 0x4 CALLDATALOAD PUSH1 0x0 MSTORE PUSH1 0x1 PUSH1 0x20 MSTORE PUSH1 0x40 PUSH1 0x0 KECCAK256 SWAP1 PUSH1 0x1 DUP1 PUSH1 0xA0 SHL SUB AND PUSH1 0x0 MSTORE PUSH1 0x20 MSTORE PUSH1 0x20 PUSH1 0xFF PUSH1 0x40 PUSH1 0x0 KECCAK256 SLOAD AND PUSH1 0x40 MLOAD SWAP1 ISZERO ISZERO DUP2 MSTORE RETURN JUMPDEST CALLVALUE PUSH2 0x2EB JUMPI PUSH1 0x40 CALLDATASIZE PUSH1 0x3 NOT ADD SLT PUSH2 0x2EB JUMPI PUSH2 0x1823 PUSH2 0x3C61 JUMP JUMPDEST PUSH1 0x4 CALLDATALOAD PUSH1 0x0 MSTORE PUSH1 0x4 PUSH1 0x20 MSTORE PUSH1 0x40 PUSH1 0x0 KECCAK256 SWAP1 PUSH1 0x1 DUP1 PUSH1 0xA0 SHL SUB AND PUSH1 0x0 MSTORE PUSH1 0x20 MSTORE PUSH1 0x20 PUSH1 0xFF PUSH1 0x40 PUSH1 0x0 KECCAK256 SLOAD AND PUSH1 0x40 MLOAD SWAP1 ISZERO ISZERO DUP2 MSTORE RETURN JUMPDEST CALLVALUE PUSH2 0x2EB JUMPI PUSH1 0x0 CALLDATASIZE PUSH1 0x3 NOT ADD SLT PUSH2 0x2EB JUMPI PUSH1 0x20 PUSH1 0x40 MLOAD PUSH1 0x32 DUP2 MSTORE RETURN JUMPDEST CALLVALUE PUSH2 0x2EB JUMPI PUSH1 0x0 CALLDATASIZE PUSH1 0x3 NOT ADD SLT PUSH2 0x2EB JUMPI PUSH2 0x188C PUSH2 0x432E JUMP JUMPDEST PUSH2 0x1894 PUSH2 0x4933 JUMP JUMPDEST PUSH1 0x1 PUSH1 0xFF NOT PUSH1 0x2 SLOAD AND OR PUSH1 0x2 SSTORE PUSH32 0x62E78CEA01BEE320CD4E420270B5EA74000D11B0C9F74754EBDBFC544B05A258 PUSH1 0x20 PUSH1 0x40 MLOAD CALLER DUP2 MSTORE LOG1 STOP JUMPDEST CALLVALUE PUSH2 0x2EB JUMPI PUSH1 0x20 CALLDATASIZE PUSH1 0x3 NOT ADD SLT PUSH2 0x2EB JUMPI PUSH1 0x4 CALLDATALOAD DUP1 PUSH1 0x0 MSTORE PUSH1 0x3 PUSH1 0x20 MSTORE PUSH2 0x1901 PUSH1 0xFF PUSH1 0xA PUSH1 0x40 PUSH1 0x0 KECCAK256 ADD SLOAD PUSH1 0x10 SHR AND PUSH2 0x3CBD JUMP JUMPDEST PUSH1 0x0 MSTORE PUSH1 0x3 PUSH1 0x20 MSTORE PUSH1 0x20 PUSH1 0x3 PUSH1 0x40 PUSH1 0x0 KECCAK256 ADD SLOAD PUSH1 0x40 MLOAD SWAP1 DUP2 MSTORE RETURN JUMPDEST CALLVALUE PUSH2 0x2EB JUMPI PUSH1 0x20 DUP1 PUSH1 0x3 NOT CALLDATASIZE ADD SLT PUSH2 0x2EB JUMPI PUSH1 0x4 CALLDATALOAD SWAP1 DUP2 PUSH1 0x0 MSTORE PUSH1 0x3 DUP2 MSTORE PUSH2 0x1951 PUSH1 0xFF PUSH1 0xA PUSH1 0x40 PUSH1 0x0 KECCAK256 ADD SLOAD PUSH1 0x10 SHR AND PUSH2 0x3CBD JUMP JUMPDEST DUP2 PUSH1 0x0 MSTORE PUSH1 0x3 DUP2 MSTORE PUSH1 0xFF PUSH1 0x2 PUSH1 0x40 PUSH1 0x0 KECCAK256 ADD SLOAD AND PUSH1 0x6 DUP2 LT ISZERO PUSH2 0x57C JUMPI PUSH1 0x4 PUSH2 0x197A SWAP2 EQ PUSH2 0x3CFF JUMP JUMPDEST DUP2 PUSH1 0x0 MSTORE PUSH1 0x3 DUP2 MSTORE PUSH1 0x40 PUSH1 0x0 KECCAK256 SWAP1 PUSH1 0x8 DUP2 MSTORE PUSH1 0x40 PUSH1 0x0 KECCAK256 SLOAD PUSH1 0x9 DUP4 ADD SLOAD GT ISZERO PUSH2 0x1BC7 JUMPI PUSH32 0xB2EB88090DF831C336C2AC91FD704E50D1166EF93798DAE04ECDB78950A49171 PUSH1 0x0 MSTORE PUSH1 0x1 DUP2 MSTORE PUSH1 0x40 PUSH1 0x0 KECCAK256 CALLER PUSH1 0x0 MSTORE DUP2 MSTORE PUSH1 0xFF PUSH1 0x40 PUSH1 0x0 KECCAK256 SLOAD AND DUP1 ISZERO PUSH2 0x1BB1 JUMPI JUMPDEST DUP1 ISZERO PUSH2 0x1B95 JUMPI JUMPDEST PUSH2 0x19F0 SWAP1 PUSH2 0x3FA1 JUMP JUMPDEST PUSH1 0xA DUP3 ADD SLOAD SWAP2 PUSH1 0xFF DUP4 AND PUSH1 0x3 DUP2 LT ISZERO PUSH2 0x57C JUMPI PUSH1 0x1 EQ PUSH2 0x1B34 JUMPI JUMPDEST PUSH1 0x1 DUP1 PUSH1 0xA0 SHL SUB DUP1 SWAP4 PUSH1 0x18 SHR AND SWAP2 PUSH1 0x7 DUP3 ADD SWAP3 PUSH12 0xFFFFFFFFFFFFFFFFFFFFFFFF PUSH1 0xA0 SHL SWAP1 DUP1 DUP3 DUP7 SLOAD AND OR DUP6 SSTORE PUSH1 0x2 DUP5 ADD PUSH1 0x5 PUSH1 0xFF NOT DUP3 SLOAD AND OR SWAP1 SSTORE DUP7 PUSH1 0x0 MSTORE PUSH1 0x9 DUP4 MSTORE PUSH1 0x40 PUSH1 0x0 KECCAK256 SWAP2 DUP3 SLOAD AND OR SWAP1 SSTORE DUP4 PUSH1 0x5 PUSH1 0x3 DUP5 ADD SWAP4 PUSH1 0x0 DUP6 SLOAD SWAP6 SSTORE ADD SLOAD AND DUP1 ISZERO PUSH1 0x0 EQ PUSH2 0x1ABD JUMPI POP POP PUSH1 0x0 DUP1 DUP1 DUP1 PUSH2 0x1A93 SWAP5 DUP8 DUP8 SLOAD AND GAS CALL PUSH2 0x1A8D PUSH2 0x3EC1 JUMP JUMPDEST POP PUSH2 0x3FDC JUMP JUMPDEST SLOAD AND SWAP1 PUSH32 0x72FB76A29123692C5ADAFFDCB4B4B04EE08C125417B72495933D24ADC48693A PUSH1 0x0 DUP1 LOG3 STOP JUMPDEST DUP4 SLOAD PUSH1 0x40 MLOAD PUSH4 0xA9059CBB PUSH1 0xE0 SHL DUP2 MSTORE SWAP1 DUP7 AND PUSH1 0x1 PUSH1 0x1 PUSH1 0xA0 SHL SUB AND PUSH1 0x4 DUP3 ADD MSTORE PUSH1 0x24 DUP2 ADD SWAP4 SWAP1 SWAP4 MSTORE SWAP1 SWAP2 SWAP1 DUP3 SWAP1 DUP3 SWAP1 DUP2 PUSH1 0x0 DUP2 PUSH1 0x44 DUP2 ADD SUB SWAP3 GAS CALL SWAP1 DUP2 ISZERO PUSH2 0x4C8 JUMPI PUSH2 0x1B12 SWAP3 PUSH1 0x0 SWAP3 PUSH2 0x1B17 JUMPI JUMPDEST POP POP PUSH2 0x3FDC JUMP JUMPDEST PUSH2 0x1A93 JUMP JUMPDEST PUSH2 0x1B2D SWAP3 POP DUP1 RETURNDATASIZE LT PUSH2 0x4C1 JUMPI PUSH2 0x4B3 DUP2 DUP4 PUSH2 0x3A46 JUMP JUMPDEST DUP6 DUP1 PUSH2 0x1B0B JUMP JUMPDEST PUSH1 0x18 DUP4 SWAP1 SHR PUSH1 0x1 PUSH1 0x1 PUSH1 0xA0 SHL SUB AND PUSH2 0x1A0B JUMPI PUSH1 0x40 MLOAD PUSH3 0x461BCD PUSH1 0xE5 SHL DUP2 MSTORE PUSH1 0x4 DUP2 ADD DUP4 SWAP1 MSTORE PUSH1 0x21 PUSH1 0x24 DUP3 ADD MSTORE PUSH32 0x4D6174682070757A7A6C65206E6F742070726F7065726C792076657269666965 PUSH1 0x44 DUP3 ADD MSTORE PUSH1 0x19 PUSH1 0xFA SHL PUSH1 0x64 DUP3 ADD MSTORE PUSH1 0x84 SWAP1 REVERT JUMPDEST POP PUSH1 0xA DUP3 ADD SLOAD CALLER PUSH1 0x18 SWAP2 SWAP1 SWAP2 SHR PUSH1 0x1 PUSH1 0x1 PUSH1 0xA0 SHL SUB AND EQ PUSH2 0x19E7 JUMP JUMPDEST POP PUSH1 0x6 DUP3 ADD SLOAD PUSH1 0x1 PUSH1 0x1 PUSH1 0xA0 SHL SUB AND CALLER EQ PUSH2 0x19E0 JUMP JUMPDEST PUSH1 0x64 SWAP1 PUSH1 0x40 MLOAD SWAP1 PUSH3 0x461BCD PUSH1 0xE5 SHL DUP3 MSTORE PUSH1 0x4 DUP3 ADD MSTORE PUSH1 0x19 PUSH1 0x24 DUP3 ADD MSTORE PUSH32 0x4368616C6C656E676573206D656574207468726573686F6C6400000000000000 PUSH1 0x44 DUP3 ADD MSTORE REVERT JUMPDEST CALLVALUE PUSH2 0x2EB JUMPI PUSH1 0xE0 CALLDATASIZE PUSH1 0x3 NOT ADD SLT PUSH2 0x2EB JUMPI PUSH1 0x4 CALLDATALOAD PUSH1 0x1 PUSH1 0x1 PUSH1 0x40 SHL SUB DUP2 GT PUSH2 0x2EB JUMPI PUSH2 0x1C3B SWAP1 CALLDATASIZE SWAP1 PUSH1 0x4 ADD PUSH2 0x3A82 JUMP JUMPDEST PUSH1 0x64 CALLDATALOAD PUSH1 0x1 PUSH1 0x1 PUSH1 0xA0 SHL SUB DUP2 AND DUP2 SUB PUSH2 0x2EB JUMPI PUSH1 0x3 PUSH1 0xA4 CALLDATALOAD LT ISZERO PUSH2 0x2EB JUMPI PUSH1 0xC4 CALLDATALOAD PUSH1 0x1 PUSH1 0x1 PUSH1 0x40 SHL SUB DUP2 GT PUSH2 0x2EB JUMPI PUSH2 0x1C78 SWAP1 CALLDATASIZE SWAP1 PUSH1 0x4 ADD PUSH2 0x3A82 JUMP JUMPDEST SWAP2 DUP1 MLOAD DUP1 ISZERO ISZERO SWAP1 DUP2 PUSH2 0x23D3 JUMPI JUMPDEST POP ISZERO PUSH2 0x2396 JUMPI PUSH1 0x44 CALLDATALOAD ISZERO PUSH2 0x2351 JUMPI PUSH1 0x84 CALLDATALOAD ISZERO ISZERO DUP1 PUSH2 0x2344 JUMPI JUMPDEST ISZERO PUSH2 0x2306 JUMPI PUSH1 0x0 PUSH1 0xA4 CALLDATALOAD ISZERO DUP1 ISZERO PUSH2 0x22F7 JUMPI JUMPDEST ISZERO PUSH2 0x2253 JUMPI POP PUSH1 0x24 CALLDATALOAD ISZERO PUSH2 0x2202 JUMPI DUP3 MLOAD PUSH2 0x21AB JUMPI JUMPDEST CALLER PUSH1 0x0 MSTORE PUSH1 0xC PUSH1 0x20 MSTORE PUSH1 0x1 PUSH1 0x1 PUSH1 0x1 PUSH1 0x40 SHL SUB PUSH1 0x40 PUSH1 0x0 KECCAK256 SLOAD AND ADD SWAP2 PUSH1 0x1 PUSH1 0x1 PUSH1 0x40 SHL SUB DUP4 GT PUSH2 0xD1E JUMPI CALLER PUSH1 0x0 MSTORE PUSH1 0xC PUSH1 0x20 MSTORE PUSH1 0x1 PUSH1 0x1 PUSH1 0x40 SHL SUB PUSH1 0x40 PUSH1 0x0 KECCAK256 SWAP4 AND SWAP3 DUP4 PUSH1 0x1 PUSH1 0x1 PUSH1 0x40 SHL SUB NOT DUP3 SLOAD AND OR SWAP1 SSTORE PUSH1 0x84 CALLDATALOAD ISZERO PUSH1 0x0 EQ PUSH2 0x21A3 JUMPI PUSH1 0xF SLOAD JUMPDEST PUSH1 0x10 SLOAD SWAP5 PUSH1 0x40 MLOAD SWAP6 PUSH2 0x1D38 DUP8 PUSH2 0x3A0F JUMP JUMPDEST DUP5 DUP8 MSTORE PUSH1 0x24 CALLDATALOAD PUSH1 0x20 DUP9 ADD MSTORE PUSH1 0x1 PUSH1 0x40 DUP9 ADD MSTORE PUSH1 0x0 PUSH1 0x60 DUP9 ADD DUP2 SWAP1 MSTORE PUSH1 0x44 CALLDATALOAD PUSH1 0x80 DUP10 ADD MSTORE PUSH1 0x1 PUSH1 0x1 PUSH1 0xA0 SHL SUB DUP6 AND PUSH1 0xA0 DUP10 ADD MSTORE CALLER PUSH1 0xC0 DUP10 ADD MSTORE PUSH1 0xE0 DUP9 ADD MSTORE PUSH2 0x100 DUP8 ADD DUP4 SWAP1 MSTORE PUSH2 0x120 DUP8 ADD MSTORE PUSH2 0x1D93 PUSH1 0xA4 CALLDATALOAD PUSH2 0x140 DUP9 ADD PUSH2 0x3E2B JUMP JUMPDEST PUSH1 0x1 PUSH2 0x160 DUP8 ADD MSTORE PUSH1 0x1 PUSH2 0x180 DUP8 ADD MSTORE PUSH1 0x0 PUSH2 0x1A0 DUP8 ADD MSTORE PUSH2 0x1C0 DUP7 ADD MSTORE PUSH1 0x0 PUSH2 0x1E0 DUP7 ADD MSTORE DUP4 CALLER PUSH1 0x40 SHL OR PUSH1 0x0 MSTORE PUSH1 0x3 PUSH1 0x20 MSTORE PUSH1 0x40 PUSH1 0x0 KECCAK256 DUP6 MLOAD DUP1 MLOAD SWAP1 PUSH1 0x1 PUSH1 0x1 PUSH1 0x40 SHL SUB DUP3 GT PUSH2 0x7E9 JUMPI PUSH2 0x1DE9 DUP4 SLOAD PUSH2 0x3AFB JUMP JUMPDEST PUSH1 0x1F DUP2 GT PUSH2 0x2171 JUMPI JUMPDEST POP PUSH1 0x20 SWAP1 PUSH1 0x1F DUP4 GT PUSH1 0x1 EQ PUSH2 0x2105 JUMPI PUSH2 0x1E23 SWAP3 SWAP2 PUSH1 0x0 SWAP2 DUP4 PUSH2 0x20FA JUMPI POP POP DUP2 PUSH1 0x1 SHL SWAP2 PUSH1 0x0 NOT SWAP1 PUSH1 0x3 SHL SHR NOT AND OR SWAP1 JUMP JUMPDEST DUP2 SSTORE JUMPDEST PUSH1 0x20 DUP7 ADD MLOAD PUSH1 0x1 DUP3 ADD SSTORE PUSH1 0x40 DUP7 ADD MLOAD PUSH1 0x6 DUP2 LT ISZERO PUSH2 0x57C JUMPI PUSH1 0x2 DUP3 ADD DUP1 SLOAD PUSH1 0xFF SWAP3 SWAP1 SWAP3 AND PUSH1 0xFF NOT SWAP3 DUP4 AND OR SWAP1 SSTORE PUSH1 0x60 DUP8 ADD MLOAD PUSH1 0x3 DUP1 DUP5 ADD SWAP2 SWAP1 SWAP2 SSTORE PUSH1 0x80 DUP9 ADD MLOAD PUSH1 0x4 DUP5 ADD SSTORE PUSH1 0xA0 DUP9 ADD MLOAD PUSH1 0x5 DUP5 ADD DUP1 SLOAD PUSH1 0x1 PUSH1 0x1 PUSH1 0xA0 SHL SUB NOT SWAP1 DUP2 AND PUSH1 0x1 PUSH1 0x1 PUSH1 0xA0 SHL SUB SWAP4 DUP5 AND OR SWAP1 SWAP2 SSTORE PUSH1 0xC0 DUP11 ADD MLOAD PUSH1 0x6 DUP7 ADD DUP1 SLOAD DUP4 AND SWAP2 DUP5 AND SWAP2 SWAP1 SWAP2 OR SWAP1 SSTORE PUSH1 0xE0 DUP11 ADD MLOAD PUSH1 0x7 DUP7 ADD DUP1 SLOAD SWAP1 SWAP3 AND SWAP3 AND SWAP2 SWAP1 SWAP2 OR SWAP1 SSTORE PUSH2 0x100 DUP9 ADD MLOAD PUSH1 0x8 DUP5 ADD SSTORE PUSH2 0x120 DUP9 ADD MLOAD PUSH1 0x9 DUP5 ADD SSTORE PUSH2 0x140 DUP9 ADD MLOAD PUSH1 0xA DUP5 ADD SWAP2 DUP2 LT ISZERO PUSH2 0x57C JUMPI DUP2 SLOAD PUSH2 0x160 DUP11 ADD MLOAD PUSH2 0xFF00 NOT SWAP2 SWAP1 SWAP5 AND AND PUSH1 0xFF SWAP2 SWAP1 SWAP2 AND OR SWAP2 ISZERO ISZERO PUSH1 0x8 SHL PUSH2 0xFF00 AND SWAP2 SWAP1 SWAP2 OR DUP2 SSTORE PUSH2 0x1F53 SWAP1 PUSH2 0x180 DUP9 ADD MLOAD DUP2 SLOAD PUSH2 0x1A0 DUP11 ADD MLOAD PUSH3 0x10000 PUSH1 0x1 PUSH1 0xB8 SHL SUB NOT SWAP1 SWAP2 AND SWAP2 ISZERO ISZERO PUSH1 0x10 SHL PUSH3 0xFF0000 AND SWAP2 SWAP1 SWAP2 OR PUSH1 0x18 SWAP2 SWAP1 SWAP2 SHL PUSH4 0x1000000 PUSH1 0x1 PUSH1 0xB8 SHL SUB AND OR SWAP1 SSTORE JUMP JUMPDEST PUSH2 0x1C0 DUP7 ADD MLOAD SWAP6 DUP7 MLOAD PUSH1 0x1 PUSH1 0x1 PUSH1 0x40 SHL SUB DUP2 GT PUSH2 0x7E9 JUMPI PUSH1 0x20 SWAP8 PUSH2 0x1F7A PUSH1 0xB DUP6 ADD SLOAD PUSH2 0x3AFB JUMP JUMPDEST PUSH1 0x1F DUP2 GT PUSH2 0x20C7 JUMPI JUMPDEST POP DUP9 SWAP1 PUSH1 0x1F DUP4 GT PUSH1 0x1 EQ PUSH2 0x2053 JUMPI DUP3 PUSH2 0x1E0 SWAP4 PUSH1 0xC SWAP6 SWAP4 PUSH2 0x1FBA SWAP4 PUSH1 0x0 SWAP3 PUSH2 0x2048 JUMPI POP POP DUP2 PUSH1 0x1 SHL SWAP2 PUSH1 0x0 NOT SWAP1 PUSH1 0x3 SHL SHR NOT AND OR SWAP1 JUMP JUMPDEST PUSH1 0xB DUP6 ADD SSTORE JUMPDEST ADD MLOAD SWAP2 ADD SSTORE PUSH2 0x1FDA PUSH1 0x40 MLOAD SWAP4 PUSH1 0xC0 DUP6 MSTORE PUSH1 0xC0 DUP6 ADD SWAP1 PUSH2 0x3BFD JUMP JUMPDEST PUSH1 0x24 CALLDATALOAD DUP5 DUP8 ADD MSTORE PUSH1 0x44 CALLDATALOAD PUSH1 0x40 DUP6 ADD MSTORE PUSH1 0x1 PUSH1 0x1 PUSH1 0xA0 SHL SUB SWAP1 SWAP3 AND PUSH1 0x60 DUP5 ADD MSTORE PUSH1 0x80 DUP4 ADD MSTORE PUSH2 0x200D PUSH1 0xA0 DUP4 ADD PUSH1 0xA4 CALLDATALOAD PUSH2 0x3C2F JUMP JUMPDEST PUSH32 0x1529EA8F3E7FAAF5875BEB35F1160F9720FF09B546572A7FF0894AF4F416E838 CALLER SWAP3 DUP1 DUP6 CALLER PUSH1 0x40 SHL OR SWAP4 SUB SWAP1 LOG3 PUSH1 0x40 MLOAD SWAP1 CALLER PUSH1 0x40 SHL OR DUP2 MSTORE RETURN JUMPDEST ADD MLOAD SWAP1 POP DUP13 DUP1 PUSH2 0xCAB JUMP JUMPDEST SWAP1 PUSH1 0xB DUP6 ADD PUSH1 0x0 MSTORE DUP10 PUSH1 0x0 KECCAK256 SWAP2 PUSH1 0x0 JUMPDEST PUSH1 0x1F NOT DUP6 AND DUP2 LT PUSH2 0x20B0 JUMPI POP SWAP3 PUSH1 0xC SWAP5 SWAP3 PUSH1 0x1 SWAP3 PUSH2 0x1E0 SWAP6 DUP4 PUSH1 0x1F NOT DUP2 AND LT PUSH2 0x2097 JUMPI JUMPDEST POP POP POP DUP2 SHL ADD PUSH1 0xB DUP6 ADD SSTORE PUSH2 0x1FC0 JUMP JUMPDEST ADD MLOAD PUSH1 0x0 NOT PUSH1 0xF8 DUP5 PUSH1 0x3 SHL AND SHR NOT AND SWAP1 SSTORE DUP12 DUP1 DUP1 PUSH2 0x2087 JUMP JUMPDEST SWAP2 SWAP3 DUP12 PUSH1 0x1 DUP2 SWAP3 DUP7 DUP6 ADD MLOAD DUP2 SSTORE ADD SWAP5 ADD SWAP3 ADD PUSH2 0x2063 JUMP JUMPDEST PUSH2 0x20F4 SWAP1 PUSH1 0xB DUP7 ADD PUSH1 0x0 MSTORE DUP11 PUSH1 0x0 KECCAK256 PUSH1 0x1F DUP6 ADD PUSH1 0x5 SHR DUP2 ADD SWAP2 DUP13 DUP7 LT PUSH2 0xDDA JUMPI PUSH1 0x1F ADD PUSH1 0x5 SHR ADD SWAP1 PUSH2 0x3F2E JUMP JUMPDEST DUP10 PUSH2 0x1F83 JUMP JUMPDEST ADD MLOAD SWAP1 POP DUP10 DUP1 PUSH2 0xCAB JUMP JUMPDEST SWAP2 SWAP1 DUP4 PUSH1 0x0 MSTORE PUSH1 0x20 PUSH1 0x0 KECCAK256 SWAP1 PUSH1 0x0 SWAP4 JUMPDEST PUSH1 0x1F NOT DUP5 AND DUP6 LT PUSH2 0x2156 JUMPI PUSH1 0x1 SWAP5 POP DUP4 PUSH1 0x1F NOT DUP2 AND LT PUSH2 0x213D JUMPI JUMPDEST POP POP POP DUP2 SHL ADD DUP2 SSTORE PUSH2 0x1E26 JUMP JUMPDEST ADD MLOAD PUSH1 0x0 NOT PUSH1 0xF8 DUP5 PUSH1 0x3 SHL AND SHR NOT AND SWAP1 SSTORE DUP9 DUP1 DUP1 PUSH2 0x2130 JUMP JUMPDEST DUP2 DUP2 ADD MLOAD DUP4 SSTORE PUSH1 0x20 SWAP5 DUP6 ADD SWAP5 PUSH1 0x1 SWAP1 SWAP4 ADD SWAP3 SWAP1 SWAP2 ADD SWAP1 PUSH2 0x2115 JUMP JUMPDEST PUSH2 0x219D SWAP1 DUP5 PUSH1 0x0 MSTORE PUSH1 0x20 PUSH1 0x0 KECCAK256 PUSH1 0x1F DUP6 ADD PUSH1 0x5 SHR DUP2 ADD SWAP2 PUSH1 0x20 DUP7 LT PUSH2 0xDDA JUMPI PUSH1 0x1F ADD PUSH1 0x5 SHR ADD SWAP1 PUSH2 0x3F2E JUMP JUMPDEST DUP9 PUSH2 0x1DF2 JUMP JUMPDEST PUSH1 0x84 CALLDATALOAD PUSH2 0x1D27 JUMP JUMPDEST PUSH1 0x40 MLOAD PUSH3 0x461BCD PUSH1 0xE5 SHL DUP2 MSTORE PUSH1 0x20 PUSH1 0x4 DUP3 ADD MSTORE PUSH1 0x29 PUSH1 0x24 DUP3 ADD MSTORE PUSH32 0x526964646C652F4F746865722073686F756C646E27742068617665206F726163 PUSH1 0x44 DUP3 ADD MSTORE PUSH9 0x6C6520706172616D73 PUSH1 0xB8 SHL PUSH1 0x64 DUP3 ADD MSTORE PUSH1 0x84 SWAP1 REVERT JUMPDEST PUSH1 0x40 MLOAD PUSH3 0x461BCD PUSH1 0xE5 SHL DUP2 MSTORE PUSH1 0x20 PUSH1 0x4 DUP3 ADD MSTORE PUSH1 0x23 PUSH1 0x24 DUP3 ADD MSTORE PUSH32 0x526964646C652F4F7468657220726571756972657320736F6C7574696F6E2068 PUSH1 0x44 DUP3 ADD MSTORE PUSH3 0xC2E6D PUSH1 0xEB SHL PUSH1 0x64 DUP3 ADD MSTORE PUSH1 0x84 SWAP1 REVERT JUMPDEST PUSH2 0x57C JUMPI PUSH1 0x1 PUSH1 0xA4 CALLDATALOAD SUB PUSH2 0x1CC5 JUMPI PUSH1 0x24 CALLDATALOAD PUSH2 0x22B3 JUMPI DUP3 MLOAD PUSH2 0x1CC5 JUMPI PUSH1 0x40 MLOAD PUSH3 0x461BCD PUSH1 0xE5 SHL DUP2 MSTORE PUSH1 0x20 PUSH1 0x4 DUP3 ADD MSTORE PUSH1 0x1B PUSH1 0x24 DUP3 ADD MSTORE PUSH32 0x4D617468207265717569726573206F7261636C6520706172616D730000000000 PUSH1 0x44 DUP3 ADD MSTORE PUSH1 0x64 SWAP1 REVERT JUMPDEST PUSH1 0x64 PUSH1 0x40 MLOAD PUSH3 0x461BCD PUSH1 0xE5 SHL DUP2 MSTORE PUSH1 0x20 PUSH1 0x4 DUP3 ADD MSTORE PUSH1 0x20 PUSH1 0x24 DUP3 ADD MSTORE PUSH32 0x4D6174682073686F756C646E27742075736520736F6C7574696F6E2068617368 PUSH1 0x44 DUP3 ADD MSTORE REVERT JUMPDEST POP POP PUSH1 0x0 PUSH1 0x2 PUSH1 0xA4 CALLDATALOAD EQ PUSH2 0x1CB0 JUMP JUMPDEST PUSH1 0x40 MLOAD PUSH3 0x461BCD PUSH1 0xE5 SHL DUP2 MSTORE PUSH1 0x20 PUSH1 0x4 DUP3 ADD MSTORE PUSH1 0x16 PUSH1 0x24 DUP3 ADD MSTORE PUSH22 0x125B9D985B1A59081D9BDD19481D1A1C995CDA1BDB19 PUSH1 0x52 SHL PUSH1 0x44 DUP3 ADD MSTORE PUSH1 0x64 SWAP1 REVERT JUMPDEST POP PUSH1 0x64 PUSH1 0x84 CALLDATALOAD GT ISZERO PUSH2 0x1C9E JUMP JUMPDEST PUSH1 0x40 MLOAD PUSH3 0x461BCD PUSH1 0xE5 SHL DUP2 MSTORE PUSH1 0x20 PUSH1 0x4 DUP3 ADD MSTORE PUSH1 0x1A PUSH1 0x24 DUP3 ADD MSTORE PUSH32 0x456E74727920666565206D75737420626520706F736974697665000000000000 PUSH1 0x44 DUP3 ADD MSTORE PUSH1 0x64 SWAP1 REVERT JUMPDEST PUSH1 0x40 MLOAD PUSH3 0x461BCD PUSH1 0xE5 SHL DUP2 MSTORE PUSH1 0x20 PUSH1 0x4 DUP3 ADD MSTORE PUSH1 0x15 PUSH1 0x24 DUP3 ADD MSTORE PUSH21 0x92DCECC2D8D2C840E0EAF4F4D8CA40D8CADCCEE8D PUSH1 0x5B SHL PUSH1 0x44 DUP3 ADD MSTORE PUSH1 0x64 SWAP1 REVERT JUMPDEST PUSH2 0x3E8 SWAP2 POP GT ISZERO DUP5 PUSH2 0x1C85 JUMP JUMPDEST CALLVALUE PUSH2 0x2EB JUMPI PUSH1 0x20 CALLDATASIZE PUSH1 0x3 NOT ADD SLT PUSH2 0x2EB JUMPI PUSH2 0x23F9 PUSH2 0x3C77 JUMP JUMPDEST PUSH2 0x2401 PUSH2 0x432E JUMP JUMPDEST PUSH1 0x1 PUSH1 0x1 PUSH1 0xA0 SHL SUB AND PUSH1 0x0 DUP2 DUP2 MSTORE PUSH32 0xE161ABE49421BDBE04B54EE9F794DBF668947C663B3C53CBADB88CDD90C50278 PUSH1 0x20 MSTORE PUSH1 0x40 SWAP1 KECCAK256 SLOAD PUSH32 0xC63907609C1C518C230A90524384EDC1A25DF2F21481DDB99BEF5E2444C35EF0 SWAP2 SWAP1 PUSH1 0xFF AND ISZERO PUSH2 0x2465 JUMPI STOP JUMPDEST DUP2 PUSH1 0x0 MSTORE PUSH1 0x1 PUSH1 0x20 MSTORE PUSH1 0x40 PUSH1 0x0 KECCAK256 DUP2 PUSH1 0x0 MSTORE PUSH1 0x20 MSTORE PUSH1 0x40 PUSH1 0x0 KECCAK256 PUSH1 0x1 PUSH1 0xFF NOT DUP3 SLOAD AND OR SWAP1 SSTORE CALLER SWAP2 PUSH32 0x2F8788117E7EFF1D82E926EC794901D17C78024A50270940304540A733656F0D PUSH1 0x0 DUP1 LOG4 STOP JUMPDEST CALLVALUE PUSH2 0x2EB JUMPI PUSH1 0x0 CALLDATASIZE PUSH1 0x3 NOT ADD SLT PUSH2 0x2EB JUMPI PUSH1 0x20 PUSH1 0xFF PUSH1 0x2 SLOAD AND PUSH1 0x40 MLOAD SWAP1 ISZERO ISZERO DUP2 MSTORE RETURN JUMPDEST CALLVALUE PUSH2 0x2EB JUMPI PUSH1 0x20 PUSH32 0x6A75D918A59DA9597A749B7C707F23CFA76552074B43C68A24A21DB1C45841F1 PUSH2 0x2507 CALLDATASIZE PUSH2 0x3C4B JUMP JUMPDEST PUSH2 0x2512 SWAP4 SWAP2 SWAP4 PUSH2 0x432E JUMP JUMPDEST DUP4 PUSH1 0x0 MSTORE PUSH1 0x3 DUP3 MSTORE PUSH2 0x2531 PUSH1 0xFF PUSH1 0xA PUSH1 0x40 PUSH1 0x0 KECCAK256 ADD SLOAD PUSH1 0x10 SHR AND PUSH2 0x3CBD JUMP JUMPDEST DUP4 PUSH1 0x0 MSTORE PUSH1 0x3 DUP3 MSTORE DUP1 PUSH1 0x4 PUSH1 0x40 PUSH1 0x0 KECCAK256 ADD SSTORE PUSH1 0x40 MLOAD SWAP1 DUP2 MSTORE LOG2 STOP JUMPDEST CALLVALUE PUSH2 0x2EB JUMPI PUSH1 0x20 CALLDATASIZE PUSH1 0x3 NOT ADD SLT PUSH2 0x2EB JUMPI PUSH1 0x4 CALLDATALOAD PUSH2 0x2568 PUSH2 0x432E JUMP JUMPDEST DUP1 PUSH1 0x0 MSTORE PUSH1 0x3 PUSH1 0x20 MSTORE PUSH2 0x2588 PUSH1 0xFF PUSH1 0xA PUSH1 0x40 PUSH1 0x0 KECCAK256 ADD SLOAD PUSH1 0x10 SHR AND PUSH2 0x3CBD JUMP JUMPDEST DUP1 PUSH1 0x0 MSTORE PUSH1 0x3 PUSH1 0x20 MSTORE PUSH1 0xFF PUSH1 0x2 PUSH1 0x40 PUSH1 0x0 KECCAK256 ADD SLOAD AND PUSH1 0x6 DUP2 LT ISZERO PUSH2 0x57C JUMPI PUSH1 0x5 SUB PUSH2 0x2617 JUMPI PUSH1 0x0 DUP2 DUP2 MSTORE PUSH1 0x3 PUSH1 0x20 MSTORE PUSH1 0x40 DUP2 KECCAK256 PUSH1 0x2 DUP1 DUP3 ADD DUP1 SLOAD PUSH1 0xFF NOT AND SWAP1 SWAP2 OR SWAP1 SSTORE PUSH1 0xA DUP2 ADD DUP1 SLOAD PUSH4 0x1000000 PUSH1 0x1 PUSH1 0xB8 SHL SUB NOT AND SWAP1 SSTORE PUSH1 0x7 ADD DUP1 SLOAD PUSH1 0x1 PUSH1 0x1 PUSH1 0xA0 SHL SUB NOT AND SWAP1 SSTORE PUSH32 0xDE24AE18B2BDA089720CA38332DF93AB6195D7B5B3B0981CCAE6B33E0A6C3F9B SWAP1 DUP1 LOG2 STOP JUMPDEST PUSH1 0x40 MLOAD PUSH3 0x461BCD PUSH1 0xE5 SHL DUP2 MSTORE PUSH1 0x20 PUSH1 0x4 DUP3 ADD MSTORE PUSH1 0xC PUSH1 0x24 DUP3 ADD MSTORE PUSH12 0x139BDD08185C98DA1A5D9959 PUSH1 0xA2 SHL PUSH1 0x44 DUP3 ADD MSTORE PUSH1 0x64 SWAP1 REVERT JUMPDEST CALLVALUE PUSH2 0x2EB JUMPI PUSH1 0x60 CALLDATASIZE PUSH1 0x3 NOT ADD SLT PUSH2 0x2EB JUMPI PUSH1 0x4 CALLDATALOAD PUSH2 0x2667 PUSH2 0x3C61 JUMP JUMPDEST PUSH1 0x44 CALLDATALOAD SWAP1 DUP2 ISZERO SWAP1 DUP2 ISZERO SWAP4 DUP5 DUP5 SUB PUSH2 0x2EB JUMPI PUSH2 0x2680 PUSH2 0x4452 JUMP JUMPDEST DUP1 PUSH1 0x0 MSTORE PUSH1 0x20 SWAP5 PUSH1 0x3 DUP7 MSTORE PUSH2 0x26A2 PUSH1 0xFF PUSH1 0xA PUSH1 0x40 PUSH1 0x0 KECCAK256 ADD SLOAD PUSH1 0x10 SHR AND PUSH2 0x3CBD JUMP JUMPDEST DUP2 PUSH1 0x0 MSTORE PUSH1 0x3 DUP7 MSTORE PUSH1 0x40 PUSH1 0x0 KECCAK256 SWAP6 PUSH1 0xA DUP8 ADD SWAP7 DUP8 SLOAD PUSH1 0xFF DUP2 AND PUSH1 0x3 DUP2 LT ISZERO PUSH2 0x57C JUMPI PUSH1 0x1 SUB PUSH2 0x28F0 JUMPI PUSH1 0x2 DUP3 ADD SWAP9 PUSH1 0xFF DUP11 SLOAD AND PUSH1 0x6 DUP2 LT ISZERO PUSH2 0x57C JUMPI PUSH1 0x3 PUSH2 0x26EA SWAP2 EQ PUSH2 0x3E37 JUMP JUMPDEST DUP6 PUSH1 0x0 MSTORE PUSH1 0xA DUP5 MSTORE PUSH1 0x40 PUSH1 0x0 KECCAK256 SWAP7 PUSH1 0x1 DUP1 PUSH1 0xA0 SHL SUB SWAP1 DUP2 DUP2 AND SWAP9 DUP10 PUSH1 0x0 MSTORE DUP7 MSTORE PUSH2 0x2718 PUSH1 0x40 PUSH1 0x0 KECCAK256 SLOAD PUSH2 0x3AFB JUMP JUMPDEST ISZERO PUSH2 0x28B5 JUMPI PUSH1 0xC DUP6 ADD SWAP11 DUP12 SLOAD TIMESTAMP GT PUSH2 0x2870 JUMPI SWAP2 PUSH32 0x156934B37A6A765531AC9332A9CEE7BFE0E5A00742DCD286B811DE4751C9BB7C SWAP8 SWAP6 SWAP4 SWAP2 PUSH1 0x40 SWAP8 SWAP6 SWAP4 PUSH2 0x27A0 JUMPI JUMPDEST POP POP POP POP POP DUP5 PUSH1 0x0 MSTORE PUSH1 0xA DUP2 MSTORE DUP3 PUSH1 0x0 KECCAK256 DUP7 PUSH1 0x0 MSTORE DUP2 MSTORE PUSH2 0x277D DUP4 PUSH1 0x0 KECCAK256 PUSH2 0x3F58 JUMP JUMPDEST DUP3 MLOAD SWAP2 DUP3 MSTORE CALLER SWAP1 DUP3 ADD MSTORE LOG3 PUSH2 0x278E JUMPI STOP JUMPDEST DUP2 SLOAD PUSH1 0xFF NOT AND PUSH1 0x2 OR SWAP1 SWAP2 SSTORE PUSH1 0x0 SWAP1 SSTORE STOP JUMPDEST PUSH2 0x27B4 PUSH2 0x27DA SWAP3 PUSH1 0xFF SWAP6 PUSH1 0x18 SHR AND ISZERO PUSH2 0x3EF1 JUMP JUMPDEST DUP3 SLOAD PUSH4 0x1000000 PUSH1 0x1 PUSH1 0xB8 SHL SUB NOT AND PUSH1 0x18 SWAP2 SWAP1 SWAP2 SHL PUSH4 0x1000000 PUSH1 0x1 PUSH1 0xB8 SHL SUB AND OR DUP3 SSTORE JUMP JUMPDEST PUSH1 0x4 DUP3 NOT DUP14 SLOAD AND OR DUP13 SSTORE SLOAD PUSH1 0x8 SHR AND PUSH2 0x2820 JUMPI JUMPDEST POP DUP6 DUP6 PUSH32 0xF7C67880B72EC988961E570AE4E849EB4FD9D5BA0AB550624AC429EF6D41880C PUSH1 0x0 DUP1 LOG3 DUP10 DUP1 DUP1 DUP1 DUP1 PUSH2 0x275A JUMP JUMPDEST DUP1 PUSH1 0x4 PUSH2 0x286A SWAP3 ADD SLOAD SWAP1 PUSH2 0x2844 PUSH2 0x2710 PUSH2 0x283C PUSH1 0xE SLOAD DUP6 PUSH2 0x3F45 JUMP JUMPDEST DIV DUP1 SWAP4 PUSH2 0x4719 JUMP JUMPDEST SWAP1 PUSH2 0x2853 DUP4 PUSH1 0x1 SHR DUP1 SWAP5 PUSH2 0x4719 JUMP JUMPDEST SWAP2 PUSH2 0x2863 PUSH1 0x3 DUP4 ADD SWAP2 DUP3 SLOAD PUSH2 0x3E1E JUMP JUMPDEST SWAP1 SSTORE PUSH2 0x4726 JUMP JUMPDEST DUP10 PUSH2 0x27EE JUMP JUMPDEST PUSH1 0x40 MLOAD PUSH3 0x461BCD PUSH1 0xE5 SHL DUP2 MSTORE PUSH1 0x4 DUP2 ADD DUP9 SWAP1 MSTORE PUSH1 0x1C PUSH1 0x24 DUP3 ADD MSTORE PUSH32 0x566572696669636174696F6E20646561646C696E652070617373656400000000 PUSH1 0x44 DUP3 ADD MSTORE PUSH1 0x64 SWAP1 REVERT JUMPDEST PUSH1 0x40 MLOAD PUSH3 0x461BCD PUSH1 0xE5 SHL DUP2 MSTORE PUSH1 0x4 DUP2 ADD DUP8 SWAP1 MSTORE PUSH1 0x13 PUSH1 0x24 DUP3 ADD MSTORE PUSH19 0x139BC81CDD589B5A5CDCDA5BDB88199BDD5B99 PUSH1 0x6A SHL PUSH1 0x44 DUP3 ADD MSTORE PUSH1 0x64 SWAP1 REVERT JUMPDEST PUSH1 0x40 MLOAD PUSH3 0x461BCD PUSH1 0xE5 SHL DUP2 MSTORE PUSH1 0x4 DUP2 ADD DUP5 SWAP1 MSTORE PUSH1 0x11 PUSH1 0x24 DUP3 ADD MSTORE PUSH17 0x4E6F742061206D6174682070757A7A6C65 PUSH1 0x78 SHL PUSH1 0x44 DUP3 ADD MSTORE PUSH1 0x64 SWAP1 REVERT JUMPDEST CALLVALUE PUSH2 0x2EB JUMPI PUSH1 0x0 CALLDATASIZE PUSH1 0x3 NOT ADD SLT PUSH2 0x2EB JUMPI PUSH2 0x2942 PUSH2 0x432E JUMP JUMPDEST PUSH1 0x2 SLOAD PUSH1 0xFF DUP2 AND ISZERO PUSH2 0x2981 JUMPI PUSH1 0xFF NOT AND PUSH1 0x2 SSTORE PUSH32 0x5DB9EE0A495BF2E6FF9C91A7834C1BA4FDD244A5E8AA4E537BD38AEAE4B073AA PUSH1 0x20 PUSH1 0x40 MLOAD CALLER DUP2 MSTORE LOG1 STOP JUMPDEST PUSH1 0x40 MLOAD PUSH3 0x461BCD PUSH1 0xE5 SHL DUP2 MSTORE PUSH1 0x20 PUSH1 0x4 DUP3 ADD MSTORE PUSH1 0x14 PUSH1 0x24 DUP3 ADD MSTORE PUSH20 0x14185D5CD8589B194E881B9BDD081C185D5CD959 PUSH1 0x62 SHL PUSH1 0x44 DUP3 ADD MSTORE PUSH1 0x64 SWAP1 REVERT JUMPDEST CALLVALUE PUSH2 0x2EB JUMPI PUSH1 0x60 CALLDATASIZE PUSH1 0x3 NOT ADD SLT PUSH2 0x2EB JUMPI PUSH1 0x4 CALLDATALOAD PUSH1 0x44 CALLDATALOAD PUSH1 0x24 CALLDATALOAD PUSH2 0x29DF PUSH2 0x4112 JUMP JUMPDEST DUP1 PUSH1 0x0 MSTORE PUSH1 0x20 SWAP2 PUSH1 0x3 DUP4 MSTORE PUSH2 0x2A01 PUSH1 0xFF PUSH1 0xA PUSH1 0x40 PUSH1 0x0 KECCAK256 ADD SLOAD PUSH1 0x10 SHR AND PUSH2 0x3CBD JUMP JUMPDEST DUP4 PUSH1 0x0 MSTORE PUSH1 0xB DUP4 MSTORE PUSH1 0x40 PUSH1 0x0 KECCAK256 SLOAD TIMESTAMP LT PUSH2 0x2B61 JUMPI DUP2 PUSH1 0x0 MSTORE PUSH1 0x3 DUP4 MSTORE PUSH2 0x2A31 PUSH1 0x3 PUSH1 0x40 PUSH1 0x0 KECCAK256 ADD SLOAD DUP3 GT ISZERO PUSH2 0x3DDD JUMP JUMPDEST PUSH1 0x0 DUP3 DUP2 MSTORE PUSH1 0x3 DUP5 MSTORE PUSH1 0x40 SWAP1 KECCAK256 PUSH1 0x5 DUP2 ADD SLOAD SWAP1 SWAP4 SWAP1 PUSH1 0x1 PUSH1 0x1 PUSH1 0xA0 SHL SUB SWAP1 DUP2 AND DUP1 PUSH2 0x2AC5 JUMPI POP SWAP1 PUSH1 0x3 PUSH32 0x65C06E47D9E4FC8ADBE172EF021CB72FEA5990C1F513885E7131185EBBD5A833 SWAP6 PUSH2 0x2A9E PUSH1 0x0 DUP1 DUP1 DUP1 DUP10 PUSH1 0x40 SWAP12 SWAP11 SWAP10 PUSH1 0xD SLOAD AND GAS CALL PUSH2 0x2A98 PUSH2 0x3EC1 JUMP JUMPDEST POP PUSH2 0x3E83 JUMP JUMPDEST ADD PUSH2 0x2AAA DUP4 DUP3 SLOAD PUSH2 0x4719 JUMP JUMPDEST SWAP1 SSTORE DUP6 PUSH1 0x0 MSTORE PUSH1 0xB DUP2 MSTORE PUSH1 0x0 DUP5 DUP2 KECCAK256 SSTORE DUP4 MLOAD SWAP3 DUP4 MSTORE DUP3 ADD MSTORE LOG2 STOP JUMPDEST PUSH1 0xD SLOAD PUSH1 0x40 MLOAD PUSH4 0xA9059CBB PUSH1 0xE0 SHL DUP2 MSTORE SWAP3 AND PUSH1 0x1 PUSH1 0x1 PUSH1 0xA0 SHL SUB AND PUSH1 0x4 DUP4 ADD MSTORE PUSH1 0x24 DUP3 ADD DUP5 SWAP1 MSTORE SWAP1 SWAP4 SWAP3 SWAP2 SWAP1 DUP2 SWAP1 DUP6 SWAP1 DUP2 PUSH1 0x0 DUP2 PUSH1 0x44 DUP2 ADD SUB SWAP3 GAS CALL DUP1 ISZERO PUSH2 0x4C8 JUMPI PUSH32 0x65C06E47D9E4FC8ADBE172EF021CB72FEA5990C1F513885E7131185EBBD5A833 SWAP6 PUSH2 0x2B3F PUSH1 0x3 SWAP3 PUSH1 0x40 SWAP8 PUSH1 0x0 SWAP2 PUSH2 0x2B44 JUMPI POP PUSH2 0x3E83 JUMP JUMPDEST PUSH2 0x2A9E JUMP JUMPDEST PUSH2 0x2B5B SWAP2 POP DUP6 RETURNDATASIZE DUP8 GT PUSH2 0x4C1 JUMPI PUSH2 0x4B3 DUP2 DUP4 PUSH2 0x3A46 JUMP JUMPDEST DUP11 PUSH2 0x2A98 JUMP JUMPDEST PUSH1 0x40 MLOAD PUSH3 0x461BCD PUSH1 0xE5 SHL DUP2 MSTORE PUSH1 0x4 DUP2 ADD DUP5 SWAP1 MSTORE PUSH1 0x14 PUSH1 0x24 DUP3 ADD MSTORE PUSH20 0x151A5B595B1BD8DAC81B9BDD08195E1C1A5C9959 PUSH1 0x62 SHL PUSH1 0x44 DUP3 ADD MSTORE PUSH1 0x64 SWAP1 REVERT JUMPDEST CALLVALUE PUSH2 0x2EB JUMPI PUSH1 0x40 CALLDATASIZE PUSH1 0x3 NOT ADD SLT PUSH2 0x2EB JUMPI PUSH2 0x2BB6 PUSH2 0x3C61 JUMP JUMPDEST CALLER PUSH1 0x1 PUSH1 0x1 PUSH1 0xA0 SHL SUB DUP3 AND SUB PUSH2 0x2BD2 JUMPI PUSH2 0x1B SWAP1 PUSH1 0x4 CALLDATALOAD PUSH2 0x46A3 JUMP JUMPDEST PUSH1 0x40 MLOAD PUSH3 0x461BCD PUSH1 0xE5 SHL DUP2 MSTORE PUSH1 0x20 PUSH1 0x4 DUP3 ADD MSTORE PUSH1 0x2F PUSH1 0x24 DUP3 ADD MSTORE PUSH32 0x416363657373436F6E74726F6C3A2063616E206F6E6C792072656E6F756E6365 PUSH1 0x44 DUP3 ADD MSTORE PUSH15 0x103937B632B9903337B91039B2B633 PUSH1 0x89 SHL PUSH1 0x64 DUP3 ADD MSTORE PUSH1 0x84 SWAP1 REVERT JUMPDEST CALLVALUE PUSH2 0x2EB JUMPI PUSH1 0x20 CALLDATASIZE PUSH1 0x3 NOT ADD SLT PUSH2 0x2EB JUMPI PUSH1 0x4 CALLDATALOAD PUSH2 0x2C4B PUSH2 0x432E JUMP JUMPDEST DUP1 ISZERO PUSH2 0x2C56 JUMPI PUSH1 0x11 SSTORE STOP JUMPDEST PUSH1 0x40 MLOAD PUSH3 0x461BCD PUSH1 0xE5 SHL DUP2 MSTORE PUSH1 0x20 PUSH1 0x4 DUP3 ADD MSTORE PUSH1 0x14 PUSH1 0x24 DUP3 ADD MSTORE PUSH20 0x466565206D75737420626520706F736974697665 PUSH1 0x60 SHL PUSH1 0x44 DUP3 ADD MSTORE PUSH1 0x64 SWAP1 REVERT JUMPDEST CALLVALUE PUSH2 0x2EB JUMPI PUSH1 0x40 CALLDATASIZE PUSH1 0x3 NOT ADD SLT PUSH2 0x2EB JUMPI PUSH1 0x4 CALLDATALOAD PUSH2 0x2CAE PUSH2 0x3C61 JUMP JUMPDEST SWAP1 DUP1 PUSH1 0x0 MSTORE PUSH1 0x3 PUSH1 0x20 MSTORE PUSH2 0x2CCF PUSH1 0xFF PUSH1 0xA PUSH1 0x40 PUSH1 0x0 KECCAK256 ADD SLOAD PUSH1 0x10 SHR AND PUSH2 0x3CBD JUMP JUMPDEST PUSH1 0x0 MSTORE PUSH1 0xA PUSH1 0x20 MSTORE PUSH1 0x40 PUSH1 0x0 KECCAK256 SWAP1 PUSH1 0x1 DUP1 PUSH1 0xA0 SHL SUB AND PUSH1 0x0 MSTORE PUSH1 0x20 MSTORE PUSH2 0x629 PUSH2 0x615 PUSH1 0x40 PUSH1 0x0 KECCAK256 PUSH2 0x3B35 JUMP JUMPDEST CALLVALUE PUSH2 0x2EB JUMPI PUSH1 0x40 CALLDATASIZE PUSH1 0x3 NOT ADD SLT PUSH2 0x2EB JUMPI PUSH1 0x4 CALLDATALOAD PUSH2 0x2D17 PUSH2 0x3C61 JUMP JUMPDEST DUP2 PUSH1 0x0 MSTORE PUSH1 0x1 PUSH1 0x20 MSTORE PUSH2 0x2D31 PUSH1 0x1 PUSH1 0x40 PUSH1 0x0 KECCAK256 ADD SLOAD PUSH2 0x4598 JUMP JUMPDEST DUP2 PUSH1 0x0 MSTORE PUSH1 0x1 PUSH1 0x20 MSTORE PUSH1 0x40 PUSH1 0x0 KECCAK256 SWAP1 PUSH1 0x1 DUP1 PUSH1 0xA0 SHL SUB AND SWAP1 DUP2 PUSH1 0x0 MSTORE PUSH1 0x20 MSTORE PUSH1 0xFF PUSH1 0x40 PUSH1 0x0 KECCAK256 SLOAD AND ISZERO PUSH2 0x2465 JUMPI STOP JUMPDEST CALLVALUE PUSH2 0x2EB JUMPI PUSH1 0x20 CALLDATASIZE PUSH1 0x3 NOT ADD SLT PUSH2 0x2EB JUMPI PUSH1 0x4 CALLDATALOAD PUSH1 0x0 MSTORE PUSH1 0x8 PUSH1 0x20 MSTORE PUSH1 0x20 PUSH1 0x40 PUSH1 0x0 KECCAK256 SLOAD PUSH1 0x40 MLOAD SWAP1 DUP2 MSTORE RETURN JUMPDEST CALLVALUE PUSH2 0x2EB JUMPI PUSH1 0x0 CALLDATASIZE PUSH1 0x3 NOT ADD SLT PUSH2 0x2EB JUMPI PUSH1 0x20 PUSH1 0x40 MLOAD PUSH3 0x15180 DUP2 MSTORE RETURN JUMPDEST CALLVALUE PUSH2 0x2EB JUMPI PUSH1 0x20 CALLDATASIZE PUSH1 0x3 NOT ADD SLT PUSH2 0x2EB JUMPI PUSH1 0x4 CALLDATALOAD PUSH1 0x0 MSTORE PUSH1 0xB PUSH1 0x20 MSTORE PUSH1 0x20 PUSH1 0x40 PUSH1 0x0 KECCAK256 SLOAD PUSH1 0x40 MLOAD SWAP1 DUP2 MSTORE RETURN JUMPDEST CALLVALUE PUSH2 0x2EB JUMPI PUSH1 0x20 CALLDATASIZE PUSH1 0x3 NOT ADD SLT PUSH2 0x2EB JUMPI PUSH1 0x4 CALLDATALOAD PUSH1 0x0 MSTORE PUSH1 0x1 PUSH1 0x20 MSTORE PUSH1 0x20 PUSH1 0x1 PUSH1 0x40 PUSH1 0x0 KECCAK256 ADD SLOAD PUSH1 0x40 MLOAD SWAP1 DUP2 MSTORE RETURN JUMPDEST CALLVALUE PUSH2 0x2EB JUMPI PUSH1 0x0 CALLDATASIZE PUSH1 0x3 NOT ADD SLT PUSH2 0x2EB JUMPI PUSH1 0x20 PUSH1 0x40 MLOAD PUSH32 0xBF233DD2AAFEB4D50879C4AA5C81E96D92F6E6945C906A58F9F2D1C1631B4B26 DUP2 MSTORE RETURN JUMPDEST CALLVALUE PUSH2 0x2EB JUMPI PUSH1 0x20 CALLDATASIZE PUSH1 0x3 NOT ADD SLT PUSH2 0x2EB JUMPI PUSH1 0x4 CALLDATALOAD DUP1 PUSH1 0x0 MSTORE PUSH1 0x3 PUSH1 0x20 MSTORE PUSH2 0x2E74 PUSH1 0xFF PUSH1 0xA PUSH1 0x40 PUSH1 0x0 KECCAK256 ADD SLOAD PUSH1 0x10 SHR AND PUSH2 0x3CBD JUMP JUMPDEST DUP1 PUSH1 0x0 MSTORE PUSH1 0x3 PUSH1 0x20 MSTORE PUSH1 0x40 PUSH1 0x0 KECCAK256 PUSH1 0x2 DUP2 ADD DUP1 SLOAD SWAP2 PUSH1 0xFF DUP4 AND SWAP1 PUSH1 0x6 DUP3 LT ISZERO PUSH2 0x57C JUMPI PUSH2 0x2EA5 PUSH1 0x3 PUSH1 0xC SWAP4 EQ PUSH2 0x3E37 JUMP JUMPDEST ADD SWAP1 DUP2 SLOAD TIMESTAMP GT ISZERO PUSH2 0x2EE4 JUMPI PUSH1 0x2 PUSH1 0x0 SWAP4 PUSH1 0xFF NOT AND OR SWAP1 SSTORE SSTORE PUSH32 0xB1CA659796B83B4F0A879A976BBB52E43E87049CFBF35AB5395901D2ECBAB92 PUSH1 0x0 DUP1 LOG2 STOP JUMPDEST PUSH1 0x40 MLOAD PUSH3 0x461BCD PUSH1 0xE5 SHL DUP2 MSTORE PUSH1 0x20 PUSH1 0x4 DUP3 ADD MSTORE PUSH1 0x17 PUSH1 0x24 DUP3 ADD MSTORE PUSH32 0x446561646C696E65206E6F742079657420706173736564000000000000000000 PUSH1 0x44 DUP3 ADD MSTORE PUSH1 0x64 SWAP1 REVERT JUMPDEST CALLVALUE PUSH2 0x2EB JUMPI PUSH1 0x0 CALLDATASIZE PUSH1 0x3 NOT ADD SLT PUSH2 0x2EB JUMPI PUSH1 0x20 PUSH1 0x40 MLOAD PUSH32 0xC63907609C1C518C230A90524384EDC1A25DF2F21481DDB99BEF5E2444C35EF0 DUP2 MSTORE RETURN JUMPDEST CALLVALUE PUSH2 0x2EB JUMPI PUSH1 0x0 CALLDATASIZE PUSH1 0x3 NOT ADD SLT PUSH2 0x2EB JUMPI PUSH1 0x20 PUSH1 0x11 SLOAD PUSH1 0x40 MLOAD SWAP1 DUP2 MSTORE RETURN JUMPDEST CALLVALUE PUSH2 0x2EB JUMPI PUSH1 0x20 CALLDATASIZE PUSH1 0x3 NOT ADD SLT PUSH2 0x2EB JUMPI PUSH1 0x4 CALLDATALOAD PUSH1 0x0 PUSH2 0x1E0 PUSH1 0x40 MLOAD PUSH2 0x2FA7 DUP2 PUSH2 0x3A0F JUMP JUMPDEST PUSH1 0x60 DUP2 MSTORE DUP3 PUSH1 0x20 DUP3 ADD MSTORE DUP3 PUSH1 0x40 DUP3 ADD MSTORE DUP3 PUSH1 0x60 DUP3 ADD MSTORE DUP3 PUSH1 0x80 DUP3 ADD MSTORE DUP3 PUSH1 0xA0 DUP3 ADD MSTORE DUP3 PUSH1 0xC0 DUP3 ADD MSTORE DUP3 PUSH1 0xE0 DUP3 ADD MSTORE DUP3 PUSH2 0x100 DUP3 ADD MSTORE DUP3 PUSH2 0x120 DUP3 ADD MSTORE DUP3 PUSH2 0x140 DUP3 ADD MSTORE DUP3 PUSH2 0x160 DUP3 ADD MSTORE DUP3 PUSH2 0x180 DUP3 ADD MSTORE DUP3 PUSH2 0x1A0 DUP3 ADD MSTORE PUSH1 0x60 PUSH2 0x1C0 DUP3 ADD MSTORE ADD MSTORE DUP1 PUSH1 0x0 MSTORE PUSH1 0x3 PUSH1 0x20 MSTORE PUSH2 0x3029 PUSH1 0xFF PUSH1 0xA PUSH1 0x40 PUSH1 0x0 KECCAK256 ADD SLOAD PUSH1 0x10 SHR AND PUSH2 0x3CBD JUMP JUMPDEST PUSH1 0x0 MSTORE PUSH1 0x3 PUSH1 0x20 MSTORE PUSH1 0x40 PUSH1 0x0 KECCAK256 PUSH1 0x5 PUSH1 0x20 MSTORE PUSH1 0x40 PUSH1 0x0 KECCAK256 SLOAD PUSH1 0x6 PUSH1 0x20 MSTORE PUSH1 0x40 PUSH1 0x0 KECCAK256 SLOAD SWAP2 PUSH1 0x8 PUSH1 0x20 MSTORE PUSH1 0x40 PUSH1 0x0 KECCAK256 SLOAD PUSH1 0x40 MLOAD SWAP2 PUSH2 0x3065 DUP4 PUSH2 0x3A0F JUMP JUMPDEST PUSH2 0x306E DUP2 PUSH2 0x3B35 JUMP JUMPDEST DUP4 MSTORE PUSH1 0x1 DUP2 ADD SLOAD PUSH1 0x20 DUP5 ADD MSTORE PUSH1 0xFF PUSH1 0x2 DUP3 ADD SLOAD AND SWAP1 PUSH1 0x6 DUP3 LT ISZERO PUSH2 0x57C JUMPI PUSH1 0x40 DUP5 ADD SWAP2 SWAP1 SWAP2 MSTORE PUSH1 0x3 DUP2 ADD SLOAD PUSH1 0x60 DUP5 ADD MSTORE PUSH1 0x4 DUP2 ADD SLOAD PUSH1 0x80 DUP5 ADD MSTORE PUSH1 0x5 DUP2 ADD SLOAD PUSH1 0x1 PUSH1 0x1 PUSH1 0xA0 SHL SUB SWAP1 DUP2 AND PUSH1 0xA0 DUP6 ADD MSTORE PUSH1 0x6 DUP3 ADD SLOAD DUP2 AND PUSH1 0xC0 DUP6 ADD MSTORE PUSH1 0x7 DUP3 ADD SLOAD AND PUSH1 0xE0 DUP5 ADD MSTORE PUSH1 0x8 DUP2 ADD SLOAD PUSH2 0x100 DUP5 ADD MSTORE PUSH1 0x9 DUP2 ADD SLOAD PUSH2 0x120 DUP5 ADD MSTORE PUSH1 0xA DUP2 ADD SLOAD PUSH1 0xC SWAP2 SWAP1 PUSH2 0x3104 PUSH1 0xFF DUP3 AND PUSH2 0x140 DUP8 ADD PUSH2 0x3E2B JUMP JUMPDEST PUSH1 0x8 DUP2 SWAP1 SHR PUSH1 0xFF SWAP1 DUP2 AND ISZERO ISZERO PUSH2 0x160 DUP8 ADD MSTORE PUSH1 0x10 DUP3 SWAP1 SHR AND ISZERO ISZERO PUSH2 0x180 DUP7 ADD MSTORE PUSH1 0x18 SHR PUSH1 0x1 PUSH1 0x1 PUSH1 0xA0 SHL SUB AND PUSH2 0x1A0 DUP6 ADD MSTORE PUSH2 0x3142 PUSH1 0xB DUP3 ADD PUSH2 0x3B35 JUMP JUMPDEST PUSH2 0x1C0 DUP6 ADD MSTORE ADD SLOAD PUSH2 0x1E0 DUP4 ADD MSTORE PUSH1 0x40 MLOAD SWAP4 DUP5 SWAP4 PUSH1 0x80 DUP6 MSTORE PUSH2 0x1E0 PUSH2 0x3255 PUSH2 0x3178 DUP7 MLOAD PUSH2 0x200 PUSH1 0x80 DUP11 ADD MSTORE PUSH2 0x280 DUP10 ADD SWAP1 PUSH2 0x3BFD JUMP JUMPDEST PUSH1 0x20 DUP8 ADD MLOAD PUSH1 0xA0 DUP10 ADD MSTORE PUSH2 0x3194 PUSH1 0x40 DUP9 ADD MLOAD PUSH1 0xC0 DUP11 ADD SWAP1 PUSH2 0x3C22 JUMP JUMPDEST PUSH1 0x60 DUP8 ADD MLOAD PUSH1 0xE0 DUP10 ADD MSTORE PUSH1 0x80 DUP8 ADD MLOAD PUSH2 0x100 DUP10 ADD MSTORE PUSH1 0x1 DUP1 PUSH1 0xA0 SHL SUB PUSH1 0xA0 DUP9 ADD MLOAD AND PUSH2 0x120 DUP10 ADD MSTORE PUSH1 0x1 DUP1 PUSH1 0xA0 SHL SUB PUSH1 0xC0 DUP9 ADD MLOAD AND PUSH2 0x140 DUP10 ADD MSTORE PUSH1 0x1 DUP1 PUSH1 0xA0 SHL SUB PUSH1 0xE0 DUP9 ADD MLOAD AND PUSH2 0x160 DUP10 ADD MSTORE PUSH2 0x100 DUP8 ADD MLOAD PUSH2 0x180 DUP10 ADD MSTORE PUSH2 0x120 DUP8 ADD MLOAD PUSH2 0x1A0 DUP10 ADD MSTORE PUSH2 0x320E PUSH2 0x140 DUP9 ADD MLOAD PUSH2 0x1C0 DUP11 ADD SWAP1 PUSH2 0x3C2F JUMP JUMPDEST PUSH2 0x160 DUP8 ADD MLOAD ISZERO ISZERO DUP9 DUP5 ADD MSTORE PUSH2 0x180 DUP8 ADD MLOAD ISZERO ISZERO PUSH2 0x200 DUP10 ADD MSTORE PUSH2 0x1A0 DUP8 ADD MLOAD PUSH1 0x1 PUSH1 0x1 PUSH1 0xA0 SHL SUB AND PUSH2 0x220 DUP10 ADD MSTORE PUSH2 0x1C0 DUP8 ADD MLOAD DUP9 DUP3 SUB PUSH1 0x7F NOT ADD PUSH2 0x240 DUP11 ADD MSTORE PUSH2 0x3BFD JUMP JUMPDEST SWAP5 ADD MLOAD PUSH2 0x260 DUP7 ADD MSTORE PUSH1 0x20 DUP6 ADD MSTORE PUSH1 0x40 DUP5 ADD MSTORE PUSH1 0x60 DUP4 ADD MSTORE SUB SWAP1 RETURN JUMPDEST CALLVALUE PUSH2 0x2EB JUMPI PUSH2 0x327F CALLDATASIZE PUSH2 0x3C4B JUMP JUMPDEST SWAP1 PUSH2 0x3288 PUSH2 0x4112 JUMP JUMPDEST DUP1 PUSH1 0x0 MSTORE PUSH1 0x3 PUSH1 0x20 MSTORE PUSH2 0x32A8 PUSH1 0xFF PUSH1 0xA PUSH1 0x40 PUSH1 0x0 KECCAK256 ADD SLOAD PUSH1 0x10 SHR AND PUSH2 0x3CBD JUMP JUMPDEST DUP1 PUSH1 0x0 MSTORE PUSH1 0x3 PUSH1 0x20 MSTORE PUSH2 0x32C5 PUSH1 0x3 PUSH1 0x40 PUSH1 0x0 KECCAK256 ADD SLOAD DUP4 GT ISZERO PUSH2 0x3DDD JUMP JUMPDEST PUSH1 0x40 MLOAD SWAP1 PUSH1 0x20 DUP3 ADD DUP2 DUP2 MSTORE TIMESTAMP PUSH1 0x40 DUP5 ADD MSTORE CALLER PUSH1 0x60 SHL PUSH1 0x60 DUP5 ADD MSTORE PUSH1 0x54 DUP4 MSTORE PUSH1 0x80 DUP4 ADD SWAP1 DUP4 DUP3 LT PUSH1 0x1 PUSH1 0x1 PUSH1 0x40 SHL SUB DUP4 GT OR PUSH2 0x7E9 JUMPI DUP2 PUSH1 0x40 MSTORE DUP4 MLOAD SWAP1 KECCAK256 SWAP4 PUSH3 0x15180 TIMESTAMP ADD DUP1 TIMESTAMP GT PUSH2 0xD1E JUMPI PUSH32 0xFDBA3823F568CC62FAF441257975029C3242942798F02799332EAEE6318ADC00 SWAP5 PUSH1 0x40 SWAP5 PUSH1 0xA0 SWAP3 DUP9 PUSH1 0x0 MSTORE PUSH1 0xB PUSH1 0x20 MSTORE DUP7 PUSH1 0x0 KECCAK256 SSTORE DUP5 MSTORE ADD MSTORE LOG2 STOP JUMPDEST CALLVALUE PUSH2 0x2EB JUMPI PUSH1 0x40 CALLDATASIZE PUSH1 0x3 NOT ADD SLT PUSH2 0x2EB JUMPI PUSH1 0x4 CALLDATALOAD PUSH2 0x3369 PUSH2 0x3C3C JUMP JUMPDEST SWAP1 DUP1 PUSH1 0x0 MSTORE PUSH1 0x20 PUSH1 0x3 DUP2 MSTORE PUSH2 0x338B PUSH1 0xFF PUSH1 0xA PUSH1 0x40 PUSH1 0x0 KECCAK256 ADD SLOAD PUSH1 0x10 SHR AND PUSH2 0x3CBD JUMP JUMPDEST DUP2 PUSH1 0x0 MSTORE PUSH1 0x3 DUP2 MSTORE PUSH1 0x40 PUSH1 0x0 KECCAK256 PUSH1 0x2 DUP2 ADD SWAP1 PUSH1 0xFF DUP3 SLOAD AND PUSH1 0x6 DUP2 LT ISZERO PUSH2 0x57C JUMPI PUSH1 0x1 PUSH2 0x33B7 SWAP2 EQ PUSH2 0x3D64 JUMP JUMPDEST DUP4 PUSH1 0x0 MSTORE PUSH1 0x4 DUP4 MSTORE PUSH1 0x40 PUSH1 0x0 KECCAK256 CALLER PUSH1 0x0 MSTORE DUP4 MSTORE PUSH1 0xFF PUSH1 0x40 PUSH1 0x0 KECCAK256 SLOAD AND PUSH2 0x34F1 JUMPI PUSH1 0x0 DUP5 DUP2 MSTORE PUSH1 0x4 DUP5 MSTORE PUSH1 0x40 DUP1 DUP3 KECCAK256 CALLER DUP4 MSTORE DUP6 MSTORE SWAP1 KECCAK256 DUP1 SLOAD PUSH1 0xFF NOT SWAP1 DUP2 AND PUSH1 0x1 OR SWAP1 SWAP2 SSTORE PUSH32 0xE71FCDAC32DF1877C1700E7BDA2A03157E20993363A28FC35AC495CEFC76E4D4 SWAP4 SWAP3 SWAP2 DUP7 ISZERO PUSH2 0x34B6 JUMPI DUP6 PUSH1 0x0 MSTORE PUSH1 0x5 DUP5 MSTORE PUSH2 0x343E PUSH2 0x3E8 PUSH1 0x40 PUSH1 0x0 KECCAK256 SLOAD LT PUSH2 0x3D9E JUMP JUMPDEST DUP6 PUSH1 0x0 MSTORE PUSH1 0x5 DUP5 MSTORE PUSH1 0x40 PUSH1 0x0 KECCAK256 PUSH2 0x3455 DUP2 SLOAD PUSH2 0x3D55 JUMP JUMPDEST SWAP1 SSTORE DUP6 PUSH1 0x0 MSTORE PUSH1 0x5 DUP5 MSTORE PUSH1 0x8 PUSH1 0x40 PUSH1 0x0 KECCAK256 SLOAD SWAP2 ADD SLOAD GT ISZERO PUSH2 0x3481 JUMPI JUMPDEST POP POP JUMPDEST PUSH1 0x40 MLOAD SWAP4 ISZERO ISZERO DUP5 MSTORE CALLER SWAP4 LOG3 STOP JUMPDEST DUP2 SLOAD AND PUSH1 0x2 OR SWAP1 SSTORE DUP3 PUSH32 0xB2F76656A4D5058A44D6F5FD1EBED95B7EF72920BBECF069FE3973F82C24351F PUSH1 0x0 DUP1 LOG2 DUP5 DUP1 PUSH2 0x3471 JUMP JUMPDEST POP POP POP DUP3 PUSH1 0x0 MSTORE PUSH1 0x6 DUP2 MSTORE PUSH2 0x34D3 PUSH2 0x3E8 PUSH1 0x40 PUSH1 0x0 KECCAK256 SLOAD LT PUSH2 0x3D9E JUMP JUMPDEST DUP3 PUSH1 0x0 MSTORE PUSH1 0x6 DUP2 MSTORE PUSH1 0x40 PUSH1 0x0 KECCAK256 PUSH2 0x34EA DUP2 SLOAD PUSH2 0x3D55 JUMP JUMPDEST SWAP1 SSTORE PUSH2 0x3474 JUMP JUMPDEST PUSH1 0x40 MLOAD PUSH3 0x461BCD PUSH1 0xE5 SHL DUP2 MSTORE PUSH1 0x4 DUP2 ADD DUP5 SWAP1 MSTORE PUSH1 0xD PUSH1 0x24 DUP3 ADD MSTORE PUSH13 0x105B1C9958591E481D9BDD1959 PUSH1 0x9A SHL PUSH1 0x44 DUP3 ADD MSTORE PUSH1 0x64 SWAP1 REVERT JUMPDEST CALLVALUE PUSH2 0x2EB JUMPI PUSH1 0x20 CALLDATASIZE PUSH1 0x3 NOT ADD SLT PUSH2 0x2EB JUMPI PUSH1 0x4 CALLDATALOAD PUSH1 0x0 MSTORE PUSH1 0x3 PUSH1 0x20 MSTORE PUSH1 0x40 PUSH1 0x0 KECCAK256 PUSH2 0x3550 DUP2 PUSH2 0x3B35 JUMP JUMPDEST PUSH1 0x1 DUP3 ADD SLOAD PUSH1 0x2 DUP4 ADD SLOAD PUSH1 0xFF AND SWAP3 PUSH1 0x3 DUP2 ADD SLOAD SWAP2 PUSH1 0x4 DUP3 ADD SLOAD PUSH1 0x1 PUSH1 0xA0 SHL PUSH1 0x1 SWAP1 SUB SWAP1 DUP2 PUSH1 0x5 DUP6 ADD SLOAD AND DUP3 PUSH1 0x6 DUP7 ADD SLOAD AND DUP4 PUSH1 0x7 DUP8 ADD SLOAD AND PUSH1 0x8 DUP8 ADD SLOAD SWAP2 PUSH1 0x9 DUP9 ADD SLOAD SWAP4 PUSH1 0xA DUP10 ADD SLOAD SWAP6 PUSH1 0xB DUP11 ADD PUSH2 0x35A7 SWAP1 PUSH2 0x3B35 JUMP JUMPDEST SWAP10 PUSH1 0xC ADD SLOAD SWAP11 PUSH1 0x40 MLOAD SWAP14 DUP15 DUP1 SWAP15 PUSH2 0x200 DUP1 DUP4 MSTORE DUP3 ADD PUSH2 0x35C5 SWAP2 PUSH2 0x3BFD JUMP JUMPDEST SWAP12 PUSH1 0x20 DUP3 ADD MSTORE PUSH1 0x40 ADD PUSH2 0x35D7 SWAP2 PUSH2 0x3C22 JUMP JUMPDEST PUSH1 0x60 DUP14 ADD MSTORE PUSH1 0x80 DUP13 ADD MSTORE PUSH1 0xA0 DUP12 ADD MSTORE PUSH1 0xC0 DUP11 ADD MSTORE PUSH1 0xE0 DUP10 ADD MSTORE PUSH2 0x100 DUP9 ADD MSTORE PUSH2 0x120 DUP8 ADD MSTORE PUSH2 0x360D PUSH2 0x140 DUP8 ADD PUSH1 0xFF DUP4 AND PUSH2 0x3C2F JUMP JUMPDEST DUP1 PUSH1 0x8 SHR PUSH1 0xFF AND ISZERO ISZERO PUSH2 0x160 DUP8 ADD MSTORE DUP1 PUSH1 0x10 SHR PUSH1 0xFF AND ISZERO ISZERO PUSH2 0x180 DUP8 ADD MSTORE PUSH1 0x18 SHR AND PUSH2 0x1A0 DUP6 ADD MSTORE DUP4 DUP2 SUB PUSH2 0x1C0 DUP6 ADD MSTORE PUSH2 0x3647 SWAP2 PUSH2 0x3BFD JUMP JUMPDEST SWAP1 PUSH2 0x1E0 DUP4 ADD MSTORE SUB SWAP1 RETURN JUMPDEST PUSH2 0x365B CALLDATASIZE PUSH2 0x3AC9 JUMP JUMPDEST SWAP1 PUSH2 0x3664 PUSH2 0x40BC JUMP JUMPDEST DUP1 PUSH1 0x0 MSTORE PUSH1 0x20 SWAP2 PUSH1 0x3 DUP4 MSTORE PUSH2 0x3686 PUSH1 0xFF PUSH1 0xA PUSH1 0x40 PUSH1 0x0 KECCAK256 ADD SLOAD PUSH1 0x10 SHR AND PUSH2 0x3CBD JUMP JUMPDEST DUP2 PUSH1 0x0 MSTORE PUSH1 0x3 DUP4 MSTORE PUSH1 0xFF PUSH1 0x2 PUSH1 0x40 PUSH1 0x0 KECCAK256 ADD SLOAD AND PUSH1 0x6 DUP2 LT ISZERO PUSH2 0x57C JUMPI PUSH1 0x4 PUSH2 0x36AF SWAP2 EQ PUSH2 0x3CFF JUMP JUMPDEST DUP1 MLOAD DUP1 ISZERO ISZERO SWAP1 DUP2 PUSH2 0x3984 JUMPI JUMPDEST POP ISZERO PUSH2 0x3947 JUMPI DUP2 PUSH1 0x0 MSTORE PUSH1 0x3 DUP4 MSTORE PUSH1 0x40 PUSH1 0x0 KECCAK256 PUSH1 0x7 DUP5 MSTORE PUSH1 0x40 PUSH1 0x0 KECCAK256 CALLER PUSH1 0x0 MSTORE DUP5 MSTORE PUSH1 0xFF PUSH1 0x40 PUSH1 0x0 KECCAK256 SLOAD AND PUSH2 0x390D JUMPI DUP3 PUSH1 0x0 MSTORE PUSH1 0x8 DUP5 MSTORE PUSH1 0x32 PUSH1 0x40 PUSH1 0x0 KECCAK256 SLOAD LT ISZERO PUSH2 0x38D0 JUMPI PUSH1 0x11 SLOAD PUSH1 0x5 DUP3 ADD SLOAD SWAP1 SWAP2 SWAP1 PUSH1 0x1 PUSH1 0x1 PUSH1 0xA0 SHL SUB AND DUP1 PUSH2 0x37F7 JUMPI POP DUP2 CALLVALUE SUB PUSH2 0x37B2 JUMPI SWAP2 PUSH2 0x37A8 SWAP2 PUSH2 0x3756 PUSH1 0x3 PUSH32 0x4A0952902E092AF0D23149E043F8DD57E941B922B429DFE81A6B47AF7253AF03 SWAP6 ADD SWAP2 DUP3 SLOAD PUSH2 0x3E1E JUMP JUMPDEST SWAP1 SSTORE JUMPDEST DUP4 PUSH1 0x0 MSTORE PUSH1 0x7 DUP6 MSTORE PUSH1 0x40 PUSH1 0x0 KECCAK256 CALLER PUSH1 0x0 MSTORE DUP6 MSTORE PUSH1 0x40 PUSH1 0x0 KECCAK256 PUSH1 0x1 PUSH1 0xFF NOT DUP3 SLOAD AND OR SWAP1 SSTORE DUP4 PUSH1 0x0 MSTORE PUSH1 0x8 DUP6 MSTORE PUSH1 0x40 PUSH1 0x0 KECCAK256 PUSH2 0x3793 DUP2 SLOAD PUSH2 0x3D55 JUMP JUMPDEST SWAP1 SSTORE PUSH1 0x40 MLOAD SWAP2 DUP3 SWAP2 DUP7 DUP4 MSTORE CALLER SWAP7 DUP4 ADD SWAP1 PUSH2 0x3BFD JUMP JUMPDEST SUB SWAP1 LOG3 PUSH1 0x1 PUSH1 0x0 SSTORE STOP JUMPDEST PUSH1 0x40 MLOAD PUSH3 0x461BCD PUSH1 0xE5 SHL DUP2 MSTORE PUSH1 0x4 DUP2 ADD DUP7 SWAP1 MSTORE PUSH1 0x17 PUSH1 0x24 DUP3 ADD MSTORE PUSH32 0x496E636F7272656374206368616C6C656E676520666565000000000000000000 PUSH1 0x44 DUP3 ADD MSTORE PUSH1 0x64 SWAP1 REVERT JUMPDEST PUSH1 0x40 MLOAD PUSH4 0x23B872DD PUSH1 0xE0 SHL DUP2 MSTORE CALLER PUSH1 0x4 DUP3 ADD MSTORE ADDRESS PUSH1 0x24 DUP3 ADD MSTORE PUSH1 0x44 DUP2 ADD DUP5 SWAP1 MSTORE SWAP1 DUP7 SWAP1 DUP3 SWAP1 PUSH1 0x64 SWAP1 DUP3 SWAP1 PUSH1 0x0 SWAP1 GAS CALL SWAP1 DUP2 ISZERO PUSH2 0x4C8 JUMPI PUSH1 0x0 SWAP2 PUSH2 0x38B3 JUMPI JUMPDEST POP ISZERO PUSH2 0x3877 JUMPI SWAP2 PUSH2 0x37A8 SWAP2 PUSH2 0x3870 PUSH1 0x3 PUSH32 0x4A0952902E092AF0D23149E043F8DD57E941B922B429DFE81A6B47AF7253AF03 SWAP6 ADD SWAP2 DUP3 SLOAD PUSH2 0x3E1E JUMP JUMPDEST SWAP1 SSTORE PUSH2 0x3759 JUMP JUMPDEST PUSH1 0x40 MLOAD PUSH3 0x461BCD PUSH1 0xE5 SHL DUP2 MSTORE PUSH1 0x4 DUP2 ADD DUP7 SWAP1 MSTORE PUSH1 0x14 PUSH1 0x24 DUP3 ADD MSTORE PUSH20 0x10DA185B1B195B99D9481999594819985A5B1959 PUSH1 0x62 SHL PUSH1 0x44 DUP3 ADD MSTORE PUSH1 0x64 SWAP1 REVERT JUMPDEST PUSH2 0x38CA SWAP2 POP DUP7 RETURNDATASIZE DUP9 GT PUSH2 0x4C1 JUMPI PUSH2 0x4B3 DUP2 DUP4 PUSH2 0x3A46 JUMP JUMPDEST DUP7 PUSH2 0x3835 JUMP JUMPDEST PUSH1 0x40 MLOAD PUSH3 0x461BCD PUSH1 0xE5 SHL DUP2 MSTORE PUSH1 0x4 DUP2 ADD DUP6 SWAP1 MSTORE PUSH1 0x15 PUSH1 0x24 DUP3 ADD MSTORE PUSH21 0x10DA185B1B195B99D94818D85C081C995858DA1959 PUSH1 0x5A SHL PUSH1 0x44 DUP3 ADD MSTORE PUSH1 0x64 SWAP1 REVERT JUMPDEST PUSH1 0x40 MLOAD PUSH3 0x461BCD PUSH1 0xE5 SHL DUP2 MSTORE PUSH1 0x4 DUP2 ADD DUP6 SWAP1 MSTORE PUSH1 0x12 PUSH1 0x24 DUP3 ADD MSTORE PUSH18 0x105B1C9958591E4818DA185B1B195B99D959 PUSH1 0x72 SHL PUSH1 0x44 DUP3 ADD MSTORE PUSH1 0x64 SWAP1 REVERT JUMPDEST PUSH1 0x40 MLOAD PUSH3 0x461BCD PUSH1 0xE5 SHL DUP2 MSTORE PUSH1 0x4 DUP2 ADD DUP5 SWAP1 MSTORE PUSH1 0x15 PUSH1 0x24 DUP3 ADD MSTORE PUSH21 0x92DCECC2D8D2C840E4CAC2E6DEDC40D8CADCCEE8D PUSH1 0x5B SHL PUSH1 0x44 DUP3 ADD MSTORE PUSH1 0x64 SWAP1 REVERT JUMPDEST PUSH1 0xC8 SWAP2 POP GT ISZERO DUP5 PUSH2 0x36BB JUMP JUMPDEST CALLVALUE PUSH2 0x2EB JUMPI PUSH1 0x20 CALLDATASIZE PUSH1 0x3 NOT ADD SLT PUSH2 0x2EB JUMPI PUSH1 0x4 CALLDATALOAD PUSH1 0x0 MSTORE PUSH1 0x5 PUSH1 0x20 MSTORE PUSH1 0x20 PUSH1 0x40 PUSH1 0x0 KECCAK256 SLOAD PUSH1 0x40 MLOAD SWAP1 DUP2 MSTORE RETURN JUMPDEST CALLVALUE PUSH2 0x2EB JUMPI PUSH1 0x20 CALLDATASIZE PUSH1 0x3 NOT ADD SLT PUSH2 0x2EB JUMPI PUSH1 0x4 CALLDATALOAD SWAP1 PUSH4 0xFFFFFFFF PUSH1 0xE0 SHL DUP3 AND DUP1 SWAP3 SUB PUSH2 0x2EB JUMPI PUSH1 0x20 SWAP2 PUSH4 0x7965DB0B PUSH1 0xE0 SHL DUP2 EQ SWAP1 DUP2 ISZERO PUSH2 0x39FE JUMPI JUMPDEST POP ISZERO ISZERO DUP2 MSTORE RETURN JUMPDEST PUSH4 0x1FFC9A7 PUSH1 0xE0 SHL EQ SWAP1 POP DUP4 PUSH2 0x39F7 JUMP JUMPDEST PUSH2 0x200 DUP2 ADD SWAP1 DUP2 LT PUSH1 0x1 PUSH1 0x1 PUSH1 0x40 SHL SUB DUP3 GT OR PUSH2 0x7E9 JUMPI PUSH1 0x40 MSTORE JUMP JUMPDEST PUSH1 0x80 DUP2 ADD SWAP1 DUP2 LT PUSH1 0x1 PUSH1 0x1 PUSH1 0x40 SHL SUB DUP3 GT OR PUSH2 0x7E9 JUMPI PUSH1 0x40 MSTORE JUMP JUMPDEST SWAP1 PUSH1 0x1F DUP1 NOT SWAP2 ADD AND DUP2 ADD SWAP1 DUP2 LT PUSH1 0x1 PUSH1 0x1 PUSH1 0x40 SHL SUB DUP3 GT OR PUSH2 0x7E9 JUMPI PUSH1 0x40 MSTORE JUMP JUMPDEST PUSH1 0x1 PUSH1 0x1 PUSH1 0x40 SHL SUB DUP2 GT PUSH2 0x7E9 JUMPI PUSH1 0x1F ADD PUSH1 0x1F NOT AND PUSH1 0x20 ADD SWAP1 JUMP JUMPDEST DUP2 PUSH1 0x1F DUP3 ADD SLT ISZERO PUSH2 0x2EB JUMPI DUP1 CALLDATALOAD SWAP1 PUSH2 0x3A99 DUP3 PUSH2 0x3A67 JUMP JUMPDEST SWAP3 PUSH2 0x3AA7 PUSH1 0x40 MLOAD SWAP5 DUP6 PUSH2 0x3A46 JUMP JUMPDEST DUP3 DUP5 MSTORE PUSH1 0x20 DUP4 DUP4 ADD ADD GT PUSH2 0x2EB JUMPI DUP2 PUSH1 0x0 SWAP3 PUSH1 0x20 DUP1 SWAP4 ADD DUP4 DUP7 ADD CALLDATACOPY DUP4 ADD ADD MSTORE SWAP1 JUMP JUMPDEST SWAP1 PUSH1 0x40 PUSH1 0x3 NOT DUP4 ADD SLT PUSH2 0x2EB JUMPI PUSH1 0x4 CALLDATALOAD SWAP2 PUSH1 0x24 CALLDATALOAD SWAP1 PUSH1 0x1 PUSH1 0x1 PUSH1 0x40 SHL SUB DUP3 GT PUSH2 0x2EB JUMPI PUSH2 0x3AF8 SWAP2 PUSH1 0x4 ADD PUSH2 0x3A82 JUMP JUMPDEST SWAP1 JUMP JUMPDEST SWAP1 PUSH1 0x1 DUP3 DUP2 SHR SWAP3 AND DUP1 ISZERO PUSH2 0x3B2B JUMPI JUMPDEST PUSH1 0x20 DUP4 LT EQ PUSH2 0x3B15 JUMPI JUMP JUMPDEST PUSH4 0x4E487B71 PUSH1 0xE0 SHL PUSH1 0x0 MSTORE PUSH1 0x22 PUSH1 0x4 MSTORE PUSH1 0x24 PUSH1 0x0 REVERT JUMPDEST SWAP2 PUSH1 0x7F AND SWAP2 PUSH2 0x3B0A JUMP JUMPDEST SWAP1 PUSH1 0x40 MLOAD SWAP2 DUP3 PUSH1 0x0 DUP3 SLOAD PUSH2 0x3B48 DUP2 PUSH2 0x3AFB JUMP JUMPDEST SWAP1 DUP2 DUP5 MSTORE PUSH1 0x20 SWAP5 PUSH1 0x1 SWAP2 PUSH1 0x1 DUP2 AND SWAP1 DUP2 PUSH1 0x0 EQ PUSH2 0x3BB8 JUMPI POP PUSH1 0x1 EQ PUSH2 0x3B79 JUMPI JUMPDEST POP POP POP PUSH2 0x3B77 SWAP3 POP SUB DUP4 PUSH2 0x3A46 JUMP JUMPDEST JUMP JUMPDEST PUSH1 0x0 SWAP1 DUP2 MSTORE DUP6 DUP2 KECCAK256 SWAP6 SWAP4 POP SWAP2 SWAP1 JUMPDEST DUP2 DUP4 LT PUSH2 0x3BA0 JUMPI POP POP PUSH2 0x3B77 SWAP4 POP DUP3 ADD ADD CODESIZE DUP1 DUP1 PUSH2 0x3B68 JUMP JUMPDEST DUP6 SLOAD DUP9 DUP5 ADD DUP6 ADD MSTORE SWAP5 DUP6 ADD SWAP5 DUP8 SWAP5 POP SWAP2 DUP4 ADD SWAP2 PUSH2 0x3B87 JUMP JUMPDEST SWAP3 POP POP POP PUSH2 0x3B77 SWAP5 SWAP3 POP PUSH1 0xFF NOT AND DUP3 DUP5 ADD MSTORE ISZERO ISZERO PUSH1 0x5 SHL DUP3 ADD ADD CODESIZE DUP1 DUP1 PUSH2 0x3B68 JUMP JUMPDEST PUSH1 0x0 JUMPDEST DUP4 DUP2 LT PUSH2 0x3BED JUMPI POP POP PUSH1 0x0 SWAP2 ADD MSTORE JUMP JUMPDEST DUP2 DUP2 ADD MLOAD DUP4 DUP3 ADD MSTORE PUSH1 0x20 ADD PUSH2 0x3BDD JUMP JUMPDEST SWAP1 PUSH1 0x20 SWAP2 PUSH2 0x3C16 DUP2 MLOAD DUP1 SWAP3 DUP2 DUP6 MSTORE DUP6 DUP1 DUP7 ADD SWAP2 ADD PUSH2 0x3BDA JUMP JUMPDEST PUSH1 0x1F ADD PUSH1 0x1F NOT AND ADD ADD SWAP1 JUMP JUMPDEST SWAP1 PUSH1 0x6 DUP3 LT ISZERO PUSH2 0x57C JUMPI MSTORE JUMP JUMPDEST SWAP1 PUSH1 0x3 DUP3 LT ISZERO PUSH2 0x57C JUMPI MSTORE JUMP JUMPDEST PUSH1 0x24 CALLDATALOAD SWAP1 DUP2 ISZERO ISZERO DUP3 SUB PUSH2 0x2EB JUMPI JUMP JUMPDEST PUSH1 0x40 SWAP1 PUSH1 0x3 NOT ADD SLT PUSH2 0x2EB JUMPI PUSH1 0x4 CALLDATALOAD SWAP1 PUSH1 0x24 CALLDATALOAD SWAP1 JUMP JUMPDEST PUSH1 0x24 CALLDATALOAD SWAP1 PUSH1 0x1 PUSH1 0x1 PUSH1 0xA0 SHL SUB DUP3 AND DUP3 SUB PUSH2 0x2EB JUMPI JUMP JUMPDEST PUSH1 0x4 CALLDATALOAD SWAP1 PUSH1 0x1 PUSH1 0x1 PUSH1 0xA0 SHL SUB DUP3 AND DUP3 SUB PUSH2 0x2EB JUMPI JUMP JUMPDEST SWAP2 DUP2 PUSH1 0x1F DUP5 ADD SLT ISZERO PUSH2 0x2EB JUMPI DUP3 CALLDATALOAD SWAP2 PUSH1 0x1 PUSH1 0x1 PUSH1 0x40 SHL SUB DUP4 GT PUSH2 0x2EB JUMPI PUSH1 0x20 DUP1 DUP6 ADD SWAP5 DUP5 PUSH1 0x5 SHL ADD ADD GT PUSH2 0x2EB JUMPI JUMP JUMPDEST ISZERO PUSH2 0x3CC4 JUMPI JUMP JUMPDEST PUSH1 0x40 MLOAD PUSH3 0x461BCD PUSH1 0xE5 SHL DUP2 MSTORE PUSH1 0x20 PUSH1 0x4 DUP3 ADD MSTORE PUSH1 0x13 PUSH1 0x24 DUP3 ADD MSTORE PUSH19 0x11D85B5948191BD95CC81B9BDD08195E1A5CDD PUSH1 0x6A SHL PUSH1 0x44 DUP3 ADD MSTORE PUSH1 0x64 SWAP1 REVERT JUMPDEST ISZERO PUSH2 0x3D06 JUMPI JUMP JUMPDEST PUSH1 0x40 MLOAD PUSH3 0x461BCD PUSH1 0xE5 SHL DUP2 MSTORE PUSH1 0x20 PUSH1 0x4 DUP3 ADD MSTORE PUSH1 0xF PUSH1 0x24 DUP3 ADD MSTORE PUSH15 0x11D85B59481B9BDD081CDBDB1D9959 PUSH1 0x8A SHL PUSH1 0x44 DUP3 ADD MSTORE PUSH1 0x64 SWAP1 REVERT JUMPDEST SWAP1 DUP2 PUSH1 0x20 SWAP2 SUB SLT PUSH2 0x2EB JUMPI MLOAD DUP1 ISZERO ISZERO DUP2 SUB PUSH2 0x2EB JUMPI SWAP1 JUMP JUMPDEST PUSH1 0x0 NOT DUP2 EQ PUSH2 0xD1E JUMPI PUSH1 0x1 ADD SWAP1 JUMP JUMPDEST ISZERO PUSH2 0x3D6B JUMPI JUMP JUMPDEST PUSH1 0x40 MLOAD PUSH3 0x461BCD PUSH1 0xE5 SHL DUP2 MSTORE PUSH1 0x20 PUSH1 0x4 DUP3 ADD MSTORE PUSH1 0xB PUSH1 0x24 DUP3 ADD MSTORE PUSH11 0x4E6F742070656E64696E67 PUSH1 0xA8 SHL PUSH1 0x44 DUP3 ADD MSTORE PUSH1 0x64 SWAP1 REVERT JUMPDEST ISZERO PUSH2 0x3DA5 JUMPI JUMP JUMPDEST PUSH1 0x40 MLOAD PUSH3 0x461BCD PUSH1 0xE5 SHL DUP2 MSTORE PUSH1 0x20 PUSH1 0x4 DUP3 ADD MSTORE PUSH1 0x10 PUSH1 0x24 DUP3 ADD MSTORE PUSH16 0x159BDD194818D85C081C995858DA1959 PUSH1 0x82 SHL PUSH1 0x44 DUP3 ADD MSTORE PUSH1 0x64 SWAP1 REVERT JUMPDEST ISZERO PUSH2 0x3DE4 JUMPI JUMP JUMPDEST PUSH1 0x40 MLOAD PUSH3 0x461BCD PUSH1 0xE5 SHL DUP2 MSTORE PUSH1 0x20 PUSH1 0x4 DUP3 ADD MSTORE PUSH1 0x12 PUSH1 0x24 DUP3 ADD MSTORE PUSH18 0x105B5BDD5B9D08195E18D959591CC81C1BDD PUSH1 0x72 SHL PUSH1 0x44 DUP3 ADD MSTORE PUSH1 0x64 SWAP1 REVERT JUMPDEST SWAP2 SWAP1 DUP3 ADD DUP1 SWAP3 GT PUSH2 0xD1E JUMPI JUMP JUMPDEST PUSH1 0x3 DUP3 LT ISZERO PUSH2 0x57C JUMPI MSTORE JUMP JUMPDEST ISZERO PUSH2 0x3E3E JUMPI JUMP JUMPDEST PUSH1 0x40 MLOAD PUSH3 0x461BCD PUSH1 0xE5 SHL DUP2 MSTORE PUSH1 0x20 PUSH1 0x4 DUP3 ADD MSTORE PUSH1 0x19 PUSH1 0x24 DUP3 ADD MSTORE PUSH32 0x4E6F74206177616974696E6720766572696669636174696F6E00000000000000 PUSH1 0x44 DUP3 ADD MSTORE PUSH1 0x64 SWAP1 REVERT JUMPDEST ISZERO PUSH2 0x3E8A JUMPI JUMP JUMPDEST PUSH1 0x40 MLOAD PUSH3 0x461BCD PUSH1 0xE5 SHL DUP2 MSTORE PUSH1 0x20 PUSH1 0x4 DUP3 ADD MSTORE PUSH1 0xF PUSH1 0x24 DUP3 ADD MSTORE PUSH15 0x15DA5D1A191C985DC819985A5B1959 PUSH1 0x8A SHL PUSH1 0x44 DUP3 ADD MSTORE PUSH1 0x64 SWAP1 REVERT JUMPDEST RETURNDATASIZE ISZERO PUSH2 0x3EEC JUMPI RETURNDATASIZE SWAP1 PUSH2 0x3ED2 DUP3 PUSH2 0x3A67 JUMP JUMPDEST SWAP2 PUSH2 0x3EE0 PUSH1 0x40 MLOAD SWAP4 DUP5 PUSH2 0x3A46 JUMP JUMPDEST DUP3 MSTORE RETURNDATASIZE PUSH1 0x0 PUSH1 0x20 DUP5 ADD RETURNDATACOPY JUMP JUMPDEST PUSH1 0x60 SWAP1 JUMP JUMPDEST ISZERO PUSH2 0x3EF8 JUMPI JUMP JUMPDEST PUSH1 0x40 MLOAD PUSH3 0x461BCD PUSH1 0xE5 SHL DUP2 MSTORE PUSH1 0x20 PUSH1 0x4 DUP3 ADD MSTORE PUSH1 0xE PUSH1 0x24 DUP3 ADD MSTORE PUSH14 0x105B1C9958591E481CDBDB1D9959 PUSH1 0x92 SHL PUSH1 0x44 DUP3 ADD MSTORE PUSH1 0x64 SWAP1 REVERT JUMPDEST DUP2 DUP2 LT PUSH2 0x3F39 JUMPI POP POP JUMP JUMPDEST PUSH1 0x0 DUP2 SSTORE PUSH1 0x1 ADD PUSH2 0x3F2E JUMP JUMPDEST DUP2 DUP2 MUL SWAP3 SWAP2 DUP2 ISZERO SWAP2 DUP5 DIV EQ OR ISZERO PUSH2 0xD1E JUMPI JUMP JUMPDEST PUSH2 0x3F62 DUP2 SLOAD PUSH2 0x3AFB JUMP JUMPDEST SWAP1 DUP2 PUSH2 0x3F6C JUMPI POP POP JUMP JUMPDEST DUP2 PUSH1 0x1F PUSH1 0x0 SWAP4 GT PUSH1 0x1 EQ PUSH2 0x3F7E JUMPI POP SSTORE JUMP JUMPDEST SWAP1 DUP1 DUP4 SWAP2 DUP3 MSTORE PUSH2 0x3F9D PUSH1 0x1F PUSH1 0x20 DUP5 KECCAK256 SWAP5 ADD PUSH1 0x5 SHR DUP5 ADD PUSH1 0x1 DUP6 ADD PUSH2 0x3F2E JUMP JUMPDEST SSTORE SSTORE JUMP JUMPDEST ISZERO PUSH2 0x3FA8 JUMPI JUMP JUMPDEST PUSH1 0x40 MLOAD PUSH3 0x461BCD PUSH1 0xE5 SHL DUP2 MSTORE PUSH1 0x20 PUSH1 0x4 DUP3 ADD MSTORE PUSH1 0xC PUSH1 0x24 DUP3 ADD MSTORE PUSH12 0x155B985D5D1A1BDC9A5E9959 PUSH1 0xA2 SHL PUSH1 0x44 DUP3 ADD MSTORE PUSH1 0x64 SWAP1 REVERT JUMPDEST ISZERO PUSH2 0x3FE3 JUMPI JUMP JUMPDEST PUSH1 0x40 MLOAD PUSH3 0x461BCD PUSH1 0xE5 SHL DUP2 MSTORE PUSH1 0x20 PUSH1 0x4 DUP3 ADD MSTORE PUSH1 0xD PUSH1 0x24 DUP3 ADD MSTORE PUSH13 0x14185E5BDD5D0819985A5B1959 PUSH1 0x9A SHL PUSH1 0x44 DUP3 ADD MSTORE PUSH1 0x64 SWAP1 REVERT JUMPDEST ISZERO PUSH2 0x401F JUMPI JUMP JUMPDEST PUSH1 0x40 MLOAD PUSH3 0x461BCD PUSH1 0xE5 SHL DUP2 MSTORE PUSH1 0x20 PUSH1 0x4 DUP3 ADD MSTORE PUSH1 0x11 PUSH1 0x24 DUP3 ADD MSTORE PUSH17 0x125B9D985B1A59081D1A1C995CDA1BDB19 PUSH1 0x7A SHL PUSH1 0x44 DUP3 ADD MSTORE PUSH1 0x64 SWAP1 REVERT JUMPDEST SWAP2 SWAP1 DUP2 LT ISZERO PUSH2 0x4068 JUMPI PUSH1 0x5 SHL ADD SWAP1 JUMP JUMPDEST PUSH4 0x4E487B71 PUSH1 0xE0 SHL PUSH1 0x0 MSTORE PUSH1 0x32 PUSH1 0x4 MSTORE PUSH1 0x24 PUSH1 0x0 REVERT JUMPDEST ISZERO PUSH2 0x4085 JUMPI JUMP JUMPDEST PUSH1 0x40 MLOAD PUSH3 0x461BCD PUSH1 0xE5 SHL DUP2 MSTORE PUSH1 0x20 PUSH1 0x4 DUP3 ADD MSTORE PUSH1 0xF PUSH1 0x24 DUP3 ADD MSTORE PUSH15 0x111BDB985D1A5BDB8819985A5B1959 PUSH1 0x8A SHL PUSH1 0x44 DUP3 ADD MSTORE PUSH1 0x64 SWAP1 REVERT JUMPDEST PUSH1 0x2 PUSH1 0x0 SLOAD EQ PUSH2 0x40CD JUMPI PUSH1 0x2 PUSH1 0x0 SSTORE JUMP JUMPDEST PUSH1 0x40 MLOAD PUSH3 0x461BCD PUSH1 0xE5 SHL DUP2 MSTORE PUSH1 0x20 PUSH1 0x4 DUP3 ADD MSTORE PUSH1 0x1F PUSH1 0x24 DUP3 ADD MSTORE PUSH32 0x5265656E7472616E637947756172643A207265656E7472616E742063616C6C00 PUSH1 0x44 DUP3 ADD MSTORE PUSH1 0x64 SWAP1 REVERT JUMPDEST CALLER PUSH1 0x0 SWAP1 DUP2 MSTORE PUSH32 0x1614B4E5E0F135C54873C4DCD295A7B40F93A8D877405AFFC188CFD7B4F40ED2 PUSH1 0x20 SWAP1 DUP2 MSTORE PUSH1 0x40 DUP1 DUP4 KECCAK256 SLOAD SWAP1 SWAP3 PUSH32 0xBF233DD2AAFEB4D50879C4AA5C81E96D92F6E6945C906A58F9F2D1C1631B4B26 SWAP2 PUSH1 0x1 SWAP1 PUSH1 0xFF AND ISZERO PUSH2 0x417A JUMPI POP POP POP POP POP JUMP JUMPDEST PUSH2 0x4183 CALLER PUSH2 0x4988 JUMP JUMPDEST SWAP3 DUP6 MLOAD SWAP2 PUSH2 0x4190 DUP4 PUSH2 0x3A2B JUMP JUMPDEST PUSH1 0x42 DUP4 MSTORE DUP6 DUP4 ADD SWAP4 PUSH1 0x60 CALLDATASIZE DUP7 CALLDATACOPY DUP4 MLOAD ISZERO PUSH2 0x431A JUMPI PUSH1 0x30 DUP6 MSTORE8 DUP4 MLOAD PUSH1 0x1 LT ISZERO PUSH2 0x431A JUMPI SWAP1 PUSH1 0x78 PUSH1 0x21 DUP6 ADD MSTORE8 PUSH1 0x41 SWAP2 JUMPDEST DUP2 DUP4 GT PUSH2 0x42AC JUMPI POP POP POP PUSH2 0x426A JUMPI PUSH1 0x48 PUSH2 0x4266 SWAP4 DUP7 SWAP4 PUSH2 0x424A SWAP4 PUSH2 0x423B SWAP9 MLOAD SWAP9 DUP10 SWAP4 PUSH23 0x20B1B1B2B9B9A1B7B73A3937B61D1030B1B1B7BAB73A1 PUSH1 0x4D SHL DUP11 DUP7 ADD MSTORE PUSH2 0x4212 DUP2 MLOAD DUP1 SWAP3 DUP13 PUSH1 0x37 DUP10 ADD SWAP2 ADD PUSH2 0x3BDA JUMP JUMPDEST DUP5 ADD SWAP2 PUSH17 0x1034B99036B4B9B9B4B733903937B6329 PUSH1 0x7D SHL PUSH1 0x37 DUP5 ADD MSTORE MLOAD DUP1 SWAP4 DUP7 DUP5 ADD SWAP1 PUSH2 0x3BDA JUMP JUMPDEST ADD SUB PUSH1 0x28 DUP2 ADD DUP8 MSTORE ADD DUP6 PUSH2 0x3A46 JUMP JUMPDEST MLOAD SWAP3 DUP4 SWAP3 PUSH3 0x461BCD PUSH1 0xE5 SHL DUP5 MSTORE PUSH1 0x4 DUP5 ADD MSTORE PUSH1 0x24 DUP4 ADD SWAP1 PUSH2 0x3BFD JUMP JUMPDEST SUB SWAP1 REVERT JUMPDEST PUSH1 0x64 DUP5 DUP7 MLOAD SWAP1 PUSH3 0x461BCD PUSH1 0xE5 SHL DUP3 MSTORE DUP1 PUSH1 0x4 DUP4 ADD MSTORE PUSH1 0x24 DUP3 ADD MSTORE PUSH32 0x537472696E67733A20686578206C656E67746820696E73756666696369656E74 PUSH1 0x44 DUP3 ADD MSTORE REVERT JUMPDEST SWAP1 SWAP2 SWAP3 PUSH1 0xF DUP2 AND PUSH1 0x10 DUP2 LT ISZERO PUSH2 0x4306 JUMPI PUSH16 0x181899199A1A9B1B9C1CB0B131B232B3 PUSH1 0x81 SHL SWAP1 BYTE PUSH2 0x42DC DUP6 DUP8 PUSH2 0x4977 JUMP JUMPDEST MSTORE8 PUSH1 0x4 SHR SWAP3 DUP1 ISZERO PUSH2 0x42F2 JUMPI PUSH1 0x0 NOT ADD SWAP2 SWAP1 PUSH2 0x41BE JUMP JUMPDEST PUSH4 0x4E487B71 PUSH1 0xE0 SHL DUP3 MSTORE PUSH1 0x11 PUSH1 0x4 MSTORE PUSH1 0x24 DUP3 REVERT JUMPDEST PUSH4 0x4E487B71 PUSH1 0xE0 SHL DUP4 MSTORE PUSH1 0x32 PUSH1 0x4 MSTORE PUSH1 0x24 DUP4 REVERT JUMPDEST PUSH4 0x4E487B71 PUSH1 0xE0 SHL DUP2 MSTORE PUSH1 0x32 PUSH1 0x4 MSTORE PUSH1 0x24 SWAP1 REVERT JUMPDEST CALLER PUSH1 0x0 SWAP1 DUP2 MSTORE PUSH32 0xA6EEF7E35ABE7026729641147F7915573C7E97B47EFA546F5F6E3230263BCB49 PUSH1 0x20 SWAP1 DUP2 MSTORE PUSH1 0x40 DUP1 DUP4 KECCAK256 SLOAD SWAP1 SWAP3 PUSH1 0x1 SWAP2 PUSH1 0xFF AND ISZERO PUSH2 0x4373 JUMPI POP POP POP POP JUMP JUMPDEST PUSH2 0x437C CALLER PUSH2 0x4988 JUMP JUMPDEST SWAP2 DUP2 DUP6 MLOAD SWAP2 PUSH2 0x438A DUP4 PUSH2 0x3A2B JUMP JUMPDEST PUSH1 0x42 DUP4 MSTORE DUP6 DUP4 ADD SWAP4 PUSH1 0x60 CALLDATASIZE DUP7 CALLDATACOPY DUP4 MLOAD ISZERO PUSH2 0x431A JUMPI PUSH1 0x30 DUP6 MSTORE8 DUP4 MLOAD PUSH1 0x1 LT ISZERO PUSH2 0x431A JUMPI SWAP1 PUSH1 0x78 PUSH1 0x21 DUP6 ADD MSTORE8 PUSH1 0x41 SWAP2 JUMPDEST DUP2 DUP4 GT PUSH2 0x440C JUMPI POP POP POP PUSH2 0x426A JUMPI PUSH1 0x48 PUSH2 0x4266 SWAP4 DUP7 SWAP4 PUSH2 0x424A SWAP4 PUSH2 0x423B SWAP9 MLOAD SWAP9 DUP10 SWAP4 PUSH23 0x20B1B1B2B9B9A1B7B73A3937B61D1030B1B1B7BAB73A1 PUSH1 0x4D SHL DUP11 DUP7 ADD MSTORE PUSH2 0x4212 DUP2 MLOAD DUP1 SWAP3 DUP13 PUSH1 0x37 DUP10 ADD SWAP2 ADD PUSH2 0x3BDA JUMP JUMPDEST SWAP1 SWAP2 SWAP3 PUSH1 0xF DUP2 AND PUSH1 0x10 DUP2 LT ISZERO PUSH2 0x4306 JUMPI PUSH16 0x181899199A1A9B1B9C1CB0B131B232B3 PUSH1 0x81 SHL SWAP1 BYTE PUSH2 0x443C DUP6 DUP8 PUSH2 0x4977 JUMP JUMPDEST MSTORE8 PUSH1 0x4 SHR SWAP3 DUP1 ISZERO PUSH2 0x42F2 JUMPI PUSH1 0x0 NOT ADD SWAP2 SWAP1 PUSH2 0x43B8 JUMP JUMPDEST CALLER PUSH1 0x0 SWAP1 DUP2 MSTORE PUSH32 0xE161ABE49421BDBE04B54EE9F794DBF668947C663B3C53CBADB88CDD90C50278 PUSH1 0x20 SWAP1 DUP2 MSTORE PUSH1 0x40 DUP1 DUP4 KECCAK256 SLOAD SWAP1 SWAP3 PUSH32 0xC63907609C1C518C230A90524384EDC1A25DF2F21481DDB99BEF5E2444C35EF0 SWAP2 PUSH1 0x1 SWAP1 PUSH1 0xFF AND ISZERO PUSH2 0x44BA JUMPI POP POP POP POP POP JUMP JUMPDEST PUSH2 0x44C3 CALLER PUSH2 0x4988 JUMP JUMPDEST SWAP3 DUP6 MLOAD SWAP2 PUSH2 0x44D0 DUP4 PUSH2 0x3A2B JUMP JUMPDEST PUSH1 0x42 DUP4 MSTORE DUP6 DUP4 ADD SWAP4 PUSH1 0x60 CALLDATASIZE DUP7 CALLDATACOPY DUP4 MLOAD ISZERO PUSH2 0x431A JUMPI PUSH1 0x30 DUP6 MSTORE8 DUP4 MLOAD PUSH1 0x1 LT ISZERO PUSH2 0x431A JUMPI SWAP1 PUSH1 0x78 PUSH1 0x21 DUP6 ADD MSTORE8 PUSH1 0x41 SWAP2 JUMPDEST DUP2 DUP4 GT PUSH2 0x4552 JUMPI POP POP POP PUSH2 0x426A JUMPI PUSH1 0x48 PUSH2 0x4266 SWAP4 DUP7 SWAP4 PUSH2 0x424A SWAP4 PUSH2 0x423B SWAP9 MLOAD SWAP9 DUP10 SWAP4 PUSH23 0x20B1B1B2B9B9A1B7B73A3937B61D1030B1B1B7BAB73A1 PUSH1 0x4D SHL DUP11 DUP7 ADD MSTORE PUSH2 0x4212 DUP2 MLOAD DUP1 SWAP3 DUP13 PUSH1 0x37 DUP10 ADD SWAP2 ADD PUSH2 0x3BDA JUMP JUMPDEST SWAP1 SWAP2 SWAP3 PUSH1 0xF DUP2 AND PUSH1 0x10 DUP2 LT ISZERO PUSH2 0x4306 JUMPI PUSH16 0x181899199A1A9B1B9C1CB0B131B232B3 PUSH1 0x81 SHL SWAP1 BYTE PUSH2 0x4582 DUP6 DUP8 PUSH2 0x4977 JUMP JUMPDEST MSTORE8 PUSH1 0x4 SHR SWAP3 DUP1 ISZERO PUSH2 0x42F2 JUMPI PUSH1 0x0 NOT ADD SWAP2 SWAP1 PUSH2 0x44FE JUMP JUMPDEST PUSH1 0x0 DUP2 DUP2 MSTORE PUSH1 0x1 SWAP2 PUSH1 0x20 SWAP2 PUSH1 0x1 DUP4 MSTORE PUSH1 0x40 SWAP4 DUP5 DUP3 KECCAK256 CALLER DUP4 MSTORE DUP5 MSTORE PUSH1 0xFF DUP6 DUP4 KECCAK256 SLOAD AND ISZERO PUSH2 0x45C5 JUMPI POP POP POP POP POP JUMP JUMPDEST PUSH2 0x45CE CALLER PUSH2 0x4988 JUMP JUMPDEST SWAP3 DUP6 MLOAD SWAP2 PUSH2 0x45DB DUP4 PUSH2 0x3A2B JUMP JUMPDEST PUSH1 0x42 DUP4 MSTORE DUP6 DUP4 ADD SWAP4 PUSH1 0x60 CALLDATASIZE DUP7 CALLDATACOPY DUP4 MLOAD ISZERO PUSH2 0x431A JUMPI PUSH1 0x30 DUP6 MSTORE8 DUP4 MLOAD PUSH1 0x1 LT ISZERO PUSH2 0x431A JUMPI SWAP1 PUSH1 0x78 PUSH1 0x21 DUP6 ADD MSTORE8 PUSH1 0x41 SWAP2 JUMPDEST DUP2 DUP4 GT PUSH2 0x465D JUMPI POP POP POP PUSH2 0x426A JUMPI PUSH1 0x48 PUSH2 0x4266 SWAP4 DUP7 SWAP4 PUSH2 0x424A SWAP4 PUSH2 0x423B SWAP9 MLOAD SWAP9 DUP10 SWAP4 PUSH23 0x20B1B1B2B9B9A1B7B73A3937B61D1030B1B1B7BAB73A1 PUSH1 0x4D SHL DUP11 DUP7 ADD MSTORE PUSH2 0x4212 DUP2 MLOAD DUP1 SWAP3 DUP13 PUSH1 0x37 DUP10 ADD SWAP2 ADD PUSH2 0x3BDA JUMP JUMPDEST SWAP1 SWAP2 SWAP3 PUSH1 0xF DUP2 AND PUSH1 0x10 DUP2 LT ISZERO PUSH2 0x4306 JUMPI PUSH16 0x181899199A1A9B1B9C1CB0B131B232B3 PUSH1 0x81 SHL SWAP1 BYTE PUSH2 0x468D DUP6 DUP8 PUSH2 0x4977 JUMP JUMPDEST MSTORE8 PUSH1 0x4 SHR SWAP3 DUP1 ISZERO PUSH2 0x42F2 JUMPI PUSH1 0x0 NOT ADD SWAP2 SWAP1 PUSH2 0x4609 JUMP JUMPDEST SWAP1 PUSH1 0x0 SWAP2 DUP1 DUP4 MSTORE PUSH1 0x1 PUSH1 0x20 MSTORE PUSH1 0x40 DUP4 KECCAK256 SWAP2 PUSH1 0x1 DUP1 PUSH1 0xA0 SHL SUB AND SWAP2 DUP3 DUP5 MSTORE PUSH1 0x20 MSTORE PUSH1 0xFF PUSH1 0x40 DUP5 KECCAK256 SLOAD AND PUSH2 0x46D4 JUMPI POP POP POP JUMP JUMPDEST DUP1 DUP4 MSTORE PUSH1 0x1 PUSH1 0x20 MSTORE PUSH1 0x40 DUP4 KECCAK256 DUP3 DUP5 MSTORE PUSH1 0x20 MSTORE PUSH1 0x40 DUP4 KECCAK256 PUSH1 0xFF NOT DUP2 SLOAD AND SWAP1 SSTORE PUSH32 0xF6391F5C32D9C69D2A47EA670B442974B53935D1EDC7FD64EB21E047A839171B CALLER SWAP4 DUP1 LOG4 JUMP JUMPDEST SWAP2 SWAP1 DUP3 SUB SWAP2 DUP3 GT PUSH2 0xD1E JUMPI JUMP JUMPDEST PUSH1 0x5 DUP2 ADD DUP1 SLOAD SWAP2 SWAP4 SWAP3 PUSH1 0x1 PUSH1 0x1 PUSH1 0xA0 SHL SUB SWAP3 SWAP1 SWAP2 SWAP1 DUP4 AND DUP1 PUSH2 0x47C8 JUMPI POP POP PUSH1 0x6 SWAP1 PUSH1 0x0 SWAP4 DUP4 DUP6 SWAP5 SWAP4 DUP6 DUP1 DUP1 DUP1 DUP1 SWAP9 SWAP8 DUP2 SWAP9 PUSH1 0xD SLOAD AND GAS CALL SWAP8 PUSH2 0x4766 PUSH2 0x3EC1 JUMP JUMPDEST POP ADD SLOAD AND GAS CALL PUSH2 0x4774 PUSH2 0x3EC1 JUMP JUMPDEST POP DUP2 PUSH2 0x47C0 JUMPI JUMPDEST POP ISZERO PUSH2 0x4783 JUMPI JUMP JUMPDEST PUSH1 0x40 MLOAD PUSH3 0x461BCD PUSH1 0xE5 SHL DUP2 MSTORE PUSH1 0x20 PUSH1 0x4 DUP3 ADD MSTORE PUSH1 0x15 PUSH1 0x24 DUP3 ADD MSTORE PUSH21 0x14DA185C99481D1C985B9CD9995C8819985A5B1959 PUSH1 0x5A SHL PUSH1 0x44 DUP3 ADD MSTORE PUSH1 0x64 SWAP1 REVERT JUMPDEST SWAP1 POP CODESIZE PUSH2 0x477B JUMP JUMPDEST PUSH1 0xD SLOAD PUSH1 0x40 DUP1 MLOAD PUSH4 0xA9059CBB PUSH1 0xE0 SHL DUP1 DUP3 MSTORE SWAP3 DUP8 AND PUSH1 0x1 PUSH1 0x1 PUSH1 0xA0 SHL SUB AND PUSH1 0x4 DUP3 ADD MSTORE PUSH1 0x24 DUP2 ADD SWAP6 SWAP1 SWAP6 MSTORE PUSH1 0x20 SWAP8 SWAP1 SWAP7 SWAP3 SWAP6 SWAP3 SWAP5 SWAP1 SWAP4 SWAP2 SWAP3 SWAP2 SWAP1 DUP9 DUP2 DUP1 PUSH1 0x44 DUP2 ADD SUB DUP2 PUSH1 0x0 DUP1 SWAP12 GAS CALL SWAP1 DUP2 ISZERO PUSH2 0x4929 JUMPI DUP8 SWAP2 PUSH2 0x490C JUMPI JUMPDEST POP ISZERO PUSH2 0x48D3 JUMPI SLOAD PUSH1 0x6 SWAP4 SWAP1 SWAP4 ADD SLOAD DUP7 MLOAD SWAP3 DUP4 MSTORE DUP2 AND PUSH1 0x1 PUSH1 0x1 PUSH1 0xA0 SHL SUB AND PUSH1 0x4 DUP4 ADD MSTORE PUSH1 0x24 DUP3 ADD SWAP4 SWAP1 SWAP4 MSTORE SWAP2 DUP6 SWAP2 DUP4 SWAP2 PUSH1 0x44 SWAP2 DUP4 SWAP2 DUP8 SWAP2 AND GAS CALL SWAP2 DUP3 ISZERO PUSH2 0x48C8 JUMPI SWAP2 PUSH2 0x48AB JUMPI JUMPDEST POP ISZERO PUSH2 0x4870 JUMPI POP POP JUMP JUMPDEST PUSH1 0x64 SWAP3 POP MLOAD SWAP1 PUSH3 0x461BCD PUSH1 0xE5 SHL DUP3 MSTORE PUSH1 0x4 DUP3 ADD MSTORE PUSH1 0x15 PUSH1 0x24 DUP3 ADD MSTORE PUSH21 0x141C9BDC1BDCD95C881CDA185C994819985A5B1959 PUSH1 0x5A SHL PUSH1 0x44 DUP3 ADD MSTORE REVERT JUMPDEST PUSH2 0x48C2 SWAP2 POP DUP4 RETURNDATASIZE DUP6 GT PUSH2 0x4C1 JUMPI PUSH2 0x4B3 DUP2 DUP4 PUSH2 0x3A46 JUMP JUMPDEST CODESIZE PUSH2 0x4866 JUMP JUMPDEST DUP4 MLOAD SWAP1 RETURNDATASIZE SWAP1 DUP3 RETURNDATACOPY RETURNDATASIZE SWAP1 REVERT JUMPDEST DUP7 MLOAD PUSH3 0x461BCD PUSH1 0xE5 SHL DUP2 MSTORE PUSH1 0x4 DUP2 ADD DUP10 SWAP1 MSTORE PUSH1 0x12 PUSH1 0x24 DUP3 ADD MSTORE PUSH18 0x121BDD5CD9481CDA185C994819985A5B1959 PUSH1 0x72 SHL PUSH1 0x44 DUP3 ADD MSTORE PUSH1 0x64 SWAP1 REVERT JUMPDEST PUSH2 0x4923 SWAP2 POP DUP10 RETURNDATASIZE DUP12 GT PUSH2 0x4C1 JUMPI PUSH2 0x4B3 DUP2 DUP4 PUSH2 0x3A46 JUMP JUMPDEST CODESIZE PUSH2 0x481F JUMP JUMPDEST DUP9 MLOAD RETURNDATASIZE DUP10 DUP3 RETURNDATACOPY RETURNDATASIZE SWAP1 REVERT JUMPDEST PUSH1 0xFF PUSH1 0x2 SLOAD AND PUSH2 0x493F JUMPI JUMP JUMPDEST PUSH1 0x40 MLOAD PUSH3 0x461BCD PUSH1 0xE5 SHL DUP2 MSTORE PUSH1 0x20 PUSH1 0x4 DUP3 ADD MSTORE PUSH1 0x10 PUSH1 0x24 DUP3 ADD MSTORE PUSH16 0x14185D5CD8589B194E881C185D5CD959 PUSH1 0x82 SHL PUSH1 0x44 DUP3 ADD MSTORE PUSH1 0x64 SWAP1 REVERT JUMPDEST SWAP1 DUP2 MLOAD DUP2 LT ISZERO PUSH2 0x4068 JUMPI ADD PUSH1 0x20 ADD SWAP1 JUMP JUMPDEST PUSH1 0x40 MLOAD SWAP1 PUSH1 0x60 DUP3 ADD DUP3 DUP2 LT PUSH1 0x1 PUSH1 0x1 PUSH1 0x40 SHL SUB DUP3 GT OR PUSH2 0x7E9 JUMPI PUSH1 0x40 MSTORE PUSH1 0x2A DUP3 MSTORE PUSH1 0x20 DUP3 ADD PUSH1 0x40 CALLDATASIZE DUP3 CALLDATACOPY DUP3 MLOAD ISZERO PUSH2 0x4068 JUMPI PUSH1 0x30 SWAP1 MSTORE8 DUP2 MLOAD PUSH1 0x1 SWAP1 PUSH1 0x1 LT ISZERO PUSH2 0x4068 JUMPI PUSH1 0x78 PUSH1 0x21 DUP5 ADD MSTORE8 PUSH1 0x29 SWAP1 JUMPDEST DUP1 DUP3 GT PUSH2 0x4A29 JUMPI POP POP PUSH2 0x49E5 JUMPI SWAP1 JUMP JUMPDEST PUSH1 0x64 PUSH1 0x40 MLOAD PUSH3 0x461BCD PUSH1 0xE5 SHL DUP2 MSTORE PUSH1 0x20 PUSH1 0x4 DUP3 ADD MSTORE PUSH1 0x20 PUSH1 0x24 DUP3 ADD MSTORE PUSH32 0x537472696E67733A20686578206C656E67746820696E73756666696369656E74 PUSH1 0x44 DUP3 ADD MSTORE REVERT JUMPDEST SWAP1 SWAP2 PUSH1 0xF DUP2 AND PUSH1 0x10 DUP2 LT ISZERO PUSH2 0x4A82 JUMPI PUSH16 0x181899199A1A9B1B9C1CB0B131B232B3 PUSH1 0x81 SHL SWAP1 BYTE PUSH2 0x4A58 DUP5 DUP7 PUSH2 0x4977 JUMP JUMPDEST MSTORE8 PUSH1 0x4 SHR SWAP2 DUP1 ISZERO PUSH2 0x4A6D JUMPI PUSH1 0x0 NOT ADD SWAP1 PUSH2 0x49D5 JUMP JUMPDEST PUSH1 0x24 PUSH1 0x0 PUSH4 0x4E487B71 PUSH1 0xE0 SHL DUP2 MSTORE PUSH1 0x11 PUSH1 0x4 MSTORE REVERT JUMPDEST PUSH1 0x24 PUSH1 0x0 PUSH4 0x4E487B71 PUSH1 0xE0 SHL DUP2 MSTORE PUSH1 0x32 PUSH1 0x4 MSTORE REVERT INVALID LOG2 PUSH5 0x6970667358 0x22 SLT KECCAK256 DUP9 0xD0 PUSH6 0x23A196953D23 0xCA MSTORE PUSH29 0x604C56611F5E8E7F6907E50EA32D1C8426B8CB3664736F6C6343000818 STOP CALLER 0x2F DUP8 DUP9 GT PUSH31 0x7EFF1D82E926EC794901D17C78024A50270940304540A733656F0D00000000 "},"methodIdentifiers":{"DEFAULT_ADMIN_ROLE()":"a217fddf","EMERGENCY_ROLE()":"20df4359","GAME_VERIFIER_ROLE()":"f474e6b8","MAX_CHALLENGES_PER_GAME()":"8972c1b4","MAX_VOTES_PER_GAME()":"ce26ad4c","ORACLE_VERIFICATION_TIMEOUT()":"25bd8de8","ORACLE_VERIFIER_ROLE()":"1f2ad4d4","approveMathSolution(uint256,address,bool)":"425ae6ec","batchVerifyMathSolutions(uint256[],address[],bool[])":"d2fcf4b3","cancelProposal(uint256)":"e0a8f6f5","challengeFee()":"1bd8f9ca","challengeSolution(uint256,string)":"10806369","challengeThreshold()":"bb2239d6","donateToGame(uint256,uint256)":"f5372e73","emergencyWithdrawTimelock(uint256)":"24b4c063","executeEmergencyWithdraw(uint256,uint256,uint256)":"3cb5b347","finalizeGame(uint256)":"771197ee","games(uint256)":"117a5b90","getActiveGames(uint256,uint256)":"e3c99d08","getGameDetails(uint256)":"1b31abda","getPastWinner(uint256)":"ea697ac0","getPotBalance(uint256)":"7ecc811d","getRoleAdmin(bytes32)":"248a9ca3","getSubmittedSolution(uint256,address)":"334b7f4e","grantOracleVerifierRole(address)":"63a1332c","grantRole(bytes32,address)":"2f2ff15d","hasRole(bytes32,address)":"91d14854","houseAddress()":"d7cee31e","houseCutPercentage()":"ca1938e5","invalidateGame(uint256)":"a6656096","nextIdByProposer(address)":"f9174c27","pastWinners(uint256)":"e499e79c","pause()":"8456cb59","paused()":"5c975abb","processExpiredVerifications(uint256)":"1fd2f250","proposalApprovals(uint256)":"0d93d28a","proposalDisapprovals(uint256)":"cf2fdfd9","proposalVotes(uint256,address)":"8e1f6a2c","proposePuzzle(string,bytes32,uint256,address,uint256,uint8,string)":"6beb83a8","renounceRole(bytes32,address)":"36568abe","requestEmergencyWithdraw(uint256,uint256)":"19c1c731","resetGame(uint256)":"4cf052d5","revokeRole(bytes32,address)":"d547741f","setChallengeFee(uint256)":"35bf82f6","setChallengeThreshold(uint256)":"9d927ecd","setEntryFee(uint256,uint256)":"5408eec9","setHouseAddress(address)":"ef3aaf54","setHouseCutPercentage(uint256)":"9b3cb966","setVoteThresholdDefault(uint256)":"c35aa54e","solutionChallenges(uint256,address)":"d8201f15","solutionChallengesCount(uint256)":"2b64b6bd","submitSolution(uint256,string)":"d3b5c016","submittedSolutions(uint256,address)":"efc51385","supportsInterface(bytes4)":"01ffc9a7","toggleSubmissionFee(uint256,bool)":"b2876315","unpause()":"3f4ba83a","voteOnProposal(uint256,bool)":"1614665c","voteThresholdDefault()":"c9e6fe3e"}}}}}