{
  "_format": "hh-sol-artifact-1",
  "contractName": "Solvable",
  "sourceName": "contracts/Solvable.sol",
  "abi": [
    {
      "inputs": [
        {
          "internalType": "address",
          "name": "_admin",
          "type": "address"
        }
      ],
      "stateMutability": "nonpayable",
      "type": "constructor"
    },
    {
      "anonymous": false,
      "inputs": [
        {
          "indexed": true,
          "internalType": "uint256",
          "name": "gameId",
          "type": "uint256"
        },
        {
          "indexed": true,
          "internalType": "address",
          "name": "donor",
          "type": "address"
        },
        {
          "indexed": false,
          "internalType": "uint256",
          "name": "amount",
          "type": "uint256"
        }
      ],
      "name": "DonationReceived",
      "type": "event"
    },
    {
      "anonymous": false,
      "inputs": [
        {
          "indexed": true,
          "internalType": "uint256",
          "name": "requestId",
          "type": "uint256"
        },
        {
          "indexed": false,
          "internalType": "uint256",
          "name": "gameId",
          "type": "uint256"
        },
        {
          "indexed": false,
          "internalType": "uint256",
          "name": "amount",
          "type": "uint256"
        }
      ],
      "name": "EmergencyWithdrawExecuted",
      "type": "event"
    },
    {
      "anonymous": false,
      "inputs": [
        {
          "indexed": true,
          "internalType": "uint256",
          "name": "requestId",
          "type": "uint256"
        },
        {
          "indexed": false,
          "internalType": "uint256",
          "name": "gameId",
          "type": "uint256"
        },
        {
          "indexed": false,
          "internalType": "uint256",
          "name": "amount",
          "type": "uint256"
        }
      ],
      "name": "EmergencyWithdrawRequested",
      "type": "event"
    },
    {
      "anonymous": false,
      "inputs": [
        {
          "indexed": true,
          "internalType": "uint256",
          "name": "gameId",
          "type": "uint256"
        },
        {
          "indexed": false,
          "internalType": "uint256",
          "name": "fee",
          "type": "uint256"
        }
      ],
      "name": "EntryFeeUpdated",
      "type": "event"
    },
    {
      "anonymous": false,
      "inputs": [
        {
          "indexed": true,
          "internalType": "uint256",
          "name": "gameId",
          "type": "uint256"
        }
      ],
      "name": "GameActivated",
      "type": "event"
    },
    {
      "anonymous": false,
      "inputs": [
        {
          "indexed": true,
          "internalType": "uint256",
          "name": "gameId",
          "type": "uint256"
        },
        {
          "indexed": true,
          "internalType": "address",
          "name": "winner",
          "type": "address"
        }
      ],
      "name": "GameFinalized",
      "type": "event"
    },
    {
      "anonymous": false,
      "inputs": [
        {
          "indexed": true,
          "internalType": "uint256",
          "name": "gameId",
          "type": "uint256"
        }
      ],
      "name": "GameInvalidated",
      "type": "event"
    },
    {
      "anonymous": false,
      "inputs": [
        {
          "indexed": true,
          "internalType": "uint256",
          "name": "gameId",
          "type": "uint256"
        }
      ],
      "name": "GameReset",
      "type": "event"
    },
    {
      "anonymous": false,
      "inputs": [
        {
          "indexed": false,
          "internalType": "address",
          "name": "houseAddress",
          "type": "address"
        }
      ],
      "name": "HouseAddressUpdated",
      "type": "event"
    },
    {
      "anonymous": false,
      "inputs": [
        {
          "indexed": false,
          "internalType": "uint256",
          "name": "percentage",
          "type": "uint256"
        }
      ],
      "name": "HouseCutUpdated",
      "type": "event"
    },
    {
      "anonymous": false,
      "inputs": [
        {
          "indexed": true,
          "internalType": "uint256",
          "name": "gameId",
          "type": "uint256"
        },
        {
          "indexed": true,
          "internalType": "address",
          "name": "solver",
          "type": "address"
        },
        {
          "indexed": false,
          "internalType": "bool",
          "name": "approved",
          "type": "bool"
        },
        {
          "indexed": false,
          "internalType": "address",
          "name": "verifier",
          "type": "address"
        }
      ],
      "name": "MathSolutionVerified",
      "type": "event"
    },
    {
      "anonymous": false,
      "inputs": [
        {
          "indexed": true,
          "internalType": "uint256",
          "name": "gameId",
          "type": "uint256"
        },
        {
          "indexed": true,
          "internalType": "address",
          "name": "submitter",
          "type": "address"
        },
        {
          "indexed": false,
          "internalType": "uint256",
          "name": "deadline",
          "type": "uint256"
        }
      ],
      "name": "OracleVerificationRequested",
      "type": "event"
    },
    {
      "anonymous": false,
      "inputs": [
        {
          "indexed": false,
          "internalType": "address",
          "name": "account",
          "type": "address"
        }
      ],
      "name": "Paused",
      "type": "event"
    },
    {
      "anonymous": false,
      "inputs": [
        {
          "indexed": true,
          "internalType": "uint256",
          "name": "gameId",
          "type": "uint256"
        },
        {
          "indexed": true,
          "internalType": "address",
          "name": "proposer",
          "type": "address"
        },
        {
          "indexed": false,
          "internalType": "string",
          "name": "puzzle",
          "type": "string"
        },
        {
          "indexed": false,
          "internalType": "bytes32",
          "name": "solutionHash",
          "type": "bytes32"
        },
        {
          "indexed": false,
          "internalType": "uint256",
          "name": "entryFee",
          "type": "uint256"
        },
        {
          "indexed": false,
          "internalType": "address",
          "name": "token",
          "type": "address"
        },
        {
          "indexed": false,
          "internalType": "uint256",
          "name": "voteThreshold",
          "type": "uint256"
        },
        {
          "indexed": false,
          "internalType": "enum Solvable.PuzzleType",
          "name": "puzzleType",
          "type": "uint8"
        }
      ],
      "name": "PuzzleProposed",
      "type": "event"
    },
    {
      "anonymous": false,
      "inputs": [
        {
          "indexed": true,
          "internalType": "uint256",
          "name": "gameId",
          "type": "uint256"
        },
        {
          "indexed": true,
          "internalType": "address",
          "name": "solver",
          "type": "address"
        }
      ],
      "name": "PuzzleSolved",
      "type": "event"
    },
    {
      "anonymous": false,
      "inputs": [
        {
          "indexed": true,
          "internalType": "bytes32",
          "name": "role",
          "type": "bytes32"
        },
        {
          "indexed": true,
          "internalType": "bytes32",
          "name": "previousAdminRole",
          "type": "bytes32"
        },
        {
          "indexed": true,
          "internalType": "bytes32",
          "name": "newAdminRole",
          "type": "bytes32"
        }
      ],
      "name": "RoleAdminChanged",
      "type": "event"
    },
    {
      "anonymous": false,
      "inputs": [
        {
          "indexed": true,
          "internalType": "bytes32",
          "name": "role",
          "type": "bytes32"
        },
        {
          "indexed": true,
          "internalType": "address",
          "name": "account",
          "type": "address"
        },
        {
          "indexed": true,
          "internalType": "address",
          "name": "sender",
          "type": "address"
        }
      ],
      "name": "RoleGranted",
      "type": "event"
    },
    {
      "anonymous": false,
      "inputs": [
        {
          "indexed": true,
          "internalType": "bytes32",
          "name": "role",
          "type": "bytes32"
        },
        {
          "indexed": true,
          "internalType": "address",
          "name": "account",
          "type": "address"
        },
        {
          "indexed": true,
          "internalType": "address",
          "name": "sender",
          "type": "address"
        }
      ],
      "name": "RoleRevoked",
      "type": "event"
    },
    {
      "anonymous": false,
      "inputs": [
        {
          "indexed": true,
          "internalType": "uint256",
          "name": "gameId",
          "type": "uint256"
        },
        {
          "indexed": true,
          "internalType": "address",
          "name": "challenger",
          "type": "address"
        },
        {
          "indexed": false,
          "internalType": "string",
          "name": "reason",
          "type": "string"
        }
      ],
      "name": "SolutionChallenged",
      "type": "event"
    },
    {
      "anonymous": false,
      "inputs": [
        {
          "indexed": true,
          "internalType": "uint256",
          "name": "gameId",
          "type": "uint256"
        },
        {
          "indexed": true,
          "internalType": "address",
          "name": "player",
          "type": "address"
        },
        {
          "indexed": false,
          "internalType": "bool",
          "name": "correct",
          "type": "bool"
        },
        {
          "indexed": false,
          "internalType": "uint256",
          "name": "potSize",
          "type": "uint256"
        },
        {
          "indexed": false,
          "internalType": "uint256",
          "name": "houseCut",
          "type": "uint256"
        }
      ],
      "name": "SolutionSubmitted",
      "type": "event"
    },
    {
      "anonymous": false,
      "inputs": [
        {
          "indexed": true,
          "internalType": "uint256",
          "name": "gameId",
          "type": "uint256"
        },
        {
          "indexed": false,
          "internalType": "bool",
          "name": "requireFee",
          "type": "bool"
        }
      ],
      "name": "SubmissionFeeToggled",
      "type": "event"
    },
    {
      "anonymous": false,
      "inputs": [
        {
          "indexed": false,
          "internalType": "address",
          "name": "account",
          "type": "address"
        }
      ],
      "name": "Unpaused",
      "type": "event"
    },
    {
      "anonymous": false,
      "inputs": [
        {
          "indexed": true,
          "internalType": "uint256",
          "name": "gameId",
          "type": "uint256"
        }
      ],
      "name": "VerificationExpired",
      "type": "event"
    },
    {
      "anonymous": false,
      "inputs": [
        {
          "indexed": true,
          "internalType": "uint256",
          "name": "gameId",
          "type": "uint256"
        },
        {
          "indexed": true,
          "internalType": "address",
          "name": "voter",
          "type": "address"
        },
        {
          "indexed": false,
          "internalType": "bool",
          "name": "approve",
          "type": "bool"
        }
      ],
      "name": "VoteCast",
      "type": "event"
    },
    {
      "inputs": [],
      "name": "DEFAULT_ADMIN_ROLE",
      "outputs": [
        {
          "internalType": "bytes32",
          "name": "",
          "type": "bytes32"
        }
      ],
      "stateMutability": "view",
      "type": "function"
    },
    {
      "inputs": [],
      "name": "EMERGENCY_ROLE",
      "outputs": [
        {
          "internalType": "bytes32",
          "name": "",
          "type": "bytes32"
        }
      ],
      "stateMutability": "view",
      "type": "function"
    },
    {
      "inputs": [],
      "name": "GAME_VERIFIER_ROLE",
      "outputs": [
        {
          "internalType": "bytes32",
          "name": "",
          "type": "bytes32"
        }
      ],
      "stateMutability": "view",
      "type": "function"
    },
    {
      "inputs": [],
      "name": "MAX_CHALLENGES_PER_GAME",
      "outputs": [
        {
          "internalType": "uint256",
          "name": "",
          "type": "uint256"
        }
      ],
      "stateMutability": "view",
      "type": "function"
    },
    {
      "inputs": [],
      "name": "MAX_VOTES_PER_GAME",
      "outputs": [
        {
          "internalType": "uint256",
          "name": "",
          "type": "uint256"
        }
      ],
      "stateMutability": "view",
      "type": "function"
    },
    {
      "inputs": [],
      "name": "ORACLE_VERIFICATION_TIMEOUT",
      "outputs": [
        {
          "internalType": "uint256",
          "name": "",
          "type": "uint256"
        }
      ],
      "stateMutability": "view",
      "type": "function"
    },
    {
      "inputs": [],
      "name": "ORACLE_VERIFIER_ROLE",
      "outputs": [
        {
          "internalType": "bytes32",
          "name": "",
          "type": "bytes32"
        }
      ],
      "stateMutability": "view",
      "type": "function"
    },
    {
      "inputs": [
        {
          "internalType": "uint256",
          "name": "gameId",
          "type": "uint256"
        },
        {
          "internalType": "address",
          "name": "_submitter",
          "type": "address"
        },
        {
          "internalType": "bool",
          "name": "_approved",
          "type": "bool"
        }
      ],
      "name": "approveMathSolution",
      "outputs": [],
      "stateMutability": "nonpayable",
      "type": "function"
    },
    {
      "inputs": [
        {
          "internalType": "uint256[]",
          "name": "gameIds",
          "type": "uint256[]"
        },
        {
          "internalType": "address[]",
          "name": "submitters",
          "type": "address[]"
        },
        {
          "internalType": "bool[]",
          "name": "approvals",
          "type": "bool[]"
        }
      ],
      "name": "batchVerifyMathSolutions",
      "outputs": [],
      "stateMutability": "nonpayable",
      "type": "function"
    },
    {
      "inputs": [
        {
          "internalType": "uint256",
          "name": "gameId",
          "type": "uint256"
        }
      ],
      "name": "cancelProposal",
      "outputs": [],
      "stateMutability": "nonpayable",
      "type": "function"
    },
    {
      "inputs": [],
      "name": "challengeFee",
      "outputs": [
        {
          "internalType": "uint256",
          "name": "",
          "type": "uint256"
        }
      ],
      "stateMutability": "view",
      "type": "function"
    },
    {
      "inputs": [
        {
          "internalType": "uint256",
          "name": "gameId",
          "type": "uint256"
        },
        {
          "internalType": "string",
          "name": "_reason",
          "type": "string"
        }
      ],
      "name": "challengeSolution",
      "outputs": [],
      "stateMutability": "payable",
      "type": "function"
    },
    {
      "inputs": [],
      "name": "challengeThreshold",
      "outputs": [
        {
          "internalType": "uint256",
          "name": "",
          "type": "uint256"
        }
      ],
      "stateMutability": "view",
      "type": "function"
    },
    {
      "inputs": [
        {
          "internalType": "uint256",
          "name": "gameId",
          "type": "uint256"
        },
        {
          "internalType": "uint256",
          "name": "amount",
          "type": "uint256"
        }
      ],
      "name": "donateToGame",
      "outputs": [],
      "stateMutability": "payable",
      "type": "function"
    },
    {
      "inputs": [
        {
          "internalType": "uint256",
          "name": "",
          "type": "uint256"
        }
      ],
      "name": "emergencyWithdrawTimelock",
      "outputs": [
        {
          "internalType": "uint256",
          "name": "",
          "type": "uint256"
        }
      ],
      "stateMutability": "view",
      "type": "function"
    },
    {
      "inputs": [
        {
          "internalType": "uint256",
          "name": "requestId",
          "type": "uint256"
        },
        {
          "internalType": "uint256",
          "name": "gameId",
          "type": "uint256"
        },
        {
          "internalType": "uint256",
          "name": "amount",
          "type": "uint256"
        }
      ],
      "name": "executeEmergencyWithdraw",
      "outputs": [],
      "stateMutability": "nonpayable",
      "type": "function"
    },
    {
      "inputs": [
        {
          "internalType": "uint256",
          "name": "gameId",
          "type": "uint256"
        }
      ],
      "name": "finalizeGame",
      "outputs": [],
      "stateMutability": "nonpayable",
      "type": "function"
    },
    {
      "inputs": [
        {
          "internalType": "uint256",
          "name": "",
          "type": "uint256"
        }
      ],
      "name": "games",
      "outputs": [
        {
          "internalType": "string",
          "name": "puzzle",
          "type": "string"
        },
        {
          "internalType": "bytes32",
          "name": "solutionHash",
          "type": "bytes32"
        },
        {
          "internalType": "enum Solvable.GameStatus",
          "name": "status",
          "type": "uint8"
        },
        {
          "internalType": "uint256",
          "name": "pot",
          "type": "uint256"
        },
        {
          "internalType": "uint256",
          "name": "entryFee",
          "type": "uint256"
        },
        {
          "internalType": "address",
          "name": "token",
          "type": "address"
        },
        {
          "internalType": "address",
          "name": "proposer",
          "type": "address"
        },
        {
          "internalType": "address",
          "name": "winner",
          "type": "address"
        },
        {
          "internalType": "uint256",
          "name": "voteThreshold",
          "type": "uint256"
        },
        {
          "internalType": "uint256",
          "name": "challengeThreshold",
          "type": "uint256"
        },
        {
          "internalType": "enum Solvable.PuzzleType",
          "name": "puzzleType",
          "type": "uint8"
        },
        {
          "internalType": "bool",
          "name": "requireSubmissionFee",
          "type": "bool"
        },
        {
          "internalType": "bool",
          "name": "exists",
          "type": "bool"
        },
        {
          "internalType": "address",
          "name": "firstSolver",
          "type": "address"
        },
        {
          "internalType": "string",
          "name": "oracleParams",
          "type": "string"
        },
        {
          "internalType": "uint256",
          "name": "verificationDeadline",
          "type": "uint256"
        }
      ],
      "stateMutability": "view",
      "type": "function"
    },
    {
      "inputs": [
        {
          "internalType": "uint256",
          "name": "start",
          "type": "uint256"
        },
        {
          "internalType": "uint256",
          "name": "limit",
          "type": "uint256"
        }
      ],
      "name": "getActiveGames",
      "outputs": [
        {
          "internalType": "uint256[]",
          "name": "",
          "type": "uint256[]"
        }
      ],
      "stateMutability": "view",
      "type": "function"
    },
    {
      "inputs": [
        {
          "internalType": "uint256",
          "name": "gameId",
          "type": "uint256"
        }
      ],
      "name": "getGameDetails",
      "outputs": [
        {
          "components": [
            {
              "internalType": "string",
              "name": "puzzle",
              "type": "string"
            },
            {
              "internalType": "bytes32",
              "name": "solutionHash",
              "type": "bytes32"
            },
            {
              "internalType": "enum Solvable.GameStatus",
              "name": "status",
              "type": "uint8"
            },
            {
              "internalType": "uint256",
              "name": "pot",
              "type": "uint256"
            },
            {
              "internalType": "uint256",
              "name": "entryFee",
              "type": "uint256"
            },
            {
              "internalType": "address",
              "name": "token",
              "type": "address"
            },
            {
              "internalType": "address",
              "name": "proposer",
              "type": "address"
            },
            {
              "internalType": "address",
              "name": "winner",
              "type": "address"
            },
            {
              "internalType": "uint256",
              "name": "voteThreshold",
              "type": "uint256"
            },
            {
              "internalType": "uint256",
              "name": "challengeThreshold",
              "type": "uint256"
            },
            {
              "internalType": "enum Solvable.PuzzleType",
              "name": "puzzleType",
              "type": "uint8"
            },
            {
              "internalType": "bool",
              "name": "requireSubmissionFee",
              "type": "bool"
            },
            {
              "internalType": "bool",
              "name": "exists",
              "type": "bool"
            },
            {
              "internalType": "address",
              "name": "firstSolver",
              "type": "address"
            },
            {
              "internalType": "string",
              "name": "oracleParams",
              "type": "string"
            },
            {
              "internalType": "uint256",
              "name": "verificationDeadline",
              "type": "uint256"
            }
          ],
          "internalType": "struct Solvable.Game",
          "name": "game",
          "type": "tuple"
        },
        {
          "internalType": "uint256",
          "name": "approvals",
          "type": "uint256"
        },
        {
          "internalType": "uint256",
          "name": "disapprovals",
          "type": "uint256"
        },
        {
          "internalType": "uint256",
          "name": "challenges",
          "type": "uint256"
        }
      ],
      "stateMutability": "view",
      "type": "function"
    },
    {
      "inputs": [
        {
          "internalType": "uint256",
          "name": "gameId",
          "type": "uint256"
        }
      ],
      "name": "getPastWinner",
      "outputs": [
        {
          "internalType": "address",
          "name": "",
          "type": "address"
        }
      ],
      "stateMutability": "view",
      "type": "function"
    },
    {
      "inputs": [
        {
          "internalType": "uint256",
          "name": "gameId",
          "type": "uint256"
        }
      ],
      "name": "getPotBalance",
      "outputs": [
        {
          "internalType": "uint256",
          "name": "",
          "type": "uint256"
        }
      ],
      "stateMutability": "view",
      "type": "function"
    },
    {
      "inputs": [
        {
          "internalType": "bytes32",
          "name": "role",
          "type": "bytes32"
        }
      ],
      "name": "getRoleAdmin",
      "outputs": [
        {
          "internalType": "bytes32",
          "name": "",
          "type": "bytes32"
        }
      ],
      "stateMutability": "view",
      "type": "function"
    },
    {
      "inputs": [
        {
          "internalType": "uint256",
          "name": "gameId",
          "type": "uint256"
        },
        {
          "internalType": "address",
          "name": "submitter",
          "type": "address"
        }
      ],
      "name": "getSubmittedSolution",
      "outputs": [
        {
          "internalType": "string",
          "name": "",
          "type": "string"
        }
      ],
      "stateMutability": "view",
      "type": "function"
    },
    {
      "inputs": [
        {
          "internalType": "address",
          "name": "_verifier",
          "type": "address"
        }
      ],
      "name": "grantOracleVerifierRole",
      "outputs": [],
      "stateMutability": "nonpayable",
      "type": "function"
    },
    {
      "inputs": [
        {
          "internalType": "bytes32",
          "name": "role",
          "type": "bytes32"
        },
        {
          "internalType": "address",
          "name": "account",
          "type": "address"
        }
      ],
      "name": "grantRole",
      "outputs": [],
      "stateMutability": "nonpayable",
      "type": "function"
    },
    {
      "inputs": [
        {
          "internalType": "bytes32",
          "name": "role",
          "type": "bytes32"
        },
        {
          "internalType": "address",
          "name": "account",
          "type": "address"
        }
      ],
      "name": "hasRole",
      "outputs": [
        {
          "internalType": "bool",
          "name": "",
          "type": "bool"
        }
      ],
      "stateMutability": "view",
      "type": "function"
    },
    {
      "inputs": [],
      "name": "houseAddress",
      "outputs": [
        {
          "internalType": "address",
          "name": "",
          "type": "address"
        }
      ],
      "stateMutability": "view",
      "type": "function"
    },
    {
      "inputs": [],
      "name": "houseCutPercentage",
      "outputs": [
        {
          "internalType": "uint256",
          "name": "",
          "type": "uint256"
        }
      ],
      "stateMutability": "view",
      "type": "function"
    },
    {
      "inputs": [
        {
          "internalType": "uint256",
          "name": "gameId",
          "type": "uint256"
        }
      ],
      "name": "invalidateGame",
      "outputs": [],
      "stateMutability": "nonpayable",
      "type": "function"
    },
    {
      "inputs": [
        {
          "internalType": "address",
          "name": "",
          "type": "address"
        }
      ],
      "name": "nextIdByProposer",
      "outputs": [
        {
          "internalType": "uint64",
          "name": "",
          "type": "uint64"
        }
      ],
      "stateMutability": "view",
      "type": "function"
    },
    {
      "inputs": [
        {
          "internalType": "uint256",
          "name": "",
          "type": "uint256"
        }
      ],
      "name": "pastWinners",
      "outputs": [
        {
          "internalType": "address",
          "name": "",
          "type": "address"
        }
      ],
      "stateMutability": "view",
      "type": "function"
    },
    {
      "inputs": [],
      "name": "pause",
      "outputs": [],
      "stateMutability": "nonpayable",
      "type": "function"
    },
    {
      "inputs": [],
      "name": "paused",
      "outputs": [
        {
          "internalType": "bool",
          "name": "",
          "type": "bool"
        }
      ],
      "stateMutability": "view",
      "type": "function"
    },
    {
      "inputs": [
        {
          "internalType": "uint256",
          "name": "gameId",
          "type": "uint256"
        }
      ],
      "name": "processExpiredVerifications",
      "outputs": [],
      "stateMutability": "nonpayable",
      "type": "function"
    },
    {
      "inputs": [
        {
          "internalType": "uint256",
          "name": "",
          "type": "uint256"
        }
      ],
      "name": "proposalApprovals",
      "outputs": [
        {
          "internalType": "uint256",
          "name": "",
          "type": "uint256"
        }
      ],
      "stateMutability": "view",
      "type": "function"
    },
    {
      "inputs": [
        {
          "internalType": "uint256",
          "name": "",
          "type": "uint256"
        }
      ],
      "name": "proposalDisapprovals",
      "outputs": [
        {
          "internalType": "uint256",
          "name": "",
          "type": "uint256"
        }
      ],
      "stateMutability": "view",
      "type": "function"
    },
    {
      "inputs": [
        {
          "internalType": "uint256",
          "name": "",
          "type": "uint256"
        },
        {
          "internalType": "address",
          "name": "",
          "type": "address"
        }
      ],
      "name": "proposalVotes",
      "outputs": [
        {
          "internalType": "bool",
          "name": "",
          "type": "bool"
        }
      ],
      "stateMutability": "view",
      "type": "function"
    },
    {
      "inputs": [
        {
          "internalType": "string",
          "name": "_puzzle",
          "type": "string"
        },
        {
          "internalType": "bytes32",
          "name": "_solutionHash",
          "type": "bytes32"
        },
        {
          "internalType": "uint256",
          "name": "_entryFee",
          "type": "uint256"
        },
        {
          "internalType": "address",
          "name": "_token",
          "type": "address"
        },
        {
          "internalType": "uint256",
          "name": "_voteThreshold",
          "type": "uint256"
        },
        {
          "internalType": "enum Solvable.PuzzleType",
          "name": "_puzzleType",
          "type": "uint8"
        },
        {
          "internalType": "string",
          "name": "_oracleParams",
          "type": "string"
        }
      ],
      "name": "proposePuzzle",
      "outputs": [
        {
          "internalType": "uint256",
          "name": "gameId",
          "type": "uint256"
        }
      ],
      "stateMutability": "nonpayable",
      "type": "function"
    },
    {
      "inputs": [
        {
          "internalType": "bytes32",
          "name": "role",
          "type": "bytes32"
        },
        {
          "internalType": "address",
          "name": "account",
          "type": "address"
        }
      ],
      "name": "renounceRole",
      "outputs": [],
      "stateMutability": "nonpayable",
      "type": "function"
    },
    {
      "inputs": [
        {
          "internalType": "uint256",
          "name": "gameId",
          "type": "uint256"
        },
        {
          "internalType": "uint256",
          "name": "amount",
          "type": "uint256"
        }
      ],
      "name": "requestEmergencyWithdraw",
      "outputs": [],
      "stateMutability": "nonpayable",
      "type": "function"
    },
    {
      "inputs": [
        {
          "internalType": "uint256",
          "name": "gameId",
          "type": "uint256"
        }
      ],
      "name": "resetGame",
      "outputs": [],
      "stateMutability": "nonpayable",
      "type": "function"
    },
    {
      "inputs": [
        {
          "internalType": "bytes32",
          "name": "role",
          "type": "bytes32"
        },
        {
          "internalType": "address",
          "name": "account",
          "type": "address"
        }
      ],
      "name": "revokeRole",
      "outputs": [],
      "stateMutability": "nonpayable",
      "type": "function"
    },
    {
      "inputs": [
        {
          "internalType": "uint256",
          "name": "_fee",
          "type": "uint256"
        }
      ],
      "name": "setChallengeFee",
      "outputs": [],
      "stateMutability": "nonpayable",
      "type": "function"
    },
    {
      "inputs": [
        {
          "internalType": "uint256",
          "name": "_threshold",
          "type": "uint256"
        }
      ],
      "name": "setChallengeThreshold",
      "outputs": [],
      "stateMutability": "nonpayable",
      "type": "function"
    },
    {
      "inputs": [
        {
          "internalType": "uint256",
          "name": "gameId",
          "type": "uint256"
        },
        {
          "internalType": "uint256",
          "name": "_entryFee",
          "type": "uint256"
        }
      ],
      "name": "setEntryFee",
      "outputs": [],
      "stateMutability": "nonpayable",
      "type": "function"
    },
    {
      "inputs": [
        {
          "internalType": "address",
          "name": "_houseAddress",
          "type": "address"
        }
      ],
      "name": "setHouseAddress",
      "outputs": [],
      "stateMutability": "nonpayable",
      "type": "function"
    },
    {
      "inputs": [
        {
          "internalType": "uint256",
          "name": "_percentage",
          "type": "uint256"
        }
      ],
      "name": "setHouseCutPercentage",
      "outputs": [],
      "stateMutability": "nonpayable",
      "type": "function"
    },
    {
      "inputs": [
        {
          "internalType": "uint256",
          "name": "_threshold",
          "type": "uint256"
        }
      ],
      "name": "setVoteThresholdDefault",
      "outputs": [],
      "stateMutability": "nonpayable",
      "type": "function"
    },
    {
      "inputs": [
        {
          "internalType": "uint256",
          "name": "",
          "type": "uint256"
        },
        {
          "internalType": "address",
          "name": "",
          "type": "address"
        }
      ],
      "name": "solutionChallenges",
      "outputs": [
        {
          "internalType": "bool",
          "name": "",
          "type": "bool"
        }
      ],
      "stateMutability": "view",
      "type": "function"
    },
    {
      "inputs": [
        {
          "internalType": "uint256",
          "name": "",
          "type": "uint256"
        }
      ],
      "name": "solutionChallengesCount",
      "outputs": [
        {
          "internalType": "uint256",
          "name": "",
          "type": "uint256"
        }
      ],
      "stateMutability": "view",
      "type": "function"
    },
    {
      "inputs": [
        {
          "internalType": "uint256",
          "name": "gameId",
          "type": "uint256"
        },
        {
          "internalType": "string",
          "name": "_solution",
          "type": "string"
        }
      ],
      "name": "submitSolution",
      "outputs": [],
      "stateMutability": "payable",
      "type": "function"
    },
    {
      "inputs": [
        {
          "internalType": "uint256",
          "name": "",
          "type": "uint256"
        },
        {
          "internalType": "address",
          "name": "",
          "type": "address"
        }
      ],
      "name": "submittedSolutions",
      "outputs": [
        {
          "internalType": "string",
          "name": "",
          "type": "string"
        }
      ],
      "stateMutability": "view",
      "type": "function"
    },
    {
      "inputs": [
        {
          "internalType": "bytes4",
          "name": "interfaceId",
          "type": "bytes4"
        }
      ],
      "name": "supportsInterface",
      "outputs": [
        {
          "internalType": "bool",
          "name": "",
          "type": "bool"
        }
      ],
      "stateMutability": "view",
      "type": "function"
    },
    {
      "inputs": [
        {
          "internalType": "uint256",
          "name": "gameId",
          "type": "uint256"
        },
        {
          "internalType": "bool",
          "name": "_requireFee",
          "type": "bool"
        }
      ],
      "name": "toggleSubmissionFee",
      "outputs": [],
      "stateMutability": "nonpayable",
      "type": "function"
    },
    {
      "inputs": [],
      "name": "unpause",
      "outputs": [],
      "stateMutability": "nonpayable",
      "type": "function"
    },
    {
      "inputs": [
        {
          "internalType": "uint256",
          "name": "gameId",
          "type": "uint256"
        },
        {
          "internalType": "bool",
          "name": "approve",
          "type": "bool"
        }
      ],
      "name": "voteOnProposal",
      "outputs": [],
      "stateMutability": "nonpayable",
      "type": "function"
    },
    {
      "inputs": [],
      "name": "voteThresholdDefault",
      "outputs": [
        {
          "internalType": "uint256",
          "name": "",
          "type": "uint256"
        }
      ],
      "stateMutability": "view",
      "type": "function"
    },
    {
      "stateMutability": "payable",
      "type": "receive"
    }
  ],
  "bytecode": "0x6080346200025d57601f62004d6638819003918201601f1916830192916001600160401b038411838510176200026257808392604095865283396020928391810103126200025d57516001600160a01b03811691908290036200025d578160019160009280845560ff199081600254166002556101f4600e556005600f556003601055662386f26fc10000601155848052808352868520848652835260ff87862054161562000228575b7fb2eb88090df831c336c2ac91fd704e50d1166ef93798dae04ecdb78950a49171808652818452878620858752845260ff888720541615620001f2575b507fc63907609c1c518c230a90524384edc1a25df2f21481ddb99bef5e2444c35ef0808652818452878620858752845260ff888720541615620001bc575b507fbf233dd2aafeb4d50879c4aa5c81e96d92f6e6945c906a58f9f2d1c1631b4b2692838652818152878620858752815260ff88872054161562000184575b600d80546001600160a01b031916861790558751614acd9081620002798239f35b83865281815287862090858752528685209182541617905560008051602062004d46833981519152339380a438818180808062000163565b8086528184528786208587528452878620828482541617905584339160008051602062004d468339815191528880a43862000124565b8086528184528786208587528452878620828482541617905584339160008051602062004d468339815191528880a438620000e6565b8480528083528685208486528352868520818382541617905533848660008051602062004d468339815191528180a4620000a9565b600080fd5b634e487b7160e01b600052604160045260246000fdfe608080604052600436101561001d575b50361561001b57600080fd5b005b60003560e01c90816301ffc9a7146139bc575080630d93d28a146139905780631080636914613652578063117a5b90146135265780631614665c1461334d57806319c1c731146132715780631b31abda14612f825780631bd8f9ca14612f645780631f2ad4d414612f295780631fd2f25014612e4057806320df435914612e05578063248a9ca314612dd657806324b4c06314612daa57806325bd8de814612d8c5780632b64b6bd14612d605780632f2ff15d14612cfb578063334b7f4e14612c9257806335bf82f614612c2f57806336568abe14612b9d5780633cb5b347146129bd5780633f4ba83a14612929578063425ae6ec1461264b5780634cf052d51461254c5780635408eec9146124d65780635c975abb146124b357806363a1332c146123e05780636beb83a814611c0b578063771197ee1461191c5780637ecc811d146118cd5780638456cb59146118735780638972c1b4146118575780638e1f6a2c1461180a57806391d14854146117bd5780639b3cb9661461172d5780639d927ecd146116ef578063a217fddf146116d3578063a66560961461156f578063b2876315146114da578063bb2239d6146114bc578063c35aa54e1461147e578063c9e6fe3e14611460578063ca1938e514611442578063ce26ad4c14611425578063cf2fdfd9146113f9578063d2fcf4b314610fd1578063d3b5c016146109ff578063d547741f146109c0578063d7cee31e14610997578063d8201f151461094a578063e0a8f6f514610840578063e3c99d0814610762578063e499e79c1461072e578063ea697ac0146106da578063ef3aaf541461062d578063efc51385146105cd578063f474e6b814610592578063f5372e73146102f05763f9174c27146102a8573861000f565b346102eb5760203660031901126102eb576001600160a01b036102c9613c77565b16600052600c60205260206001600160401b0360406000205416604051908152f35b600080fd5b6102f936613c4b565b906103026140bc565b61030a614933565b80600052600360209080825261032d60ff600a6040600020015460101c16613cbd565b8260005280825260ff60026040600020015416600681101561057c576002148015610557575b156105195783156104d45760008381528183526040902060058101546001600160a01b03168061041c57508434036103e257907f0b5b4c52969ff7329ecf7ee536409fda87812b15a8622bc6e8cdeab3aee14a2692916103c360008080808a305af16103bd613ec1565b5061407e565b016103cf858254613e1e565b90555b6040519384523393a36001600055005b60405162461bcd60e51b815260048101849052601260248201527124b731b7b93932b1ba103237b730ba34b7b760711b6044820152606490fd5b6040516323b872dd60e01b815233600482015230602482015260448101879052939291908390859060649082906000905af19384156104c8577f0b5b4c52969ff7329ecf7ee536409fda87812b15a8622bc6e8cdeab3aee14a26946104889160009161049b575061407e565b01610494858254613e1e565b90556103d2565b6104bb9150853d87116104c1575b6104b38183613a46565b810190613d3d565b886103bd565b503d6104a9565b6040513d6000823e3d90fd5b60405162461bcd60e51b815260048101839052601960248201527f446f6e6174696f6e206d75737420626520706f736974697665000000000000006044820152606490fd5b60405162461bcd60e51b815260048101839052601660248201527511d85b59481b9bdd081858dd1a5d994bdcdbdb1d995960521b6044820152606490fd5b508260005280825260ff60026040600020015416600681101561057c57600414610353565b634e487b7160e01b600052602160045260246000fd5b346102eb5760003660031901126102eb5760206040517fb2eb88090df831c336c2ac91fd704e50d1166ef93798dae04ecdb78950a491718152f35b346102eb5760403660031901126102eb576105e6613c61565b600435600052600a60205260406000209060018060a01b03166000526020526106296106156040600020613b35565b604051918291602083526020830190613bfd565b0390f35b346102eb5760203660031901126102eb57610646613c77565b61064e61432e565b6001600160a01b031680156106a3576020817f2dfa8b7ee656a716a96c3dc175cfec18a9c7b22b8850785ca32c4ddfee1635a8926bffffffffffffffffffffffff60a01b600d541617600d55604051908152a1005b60405162461bcd60e51b815260206004820152600f60248201526e496e76616c6964206164647265737360881b6044820152606490fd5b346102eb5760203660031901126102eb5760043580600052600360205261070e60ff600a6040600020015460101c16613cbd565b6000526009602052602060018060a01b0360406000205416604051908152f35b346102eb5760203660031901126102eb576004356000526009602052602060018060a01b0360406000205416604051908152f35b346102eb5761077036613c4b565b801515915081610834575b50156107ff5760405160209060208101908082106001600160401b038311176107e9579080604052600082526040519283926020840190602085525180915260408401929160005b8281106107d257505050500390f35b8351855286955093810193928101926001016107c3565b634e487b7160e01b600052604160045260246000fd5b60405162461bcd60e51b815260206004820152600d60248201526c125b9d985b1a59081b1a5b5a5d609a1b6044820152606490fd5b6064915011158161077b565b346102eb576020806003193601126102eb5760043590816000526003815261087560ff600a6040600020015460101c16613cbd565b816000526003815260406000209160028301805460ff811694600686101561057c576108a5600160039714613d64565b600601546001600160a01b03163314801561092b575b6108c490613fa1565b60ff19169055600052526000600c604082206108df81613f58565b82600182015582600282015582600382015582600482015582600582015582600682015582600782015582600882015582600982015582600a820155610927600b8201613f58565b0155005b506000808052600185526040808220338352865290205460ff166108bb565b346102eb5760403660031901126102eb57610963613c61565b600435600052600760205260406000209060018060a01b0316600052602052602060ff604060002054166040519015158152f35b346102eb5760003660031901126102eb57600d546040516001600160a01b039091168152602090f35b346102eb5760403660031901126102eb5761001b6004356109df613c61565b908060005260016020526109fa600160406000200154614598565b6146a3565b610a0836613ac9565b90610a116140bc565b610a19614933565b806000526003602052610a3960ff600a6040600020015460101c16613cbd565b80600052600360205260ff60026040600020015416600681101561057c57600203610f9a5781518015159081610f8d575b5015610f4857806000526003602052604060002091600483015492612710610a94600e5486613f45565b0491610aa08386614719565b610aad8460011c85614719565b9560ff600a85015460081c16600014610eef5760058401546001600160a01b031680610ee8578134145b15610eac5780610e06575b505060ff600a84015416600381101561057c57600103610def575b505b60ff600a83015416600381101561057c578015908115610de4575b5015610c4c5790600391604051610b4e60208281610b418183019687815193849201613bda565b8101038084520182613a46565b5190206001820154149485610ba1575b505b01546040519315158452602084015260408301527f074fbe334e9d85c8d025fc8a294588a63d6929a98d8293a5a1aee3d4be1c7eda60603393a36001600055005b600a820154610bbc9060181c6001600160a01b031615613ef1565b600a820180546301000000600160b81b0319163360181b6301000000600160b81b031617905560028201805460ff1916600417905533857ff7c67880b72ec988961e570ae4e849eb4fd9d5ba0ab550624ac429ef6d41880c600080a360ff600a83015460081c1680610c43575b15610b5e57610c3d908460011c9083614726565b85610b5e565b50831515610c29565b90935082600052600a6020526040600020336000526020526040600020908051906001600160401b0382116107e957610c858354613afb565b601f8111610da7575b50602090601f8311600114610d3f57610cc0929160009183610d34575b50508160011b916000199060031b1c19161790565b90555b60028301600360ff1982541617905562015180420192834211610d1e578084600c6003930155600094604051908152847f8e3359a99f392ee4257eb86a7ab8ee4c8a4c717bc32744354f4877931c28f6e060203393a3610b60565b634e487b7160e01b600052601160045260246000fd5b015190508780610cab565b90601f198316918460005260206000209260005b818110610d8f5750908460019594939210610d76575b505050811b019055610cc3565b015160001960f88460031b161c19169055868080610d69565b92936020600181928786015181550195019301610d53565b610dd490846000526020600020601f850160051c81019160208610610dda575b601f0160051c0190613f2e565b86610c8e565b9091508190610dc7565b600291501486610b1a565b610dfe60038401918254613e1e565b905585610afd565b6040516323b872dd60e01b81523360048201523060248201526044810192909252602090829060649082906000905af19081156104c857600091610e8d575b5015610e52578680610ae2565b60405162461bcd60e51b8152602060048201526013602482015272119959481d1c985b9cd9995c8819985a5b1959606a1b6044820152606490fd5b610ea6915060203d6020116104c1576104b38183613a46565b87610e45565b60405162461bcd60e51b8152602060048201526014602482015273496e636f7272656374206e61746976652066656560601b6044820152606490fd5b6001610ad7565b505060058201546001600160a01b0316610f415734155b610aff5760405162461bcd60e51b815260206004820152600f60248201526e139bc8199959481c995c5d5a5c9959608a1b6044820152606490fd5b6001610f06565b60405162461bcd60e51b815260206004820152601760248201527f496e76616c696420736f6c7574696f6e206c656e6774680000000000000000006044820152606490fd5b6101f49150111583610a6a565b60405162461bcd60e51b815260206004820152600f60248201526e47616d65206e6f742061637469766560881b6044820152606490fd5b346102eb5760603660031901126102eb576001600160401b036004358181116102eb57611002903690600401613c8d565b906024358381116102eb5761101b903690600401613c8d565b9290936044359081116102eb57611036903690600401613c8d565b919092611041614452565b848214806113f0575b156113b357603282116113755760005b82811061106357005b61106e818484614058565b359061107b81888a614058565b356001600160a01b03811681036102eb57611097828789614058565b3580151581036102eb576110a9614452565b8360005260036020526110c960ff600a6040600020015460101c16613cbd565b836000526003602052604060002091600a8301549460ff8616600381101561057c5760010361133c5760ff600285015416600681101561057c57600361110f9114613e37565b80600052600a602052604060002060018060a01b03831660005260205261113a604060002054613afb565b1561130157600c84015442116112bc57600195836111e1575b5080600052600a6020526040600020868060a01b03831660005260205261117d6040600020613f58565b7f156934b37a6a765531ac9332a9cee7bfe0e5a00742dcd286b811de4751c9bb7c60408051938515158552336020860152888060a01b031693a3156111c4575b500161105a565b600c600091600260ff1981830154161760028201550155886111bd565b6111f690878060a01b039060181c1615613ef1565b600a840180546301000000600160b81b031916601884901b6301000000600160b81b031617905560028401805460ff19166004179055600a84015460081c60ff16611270575b858060a01b038216817ff7c67880b72ec988961e570ae4e849eb4fd9d5ba0ab550624ac429ef6d41880c600080a38c611153565b6112b7600485015461129261271061128a600e5484613f45565b048092614719565b61129f828a1c8093614719565b906112af60038901918254613e1e565b905586614726565b61123c565b60405162461bcd60e51b815260206004820152601c60248201527f566572696669636174696f6e20646561646c696e6520706173736564000000006044820152606490fd5b60405162461bcd60e51b8152602060048201526013602482015272139bc81cdd589b5a5cdcda5bdb88199bdd5b99606a1b6044820152606490fd5b60405162461bcd60e51b81526020600482015260116024820152704e6f742061206d6174682070757a7a6c6560781b6044820152606490fd5b60405162461bcd60e51b8152602060048201526016602482015275546f6f206d616e7920766572696669636174696f6e7360501b6044820152606490fd5b60405162461bcd60e51b8152602060048201526015602482015274082e4e4c2f240d8cadccee8d040dad2e6dac2e8c6d605b1b6044820152606490fd5b5082851461104a565b346102eb5760203660031901126102eb5760043560005260066020526020604060002054604051908152f35b346102eb5760003660031901126102eb5760206040516103e88152f35b346102eb5760003660031901126102eb576020600e54604051908152f35b346102eb5760003660031901126102eb576020600f54604051908152f35b346102eb5760203660031901126102eb5760043561149a61432e565b801515806114b1575b6114ac90614018565b600f55005b5060648111156114a3565b346102eb5760003660031901126102eb576020601054604051908152f35b346102eb5760403660031901126102eb576004357faddb6994a0a091eb47d65b97d2111921aaabf03597c28c0400155ee949f0f8076020611519613c3c565b61152161432e565b836000526003825261154060ff600a6040600020015460101c16613cbd565b60008481526003835260409020600a01805461ff00191682151560081b61ff00161790556040519015158152a2005b346102eb576020806003193601126102eb5760043580600052600382526115a360ff600a6040600020015460101c16613cbd565b806000526003825260ff60026040600020015416600681101561057c5760046115cc9114613cff565b806000526003825260406000206008835260406000205460098201541161168e57600791926000805260018152604060002090336000525260ff604060002054168015611678575b61161d90613fa1565b6002818101805460ff19169091179055600a810180546301000000600160b81b03191690550180546001600160a01b03191690557f3251f5fe5231b3681ff593b97e5a31720697f30eea923fc25da0667755895f41600080a2005b5060068101546001600160a01b03163314611614565b60405162461bcd60e51b815260048101849052601760248201527f496e73756666696369656e74206368616c6c656e6765730000000000000000006044820152606490fd5b346102eb5760003660031901126102eb57602060405160008152f35b346102eb5760203660031901126102eb5760043561170b61432e565b80151580611722575b61171d90614018565b601055005b506014811115611714565b346102eb5760203660031901126102eb5760043561174961432e565b6127108111611783576020817f2a5598de173240d4ae127b442f13979038bbc34af775ad781d1d74626a301d3592600e55604051908152a1005b60405162461bcd60e51b8152602060048201526012602482015271496e76616c69642070657263656e7461676560701b6044820152606490fd5b346102eb5760403660031901126102eb576117d6613c61565b600435600052600160205260406000209060018060a01b0316600052602052602060ff604060002054166040519015158152f35b346102eb5760403660031901126102eb57611823613c61565b600435600052600460205260406000209060018060a01b0316600052602052602060ff604060002054166040519015158152f35b346102eb5760003660031901126102eb57602060405160328152f35b346102eb5760003660031901126102eb5761188c61432e565b611894614933565b600160ff1960025416176002557f62e78cea01bee320cd4e420270b5ea74000d11b0c9f74754ebdbfc544b05a2586020604051338152a1005b346102eb5760203660031901126102eb5760043580600052600360205261190160ff600a6040600020015460101c16613cbd565b60005260036020526020600360406000200154604051908152f35b346102eb576020806003193601126102eb5760043590816000526003815261195160ff600a6040600020015460101c16613cbd565b816000526003815260ff60026040600020015416600681101561057c57600461197a9114613cff565b81600052600381526040600020906008815260406000205460098301541115611bc7577fb2eb88090df831c336c2ac91fd704e50d1166ef93798dae04ecdb78950a4917160005260018152604060002033600052815260ff604060002054168015611bb1575b8015611b95575b6119f090613fa1565b600a8201549160ff8316600381101561057c57600114611b34575b60018060a01b03809360181c169160078201926bffffffffffffffffffffffff60a01b90808286541617855560028401600560ff19825416179055866000526009835260406000209182541617905583600560038401936000855495550154168015600014611abd5750506000808080611a9394878754165af1611a8d613ec1565b50613fdc565b5416907f072fb76a29123692c5adaffdcb4b4b04ee08c125417b72495933d24adc48693a600080a3005b835460405163a9059cbb60e01b81529086166001600160a01b03166004820152602481019390935290919082908290816000816044810103925af19081156104c857611b1292600092611b17575b5050613fdc565b611a93565b611b2d9250803d106104c1576104b38183613a46565b8580611b0b565b601883901c6001600160a01b0316611a0b5760405162461bcd60e51b815260048101839052602160248201527f4d6174682070757a7a6c65206e6f742070726f7065726c7920766572696669656044820152601960fa1b6064820152608490fd5b50600a8201543360189190911c6001600160a01b0316146119e7565b5060068201546001600160a01b031633146119e0565b6064906040519062461bcd60e51b82526004820152601960248201527f4368616c6c656e676573206d656574207468726573686f6c64000000000000006044820152fd5b346102eb5760e03660031901126102eb576004356001600160401b0381116102eb57611c3b903690600401613a82565b6064356001600160a01b03811681036102eb57600360a43510156102eb5760c4356001600160401b0381116102eb57611c78903690600401613a82565b91805180151590816123d3575b5015612396576044351561235157608435151580612344575b1561230657600060a4351580156122f7575b156122535750602435156122025782516121ab575b33600052600c60205260016001600160401b036040600020541601916001600160401b038311610d1e5733600052600c6020526001600160401b036040600020931692836001600160401b0319825416179055608435156000146121a357600f545b6010549460405195611d3887613a0f565b84875260243560208801526001604088015260006060880181905260443560808901526001600160a01b03851660a08901523360c089015260e08801526101008701839052610120870152611d9360a4356101408801613e2b565b6001610160870152600161018087015260006101a08701526101c086015260006101e0860152833360401b176000526003602052604060002085518051906001600160401b0382116107e957611de98354613afb565b601f8111612171575b50602090601f831160011461210557611e239291600091836120fa5750508160011b916000199060031b1c19161790565b81555b602086015160018201556040860151600681101561057c5760028201805460ff9290921660ff1992831617905560608701516003808401919091556080880151600484015560a08801516005840180546001600160a01b03199081166001600160a01b039384161790915560c08a0151600686018054831691841691909117905560e08a0151600786018054909216921691909117905561010088015160088401556101208801516009840155610140880151600a84019181101561057c5781546101608a015161ff0019919094161660ff919091161791151560081b61ff0016919091178155611f539061018088015181546101a08a015162010000600160b81b031990911691151560101b62ff0000169190911760189190911b6301000000600160b81b0316179055565b6101c08601519586516001600160401b0381116107e957602097611f7a600b850154613afb565b601f81116120c7575b508890601f831160011461205357826101e093600c9593611fba936000926120485750508160011b916000199060031b1c19161790565b600b8501555b0151910155611fda6040519360c0855260c0850190613bfd565b6024358487015260443560408501526001600160a01b039092166060840152608083015261200d60a0830160a435613c2f565b7f1529ea8f3e7faaf5875beb35f1160f9720ff09b546572a7ff0894af4f416e838339280853360401b17930390a3604051903360401b178152f35b015190508c80610cab565b90600b8501600052896000209160005b601f19851681106120b0575092600c94926001926101e09583601f19811610612097575b505050811b01600b850155611fc0565b015160001960f88460031b161c191690558b8080612087565b91928b600181928685015181550194019201612063565b6120f490600b86016000528a600020601f850160051c8101918c8610610dda57601f0160051c0190613f2e565b89611f83565b015190508980610cab565b9190836000526020600020906000935b601f1984168510612156576001945083601f1981161061213d575b505050811b018155611e26565b015160001960f88460031b161c19169055888080612130565b81810151835560209485019460019093019290910190612115565b61219d90846000526020600020601f850160051c81019160208610610dda57601f0160051c0190613f2e565b88611df2565b608435611d27565b60405162461bcd60e51b815260206004820152602960248201527f526964646c652f4f746865722073686f756c646e27742068617665206f7261636044820152686c6520706172616d7360b81b6064820152608490fd5b60405162461bcd60e51b815260206004820152602360248201527f526964646c652f4f7468657220726571756972657320736f6c7574696f6e20686044820152620c2e6d60eb1b6064820152608490fd5b61057c57600160a43503611cc5576024356122b3578251611cc55760405162461bcd60e51b815260206004820152601b60248201527f4d617468207265717569726573206f7261636c6520706172616d7300000000006044820152606490fd5b606460405162461bcd60e51b815260206004820152602060248201527f4d6174682073686f756c646e27742075736520736f6c7574696f6e20686173686044820152fd5b50506000600260a43514611cb0565b60405162461bcd60e51b8152602060048201526016602482015275125b9d985b1a59081d9bdd19481d1a1c995cda1bdb1960521b6044820152606490fd5b5060646084351115611c9e565b60405162461bcd60e51b815260206004820152601a60248201527f456e74727920666565206d75737420626520706f7369746976650000000000006044820152606490fd5b60405162461bcd60e51b8152602060048201526015602482015274092dcecc2d8d2c840e0eaf4f4d8ca40d8cadccee8d605b1b6044820152606490fd5b6103e89150111584611c85565b346102eb5760203660031901126102eb576123f9613c77565b61240161432e565b6001600160a01b031660008181527fe161abe49421bdbe04b54ee9f794dbf668947c663b3c53cbadb88cdd90c5027860205260409020547fc63907609c1c518c230a90524384edc1a25df2f21481ddb99bef5e2444c35ef0919060ff161561246557005b8160005260016020526040600020816000526020526040600020600160ff1982541617905533917f2f8788117e7eff1d82e926ec794901d17c78024a50270940304540a733656f0d600080a4005b346102eb5760003660031901126102eb57602060ff600254166040519015158152f35b346102eb5760207f6a75d918a59da9597a749b7c707f23cfa76552074b43c68a24a21db1c45841f161250736613c4b565b61251293919361432e565b836000526003825261253160ff600a6040600020015460101c16613cbd565b836000526003825280600460406000200155604051908152a2005b346102eb5760203660031901126102eb5760043561256861432e565b80600052600360205261258860ff600a6040600020015460101c16613cbd565b80600052600360205260ff60026040600020015416600681101561057c576005036126175760008181526003602052604081206002808201805460ff19169091179055600a810180546301000000600160b81b031916905560070180546001600160a01b03191690557fde24ae18b2bda089720ca38332df93ab6195d7b5b3b0981ccae6b33e0a6c3f9b9080a2005b60405162461bcd60e51b815260206004820152600c60248201526b139bdd08185c98da1a5d995960a21b6044820152606490fd5b346102eb5760603660031901126102eb57600435612667613c61565b604435908115908115938484036102eb57612680614452565b80600052602094600386526126a260ff600a6040600020015460101c16613cbd565b8160005260038652604060002095600a870196875460ff8116600381101561057c576001036128f057600282019860ff8a5416600681101561057c5760036126ea9114613e37565b85600052600a845260406000209660018060a01b039081811698896000528652612718604060002054613afb565b156128b557600c85019a8b54421161287057917f156934b37a6a765531ac9332a9cee7bfe0e5a00742dcd286b811de4751c9bb7c9795939160409795936127a0575b505050505084600052600a81528260002086600052815261277d83600020613f58565b82519182523390820152a361278e57005b815460ff191660021790915560009055005b6127b46127da9260ff9560181c1615613ef1565b82546301000000600160b81b03191660189190911b6301000000600160b81b0316178255565b600482198d5416178c555460081c16612820575b5085857ff7c67880b72ec988961e570ae4e849eb4fd9d5ba0ab550624ac429ef6d41880c600080a3898080808061275a565b80600461286a9201549061284461271061283c600e5485613f45565b048093614719565b906128538360011c8094614719565b9161286360038301918254613e1e565b9055614726565b896127ee565b60405162461bcd60e51b815260048101889052601c60248201527f566572696669636174696f6e20646561646c696e6520706173736564000000006044820152606490fd5b60405162461bcd60e51b8152600481018790526013602482015272139bc81cdd589b5a5cdcda5bdb88199bdd5b99606a1b6044820152606490fd5b60405162461bcd60e51b81526004810184905260116024820152704e6f742061206d6174682070757a7a6c6560781b6044820152606490fd5b346102eb5760003660031901126102eb5761294261432e565b60025460ff8116156129815760ff19166002557f5db9ee0a495bf2e6ff9c91a7834c1ba4fdd244a5e8aa4e537bd38aeae4b073aa6020604051338152a1005b60405162461bcd60e51b815260206004820152601460248201527314185d5cd8589b194e881b9bdd081c185d5cd95960621b6044820152606490fd5b346102eb5760603660031901126102eb576004356044356024356129df614112565b8060005260209160038352612a0160ff600a6040600020015460101c16613cbd565b83600052600b83526040600020544210612b61578160005260038352612a31600360406000200154821115613ddd565b6000828152600384526040902060058101549093906001600160a01b0390811680612ac557509060037f65c06e47d9e4fc8adbe172ef021cb72fea5990c1f513885e7131185ebbd5a83395612a9e60008080808960409b9a99600d54165af1612a98613ec1565b50613e83565b01612aaa838254614719565b905585600052600b81526000848120558351928352820152a2005b600d5460405163a9059cbb60e01b815292166001600160a01b0316600483015260248201849052909392919081908590816000816044810103925af180156104c8577f65c06e47d9e4fc8adbe172ef021cb72fea5990c1f513885e7131185ebbd5a83395612b3f600392604097600091612b445750613e83565b612a9e565b612b5b9150853d87116104c1576104b38183613a46565b8a612a98565b60405162461bcd60e51b8152600481018490526014602482015273151a5b595b1bd8dac81b9bdd08195e1c1a5c995960621b6044820152606490fd5b346102eb5760403660031901126102eb57612bb6613c61565b336001600160a01b03821603612bd25761001b906004356146a3565b60405162461bcd60e51b815260206004820152602f60248201527f416363657373436f6e74726f6c3a2063616e206f6e6c792072656e6f756e636560448201526e103937b632b9903337b91039b2b63360891b6064820152608490fd5b346102eb5760203660031901126102eb57600435612c4b61432e565b8015612c5657601155005b60405162461bcd60e51b8152602060048201526014602482015273466565206d75737420626520706f73697469766560601b6044820152606490fd5b346102eb5760403660031901126102eb57600435612cae613c61565b90806000526003602052612ccf60ff600a6040600020015460101c16613cbd565b600052600a60205260406000209060018060a01b03166000526020526106296106156040600020613b35565b346102eb5760403660031901126102eb57600435612d17613c61565b816000526001602052612d31600160406000200154614598565b81600052600160205260406000209060018060a01b0316908160005260205260ff604060002054161561246557005b346102eb5760203660031901126102eb5760043560005260086020526020604060002054604051908152f35b346102eb5760003660031901126102eb576020604051620151808152f35b346102eb5760203660031901126102eb57600435600052600b6020526020604060002054604051908152f35b346102eb5760203660031901126102eb5760043560005260016020526020600160406000200154604051908152f35b346102eb5760003660031901126102eb5760206040517fbf233dd2aafeb4d50879c4aa5c81e96d92f6e6945c906a58f9f2d1c1631b4b268152f35b346102eb5760203660031901126102eb57600435806000526003602052612e7460ff600a6040600020015460101c16613cbd565b80600052600360205260406000206002810180549160ff831690600682101561057c57612ea56003600c9314613e37565b01908154421115612ee457600260009360ff1916179055557f0b1ca659796b83b4f0a879a976bbb52e43e87049cfbf35ab5395901d2ecbab92600080a2005b60405162461bcd60e51b815260206004820152601760248201527f446561646c696e65206e6f7420796574207061737365640000000000000000006044820152606490fd5b346102eb5760003660031901126102eb5760206040517fc63907609c1c518c230a90524384edc1a25df2f21481ddb99bef5e2444c35ef08152f35b346102eb5760003660031901126102eb576020601154604051908152f35b346102eb5760203660031901126102eb5760043560006101e0604051612fa781613a0f565b606081528260208201528260408201528260608201528260808201528260a08201528260c08201528260e08201528261010082015282610120820152826101408201528261016082015282610180820152826101a082015260606101c0820152015280600052600360205261302960ff600a6040600020015460101c16613cbd565b60005260036020526040600020600560205260406000205460066020526040600020549160086020526040600020546040519161306583613a0f565b61306e81613b35565b83526001810154602084015260ff60028201541690600682101561057c576040840191909152600381015460608401526004810154608084015260058101546001600160a01b0390811660a08501526006820154811660c085015260078201541660e084015260088101546101008401526009810154610120840152600a810154600c919061310460ff82166101408701613e2b565b600881901c60ff9081161515610160870152601082901c16151561018086015260181c6001600160a01b03166101a0850152613142600b8201613b35565b6101c085015201546101e0830152604051938493608085526101e0613255613178865161020060808a0152610280890190613bfd565b602087015160a0890152613194604088015160c08a0190613c22565b606087015160e0890152608087015161010089015260018060a01b0360a08801511661012089015260018060a01b0360c08801511661014089015260018060a01b0360e0880151166101608901526101008701516101808901526101208701516101a089015261320e6101408801516101c08a0190613c2f565b61016087015115158884015261018087015115156102008901526101a08701516001600160a01b03166102208901526101c0870151888203607f19016102408a0152613bfd565b9401516102608601526020850152604084015260608301520390f35b346102eb5761327f36613c4b565b90613288614112565b8060005260036020526132a860ff600a6040600020015460101c16613cbd565b8060005260036020526132c5600360406000200154831115613ddd565b60405190602082018181524260408401523360601b60608401526054835260808301908382106001600160401b038311176107e957816040528351902093620151804201804211610d1e577ffdba3823f568cc62faf441257975029c3242942798f02799332eaee6318adc009460409460a09288600052600b602052866000205584520152a2005b346102eb5760403660031901126102eb57600435613369613c3c565b908060005260206003815261338b60ff600a6040600020015460101c16613cbd565b81600052600381526040600020600281019060ff825416600681101561057c5760016133b79114613d64565b8360005260048352604060002033600052835260ff604060002054166134f157600084815260048452604080822033835285529020805460ff199081166001179091557fe71fcdac32df1877c1700e7bda2a03157e20993363a28fc35ac495cefc76e4d493929186156134b657856000526005845261343e6103e860406000205410613d9e565b856000526005845260406000206134558154613d55565b9055856000526005845260086040600020549101541115613481575b50505b60405193151584523393a3005b8154166002179055827fb2f76656a4d5058a44d6f5fd1ebed95b7ef72920bbecf069fe3973f82c24351f600080a28480613471565b50505082600052600681526134d36103e860406000205410613d9e565b826000526006815260406000206134ea8154613d55565b9055613474565b60405162461bcd60e51b815260048101849052600d60248201526c105b1c9958591e481d9bdd1959609a1b6044820152606490fd5b346102eb5760203660031901126102eb576004356000526003602052604060002061355081613b35565b6001820154600283015460ff16926003810154916004820154600160a01b6001900390816005850154168260068601541683600787015416600887015491600988015493600a89015495600b8a016135a790613b35565b99600c01549a6040519d8e809e61020080835282016135c591613bfd565b9b60208201526040016135d791613c22565b60608d015260808c015260a08b015260c08a015260e089015261010088015261012087015261360d610140870160ff8316613c2f565b8060081c60ff1615156101608701528060101c60ff16151561018087015260181c166101a08501528381036101c085015261364791613bfd565b906101e08301520390f35b61365b36613ac9565b906136646140bc565b806000526020916003835261368660ff600a6040600020015460101c16613cbd565b816000526003835260ff60026040600020015416600681101561057c5760046136af9114613cff565b80518015159081613984575b5015613947578160005260038352604060002060078452604060002033600052845260ff6040600020541661390d578260005260088452603260406000205410156138d05760115460058201549091906001600160a01b0316806137f757508134036137b257916137a89161375660037f4a0952902e092af0d23149e043f8dd57e941b922b429dfe81a6b47af7253af039501918254613e1e565b90555b836000526007855260406000203360005285526040600020600160ff19825416179055836000526008855260406000206137938154613d55565b90556040519182918683523396830190613bfd565b0390a36001600055005b60405162461bcd60e51b815260048101869052601760248201527f496e636f7272656374206368616c6c656e6765206665650000000000000000006044820152606490fd5b6040516323b872dd60e01b815233600482015230602482015260448101849052908690829060649082906000905af19081156104c8576000916138b3575b501561387757916137a89161387060037f4a0952902e092af0d23149e043f8dd57e941b922b429dfe81a6b47af7253af039501918254613e1e565b9055613759565b60405162461bcd60e51b815260048101869052601460248201527310da185b1b195b99d9481999594819985a5b195960621b6044820152606490fd5b6138ca9150863d88116104c1576104b38183613a46565b86613835565b60405162461bcd60e51b815260048101859052601560248201527410da185b1b195b99d94818d85c081c995858da1959605a1b6044820152606490fd5b60405162461bcd60e51b8152600481018590526012602482015271105b1c9958591e4818da185b1b195b99d95960721b6044820152606490fd5b60405162461bcd60e51b8152600481018490526015602482015274092dcecc2d8d2c840e4cac2e6dedc40d8cadccee8d605b1b6044820152606490fd5b60c891501115846136bb565b346102eb5760203660031901126102eb5760043560005260056020526020604060002054604051908152f35b346102eb5760203660031901126102eb576004359063ffffffff60e01b82168092036102eb57602091637965db0b60e01b81149081156139fe575b5015158152f35b6301ffc9a760e01b149050836139f7565b61020081019081106001600160401b038211176107e957604052565b608081019081106001600160401b038211176107e957604052565b90601f801991011681019081106001600160401b038211176107e957604052565b6001600160401b0381116107e957601f01601f191660200190565b81601f820112156102eb57803590613a9982613a67565b92613aa76040519485613a46565b828452602083830101116102eb57816000926020809301838601378301015290565b9060406003198301126102eb5760043591602435906001600160401b0382116102eb57613af891600401613a82565b90565b90600182811c92168015613b2b575b6020831014613b1557565b634e487b7160e01b600052602260045260246000fd5b91607f1691613b0a565b90604051918260008254613b4881613afb565b90818452602094600191600181169081600014613bb85750600114613b79575b505050613b7792500383613a46565b565b600090815285812095935091905b818310613ba0575050613b779350820101388080613b68565b85548884018501529485019487945091830191613b87565b92505050613b7794925060ff191682840152151560051b820101388080613b68565b60005b838110613bed5750506000910152565b8181015183820152602001613bdd565b90602091613c1681518092818552858086019101613bda565b601f01601f1916010190565b90600682101561057c5752565b90600382101561057c5752565b6024359081151582036102eb57565b60409060031901126102eb576004359060243590565b602435906001600160a01b03821682036102eb57565b600435906001600160a01b03821682036102eb57565b9181601f840112156102eb578235916001600160401b0383116102eb576020808501948460051b0101116102eb57565b15613cc457565b60405162461bcd60e51b815260206004820152601360248201527211d85b5948191bd95cc81b9bdd08195e1a5cdd606a1b6044820152606490fd5b15613d0657565b60405162461bcd60e51b815260206004820152600f60248201526e11d85b59481b9bdd081cdbdb1d9959608a1b6044820152606490fd5b908160209103126102eb575180151581036102eb5790565b6000198114610d1e5760010190565b15613d6b57565b60405162461bcd60e51b815260206004820152600b60248201526a4e6f742070656e64696e6760a81b6044820152606490fd5b15613da557565b60405162461bcd60e51b815260206004820152601060248201526f159bdd194818d85c081c995858da195960821b6044820152606490fd5b15613de457565b60405162461bcd60e51b8152602060048201526012602482015271105b5bdd5b9d08195e18d959591cc81c1bdd60721b6044820152606490fd5b91908201809211610d1e57565b600382101561057c5752565b15613e3e57565b60405162461bcd60e51b815260206004820152601960248201527f4e6f74206177616974696e6720766572696669636174696f6e000000000000006044820152606490fd5b15613e8a57565b60405162461bcd60e51b815260206004820152600f60248201526e15da5d1a191c985dc819985a5b1959608a1b6044820152606490fd5b3d15613eec573d90613ed282613a67565b91613ee06040519384613a46565b82523d6000602084013e565b606090565b15613ef857565b60405162461bcd60e51b815260206004820152600e60248201526d105b1c9958591e481cdbdb1d995960921b6044820152606490fd5b818110613f39575050565b60008155600101613f2e565b81810292918115918404141715610d1e57565b613f628154613afb565b9081613f6c575050565b81601f60009311600114613f7e575055565b908083918252613f9d601f60208420940160051c840160018501613f2e565b5555565b15613fa857565b60405162461bcd60e51b815260206004820152600c60248201526b155b985d5d1a1bdc9a5e995960a21b6044820152606490fd5b15613fe357565b60405162461bcd60e51b815260206004820152600d60248201526c14185e5bdd5d0819985a5b1959609a1b6044820152606490fd5b1561401f57565b60405162461bcd60e51b8152602060048201526011602482015270125b9d985b1a59081d1a1c995cda1bdb19607a1b6044820152606490fd5b91908110156140685760051b0190565b634e487b7160e01b600052603260045260246000fd5b1561408557565b60405162461bcd60e51b815260206004820152600f60248201526e111bdb985d1a5bdb8819985a5b1959608a1b6044820152606490fd5b6002600054146140cd576002600055565b60405162461bcd60e51b815260206004820152601f60248201527f5265656e7472616e637947756172643a207265656e7472616e742063616c6c006044820152606490fd5b3360009081527f1614b4e5e0f135c54873c4dcd295a7b40f93a8d877405affc188cfd7b4f40ed2602090815260408083205490927fbf233dd2aafeb4d50879c4aa5c81e96d92f6e6945c906a58f9f2d1c1631b4b269160019060ff161561417a575050505050565b61418333614988565b9285519161419083613a2b565b6042835285830193606036863783511561431a576030855383516001101561431a5790607860218501536041915b8183116142ac5750505061426a57604861426693869361424a9361423b985198899376020b1b1b2b9b9a1b7b73a3937b61d1030b1b1b7bab73a1604d1b8a860152614212815180928c603789019101613bda565b8401917001034b99036b4b9b9b4b733903937b6329607d1b603784015251809386840190613bda565b01036028810187520185613a46565b5192839262461bcd60e51b845260048401526024830190613bfd565b0390fd5b60648486519062461bcd60e51b825280600483015260248201527f537472696e67733a20686578206c656e67746820696e73756666696369656e746044820152fd5b909192600f81166010811015614306576f181899199a1a9b1b9c1cb0b131b232b360811b901a6142dc8587614977565b5360041c9280156142f2576000190191906141be565b634e487b7160e01b82526011600452602482fd5b634e487b7160e01b83526032600452602483fd5b634e487b7160e01b81526032600452602490fd5b3360009081527fa6eef7e35abe7026729641147f7915573c7e97b47efa546f5f6e3230263bcb496020908152604080832054909260019160ff16156143735750505050565b61437c33614988565b918185519161438a83613a2b565b6042835285830193606036863783511561431a576030855383516001101561431a5790607860218501536041915b81831161440c5750505061426a57604861426693869361424a9361423b985198899376020b1b1b2b9b9a1b7b73a3937b61d1030b1b1b7bab73a1604d1b8a860152614212815180928c603789019101613bda565b909192600f81166010811015614306576f181899199a1a9b1b9c1cb0b131b232b360811b901a61443c8587614977565b5360041c9280156142f2576000190191906143b8565b3360009081527fe161abe49421bdbe04b54ee9f794dbf668947c663b3c53cbadb88cdd90c50278602090815260408083205490927fc63907609c1c518c230a90524384edc1a25df2f21481ddb99bef5e2444c35ef09160019060ff16156144ba575050505050565b6144c333614988565b928551916144d083613a2b565b6042835285830193606036863783511561431a576030855383516001101561431a5790607860218501536041915b8183116145525750505061426a57604861426693869361424a9361423b985198899376020b1b1b2b9b9a1b7b73a3937b61d1030b1b1b7bab73a1604d1b8a860152614212815180928c603789019101613bda565b909192600f81166010811015614306576f181899199a1a9b1b9c1cb0b131b232b360811b901a6145828587614977565b5360041c9280156142f2576000190191906144fe565b600081815260019160209160018352604093848220338352845260ff8583205416156145c5575050505050565b6145ce33614988565b928551916145db83613a2b565b6042835285830193606036863783511561431a576030855383516001101561431a5790607860218501536041915b81831161465d5750505061426a57604861426693869361424a9361423b985198899376020b1b1b2b9b9a1b7b73a3937b61d1030b1b1b7bab73a1604d1b8a860152614212815180928c603789019101613bda565b909192600f81166010811015614306576f181899199a1a9b1b9c1cb0b131b232b360811b901a61468d8587614977565b5360041c9280156142f257600019019190614609565b906000918083526001602052604083209160018060a01b03169182845260205260ff6040842054166146d457505050565b8083526001602052604083208284526020526040832060ff1981541690557ff6391f5c32d9c69d2a47ea670b442974b53935d1edc7fd64eb21e047a839171b339380a4565b91908203918211610d1e57565b6005810180549193926001600160a01b03929091908316806147c857505060069060009383859493858080808098978198600d54165af197614766613ec1565b500154165af1614774613ec1565b50816147c0575b501561478357565b60405162461bcd60e51b815260206004820152601560248201527414da185c99481d1c985b9cd9995c8819985a5b1959605a1b6044820152606490fd5b90503861477b565b600d546040805163a9059cbb60e01b8082529287166001600160a01b0316600482015260248101959095526020979096929592949093919291908881806044810103816000809b5af190811561492957879161490c575b50156148d3575460069390930154865192835281166001600160a01b031660048301526024820193909352918591839160449183918791165af19182156148c857916148ab575b5015614870575050565b60649250519062461bcd60e51b825260048201526015602482015274141c9bdc1bdcd95c881cda185c994819985a5b1959605a1b6044820152fd5b6148c29150833d85116104c1576104b38183613a46565b38614866565b8351903d90823e3d90fd5b865162461bcd60e51b8152600481018990526012602482015271121bdd5cd9481cda185c994819985a5b195960721b6044820152606490fd5b6149239150893d8b116104c1576104b38183613a46565b3861481f565b88513d89823e3d90fd5b60ff6002541661493f57565b60405162461bcd60e51b815260206004820152601060248201526f14185d5cd8589b194e881c185d5cd95960821b6044820152606490fd5b908151811015614068570160200190565b60405190606082018281106001600160401b038211176107e957604052602a8252602082016040368237825115614068576030905381516001906001101561406857607860218401536029905b808211614a295750506149e55790565b606460405162461bcd60e51b815260206004820152602060248201527f537472696e67733a20686578206c656e67746820696e73756666696369656e746044820152fd5b9091600f81166010811015614a82576f181899199a1a9b1b9c1cb0b131b232b360811b901a614a588486614977565b5360041c918015614a6d5760001901906149d5565b60246000634e487b7160e01b81526011600452fd5b60246000634e487b7160e01b81526032600452fdfea264697066735822122088d06523a196953d23ca527c604c56611f5e8e7f6907e50ea32d1c8426b8cb3664736f6c634300081800332f8788117e7eff1d82e926ec794901d17c78024a50270940304540a733656f0d",
  "linkReferences": {},
  "deployedLinkReferences": {}
}