{
  "_format": "hh-sol-artifact-1",
  "contractName": "Solvable",
  "sourceName": "contracts/Solvable.sol",
  "abi": [
    {
      "inputs": [
        {
          "internalType": "address",
          "name": "_admin",
          "type": "address"
        }
      ],
      "stateMutability": "nonpayable",
      "type": "constructor"
    },
    {
      "anonymous": false,
      "inputs": [
        {
          "indexed": true,
          "internalType": "uint256",
          "name": "gameId",
          "type": "uint256"
        },
        {
          "indexed": true,
          "internalType": "address",
          "name": "donor",
          "type": "address"
        },
        {
          "indexed": false,
          "internalType": "uint256",
          "name": "amount",
          "type": "uint256"
        }
      ],
      "name": "DonationReceived",
      "type": "event"
    },
    {
      "anonymous": false,
      "inputs": [
        {
          "indexed": true,
          "internalType": "uint256",
          "name": "requestId",
          "type": "uint256"
        },
        {
          "indexed": false,
          "internalType": "uint256",
          "name": "gameId",
          "type": "uint256"
        },
        {
          "indexed": false,
          "internalType": "uint256",
          "name": "amount",
          "type": "uint256"
        }
      ],
      "name": "EmergencyWithdrawExecuted",
      "type": "event"
    },
    {
      "anonymous": false,
      "inputs": [
        {
          "indexed": true,
          "internalType": "uint256",
          "name": "requestId",
          "type": "uint256"
        },
        {
          "indexed": false,
          "internalType": "uint256",
          "name": "gameId",
          "type": "uint256"
        },
        {
          "indexed": false,
          "internalType": "uint256",
          "name": "amount",
          "type": "uint256"
        }
      ],
      "name": "EmergencyWithdrawRequested",
      "type": "event"
    },
    {
      "anonymous": false,
      "inputs": [
        {
          "indexed": true,
          "internalType": "uint256",
          "name": "gameId",
          "type": "uint256"
        },
        {
          "indexed": false,
          "internalType": "uint256",
          "name": "fee",
          "type": "uint256"
        }
      ],
      "name": "EntryFeeUpdated",
      "type": "event"
    },
    {
      "anonymous": false,
      "inputs": [
        {
          "indexed": true,
          "internalType": "uint256",
          "name": "gameId",
          "type": "uint256"
        }
      ],
      "name": "GameActivated",
      "type": "event"
    },
    {
      "anonymous": false,
      "inputs": [
        {
          "indexed": true,
          "internalType": "uint256",
          "name": "gameId",
          "type": "uint256"
        },
        {
          "indexed": true,
          "internalType": "address",
          "name": "winner",
          "type": "address"
        }
      ],
      "name": "GameFinalized",
      "type": "event"
    },
    {
      "anonymous": false,
      "inputs": [
        {
          "indexed": true,
          "internalType": "uint256",
          "name": "gameId",
          "type": "uint256"
        }
      ],
      "name": "GameInvalidated",
      "type": "event"
    },
    {
      "anonymous": false,
      "inputs": [
        {
          "indexed": true,
          "internalType": "uint256",
          "name": "gameId",
          "type": "uint256"
        }
      ],
      "name": "GameReset",
      "type": "event"
    },
    {
      "anonymous": false,
      "inputs": [
        {
          "indexed": false,
          "internalType": "address",
          "name": "houseAddress",
          "type": "address"
        }
      ],
      "name": "HouseAddressUpdated",
      "type": "event"
    },
    {
      "anonymous": false,
      "inputs": [
        {
          "indexed": false,
          "internalType": "uint256",
          "name": "percentage",
          "type": "uint256"
        }
      ],
      "name": "HouseCutUpdated",
      "type": "event"
    },
    {
      "anonymous": false,
      "inputs": [
        {
          "indexed": true,
          "internalType": "uint256",
          "name": "gameId",
          "type": "uint256"
        },
        {
          "indexed": true,
          "internalType": "address",
          "name": "solver",
          "type": "address"
        },
        {
          "indexed": false,
          "internalType": "bool",
          "name": "approved",
          "type": "bool"
        },
        {
          "indexed": false,
          "internalType": "address",
          "name": "verifier",
          "type": "address"
        }
      ],
      "name": "MathSolutionVerified",
      "type": "event"
    },
    {
      "anonymous": false,
      "inputs": [
        {
          "indexed": true,
          "internalType": "uint256",
          "name": "gameId",
          "type": "uint256"
        },
        {
          "indexed": true,
          "internalType": "address",
          "name": "submitter",
          "type": "address"
        },
        {
          "indexed": false,
          "internalType": "uint256",
          "name": "deadline",
          "type": "uint256"
        }
      ],
      "name": "OracleVerificationRequested",
      "type": "event"
    },
    {
      "anonymous": false,
      "inputs": [
        {
          "indexed": false,
          "internalType": "address",
          "name": "account",
          "type": "address"
        }
      ],
      "name": "Paused",
      "type": "event"
    },
    {
      "anonymous": false,
      "inputs": [
        {
          "indexed": true,
          "internalType": "uint256",
          "name": "gameId",
          "type": "uint256"
        },
        {
          "indexed": true,
          "internalType": "address",
          "name": "proposer",
          "type": "address"
        },
        {
          "indexed": false,
          "internalType": "string",
          "name": "puzzle",
          "type": "string"
        },
        {
          "indexed": false,
          "internalType": "bytes32",
          "name": "solutionHash",
          "type": "bytes32"
        },
        {
          "indexed": false,
          "internalType": "uint256",
          "name": "entryFee",
          "type": "uint256"
        },
        {
          "indexed": false,
          "internalType": "address",
          "name": "token",
          "type": "address"
        },
        {
          "indexed": false,
          "internalType": "uint256",
          "name": "voteThreshold",
          "type": "uint256"
        },
        {
          "indexed": false,
          "internalType": "enum Solvable.PuzzleType",
          "name": "puzzleType",
          "type": "uint8"
        }
      ],
      "name": "PuzzleProposed",
      "type": "event"
    },
    {
      "anonymous": false,
      "inputs": [
        {
          "indexed": true,
          "internalType": "uint256",
          "name": "gameId",
          "type": "uint256"
        },
        {
          "indexed": true,
          "internalType": "address",
          "name": "solver",
          "type": "address"
        }
      ],
      "name": "PuzzleSolved",
      "type": "event"
    },
    {
      "anonymous": false,
      "inputs": [
        {
          "indexed": true,
          "internalType": "bytes32",
          "name": "role",
          "type": "bytes32"
        },
        {
          "indexed": true,
          "internalType": "bytes32",
          "name": "previousAdminRole",
          "type": "bytes32"
        },
        {
          "indexed": true,
          "internalType": "bytes32",
          "name": "newAdminRole",
          "type": "bytes32"
        }
      ],
      "name": "RoleAdminChanged",
      "type": "event"
    },
    {
      "anonymous": false,
      "inputs": [
        {
          "indexed": true,
          "internalType": "bytes32",
          "name": "role",
          "type": "bytes32"
        },
        {
          "indexed": true,
          "internalType": "address",
          "name": "account",
          "type": "address"
        },
        {
          "indexed": true,
          "internalType": "address",
          "name": "sender",
          "type": "address"
        }
      ],
      "name": "RoleGranted",
      "type": "event"
    },
    {
      "anonymous": false,
      "inputs": [
        {
          "indexed": true,
          "internalType": "bytes32",
          "name": "role",
          "type": "bytes32"
        },
        {
          "indexed": true,
          "internalType": "address",
          "name": "account",
          "type": "address"
        },
        {
          "indexed": true,
          "internalType": "address",
          "name": "sender",
          "type": "address"
        }
      ],
      "name": "RoleRevoked",
      "type": "event"
    },
    {
      "anonymous": false,
      "inputs": [
        {
          "indexed": true,
          "internalType": "uint256",
          "name": "gameId",
          "type": "uint256"
        },
        {
          "indexed": true,
          "internalType": "address",
          "name": "challenger",
          "type": "address"
        },
        {
          "indexed": false,
          "internalType": "string",
          "name": "reason",
          "type": "string"
        }
      ],
      "name": "SolutionChallenged",
      "type": "event"
    },
    {
      "anonymous": false,
      "inputs": [
        {
          "indexed": true,
          "internalType": "uint256",
          "name": "gameId",
          "type": "uint256"
        },
        {
          "indexed": true,
          "internalType": "address",
          "name": "player",
          "type": "address"
        },
        {
          "indexed": false,
          "internalType": "bool",
          "name": "correct",
          "type": "bool"
        },
        {
          "indexed": false,
          "internalType": "uint256",
          "name": "potSize",
          "type": "uint256"
        },
        {
          "indexed": false,
          "internalType": "uint256",
          "name": "houseCut",
          "type": "uint256"
        }
      ],
      "name": "SolutionSubmitted",
      "type": "event"
    },
    {
      "anonymous": false,
      "inputs": [
        {
          "indexed": true,
          "internalType": "uint256",
          "name": "gameId",
          "type": "uint256"
        },
        {
          "indexed": false,
          "internalType": "bool",
          "name": "requireFee",
          "type": "bool"
        }
      ],
      "name": "SubmissionFeeToggled",
      "type": "event"
    },
    {
      "anonymous": false,
      "inputs": [
        {
          "indexed": false,
          "internalType": "address",
          "name": "account",
          "type": "address"
        }
      ],
      "name": "Unpaused",
      "type": "event"
    },
    {
      "anonymous": false,
      "inputs": [
        {
          "indexed": true,
          "internalType": "uint256",
          "name": "gameId",
          "type": "uint256"
        }
      ],
      "name": "VerificationExpired",
      "type": "event"
    },
    {
      "anonymous": false,
      "inputs": [
        {
          "indexed": true,
          "internalType": "uint256",
          "name": "gameId",
          "type": "uint256"
        },
        {
          "indexed": true,
          "internalType": "address",
          "name": "voter",
          "type": "address"
        },
        {
          "indexed": false,
          "internalType": "bool",
          "name": "approve",
          "type": "bool"
        }
      ],
      "name": "VoteCast",
      "type": "event"
    },
    {
      "inputs": [],
      "name": "DEFAULT_ADMIN_ROLE",
      "outputs": [
        {
          "internalType": "bytes32",
          "name": "",
          "type": "bytes32"
        }
      ],
      "stateMutability": "view",
      "type": "function"
    },
    {
      "inputs": [],
      "name": "EMERGENCY_ROLE",
      "outputs": [
        {
          "internalType": "bytes32",
          "name": "",
          "type": "bytes32"
        }
      ],
      "stateMutability": "view",
      "type": "function"
    },
    {
      "inputs": [],
      "name": "GAME_VERIFIER_ROLE",
      "outputs": [
        {
          "internalType": "bytes32",
          "name": "",
          "type": "bytes32"
        }
      ],
      "stateMutability": "view",
      "type": "function"
    },
    {
      "inputs": [],
      "name": "MAX_CHALLENGES_PER_GAME",
      "outputs": [
        {
          "internalType": "uint256",
          "name": "",
          "type": "uint256"
        }
      ],
      "stateMutability": "view",
      "type": "function"
    },
    {
      "inputs": [],
      "name": "MAX_VOTES_PER_GAME",
      "outputs": [
        {
          "internalType": "uint256",
          "name": "",
          "type": "uint256"
        }
      ],
      "stateMutability": "view",
      "type": "function"
    },
    {
      "inputs": [],
      "name": "ORACLE_VERIFICATION_TIMEOUT",
      "outputs": [
        {
          "internalType": "uint256",
          "name": "",
          "type": "uint256"
        }
      ],
      "stateMutability": "view",
      "type": "function"
    },
    {
      "inputs": [],
      "name": "ORACLE_VERIFIER_ROLE",
      "outputs": [
        {
          "internalType": "bytes32",
          "name": "",
          "type": "bytes32"
        }
      ],
      "stateMutability": "view",
      "type": "function"
    },
    {
      "inputs": [
        {
          "internalType": "uint256",
          "name": "gameId",
          "type": "uint256"
        },
        {
          "internalType": "address",
          "name": "_submitter",
          "type": "address"
        },
        {
          "internalType": "bool",
          "name": "_approved",
          "type": "bool"
        }
      ],
      "name": "approveMathSolution",
      "outputs": [],
      "stateMutability": "nonpayable",
      "type": "function"
    },
    {
      "inputs": [
        {
          "internalType": "uint256[]",
          "name": "gameIds",
          "type": "uint256[]"
        },
        {
          "internalType": "address[]",
          "name": "submitters",
          "type": "address[]"
        },
        {
          "internalType": "bool[]",
          "name": "approvals",
          "type": "bool[]"
        }
      ],
      "name": "batchVerifyMathSolutions",
      "outputs": [],
      "stateMutability": "nonpayable",
      "type": "function"
    },
    {
      "inputs": [
        {
          "internalType": "uint256",
          "name": "gameId",
          "type": "uint256"
        }
      ],
      "name": "cancelProposal",
      "outputs": [],
      "stateMutability": "nonpayable",
      "type": "function"
    },
    {
      "inputs": [],
      "name": "challengeFee",
      "outputs": [
        {
          "internalType": "uint256",
          "name": "",
          "type": "uint256"
        }
      ],
      "stateMutability": "view",
      "type": "function"
    },
    {
      "inputs": [
        {
          "internalType": "uint256",
          "name": "gameId",
          "type": "uint256"
        },
        {
          "internalType": "string",
          "name": "_reason",
          "type": "string"
        }
      ],
      "name": "challengeSolution",
      "outputs": [],
      "stateMutability": "payable",
      "type": "function"
    },
    {
      "inputs": [],
      "name": "challengeThreshold",
      "outputs": [
        {
          "internalType": "uint256",
          "name": "",
          "type": "uint256"
        }
      ],
      "stateMutability": "view",
      "type": "function"
    },
    {
      "inputs": [
        {
          "internalType": "uint256",
          "name": "gameId",
          "type": "uint256"
        },
        {
          "internalType": "uint256",
          "name": "amount",
          "type": "uint256"
        }
      ],
      "name": "donateToGame",
      "outputs": [],
      "stateMutability": "payable",
      "type": "function"
    },
    {
      "inputs": [
        {
          "internalType": "uint256",
          "name": "",
          "type": "uint256"
        }
      ],
      "name": "emergencyWithdrawTimelock",
      "outputs": [
        {
          "internalType": "uint256",
          "name": "",
          "type": "uint256"
        }
      ],
      "stateMutability": "view",
      "type": "function"
    },
    {
      "inputs": [
        {
          "internalType": "uint256",
          "name": "requestId",
          "type": "uint256"
        },
        {
          "internalType": "uint256",
          "name": "gameId",
          "type": "uint256"
        },
        {
          "internalType": "uint256",
          "name": "amount",
          "type": "uint256"
        }
      ],
      "name": "executeEmergencyWithdraw",
      "outputs": [],
      "stateMutability": "nonpayable",
      "type": "function"
    },
    {
      "inputs": [
        {
          "internalType": "uint256",
          "name": "gameId",
          "type": "uint256"
        }
      ],
      "name": "finalizeGame",
      "outputs": [],
      "stateMutability": "nonpayable",
      "type": "function"
    },
    {
      "inputs": [
        {
          "internalType": "uint256",
          "name": "",
          "type": "uint256"
        }
      ],
      "name": "games",
      "outputs": [
        {
          "internalType": "string",
          "name": "puzzle",
          "type": "string"
        },
        {
          "internalType": "bytes32",
          "name": "solutionHash",
          "type": "bytes32"
        },
        {
          "internalType": "enum Solvable.GameStatus",
          "name": "status",
          "type": "uint8"
        },
        {
          "internalType": "uint256",
          "name": "pot",
          "type": "uint256"
        },
        {
          "internalType": "uint256",
          "name": "entryFee",
          "type": "uint256"
        },
        {
          "internalType": "address",
          "name": "token",
          "type": "address"
        },
        {
          "internalType": "address",
          "name": "proposer",
          "type": "address"
        },
        {
          "internalType": "address",
          "name": "winner",
          "type": "address"
        },
        {
          "internalType": "uint256",
          "name": "voteThreshold",
          "type": "uint256"
        },
        {
          "internalType": "uint256",
          "name": "challengeThreshold",
          "type": "uint256"
        },
        {
          "internalType": "enum Solvable.PuzzleType",
          "name": "puzzleType",
          "type": "uint8"
        },
        {
          "internalType": "bool",
          "name": "requireSubmissionFee",
          "type": "bool"
        },
        {
          "internalType": "bool",
          "name": "exists",
          "type": "bool"
        },
        {
          "internalType": "address",
          "name": "firstSolver",
          "type": "address"
        },
        {
          "internalType": "string",
          "name": "oracleParams",
          "type": "string"
        },
        {
          "internalType": "uint256",
          "name": "verificationDeadline",
          "type": "uint256"
        }
      ],
      "stateMutability": "view",
      "type": "function"
    },
    {
      "inputs": [
        {
          "internalType": "uint256",
          "name": "start",
          "type": "uint256"
        },
        {
          "internalType": "uint256",
          "name": "limit",
          "type": "uint256"
        }
      ],
      "name": "getActiveGames",
      "outputs": [
        {
          "internalType": "uint256[]",
          "name": "",
          "type": "uint256[]"
        }
      ],
      "stateMutability": "view",
      "type": "function"
    },
    {
      "inputs": [
        {
          "internalType": "uint256",
          "name": "gameId",
          "type": "uint256"
        }
      ],
      "name": "getGameDetails",
      "outputs": [
        {
          "components": [
            {
              "internalType": "string",
              "name": "puzzle",
              "type": "string"
            },
            {
              "internalType": "bytes32",
              "name": "solutionHash",
              "type": "bytes32"
            },
            {
              "internalType": "enum Solvable.GameStatus",
              "name": "status",
              "type": "uint8"
            },
            {
              "internalType": "uint256",
              "name": "pot",
              "type": "uint256"
            },
            {
              "internalType": "uint256",
              "name": "entryFee",
              "type": "uint256"
            },
            {
              "internalType": "address",
              "name": "token",
              "type": "address"
            },
            {
              "internalType": "address",
              "name": "proposer",
              "type": "address"
            },
            {
              "internalType": "address",
              "name": "winner",
              "type": "address"
            },
            {
              "internalType": "uint256",
              "name": "voteThreshold",
              "type": "uint256"
            },
            {
              "internalType": "uint256",
              "name": "challengeThreshold",
              "type": "uint256"
            },
            {
              "internalType": "enum Solvable.PuzzleType",
              "name": "puzzleType",
              "type": "uint8"
            },
            {
              "internalType": "bool",
              "name": "requireSubmissionFee",
              "type": "bool"
            },
            {
              "internalType": "bool",
              "name": "exists",
              "type": "bool"
            },
            {
              "internalType": "address",
              "name": "firstSolver",
              "type": "address"
            },
            {
              "internalType": "string",
              "name": "oracleParams",
              "type": "string"
            },
            {
              "internalType": "uint256",
              "name": "verificationDeadline",
              "type": "uint256"
            }
          ],
          "internalType": "struct Solvable.Game",
          "name": "game",
          "type": "tuple"
        },
        {
          "internalType": "uint256",
          "name": "approvals",
          "type": "uint256"
        },
        {
          "internalType": "uint256",
          "name": "disapprovals",
          "type": "uint256"
        },
        {
          "internalType": "uint256",
          "name": "challenges",
          "type": "uint256"
        }
      ],
      "stateMutability": "view",
      "type": "function"
    },
    {
      "inputs": [
        {
          "internalType": "uint256",
          "name": "gameId",
          "type": "uint256"
        }
      ],
      "name": "getPastWinner",
      "outputs": [
        {
          "internalType": "address",
          "name": "",
          "type": "address"
        }
      ],
      "stateMutability": "view",
      "type": "function"
    },
    {
      "inputs": [
        {
          "internalType": "uint256",
          "name": "gameId",
          "type": "uint256"
        }
      ],
      "name": "getPotBalance",
      "outputs": [
        {
          "internalType": "uint256",
          "name": "",
          "type": "uint256"
        }
      ],
      "stateMutability": "view",
      "type": "function"
    },
    {
      "inputs": [
        {
          "internalType": "bytes32",
          "name": "role",
          "type": "bytes32"
        }
      ],
      "name": "getRoleAdmin",
      "outputs": [
        {
          "internalType": "bytes32",
          "name": "",
          "type": "bytes32"
        }
      ],
      "stateMutability": "view",
      "type": "function"
    },
    {
      "inputs": [
        {
          "internalType": "uint256",
          "name": "gameId",
          "type": "uint256"
        },
        {
          "internalType": "address",
          "name": "submitter",
          "type": "address"
        }
      ],
      "name": "getSubmittedSolution",
      "outputs": [
        {
          "internalType": "string",
          "name": "",
          "type": "string"
        }
      ],
      "stateMutability": "view",
      "type": "function"
    },
    {
      "inputs": [
        {
          "internalType": "address",
          "name": "_verifier",
          "type": "address"
        }
      ],
      "name": "grantOracleVerifierRole",
      "outputs": [],
      "stateMutability": "nonpayable",
      "type": "function"
    },
    {
      "inputs": [
        {
          "internalType": "bytes32",
          "name": "role",
          "type": "bytes32"
        },
        {
          "internalType": "address",
          "name": "account",
          "type": "address"
        }
      ],
      "name": "grantRole",
      "outputs": [],
      "stateMutability": "nonpayable",
      "type": "function"
    },
    {
      "inputs": [
        {
          "internalType": "bytes32",
          "name": "role",
          "type": "bytes32"
        },
        {
          "internalType": "address",
          "name": "account",
          "type": "address"
        }
      ],
      "name": "hasRole",
      "outputs": [
        {
          "internalType": "bool",
          "name": "",
          "type": "bool"
        }
      ],
      "stateMutability": "view",
      "type": "function"
    },
    {
      "inputs": [],
      "name": "houseAddress",
      "outputs": [
        {
          "internalType": "address",
          "name": "",
          "type": "address"
        }
      ],
      "stateMutability": "view",
      "type": "function"
    },
    {
      "inputs": [],
      "name": "houseCutPercentage",
      "outputs": [
        {
          "internalType": "uint256",
          "name": "",
          "type": "uint256"
        }
      ],
      "stateMutability": "view",
      "type": "function"
    },
    {
      "inputs": [
        {
          "internalType": "uint256",
          "name": "gameId",
          "type": "uint256"
        }
      ],
      "name": "invalidateGame",
      "outputs": [],
      "stateMutability": "nonpayable",
      "type": "function"
    },
    {
      "inputs": [],
      "name": "nextGameId",
      "outputs": [
        {
          "internalType": "uint256",
          "name": "",
          "type": "uint256"
        }
      ],
      "stateMutability": "view",
      "type": "function"
    },
    {
      "inputs": [
        {
          "internalType": "uint256",
          "name": "",
          "type": "uint256"
        }
      ],
      "name": "pastWinners",
      "outputs": [
        {
          "internalType": "address",
          "name": "",
          "type": "address"
        }
      ],
      "stateMutability": "view",
      "type": "function"
    },
    {
      "inputs": [],
      "name": "pause",
      "outputs": [],
      "stateMutability": "nonpayable",
      "type": "function"
    },
    {
      "inputs": [],
      "name": "paused",
      "outputs": [
        {
          "internalType": "bool",
          "name": "",
          "type": "bool"
        }
      ],
      "stateMutability": "view",
      "type": "function"
    },
    {
      "inputs": [
        {
          "internalType": "uint256",
          "name": "gameId",
          "type": "uint256"
        }
      ],
      "name": "processExpiredVerifications",
      "outputs": [],
      "stateMutability": "nonpayable",
      "type": "function"
    },
    {
      "inputs": [
        {
          "internalType": "uint256",
          "name": "",
          "type": "uint256"
        }
      ],
      "name": "proposalApprovals",
      "outputs": [
        {
          "internalType": "uint256",
          "name": "",
          "type": "uint256"
        }
      ],
      "stateMutability": "view",
      "type": "function"
    },
    {
      "inputs": [
        {
          "internalType": "uint256",
          "name": "",
          "type": "uint256"
        }
      ],
      "name": "proposalDisapprovals",
      "outputs": [
        {
          "internalType": "uint256",
          "name": "",
          "type": "uint256"
        }
      ],
      "stateMutability": "view",
      "type": "function"
    },
    {
      "inputs": [
        {
          "internalType": "uint256",
          "name": "",
          "type": "uint256"
        },
        {
          "internalType": "address",
          "name": "",
          "type": "address"
        }
      ],
      "name": "proposalVotes",
      "outputs": [
        {
          "internalType": "bool",
          "name": "",
          "type": "bool"
        }
      ],
      "stateMutability": "view",
      "type": "function"
    },
    {
      "inputs": [
        {
          "internalType": "string",
          "name": "_puzzle",
          "type": "string"
        },
        {
          "internalType": "bytes32",
          "name": "_solutionHash",
          "type": "bytes32"
        },
        {
          "internalType": "uint256",
          "name": "_entryFee",
          "type": "uint256"
        },
        {
          "internalType": "address",
          "name": "_token",
          "type": "address"
        },
        {
          "internalType": "uint256",
          "name": "_voteThreshold",
          "type": "uint256"
        },
        {
          "internalType": "enum Solvable.PuzzleType",
          "name": "_puzzleType",
          "type": "uint8"
        },
        {
          "internalType": "string",
          "name": "_oracleParams",
          "type": "string"
        }
      ],
      "name": "proposePuzzle",
      "outputs": [
        {
          "internalType": "uint256",
          "name": "gameId",
          "type": "uint256"
        }
      ],
      "stateMutability": "nonpayable",
      "type": "function"
    },
    {
      "inputs": [
        {
          "internalType": "bytes32",
          "name": "role",
          "type": "bytes32"
        },
        {
          "internalType": "address",
          "name": "account",
          "type": "address"
        }
      ],
      "name": "renounceRole",
      "outputs": [],
      "stateMutability": "nonpayable",
      "type": "function"
    },
    {
      "inputs": [
        {
          "internalType": "uint256",
          "name": "gameId",
          "type": "uint256"
        },
        {
          "internalType": "uint256",
          "name": "amount",
          "type": "uint256"
        }
      ],
      "name": "requestEmergencyWithdraw",
      "outputs": [],
      "stateMutability": "nonpayable",
      "type": "function"
    },
    {
      "inputs": [
        {
          "internalType": "uint256",
          "name": "gameId",
          "type": "uint256"
        }
      ],
      "name": "resetGame",
      "outputs": [],
      "stateMutability": "nonpayable",
      "type": "function"
    },
    {
      "inputs": [
        {
          "internalType": "bytes32",
          "name": "role",
          "type": "bytes32"
        },
        {
          "internalType": "address",
          "name": "account",
          "type": "address"
        }
      ],
      "name": "revokeRole",
      "outputs": [],
      "stateMutability": "nonpayable",
      "type": "function"
    },
    {
      "inputs": [
        {
          "internalType": "uint256",
          "name": "_fee",
          "type": "uint256"
        }
      ],
      "name": "setChallengeFee",
      "outputs": [],
      "stateMutability": "nonpayable",
      "type": "function"
    },
    {
      "inputs": [
        {
          "internalType": "uint256",
          "name": "_threshold",
          "type": "uint256"
        }
      ],
      "name": "setChallengeThreshold",
      "outputs": [],
      "stateMutability": "nonpayable",
      "type": "function"
    },
    {
      "inputs": [
        {
          "internalType": "uint256",
          "name": "gameId",
          "type": "uint256"
        },
        {
          "internalType": "uint256",
          "name": "_entryFee",
          "type": "uint256"
        }
      ],
      "name": "setEntryFee",
      "outputs": [],
      "stateMutability": "nonpayable",
      "type": "function"
    },
    {
      "inputs": [
        {
          "internalType": "address",
          "name": "_houseAddress",
          "type": "address"
        }
      ],
      "name": "setHouseAddress",
      "outputs": [],
      "stateMutability": "nonpayable",
      "type": "function"
    },
    {
      "inputs": [
        {
          "internalType": "uint256",
          "name": "_percentage",
          "type": "uint256"
        }
      ],
      "name": "setHouseCutPercentage",
      "outputs": [],
      "stateMutability": "nonpayable",
      "type": "function"
    },
    {
      "inputs": [
        {
          "internalType": "uint256",
          "name": "_threshold",
          "type": "uint256"
        }
      ],
      "name": "setVoteThresholdDefault",
      "outputs": [],
      "stateMutability": "nonpayable",
      "type": "function"
    },
    {
      "inputs": [
        {
          "internalType": "uint256",
          "name": "",
          "type": "uint256"
        },
        {
          "internalType": "address",
          "name": "",
          "type": "address"
        }
      ],
      "name": "solutionChallenges",
      "outputs": [
        {
          "internalType": "bool",
          "name": "",
          "type": "bool"
        }
      ],
      "stateMutability": "view",
      "type": "function"
    },
    {
      "inputs": [
        {
          "internalType": "uint256",
          "name": "",
          "type": "uint256"
        }
      ],
      "name": "solutionChallengesCount",
      "outputs": [
        {
          "internalType": "uint256",
          "name": "",
          "type": "uint256"
        }
      ],
      "stateMutability": "view",
      "type": "function"
    },
    {
      "inputs": [
        {
          "internalType": "uint256",
          "name": "gameId",
          "type": "uint256"
        },
        {
          "internalType": "string",
          "name": "_solution",
          "type": "string"
        }
      ],
      "name": "submitSolution",
      "outputs": [],
      "stateMutability": "payable",
      "type": "function"
    },
    {
      "inputs": [
        {
          "internalType": "uint256",
          "name": "",
          "type": "uint256"
        },
        {
          "internalType": "address",
          "name": "",
          "type": "address"
        }
      ],
      "name": "submittedSolutions",
      "outputs": [
        {
          "internalType": "string",
          "name": "",
          "type": "string"
        }
      ],
      "stateMutability": "view",
      "type": "function"
    },
    {
      "inputs": [
        {
          "internalType": "bytes4",
          "name": "interfaceId",
          "type": "bytes4"
        }
      ],
      "name": "supportsInterface",
      "outputs": [
        {
          "internalType": "bool",
          "name": "",
          "type": "bool"
        }
      ],
      "stateMutability": "view",
      "type": "function"
    },
    {
      "inputs": [
        {
          "internalType": "uint256",
          "name": "gameId",
          "type": "uint256"
        },
        {
          "internalType": "bool",
          "name": "_requireFee",
          "type": "bool"
        }
      ],
      "name": "toggleSubmissionFee",
      "outputs": [],
      "stateMutability": "nonpayable",
      "type": "function"
    },
    {
      "inputs": [],
      "name": "unpause",
      "outputs": [],
      "stateMutability": "nonpayable",
      "type": "function"
    },
    {
      "inputs": [
        {
          "internalType": "uint256",
          "name": "gameId",
          "type": "uint256"
        },
        {
          "internalType": "bool",
          "name": "approve",
          "type": "bool"
        }
      ],
      "name": "voteOnProposal",
      "outputs": [],
      "stateMutability": "nonpayable",
      "type": "function"
    },
    {
      "inputs": [],
      "name": "voteThresholdDefault",
      "outputs": [
        {
          "internalType": "uint256",
          "name": "",
          "type": "uint256"
        }
      ],
      "stateMutability": "view",
      "type": "function"
    },
    {
      "stateMutability": "payable",
      "type": "receive"
    }
  ],
  "bytecode": "0x6080346200026157601f62004d1a38819003918201601f1916830192916001600160401b038411838510176200026657808392604095865283396020928391810103126200026157516001600160a01b038116919082900362000261578160019160009280845560ff1990816002541660025580600c556101f4600e556005600f556003601055662386f26fc10000601155848052808352868520848652835260ff8786205416156200022c575b7fb2eb88090df831c336c2ac91fd704e50d1166ef93798dae04ecdb78950a49171808652818452878620858752845260ff888720541615620001f6575b507fc63907609c1c518c230a90524384edc1a25df2f21481ddb99bef5e2444c35ef0808652818452878620858752845260ff888720541615620001c0575b507fbf233dd2aafeb4d50879c4aa5c81e96d92f6e6945c906a58f9f2d1c1631b4b2692838652818152878620858752815260ff88872054161562000188575b600d80546001600160a01b031916861790558751614a7d90816200027d8239f35b83865281815287862090858752528685209182541617905560008051602062004cfa833981519152339380a438818180808062000167565b8086528184528786208587528452878620828482541617905584339160008051602062004cfa8339815191528880a43862000128565b8086528184528786208587528452878620828482541617905584339160008051602062004cfa8339815191528880a438620000ea565b8480528083528685208486528352868520818382541617905533848660008051602062004cfa8339815191528180a4620000ad565b600080fd5b634e487b7160e01b600052604160045260246000fdfe608080604052600436101561001d575b50361561001b57600080fd5b005b60003560e01c90816301ffc9a71461396c575080630d93d28a146139405780631080636914613602578063117a5b90146134d65780631614665c146132fd57806319c1c731146132215780631b31abda14612f325780631bd8f9ca14612f145780631f2ad4d414612ed95780631fd2f25014612df057806320df435914612db5578063248a9ca314612d8657806324b4c06314612d5a57806325bd8de814612d3c5780632b64b6bd14612d105780632f2ff15d14612cab578063334b7f4e14612c4257806335bf82f614612bdf57806336568abe14612b4d5780633cb5b3471461296d5780633f4ba83a146128d9578063425ae6ec146125fb5780634cf052d5146124fc5780635408eec9146124865780635c975abb1461246357806363a1332c146123905780636beb83a814611be6578063771197ee146118f75780637ecc811d146118a85780638456cb591461184e5780638972c1b4146118325780638e1f6a2c146117e557806391d14854146117985780639b3cb966146117085780639d927ecd146116ca578063a217fddf146116ae578063a66560961461154a578063b135bbb01461152c578063b287631514611497578063bb2239d614611479578063c35aa54e1461143b578063c9e6fe3e1461141d578063ca1938e5146113ff578063ce26ad4c146113e2578063cf2fdfd9146113b6578063d2fcf4b314610f8e578063d3b5c016146109bc578063d547741f1461097d578063d7cee31e14610954578063d8201f1514610907578063e0a8f6f5146107fd578063e3c99d081461071f578063e499e79c146106eb578063ea697ac014610697578063ef3aaf54146105ea578063efc513851461058a578063f474e6b81461054a5763f5372e73146102a8573861000f565b6102b136613bfb565b906102ba61406c565b6102c26148e3565b8060005260036020908082526102e560ff600a6040600020015460101c16613c6d565b8260005280825260ff60026040600020015416600681101561053457600214801561050f575b156104d157831561048c5760008381528183526040902060058101546001600160a01b0316806103d4575084340361039a57907f0b5b4c52969ff7329ecf7ee536409fda87812b15a8622bc6e8cdeab3aee14a26929161037b60008080808a305af1610375613e71565b5061402e565b01610387858254613dce565b90555b6040519384523393a36001600055005b60405162461bcd60e51b815260048101849052601260248201527124b731b7b93932b1ba103237b730ba34b7b760711b6044820152606490fd5b6040516323b872dd60e01b815233600482015230602482015260448101879052939291908390859060649082906000905af1938415610480577f0b5b4c52969ff7329ecf7ee536409fda87812b15a8622bc6e8cdeab3aee14a269461044091600091610453575061402e565b0161044c858254613dce565b905561038a565b6104739150853d8711610479575b61046b81836139f6565b810190613ced565b38610375565b503d610461565b6040513d6000823e3d90fd5b60405162461bcd60e51b815260048101839052601960248201527f446f6e6174696f6e206d75737420626520706f736974697665000000000000006044820152606490fd5b60405162461bcd60e51b815260048101839052601660248201527511d85b59481b9bdd081858dd1a5d994bdcdbdb1d995960521b6044820152606490fd5b508260005280825260ff6002604060002001541660068110156105345760041461030b565b634e487b7160e01b600052602160045260246000fd5b346105855760003660031901126105855760206040517fb2eb88090df831c336c2ac91fd704e50d1166ef93798dae04ecdb78950a491718152f35b600080fd5b34610585576040366003190112610585576105a3613c11565b600435600052600a60205260406000209060018060a01b03166000526020526105e66105d26040600020613ae5565b604051918291602083526020830190613bad565b0390f35b3461058557602036600319011261058557610603613c27565b61060b6142de565b6001600160a01b03168015610660576020817f2dfa8b7ee656a716a96c3dc175cfec18a9c7b22b8850785ca32c4ddfee1635a8926bffffffffffffffffffffffff60a01b600d541617600d55604051908152a1005b60405162461bcd60e51b815260206004820152600f60248201526e496e76616c6964206164647265737360881b6044820152606490fd5b34610585576020366003190112610585576004358060005260036020526106cb60ff600a6040600020015460101c16613c6d565b6000526009602052602060018060a01b0360406000205416604051908152f35b34610585576020366003190112610585576004356000526009602052602060018060a01b0360406000205416604051908152f35b346105855761072d36613bfb565b8015159150816107f1575b50156107bc5760405160209060208101908082106001600160401b038311176107a6579080604052600082526040519283926020840190602085525180915260408401929160005b82811061078f57505050500390f35b835185528695509381019392810192600101610780565b634e487b7160e01b600052604160045260246000fd5b60405162461bcd60e51b815260206004820152600d60248201526c125b9d985b1a59081b1a5b5a5d609a1b6044820152606490fd5b60649150111581610738565b34610585576020806003193601126105855760043590816000526003815261083260ff600a6040600020015460101c16613c6d565b816000526003815260406000209160028301805460ff811694600686101561053457610862600160039714613d14565b600601546001600160a01b0316331480156108e8575b61088190613f51565b60ff19169055600052526000600c6040822061089c81613f08565b82600182015582600282015582600382015582600482015582600582015582600682015582600782015582600882015582600982015582600a8201556108e4600b8201613f08565b0155005b506000808052600185526040808220338352865290205460ff16610878565b3461058557604036600319011261058557610920613c11565b600435600052600760205260406000209060018060a01b0316600052602052602060ff604060002054166040519015158152f35b3461058557600036600319011261058557600d546040516001600160a01b039091168152602090f35b346105855760403660031901126105855761001b60043561099c613c11565b908060005260016020526109b7600160406000200154614548565b614653565b6109c536613a79565b906109ce61406c565b6109d66148e3565b8060005260036020526109f660ff600a6040600020015460101c16613c6d565b80600052600360205260ff60026040600020015416600681101561053457600203610f575781518015159081610f4a575b5015610f0557806000526003602052604060002091600483015492612710610a51600e5486613ef5565b0491610a5d83866146c9565b610a6a8460011c856146c9565b9560ff600a85015460081c16600014610eac5760058401546001600160a01b031680610ea5578134145b15610e695780610dc3575b505060ff600a84015416600381101561053457600103610dac575b505b60ff600a830154166003811015610534578015908115610da1575b5015610c095790600391604051610b0b60208281610afe8183019687815193849201613b8a565b81010380845201826139f6565b5190206001820154149485610b5e575b505b01546040519315158452602084015260408301527f074fbe334e9d85c8d025fc8a294588a63d6929a98d8293a5a1aee3d4be1c7eda60603393a36001600055005b600a820154610b799060181c6001600160a01b031615613ea1565b600a820180546301000000600160b81b0319163360181b6301000000600160b81b031617905560028201805460ff1916600417905533857ff7c67880b72ec988961e570ae4e849eb4fd9d5ba0ab550624ac429ef6d41880c600080a360ff600a83015460081c1680610c00575b15610b1b57610bfa908460011c90836146d6565b85610b1b565b50831515610be6565b90935082600052600a6020526040600020336000526020526040600020908051906001600160401b0382116107a657610c428354613aab565b601f8111610d64575b50602090601f8311600114610cfc57610c7d929160009183610cf1575b50508160011b916000199060031b1c19161790565b90555b60028301600360ff1982541617905562015180420192834211610cdb578084600c6003930155600094604051908152847f8e3359a99f392ee4257eb86a7ab8ee4c8a4c717bc32744354f4877931c28f6e060203393a3610b1d565b634e487b7160e01b600052601160045260246000fd5b015190508780610c68565b90601f198316918460005260206000209260005b818110610d4c5750908460019594939210610d33575b505050811b019055610c80565b015160001960f88460031b161c19169055868080610d26565b92936020600181928786015181550195019301610d10565b610d9190846000526020600020601f850160051c81019160208610610d97575b601f0160051c0190613ede565b86610c4b565b9091508190610d84565b600291501486610ad7565b610dbb60038401918254613dce565b905585610aba565b6040516323b872dd60e01b81523360048201523060248201526044810192909252602090829060649082906000905af190811561048057600091610e4a575b5015610e0f578680610a9f565b60405162461bcd60e51b8152602060048201526013602482015272119959481d1c985b9cd9995c8819985a5b1959606a1b6044820152606490fd5b610e63915060203d6020116104795761046b81836139f6565b87610e02565b60405162461bcd60e51b8152602060048201526014602482015273496e636f7272656374206e61746976652066656560601b6044820152606490fd5b6001610a94565b505060058201546001600160a01b0316610efe5734155b610abc5760405162461bcd60e51b815260206004820152600f60248201526e139bc8199959481c995c5d5a5c9959608a1b6044820152606490fd5b6001610ec3565b60405162461bcd60e51b815260206004820152601760248201527f496e76616c696420736f6c7574696f6e206c656e6774680000000000000000006044820152606490fd5b6101f49150111583610a27565b60405162461bcd60e51b815260206004820152600f60248201526e47616d65206e6f742061637469766560881b6044820152606490fd5b34610585576060366003190112610585576001600160401b0360043581811161058557610fbf903690600401613c3d565b9060243583811161058557610fd8903690600401613c3d565b92909360443590811161058557610ff3903690600401613c3d565b919092610ffe614402565b848214806113ad575b1561137057603282116113325760005b82811061102057005b61102b818484614008565b359061103881888a614008565b356001600160a01b038116810361058557611054828789614008565b35801515810361058557611066614402565b83600052600360205261108660ff600a6040600020015460101c16613c6d565b836000526003602052604060002091600a8301549460ff86166003811015610534576001036112f95760ff60028501541660068110156105345760036110cc9114613de7565b80600052600a602052604060002060018060a01b0383166000526020526110f7604060002054613aab565b156112be57600c8401544211611279576001958361119e575b5080600052600a6020526040600020868060a01b03831660005260205261113a6040600020613f08565b7f156934b37a6a765531ac9332a9cee7bfe0e5a00742dcd286b811de4751c9bb7c60408051938515158552336020860152888060a01b031693a315611181575b5001611017565b600c600091600260ff19818301541617600282015501558861117a565b6111b390878060a01b039060181c1615613ea1565b600a840180546301000000600160b81b031916601884901b6301000000600160b81b031617905560028401805460ff19166004179055600a84015460081c60ff1661122d575b858060a01b038216817ff7c67880b72ec988961e570ae4e849eb4fd9d5ba0ab550624ac429ef6d41880c600080a38c611110565b611274600485015461124f612710611247600e5484613ef5565b0480926146c9565b61125c828a1c80936146c9565b9061126c60038901918254613dce565b9055866146d6565b6111f9565b60405162461bcd60e51b815260206004820152601c60248201527f566572696669636174696f6e20646561646c696e6520706173736564000000006044820152606490fd5b60405162461bcd60e51b8152602060048201526013602482015272139bc81cdd589b5a5cdcda5bdb88199bdd5b99606a1b6044820152606490fd5b60405162461bcd60e51b81526020600482015260116024820152704e6f742061206d6174682070757a7a6c6560781b6044820152606490fd5b60405162461bcd60e51b8152602060048201526016602482015275546f6f206d616e7920766572696669636174696f6e7360501b6044820152606490fd5b60405162461bcd60e51b8152602060048201526015602482015274082e4e4c2f240d8cadccee8d040dad2e6dac2e8c6d605b1b6044820152606490fd5b50828514611007565b346105855760203660031901126105855760043560005260066020526020604060002054604051908152f35b346105855760003660031901126105855760206040516103e88152f35b34610585576000366003190112610585576020600e54604051908152f35b34610585576000366003190112610585576020600f54604051908152f35b34610585576020366003190112610585576004356114576142de565b8015158061146e575b61146990613fc8565b600f55005b506064811115611460565b34610585576000366003190112610585576020601054604051908152f35b34610585576040366003190112610585576004357faddb6994a0a091eb47d65b97d2111921aaabf03597c28c0400155ee949f0f80760206114d6613bec565b6114de6142de565b83600052600382526114fd60ff600a6040600020015460101c16613c6d565b60008481526003835260409020600a01805461ff00191682151560081b61ff00161790556040519015158152a2005b34610585576000366003190112610585576020600c54604051908152f35b346105855760208060031936011261058557600435806000526003825261157e60ff600a6040600020015460101c16613c6d565b806000526003825260ff6002604060002001541660068110156105345760046115a79114613caf565b806000526003825260406000206008835260406000205460098201541161166957600791926000805260018152604060002090336000525260ff604060002054168015611653575b6115f890613f51565b6002818101805460ff19169091179055600a810180546301000000600160b81b03191690550180546001600160a01b03191690557f3251f5fe5231b3681ff593b97e5a31720697f30eea923fc25da0667755895f41600080a2005b5060068101546001600160a01b031633146115ef565b60405162461bcd60e51b815260048101849052601760248201527f496e73756666696369656e74206368616c6c656e6765730000000000000000006044820152606490fd5b3461058557600036600319011261058557602060405160008152f35b34610585576020366003190112610585576004356116e66142de565b801515806116fd575b6116f890613fc8565b601055005b5060148111156116ef565b34610585576020366003190112610585576004356117246142de565b612710811161175e576020817f2a5598de173240d4ae127b442f13979038bbc34af775ad781d1d74626a301d3592600e55604051908152a1005b60405162461bcd60e51b8152602060048201526012602482015271496e76616c69642070657263656e7461676560701b6044820152606490fd5b34610585576040366003190112610585576117b1613c11565b600435600052600160205260406000209060018060a01b0316600052602052602060ff604060002054166040519015158152f35b34610585576040366003190112610585576117fe613c11565b600435600052600460205260406000209060018060a01b0316600052602052602060ff604060002054166040519015158152f35b3461058557600036600319011261058557602060405160328152f35b34610585576000366003190112610585576118676142de565b61186f6148e3565b600160ff1960025416176002557f62e78cea01bee320cd4e420270b5ea74000d11b0c9f74754ebdbfc544b05a2586020604051338152a1005b34610585576020366003190112610585576004358060005260036020526118dc60ff600a6040600020015460101c16613c6d565b60005260036020526020600360406000200154604051908152f35b34610585576020806003193601126105855760043590816000526003815261192c60ff600a6040600020015460101c16613c6d565b816000526003815260ff6002604060002001541660068110156105345760046119559114613caf565b81600052600381526040600020906008815260406000205460098301541115611ba2577fb2eb88090df831c336c2ac91fd704e50d1166ef93798dae04ecdb78950a4917160005260018152604060002033600052815260ff604060002054168015611b8c575b8015611b70575b6119cb90613f51565b600a8201549160ff8316600381101561053457600114611b0f575b60018060a01b03809360181c169160078201926bffffffffffffffffffffffff60a01b90808286541617855560028401600560ff19825416179055866000526009835260406000209182541617905583600560038401936000855495550154168015600014611a985750506000808080611a6e94878754165af1611a68613e71565b50613f8c565b5416907f072fb76a29123692c5adaffdcb4b4b04ee08c125417b72495933d24adc48693a600080a3005b835460405163a9059cbb60e01b81529086166001600160a01b03166004820152602481019390935290919082908290816000816044810103925af190811561048057611aed92600092611af2575b5050613f8c565b611a6e565b611b089250803d106104795761046b81836139f6565b8580611ae6565b601883901c6001600160a01b03166119e65760405162461bcd60e51b815260048101839052602160248201527f4d6174682070757a7a6c65206e6f742070726f7065726c7920766572696669656044820152601960fa1b6064820152608490fd5b50600a8201543360189190911c6001600160a01b0316146119c2565b5060068201546001600160a01b031633146119bb565b6064906040519062461bcd60e51b82526004820152601960248201527f4368616c6c656e676573206d656574207468726573686f6c64000000000000006044820152fd5b346105855760e0366003190112610585576004356001600160401b03811161058557611c16903690600401613a32565b6064356001600160a01b038116810361058557600360a43510156105855760c4356001600160401b03811161058557611c53903690600401613a32565b9082518015159081612383575b50156123465760443515612301576084351515806122f4575b156122b657600060a4351580156122a7575b156122035750602435156121b257815161215b575b600c5491611cad83613d05565b600c5560843561215357600f545b6010549160405192611ccc846139bf565b86845260243560208501526001604085015260006060850181905260443560808601526001600160a01b03861660a08601523360c086015260e08501526101008401839052610120840152611d2760a4356101408501613ddb565b6001610160840152600161018084015260006101a08401526101c083015260006101e083015283600052600360205260406000209482518051906001600160401b0382116107a657611d798854613aab565b601f8111612121575b50602090601f83116001146120b557611db39291600091836120aa5750508160011b916000199060031b1c19161790565b86555b60208301516001870155604083015160068110156105345760028701805460ff9290921660ff1992831617905560608401516003808901919091556080850151600489015560a08501516005890180546001600160a01b03199081166001600160a01b039384161790915560c087015160068b018054831691841691909117905560e087015160078b018054909216921691909117905561010085015160088901556101208501516009890155610140850151600a89019181101561053457815461016087015161ff0019919094161660ff919091161791151560081b61ff0016919091178155611ee39061018085015181546101a087015162010000600160b81b031990911691151560101b62ff0000169190911760189190911b6301000000600160b81b0316179055565b6101c0830151918251966001600160401b0388116107a6576020978794611f0d600b840154613aab565b601f8111612077575b508990601f8311600114611fdb5796611f6f83600c946101e0947f1529ea8f3e7faaf5875beb35f1160f9720ff09b546572a7ff0894af4f416e8389a9b600092611fd05750508160011b916000199060031b1c19161790565b600b8501555b0151910155611f8f6040519260c0845260c0840190613bad565b6024358389015260443560408401526001600160a01b0390951660608301526080820152611fc260a0820160a435613bdf565b8033940390a3604051908152f35b015190508e80610c68565b600b8498939298016000528a6000209060005b601f198416811061205d575082600c94927f1529ea8f3e7faaf5875beb35f1160f9720ff09b546572a7ff0894af4f416e838999a6001936101e096601f19811610612044575b505050811b01600b850155611f75565b015160001960f88460031b161c191690558d8080612034565b818a01518355988c01988b98506001909201918c01611fee565b6120a490600b85016000528b600020601f850160051c8101918d8610610d9757601f0160051c0190613ede565b8a611f16565b015190508980610c68565b9190886000526020600020906000935b601f1984168510612106576001945083601f198116106120ed575b505050811b018655611db6565b015160001960f88460031b161c191690558880806120e0565b818101518355602094850194600190930192909101906120c5565b61214d90896000526020600020601f850160051c81019160208610610d9757601f0160051c0190613ede565b88611d82565b608435611cbb565b60405162461bcd60e51b815260206004820152602960248201527f526964646c652f4f746865722073686f756c646e27742068617665206f7261636044820152686c6520706172616d7360b81b6064820152608490fd5b60405162461bcd60e51b815260206004820152602360248201527f526964646c652f4f7468657220726571756972657320736f6c7574696f6e20686044820152620c2e6d60eb1b6064820152608490fd5b61053457600160a43503611ca057602435612263578151611ca05760405162461bcd60e51b815260206004820152601b60248201527f4d617468207265717569726573206f7261636c6520706172616d7300000000006044820152606490fd5b606460405162461bcd60e51b815260206004820152602060248201527f4d6174682073686f756c646e27742075736520736f6c7574696f6e20686173686044820152fd5b50506000600260a43514611c8b565b60405162461bcd60e51b8152602060048201526016602482015275125b9d985b1a59081d9bdd19481d1a1c995cda1bdb1960521b6044820152606490fd5b5060646084351115611c79565b60405162461bcd60e51b815260206004820152601a60248201527f456e74727920666565206d75737420626520706f7369746976650000000000006044820152606490fd5b60405162461bcd60e51b8152602060048201526015602482015274092dcecc2d8d2c840e0eaf4f4d8ca40d8cadccee8d605b1b6044820152606490fd5b6103e89150111584611c60565b34610585576020366003190112610585576123a9613c27565b6123b16142de565b6001600160a01b031660008181527fe161abe49421bdbe04b54ee9f794dbf668947c663b3c53cbadb88cdd90c5027860205260409020547fc63907609c1c518c230a90524384edc1a25df2f21481ddb99bef5e2444c35ef0919060ff161561241557005b8160005260016020526040600020816000526020526040600020600160ff1982541617905533917f2f8788117e7eff1d82e926ec794901d17c78024a50270940304540a733656f0d600080a4005b3461058557600036600319011261058557602060ff600254166040519015158152f35b346105855760207f6a75d918a59da9597a749b7c707f23cfa76552074b43c68a24a21db1c45841f16124b736613bfb565b6124c29391936142de565b83600052600382526124e160ff600a6040600020015460101c16613c6d565b836000526003825280600460406000200155604051908152a2005b34610585576020366003190112610585576004356125186142de565b80600052600360205261253860ff600a6040600020015460101c16613c6d565b80600052600360205260ff600260406000200154166006811015610534576005036125c75760008181526003602052604081206002808201805460ff19169091179055600a810180546301000000600160b81b031916905560070180546001600160a01b03191690557fde24ae18b2bda089720ca38332df93ab6195d7b5b3b0981ccae6b33e0a6c3f9b9080a2005b60405162461bcd60e51b815260206004820152600c60248201526b139bdd08185c98da1a5d995960a21b6044820152606490fd5b3461058557606036600319011261058557600435612617613c11565b6044359081159081159384840361058557612630614402565b806000526020946003865261265260ff600a6040600020015460101c16613c6d565b8160005260038652604060002095600a870196875460ff81166003811015610534576001036128a057600282019860ff8a5416600681101561053457600361269a9114613de7565b85600052600a845260406000209660018060a01b0390818116988960005286526126c8604060002054613aab565b1561286557600c85019a8b54421161282057917f156934b37a6a765531ac9332a9cee7bfe0e5a00742dcd286b811de4751c9bb7c979593916040979593612750575b505050505084600052600a81528260002086600052815261272d83600020613f08565b82519182523390820152a361273e57005b815460ff191660021790915560009055005b61276461278a9260ff9560181c1615613ea1565b82546301000000600160b81b03191660189190911b6301000000600160b81b0316178255565b600482198d5416178c555460081c166127d0575b5085857ff7c67880b72ec988961e570ae4e849eb4fd9d5ba0ab550624ac429ef6d41880c600080a3898080808061270a565b80600461281a920154906127f46127106127ec600e5485613ef5565b0480936146c9565b906128038360011c80946146c9565b9161281360038301918254613dce565b90556146d6565b8961279e565b60405162461bcd60e51b815260048101889052601c60248201527f566572696669636174696f6e20646561646c696e6520706173736564000000006044820152606490fd5b60405162461bcd60e51b8152600481018790526013602482015272139bc81cdd589b5a5cdcda5bdb88199bdd5b99606a1b6044820152606490fd5b60405162461bcd60e51b81526004810184905260116024820152704e6f742061206d6174682070757a7a6c6560781b6044820152606490fd5b34610585576000366003190112610585576128f26142de565b60025460ff8116156129315760ff19166002557f5db9ee0a495bf2e6ff9c91a7834c1ba4fdd244a5e8aa4e537bd38aeae4b073aa6020604051338152a1005b60405162461bcd60e51b815260206004820152601460248201527314185d5cd8589b194e881b9bdd081c185d5cd95960621b6044820152606490fd5b346105855760603660031901126105855760043560443560243561298f6140c2565b80600052602091600383526129b160ff600a6040600020015460101c16613c6d565b83600052600b83526040600020544210612b115781600052600383526129e1600360406000200154821115613d8d565b6000828152600384526040902060058101549093906001600160a01b0390811680612a7557509060037f65c06e47d9e4fc8adbe172ef021cb72fea5990c1f513885e7131185ebbd5a83395612a4e60008080808960409b9a99600d54165af1612a48613e71565b50613e33565b01612a5a8382546146c9565b905585600052600b81526000848120558351928352820152a2005b600d5460405163a9059cbb60e01b815292166001600160a01b0316600483015260248201849052909392919081908590816000816044810103925af18015610480577f65c06e47d9e4fc8adbe172ef021cb72fea5990c1f513885e7131185ebbd5a83395612aef600392604097600091612af45750613e33565b612a4e565b612b0b9150853d87116104795761046b81836139f6565b8a612a48565b60405162461bcd60e51b8152600481018490526014602482015273151a5b595b1bd8dac81b9bdd08195e1c1a5c995960621b6044820152606490fd5b3461058557604036600319011261058557612b66613c11565b336001600160a01b03821603612b825761001b90600435614653565b60405162461bcd60e51b815260206004820152602f60248201527f416363657373436f6e74726f6c3a2063616e206f6e6c792072656e6f756e636560448201526e103937b632b9903337b91039b2b63360891b6064820152608490fd5b3461058557602036600319011261058557600435612bfb6142de565b8015612c0657601155005b60405162461bcd60e51b8152602060048201526014602482015273466565206d75737420626520706f73697469766560601b6044820152606490fd5b3461058557604036600319011261058557600435612c5e613c11565b90806000526003602052612c7f60ff600a6040600020015460101c16613c6d565b600052600a60205260406000209060018060a01b03166000526020526105e66105d26040600020613ae5565b3461058557604036600319011261058557600435612cc7613c11565b816000526001602052612ce1600160406000200154614548565b81600052600160205260406000209060018060a01b0316908160005260205260ff604060002054161561241557005b346105855760203660031901126105855760043560005260086020526020604060002054604051908152f35b34610585576000366003190112610585576020604051620151808152f35b3461058557602036600319011261058557600435600052600b6020526020604060002054604051908152f35b346105855760203660031901126105855760043560005260016020526020600160406000200154604051908152f35b346105855760003660031901126105855760206040517fbf233dd2aafeb4d50879c4aa5c81e96d92f6e6945c906a58f9f2d1c1631b4b268152f35b3461058557602036600319011261058557600435806000526003602052612e2460ff600a6040600020015460101c16613c6d565b80600052600360205260406000206002810180549160ff831690600682101561053457612e556003600c9314613de7565b01908154421115612e9457600260009360ff1916179055557f0b1ca659796b83b4f0a879a976bbb52e43e87049cfbf35ab5395901d2ecbab92600080a2005b60405162461bcd60e51b815260206004820152601760248201527f446561646c696e65206e6f7420796574207061737365640000000000000000006044820152606490fd5b346105855760003660031901126105855760206040517fc63907609c1c518c230a90524384edc1a25df2f21481ddb99bef5e2444c35ef08152f35b34610585576000366003190112610585576020601154604051908152f35b346105855760203660031901126105855760043560006101e0604051612f57816139bf565b606081528260208201528260408201528260608201528260808201528260a08201528260c08201528260e08201528261010082015282610120820152826101408201528261016082015282610180820152826101a082015260606101c08201520152806000526003602052612fd960ff600a6040600020015460101c16613c6d565b600052600360205260406000206005602052604060002054600660205260406000205491600860205260406000205460405191613015836139bf565b61301e81613ae5565b83526001810154602084015260ff600282015416906006821015610534576040840191909152600381015460608401526004810154608084015260058101546001600160a01b0390811660a08501526006820154811660c085015260078201541660e084015260088101546101008401526009810154610120840152600a810154600c91906130b460ff82166101408701613ddb565b600881901c60ff9081161515610160870152601082901c16151561018086015260181c6001600160a01b03166101a08501526130f2600b8201613ae5565b6101c085015201546101e0830152604051938493608085526101e0613205613128865161020060808a0152610280890190613bad565b602087015160a0890152613144604088015160c08a0190613bd2565b606087015160e0890152608087015161010089015260018060a01b0360a08801511661012089015260018060a01b0360c08801511661014089015260018060a01b0360e0880151166101608901526101008701516101808901526101208701516101a08901526131be6101408801516101c08a0190613bdf565b61016087015115158884015261018087015115156102008901526101a08701516001600160a01b03166102208901526101c0870151888203607f19016102408a0152613bad565b9401516102608601526020850152604084015260608301520390f35b346105855761322f36613bfb565b906132386140c2565b80600052600360205261325860ff600a6040600020015460101c16613c6d565b806000526003602052613275600360406000200154831115613d8d565b60405190602082018181524260408401523360601b60608401526054835260808301908382106001600160401b038311176107a657816040528351902093620151804201804211610cdb577ffdba3823f568cc62faf441257975029c3242942798f02799332eaee6318adc009460409460a09288600052600b602052866000205584520152a2005b3461058557604036600319011261058557600435613319613bec565b908060005260206003815261333b60ff600a6040600020015460101c16613c6d565b81600052600381526040600020600281019060ff82541660068110156105345760016133679114613d14565b8360005260048352604060002033600052835260ff604060002054166134a157600084815260048452604080822033835285529020805460ff199081166001179091557fe71fcdac32df1877c1700e7bda2a03157e20993363a28fc35ac495cefc76e4d493929186156134665785600052600584526133ee6103e860406000205410613d4e565b856000526005845260406000206134058154613d05565b9055856000526005845260086040600020549101541115613431575b50505b60405193151584523393a3005b8154166002179055827fb2f76656a4d5058a44d6f5fd1ebed95b7ef72920bbecf069fe3973f82c24351f600080a28480613421565b50505082600052600681526134836103e860406000205410613d4e565b8260005260068152604060002061349a8154613d05565b9055613424565b60405162461bcd60e51b815260048101849052600d60248201526c105b1c9958591e481d9bdd1959609a1b6044820152606490fd5b34610585576020366003190112610585576004356000526003602052604060002061350081613ae5565b6001820154600283015460ff16926003810154916004820154600160a01b6001900390816005850154168260068601541683600787015416600887015491600988015493600a89015495600b8a0161355790613ae5565b99600c01549a6040519d8e809e610200808352820161357591613bad565b9b602082015260400161358791613bd2565b60608d015260808c015260a08b015260c08a015260e08901526101008801526101208701526135bd610140870160ff8316613bdf565b8060081c60ff1615156101608701528060101c60ff16151561018087015260181c166101a08501528381036101c08501526135f791613bad565b906101e08301520390f35b61360b36613a79565b9061361461406c565b806000526020916003835261363660ff600a6040600020015460101c16613c6d565b816000526003835260ff60026040600020015416600681101561053457600461365f9114613caf565b80518015159081613934575b50156138f7578160005260038352604060002060078452604060002033600052845260ff604060002054166138bd578260005260088452603260406000205410156138805760115460058201549091906001600160a01b0316806137a7575081340361376257916137589161370660037f4a0952902e092af0d23149e043f8dd57e941b922b429dfe81a6b47af7253af039501918254613dce565b90555b836000526007855260406000203360005285526040600020600160ff19825416179055836000526008855260406000206137438154613d05565b90556040519182918683523396830190613bad565b0390a36001600055005b60405162461bcd60e51b815260048101869052601760248201527f496e636f7272656374206368616c6c656e6765206665650000000000000000006044820152606490fd5b6040516323b872dd60e01b815233600482015230602482015260448101849052908690829060649082906000905af190811561048057600091613863575b501561382757916137589161382060037f4a0952902e092af0d23149e043f8dd57e941b922b429dfe81a6b47af7253af039501918254613dce565b9055613709565b60405162461bcd60e51b815260048101869052601460248201527310da185b1b195b99d9481999594819985a5b195960621b6044820152606490fd5b61387a9150863d88116104795761046b81836139f6565b866137e5565b60405162461bcd60e51b815260048101859052601560248201527410da185b1b195b99d94818d85c081c995858da1959605a1b6044820152606490fd5b60405162461bcd60e51b8152600481018590526012602482015271105b1c9958591e4818da185b1b195b99d95960721b6044820152606490fd5b60405162461bcd60e51b8152600481018490526015602482015274092dcecc2d8d2c840e4cac2e6dedc40d8cadccee8d605b1b6044820152606490fd5b60c8915011158461366b565b346105855760203660031901126105855760043560005260056020526020604060002054604051908152f35b34610585576020366003190112610585576004359063ffffffff60e01b821680920361058557602091637965db0b60e01b81149081156139ae575b5015158152f35b6301ffc9a760e01b149050836139a7565b61020081019081106001600160401b038211176107a657604052565b608081019081106001600160401b038211176107a657604052565b90601f801991011681019081106001600160401b038211176107a657604052565b6001600160401b0381116107a657601f01601f191660200190565b81601f8201121561058557803590613a4982613a17565b92613a5760405194856139f6565b8284526020838301011161058557816000926020809301838601378301015290565b9060406003198301126105855760043591602435906001600160401b03821161058557613aa891600401613a32565b90565b90600182811c92168015613adb575b6020831014613ac557565b634e487b7160e01b600052602260045260246000fd5b91607f1691613aba565b90604051918260008254613af881613aab565b90818452602094600191600181169081600014613b685750600114613b29575b505050613b27925003836139f6565b565b600090815285812095935091905b818310613b50575050613b279350820101388080613b18565b85548884018501529485019487945091830191613b37565b92505050613b2794925060ff191682840152151560051b820101388080613b18565b60005b838110613b9d5750506000910152565b8181015183820152602001613b8d565b90602091613bc681518092818552858086019101613b8a565b601f01601f1916010190565b9060068210156105345752565b9060038210156105345752565b60243590811515820361058557565b6040906003190112610585576004359060243590565b602435906001600160a01b038216820361058557565b600435906001600160a01b038216820361058557565b9181601f84011215610585578235916001600160401b038311610585576020808501948460051b01011161058557565b15613c7457565b60405162461bcd60e51b815260206004820152601360248201527211d85b5948191bd95cc81b9bdd08195e1a5cdd606a1b6044820152606490fd5b15613cb657565b60405162461bcd60e51b815260206004820152600f60248201526e11d85b59481b9bdd081cdbdb1d9959608a1b6044820152606490fd5b90816020910312610585575180151581036105855790565b6000198114610cdb5760010190565b15613d1b57565b60405162461bcd60e51b815260206004820152600b60248201526a4e6f742070656e64696e6760a81b6044820152606490fd5b15613d5557565b60405162461bcd60e51b815260206004820152601060248201526f159bdd194818d85c081c995858da195960821b6044820152606490fd5b15613d9457565b60405162461bcd60e51b8152602060048201526012602482015271105b5bdd5b9d08195e18d959591cc81c1bdd60721b6044820152606490fd5b91908201809211610cdb57565b60038210156105345752565b15613dee57565b60405162461bcd60e51b815260206004820152601960248201527f4e6f74206177616974696e6720766572696669636174696f6e000000000000006044820152606490fd5b15613e3a57565b60405162461bcd60e51b815260206004820152600f60248201526e15da5d1a191c985dc819985a5b1959608a1b6044820152606490fd5b3d15613e9c573d90613e8282613a17565b91613e9060405193846139f6565b82523d6000602084013e565b606090565b15613ea857565b60405162461bcd60e51b815260206004820152600e60248201526d105b1c9958591e481cdbdb1d995960921b6044820152606490fd5b818110613ee9575050565b60008155600101613ede565b81810292918115918404141715610cdb57565b613f128154613aab565b9081613f1c575050565b81601f60009311600114613f2e575055565b908083918252613f4d601f60208420940160051c840160018501613ede565b5555565b15613f5857565b60405162461bcd60e51b815260206004820152600c60248201526b155b985d5d1a1bdc9a5e995960a21b6044820152606490fd5b15613f9357565b60405162461bcd60e51b815260206004820152600d60248201526c14185e5bdd5d0819985a5b1959609a1b6044820152606490fd5b15613fcf57565b60405162461bcd60e51b8152602060048201526011602482015270125b9d985b1a59081d1a1c995cda1bdb19607a1b6044820152606490fd5b91908110156140185760051b0190565b634e487b7160e01b600052603260045260246000fd5b1561403557565b60405162461bcd60e51b815260206004820152600f60248201526e111bdb985d1a5bdb8819985a5b1959608a1b6044820152606490fd5b60026000541461407d576002600055565b60405162461bcd60e51b815260206004820152601f60248201527f5265656e7472616e637947756172643a207265656e7472616e742063616c6c006044820152606490fd5b3360009081527f1614b4e5e0f135c54873c4dcd295a7b40f93a8d877405affc188cfd7b4f40ed2602090815260408083205490927fbf233dd2aafeb4d50879c4aa5c81e96d92f6e6945c906a58f9f2d1c1631b4b269160019060ff161561412a575050505050565b61413333614938565b92855191614140836139db565b604283528583019360603686378351156142ca57603085538351600110156142ca5790607860218501536041915b81831161425c5750505061421a5760486142169386936141fa936141eb985198899376020b1b1b2b9b9a1b7b73a3937b61d1030b1b1b7bab73a1604d1b8a8601526141c2815180928c603789019101613b8a565b8401917001034b99036b4b9b9b4b733903937b6329607d1b603784015251809386840190613b8a565b010360288101875201856139f6565b5192839262461bcd60e51b845260048401526024830190613bad565b0390fd5b60648486519062461bcd60e51b825280600483015260248201527f537472696e67733a20686578206c656e67746820696e73756666696369656e746044820152fd5b909192600f811660108110156142b6576f181899199a1a9b1b9c1cb0b131b232b360811b901a61428c8587614927565b5360041c9280156142a25760001901919061416e565b634e487b7160e01b82526011600452602482fd5b634e487b7160e01b83526032600452602483fd5b634e487b7160e01b81526032600452602490fd5b3360009081527fa6eef7e35abe7026729641147f7915573c7e97b47efa546f5f6e3230263bcb496020908152604080832054909260019160ff16156143235750505050565b61432c33614938565b918185519161433a836139db565b604283528583019360603686378351156142ca57603085538351600110156142ca5790607860218501536041915b8183116143bc5750505061421a5760486142169386936141fa936141eb985198899376020b1b1b2b9b9a1b7b73a3937b61d1030b1b1b7bab73a1604d1b8a8601526141c2815180928c603789019101613b8a565b909192600f811660108110156142b6576f181899199a1a9b1b9c1cb0b131b232b360811b901a6143ec8587614927565b5360041c9280156142a257600019019190614368565b3360009081527fe161abe49421bdbe04b54ee9f794dbf668947c663b3c53cbadb88cdd90c50278602090815260408083205490927fc63907609c1c518c230a90524384edc1a25df2f21481ddb99bef5e2444c35ef09160019060ff161561446a575050505050565b61447333614938565b92855191614480836139db565b604283528583019360603686378351156142ca57603085538351600110156142ca5790607860218501536041915b8183116145025750505061421a5760486142169386936141fa936141eb985198899376020b1b1b2b9b9a1b7b73a3937b61d1030b1b1b7bab73a1604d1b8a8601526141c2815180928c603789019101613b8a565b909192600f811660108110156142b6576f181899199a1a9b1b9c1cb0b131b232b360811b901a6145328587614927565b5360041c9280156142a2576000190191906144ae565b600081815260019160209160018352604093848220338352845260ff858320541615614575575050505050565b61457e33614938565b9285519161458b836139db565b604283528583019360603686378351156142ca57603085538351600110156142ca5790607860218501536041915b81831161460d5750505061421a5760486142169386936141fa936141eb985198899376020b1b1b2b9b9a1b7b73a3937b61d1030b1b1b7bab73a1604d1b8a8601526141c2815180928c603789019101613b8a565b909192600f811660108110156142b6576f181899199a1a9b1b9c1cb0b131b232b360811b901a61463d8587614927565b5360041c9280156142a2576000190191906145b9565b906000918083526001602052604083209160018060a01b03169182845260205260ff60408420541661468457505050565b8083526001602052604083208284526020526040832060ff1981541690557ff6391f5c32d9c69d2a47ea670b442974b53935d1edc7fd64eb21e047a839171b339380a4565b91908203918211610cdb57565b6005810180549193926001600160a01b039290919083168061477857505060069060009383859493858080808098978198600d54165af197614716613e71565b500154165af1614724613e71565b5081614770575b501561473357565b60405162461bcd60e51b815260206004820152601560248201527414da185c99481d1c985b9cd9995c8819985a5b1959605a1b6044820152606490fd5b90503861472b565b600d546040805163a9059cbb60e01b8082529287166001600160a01b0316600482015260248101959095526020979096929592949093919291908881806044810103816000809b5af19081156148d95787916148bc575b5015614883575460069390930154865192835281166001600160a01b031660048301526024820193909352918591839160449183918791165af1918215614878579161485b575b5015614820575050565b60649250519062461bcd60e51b825260048201526015602482015274141c9bdc1bdcd95c881cda185c994819985a5b1959605a1b6044820152fd5b6148729150833d85116104795761046b81836139f6565b38614816565b8351903d90823e3d90fd5b865162461bcd60e51b8152600481018990526012602482015271121bdd5cd9481cda185c994819985a5b195960721b6044820152606490fd5b6148d39150893d8b116104795761046b81836139f6565b386147cf565b88513d89823e3d90fd5b60ff600254166148ef57565b60405162461bcd60e51b815260206004820152601060248201526f14185d5cd8589b194e881c185d5cd95960821b6044820152606490fd5b908151811015614018570160200190565b60405190606082018281106001600160401b038211176107a657604052602a8252602082016040368237825115614018576030905381516001906001101561401857607860218401536029905b8082116149d95750506149955790565b606460405162461bcd60e51b815260206004820152602060248201527f537472696e67733a20686578206c656e67746820696e73756666696369656e746044820152fd5b9091600f81166010811015614a32576f181899199a1a9b1b9c1cb0b131b232b360811b901a614a088486614927565b5360041c918015614a1d576000190190614985565b60246000634e487b7160e01b81526011600452fd5b60246000634e487b7160e01b81526032600452fdfea2646970667358221220dfb9ee7f7ae7158e6b0a698e3999f9c6750f50b6516d3e1bb2a9f21856d923ad64736f6c634300081800332f8788117e7eff1d82e926ec794901d17c78024a50270940304540a733656f0d",
  "linkReferences": {},
  "deployedLinkReferences": {}
}